:020000040800F2
:10000000600500209D010008A5010008A701000867
:10001000A9010008AB010008AD01000800000000C4
:10002000000000000000000000000000AF01000818
:10003000B101000800000000B30100082913000806
:10004000B7010008B7010008B7010008B7010008B0
:10005000B7010008B7010008B7010008B7010008A0
:10006000B7010008B7010008B7010008B701000890
:10007000B7010008B7010008B7010008B701000880
:10008000B7010008B7010008B7010008B701000870
:10009000B7010008B7010008B7010008B701000860
:1000A000B7010008B7010008B7010008B701000850
:1000B000B7010008B7010008B7010008B701000840
:1000C000B7010008B7010008B7010008B701000830
:1000D000B701000899100008B7010008B70100082F
:1000E000B7010008B7010008B7010008B701000810
:1000F000B7010008B7010008B7010008B701000800
:10010000B7010008B7010008B7010008B7010008EF
:10011000B7010008B7010008B7010008B7010008DF
:10012000B7010008B7010008B7010008B7010008CF
:10013000B7010008B7010008B7010008B7010008BF
:10014000B7010008B7010008B7010008B7010008AF
:10015000B7010008B7010008B7010008B70100089F
:10016000B7010008B7010008B7010008B70100088F
:10017000B7010008B7010008B7010008B70100087F
:10018000B7010008B7010008DFF80CD001F0A6F9AC
:1001900000480047E10F000860050020064880473E
:1001A00006480047FEE7FEE7FEE7FEE7FEE7FEE75C
:1001B000FEE7FEE7FEE7FEE70312000889010008FC
:1001C00033490143334A1160704770B50021002361
:1001D0000F22C47824B32F4C246804F4E064C4F5DF
:1001E000E064C4F30721C1F10404E3B20A41447896
:1001F0009C40E1B28478144021430C07210E264C28
:1002000005786155047804F01F050124AC40057899
:100210006D114FF0E02606EB8505C5F8004109E0B9
:10022000047804F01F040125A5401C4C06787611C3
:1002300044F8265070BD1A4A0A400243154B1B1F52
:100240001A60704739B1134A121D12680243114BEC
:100250001B1D1A6006E00F4A121D126882430D4BE7
:100260001B1D1A607047042808D14FF0E02109696E
:1002700041F004014FF0E022116107E04FF0E0216E
:10028000096921F004014FF0E0221161704700007C
:100290000000FA050CED00E000E400E080E100E081
:1002A00080FFFF1F10B504468C48844208D101210D
:1002B000084600F00EFD0021012000F00AFD5EE07E
:1002C0008748844208D10121022000F002FD00216C
:1002D000022000F0FEFC52E08248844208D1012155
:1002E000042000F0F6FC0021042000F0F2FC46E0BF
:1002F0007D48844208D10121082000F0EAFC002159
:10030000082000F0E6FC3AE07848844208D1012158
:10031000102000F0DEFC0021102000F0DAFC2EE0BE
:100320007348844208D10121202000F0D2FC002132
:10033000202000F0CEFC22E06E48844208D101214A
:10034000402000F0C6FC0021402000F0C2FC16E076
:100350006948844208D10121802000F0BAFC0021C4
:10036000802000F0B6FC0AE06448844207D10121F5
:10037000801500F0AEFC0021A01500F0AAFC10BD15
:10038000F0B50A4600210023002400BF3DE001250E
:1003900005FA01F3156805EA03049C4234D10568A7
:1003A0004F000326BE40B543056015794E00B540A9
:1003B0000668354305601579012D02D01579022DA7
:1003C00016D185684F000326BE40B5438560557938
:1003D0004E00B540866835438560456801268E40ED
:1003E000B5434560456896798E40B6B23543456061
:1003F000C5684F000326BE40B543C560D5794E00A1
:10040000B540C6683543C560491C1029BFD3F0BD4F
:100410004FF6FF7101600021017141718171C1715D
:10042000704708B54FF480320092009A0A43009258
:10043000009AC261C161009AC261C2690092C26938
:10044000009208BD0246002013690B4201D0012032
:1004500000E0002070470146086980B270470246FC
:10046000002053690B4201D0012000E000207047BA
:100470000146486980B270470183704741837047E5
:100480000AB1018300E041837047416170474269CE
:100490004A4042617047F0B5002300244D07ED0E3D
:1004A00002FA05F3CE1000F1200555F826504E074C
:1004B000F70E0F26BE40B543CF1000F1200646F8D8
:1004C0002750CE1000F1200555F8265045EA0304C8
:1004D000CE1000F1200545F82640F0BD0000024096
:1004E0000004024000080240000C024000100240DC
:1004F0000014024000180240001C0240002002408C
:1005000010B50446F748844208D10121102000F0BC
:1005100037FC0021102000F033FC3EE0F24884421A
:1005200009D10121480400F01AFC00214FF40030E9
:1005300000F015FC31E0ED48844209D10121880426
:1005400000F00DFC00214FF4802000F008FC24E0B6
:10055000E748844209D10121C80400F000FC0021D1
:100560004FF4002000F0FBFB17E0E248844209D181
:100570000121080500F0F3FB00214FF4801000F08A
:10058000EEFB0AE0DC48844207D10121202000F084
:10059000F7FB0021202000F0F3FB10BD2DE9FF4701
:1005A00005460E460024A14600BFA046B08900B112
:1005B00000BF2C8A24F44054F08804432C82AC8978
:1005C00041F20C608443B088318908437189084343
:1005D0000443AC81AC8A24F44074B0890443AC82F7
:1005E000684600F08CFABF48854202D0C248854276
:1005F00002D1DDF80C9001E0DDF80890A88910F434
:10060000004F08D009EBC90000EB09103168490020
:10061000B0FBF1F707E009EBC90000EB0910316806
:100620008900B0FBF1F76420B7FBF0F0040120096A
:10063000642101FB1078A88910F4004F08D0322003
:1006400000EBC800B0FBF1F000F00700044308E045
:10065000322000EB08106421B0FBF1F000F00F0035
:1006600004432C81BDE8FF874FF41651016000213F
:100670008180C18001810C214181002181817047ED
:1006800010B502460020108A20F470600B884C8858
:1006900023438C882343CC8823431843108210BD06
:1006A0000021018041808180C180704721B1828911
:1006B00042F40052828104E082894DF6FF731A40B1
:1006C00082817047028B02F47F420283028B0A43CD
:1006D0000283704721B1828942F40042828103E0A3
:1006E0008289C2F30E028281704721B1828A42F46C
:1006F0000062828204E0828A4FF2FF731A40828293
:100700007047C1F308028280704701468888C0F3B1
:1007100008007047028A4FF6F0731A400282028A7C
:100720000A430282704721B1828942F0020282812B
:1007300004E082894FF6FD731A40828170478289F6
:100740004FF2FF731A40828182890A438281704787
:10075000028A4FF6DF731A400282028A0A4302823B
:10076000704721B1028A42F48042028204E0028A88
:100770004BF6FF731A4002827047818941F00101F4
:100780008181704721B1828A42F00802828204E0AE
:10079000828A4FF6F7731A4082827047028BD2B278
:1007A0000283028B42EA01220283704721B1828ACE
:1007B00042F02002828204E0828A4FF6DF731A4000
:1007C0008282704721B1828A42F01002828204E064
:1007D000828A4FF6EF731A4082827047828A4FF600
:1007E000FB731A408282828A0A438282704721B157
:1007F000828A42F00202828204E0828A4FF6FD730E
:100800001A40828270471AB1838A0B43838202E0C6
:10081000838A8B4383827047F0B503460024002609
:1008200000250020A1F510676A3F00D100BF1846DF
:10083000C1F3421401F01F06012707FA06F5012C47
:1008400001D10C3004E0022C01D1103000E0143052
:100850001AB107682F43076002E00768AF430760DB
:10086000F0BD02460020B1F5007F00D100BF138823
:100870000B4201D0012000E00020704701F400721B
:10088000B2F5007F00D100BFCA430280704770B547
:1008900002460024002300250020A1F510666A3ED0
:1008A00000D100BFC1F3421501F01F03012606FA73
:1008B00003F3012D02D19689334006E0022D02D1C7
:1008C000168A334001E0968A33400C12012606FA5C
:1008D00004F41688344013B10CB1012000E000206C
:1008E00070BD00000010014000440040004800407E
:1008F000004C0040005000400014014010B50022A0
:100900000023A1F510646A3C00D100BF0A12012443
:100910009440A3B2DC43048010BD0000FA48006894
:1009200040F00100F84908600020F74908310860EC
:10093000F5480068F5490840F3490860F448091D86
:100940000860081F006820F48020091F086000204C
:10095000ED490C31086070470021EB4A921C117080
:1009600011460870704710B5014600220023002090
:100970004A11012A02D1E44C236808E0022A03D17B
:10098000E14C7034236802E0DF4C7434236801F0DA
:100990001F02012494401C4201D0012000E00020ED
:1009A00010BD38B5002000900024002500BF312084
:1009B000FFF7D9FF05460098401C00900098B0F55D
:1009C000A06F01D0002DF2D03120FFF7CCFF08B18D
:1009D000012400E00024204638BD01460020CA4A18
:1009E000106820F0F80040EAC10010607047C94963
:1009F000086070470021C44A7032117011700128DC
:100A000002D004280AD104E00121BF4A70321170DB
:100A100005E00521BC4A7032117000E000BF00BF44
:100A20007047BD490860704770B5049C41EA821563
:100A30000126C6EB530645EA0645054345EA04652B
:100A4000B14E361D356070BDB249086670478201EF
:100A500042EA0172AC4B84331A607047AD49886634
:100A60007047AC49C864704702460020A64B083363
:100A7000186820F0EC6042EA01031843A24B0833E7
:100A800018607047024600209F4B0833186820F01A
:100A9000784042EA010318439B4B083318607047C3
:100AA00001460020984A0832106820F003000843ED
:100AB0001060704794480830006800F00C007047E0
:100AC00001460020904A0832106820F0F0000843E8
:100AD00010607047014600208B4A0832106820F4ED
:100AE000E05008431060704701460020864A0832F3
:100AF000106820F4604040EAC10010607047F0B513
:100B00000021002200240225002602237E4F083700
:100B10003F6807F00C0121B1042905D0082937D11D
:100B200005E07E4F076036E07D4F076033E0764F8B
:100B30003F1D3F68C7F38056734F3F1D3F6807F066
:100B40003F036EB1764FB7FBF3F7DFF8BCC10CF192
:100B5000040CDCF800C0CCF3881C07FB0CF40CE0A0
:100B60006E4FB7FBF3F7DFF8A0C10CF1040CDCF813
:100B700000C0CCF3881C07FB0CF4634F3F1D3F689B
:100B8000C7F301477F1C7D00B4FBF5F7076002E067
:100B9000624F076000BF00BF5B4F08373F6807F038
:100BA000F00109095F4F7A5C0768D7404760564FEC
:100BB00008373F6807F4E051890A5A4F7A5C476862
:100BC000D7408760504F08373F6807F46041490BB2
:100BD000544F7A5C4768D740C760F0BD002100F4ED
:100BE0004072B2F5407F0AD1474A0832116821F4B9
:100BF000F8114D4A02401143434A08321160424AFB
:100C000070321268C0F30B031A433F4B70331A6003
:100C1000704741494439086070473F49403908608E
:100C2000704742490860704739B1374A303212681C
:100C30000243354B30331A6006E0334A30321268D3
:100C40008243314B30331A60704739B12E4A343207
:100C5000126802432C4B34331A6006E02A4A3432BD
:100C600012688243284B34331A60704739B1264AE0
:100C7000383212680243244B38331A6006E0224AA5
:100C8000383212688243204B38331A60704739B1CA
:100C90001D4A4032126802431B4B40331A6006E083
:100CA000194A403212688243174B40331A6070472A
:100CB00039B1154A443212680243134B44331A6067
:100CC00006E0114A4432126882430F4B44331A60E3
:100CD000704739B10C4A1032126802430A4B103384
:100CE0001A6006E0084A103212688243064B10333D
:100CF0001A607047E1B1044A143212680243024B91
:100D000014331A6019E0000000380240FFFFF6FEBD
:100D10001030002400004742800E47420024F400B7
:100D200000127A0000000020FFFCFF0F5C01474228
:100D30005B4A126882435A4B1A60704739B1584A6D
:100D4000121D12680243564B1B1D1A6006E0544ADE
:100D5000121D12688243524B1B1D1A60704739B135
:100D60004F4A0C32126802434D4B0C331A6006E0B6
:100D70004B4A0C3212688243494B0C331A6070475D
:100D800039B1474A103212680243454B10331A609A
:100D900006E0434A103212688243414B10331A6016
:100DA000704739B13E4A3C32126802433C4B3C33F7
:100DB0001A6006E03A4A3C3212688243384B3C33B0
:100DC0001A60704739B1364A403212680243344BD8
:100DD00040331A6006E0324A403212688243304B98
:100DE00040331A60704739B12D4A443212680243C9
:100DF0002B4B44331A6006E0294A4432126882437E
:100E0000274B44331A60704739B1254A4C32126877
:100E10000243234B4C331A6006E0214A4C321268DD
:100E200082431F4B4C331A60704739B11C4A503211
:100E3000126802431A4B50331A6006E0184A5032C7
:100E400012688243164B50331A60704739B1144A06
:100E5000D21F12780243124BDB1F1A7006E0104AB1
:100E6000D21F127882430E4BDB1F1A7070470C485A
:100E70006030006840F08070094960310860704758
:100E800001460020064A083A12680A4201D00120B1
:100E900000E0002070470249891F08707047000079
:100EA0001438024070B505460C460AE000BF288899
:100EB00010F0400FFBD021782846FFF722FC14F8F1
:100EC000010B20780028F1D170BD10B500BF402182
:100ED0008548FFF7C6FC0028F9D08348FFF715FCCA
:100EE0000446204610BD01B500BF0098411E009188
:100EF0000028FAD108BD7D48406980F400407B4954
:100F0000486170474FF4004078490883704710B536
:100F100088B0044601211020FFF7CAFE01210220FB
:100F2000FFF782FEC020069002208DF81C008DF88D
:100F30001D0000208DF81E008DF81F0006A96C48CA
:100F4000FFF71EFA072206216948FFF7A4FA0722D5
:100F500011466748FFF79FFA02940020ADF80C0095
:100F6000ADF80E00ADF81000ADF814000C20ADF88F
:100F7000120002A95C48FFF711FB012240F2255143
:100F80005948FFF749FC25208DF8040000208DF812
:100F900005008DF8060001208DF8070001A8FFF775
:100FA00014F901215048FFF781FB08B010BD1CB5B2
:100FB00001210846FFF738FE4FF400400090012061
:100FC0008DF8040000208DF8060001208DF8070040
:100FD00002208DF8050069464448FFF7D1F91CBD91
:100FE0007CB544A103C9CDE900010126FFF7DFFF6D
:100FF0004FF41650FFF78BFF00F014FA00F0FAF9E7
:10100000FFF780FFFFF777FF1AE03848006910F01C
:10101000010F05D039A13448FFF744FF00F01CFA56
:1010200042F21070FFF75FFFFFF74FFF84B224B169
:1010300029462D48FFF736FF01E000F03DFA002574
:10104000002EE2D100207CBD70B504460D460BE0B9
:1010500000BF80212448FFF704FC0028F9D014F8D1
:10106000011B2148FFF74DFB2800A5F10105EFD139
:1010700070BD10B504460BE021781B48FFF741FB1B
:10108000641C00BF40211848FFF7EBFB0028F9D093
:1010900020780028F0D110BD10B540F2255112483B
:1010A000FFF7F5FBB0B110498988C8B26E280DD0A2
:1010B0001A490978142909DA1949184A1278885402
:1010C00016490978491C154A117002E00021134A9B
:1010D000117000BF10BD1348006820B111480068AE
:1010E000401E104908607047001001400000024097
:1010F0000004024074726F69206F690074726F6936
:10110000206F6920312032203320342035203620D2
:1011100037203820392031300A000000100000202C
:101120004C000020140000200CB50020019000901D
:101130007248006840F480307049086000BF6F4812
:10114000006800F4003000900198401C0190009865
:1011500018B90198B0F5A06FF1D16848006810F493
:10116000003F02D00120009001E000200090009894
:10117000012845D161484030006840F080505F4907
:10118000403108605E48006840F480405C49086077
:101190005A48083000685949083108600846006814
:1011A00040F4004008600846006840F4A050086021
:1011B0005448091F0860081F006840F08070091F2C
:1011C000086000BF4D48006810F0007FFAD040F280
:1011D00005604D49086049480830006820F0030068
:1011E0004649083108600846006840F0020008607F
:1011F00000BF42480830006800F00C000828F8D111
:101200000CBD10B53D48006840F001003B49086046
:1012100000203A4908310860384800683B490840D6
:10122000364908603A48091D0860081F006820F424
:101230008020091F0860002030490C310860FFF74A
:1012400073FF4FF000603349086010BD70B5002097
:101250000022022300240221284D08352D6805F0C4
:101260000C0020B1042806D0082834D107E02A4D0C
:101270002A4E356033E02A4D284E35602FE01F4D51
:101280002D1D2D68C5F380541C4D2D1D2D6805F0B6
:101290003F0154B1224DB5FBF1F5184E361D3668AD
:1012A000C6F3881605FB06F209E01B4DB5FBF1F508
:1012B000124E361D3668C6F3881605FB06F20F4D32
:1012C0002D1D2D68C5F301456D1C6B00B2FBF3F5B8
:1012D000124E356003E0104D104E356000BF00BF68
:1012E000064D08352D68C5F303150E4E705D0B4D88
:1012F0002D68C540094E356070BD000000380240C1
:101300000070004008544007003C0240FFFFF6FE1A
:101310001030002408ED00E00024F4001800002044
:1013200000127A001C00002010B52E4803684068A7
:101330005A1C40F100002B490A604860FFF7CBFEC1
:1013400010BD30B5284800684FF47A72B0FBF2F156
:10135000481EB0F1807F01D301201BE0481E4FF0F2
:10136000E022506150170F22002807DA13071D0EE4
:101370001E4B00F00F04241F1D5503E013071C0E25
:101380001B4B1C5400BF00204FF0E022906107204F
:101390001061002008B100BFFEE730BD11490868A8
:1013A00049687047F0B504460D46FFF7F7FF06465B
:1013B0000F46A01B75EB070008D2A11845EB0300F0
:1013C000711A77EB00000AD30120F0BDA11845EB9C
:1013D0000300711A77EB000001D30120F5E700202C
:1013E000F3E70000300000201800002018ED00E0B6
:1013F00000E400E010B501210846FFF715FC0120CC
:101400000649086000200871887103204871022095
:10141000C8710348FEF7B4FF10BD00003C00002077
:101420000000024010B501210820FFF7FDFB4FF43A
:10143000704007490860012008710020887103206E
:1014400048710020C8710348FEF79AFF10BD0000E4
:1014500044000020000C024010B54FF480511E489B
:10146000FEF7FDFFC0F10100C4B222464FF48051E7
:101470001948FFF705F810BD10B54FF40051164894
:10148000FEF7EDFFC0F10100C4B222464FF4005157
:101490001148FEF7F5FF10BD10B54FF480410E481E
:1014A000FEF7DDFFC0F10100C4B222464FF48041D7
:1014B0000948FEF7E5FF10BD10B54FF4004106489E
:1014C000FEF7CDFFC0F10100C4B222464FF4004147
:1014D0000148FEF7D5FF10BD000C0240064C074D39
:1014E00006E0E06840F0010394E8070098471034F4
:1014F000AC42F6D3FEF74CFE20150008401500085C
:1015000002E008C8121F08C1002AFAD170477047CC
:10151000002001E001C1121F002AFBD1704700002A
:1015200040150008000000204C00000000150008D5
:101530008C1500084C000020140500001015000850
:101540000000000001020304010203040607080969
:101550000000000000000000007A030A0000000004
:101560000000000001020304060708090000000053
:10157000000000000000000000000000000000006B
:0C1580000000000000000000000000005F
:040000050800018965
:00000001FF
