:020000000C945E
:1000020055000C9400000C9400000C9400000C9419
:1000120000000C9400000C9400000C9400000C945E
:1000220000000C9400000C9400000C943C010C9411
:10003200AB010C9400000C942E010C9400000C9463
:1000420000000C942D020C948D000C9400000C9472
:10005200DB000C9400000C9400000C9400000C9443
:1000620000000C9400001027E80364000A0001005D
:100072000010000110000100010203040507060040
:1000820008090A0B0C0D0E0F171615141312111076
:10009200181F1E1D1C1B1A191600200000037A00CF
:1000A2000100B2079A000000F894EE27EFBBF1E0DE
:1000B200F5BFE5BFF8E1A895A4B7A77FA4BFF09369
:1000C2006000E09360008DE0A2E0BB27ED938A958B
:1000D200E9F780E098E0A0E0B1E0ED930197E9F75D
:1000E200ECE9F0E085919591009761F0A591B591C9
:1000F20005901590BF01F00105900D920197E1F76F
:10010200FB01F0CFE0E0EEBBEFEFEDBFE8E0EEBFCA
:10011200C0E0D3E00C9431020E94FF061A930A93C6
:100122001091C0000091C6000E940607ECE1F0E0C9
:10013200EA23FB233097E1F4E32DF42DE951FB4F41
:100142000083E32DF42D31963E2E4F2EE030A1E0B8
:10015200FA0711F433244424E72DF82D31967E2E2C
:100162008F2EE030A1E0FA0719F477248824F09A60
:10017200099119910C9426021A93072C0828E9F385
:10018200A7EEB4E0A50DB61D1C91E52DF62D319616
:100192005E2E6F2EE030A1E0FA0711F4552466249A
:1001A200F894E72DF82D31977E2E8F2E7894E12F3B
:1001B2000C94D6050A92AA93BA93EA93FA93EFB7EC
:1001C200EA930D2C0E28B9F0ED2DFE2D3197DE2E7F
:1001D200EF2EA7EEB5E0AB0DBC1DEC91E093C6008F
:1001E200EB2DFC2D3196BE2ECF2EE030A1E0FA078A
:1001F20011F4BB24CC24E991EFBFF991E991B991B3
:10020200A99109901895E0E0F1E0ED15FE05D9F30A
:10021200F8940D2C0E2829F4E091C000F0E0E07271
:10022200B1F4E92DFA2DE951FA4FA881A083E92D05
:10023200FA2D31969E2EAF2EE030A1E0FA0711F48E
:100242009924AA24E1E0F0E0DE0EEF1E03C0E8816B
:10025200E093C600789421960895EA93EFB7EA9363
:10026200E091E604EF5FE093E604E0E0E6BDE991A9
:10027200EFBFE9911895EA93FA93EFB7EA930E94D8
:100282000907E05EFC4FE081EEBD000000000000C7
:10029200000000000000000000000000000000005C
:1002A20000000000000000000000299A29980E9426
:1002B2000907EF5BFC4FE081EEBD0000000000008B
:1002C200000000000000000000000000000000002C
:1002D200000000000000000000002A9A2A980E94F4
:1002E2000907EE59FC4FE081EEBD0000000000005E
:1002F20000000000000000000000000000000000FC
:10030200000000000000000000005E9A5E980E945B
:100312000907ED57FC4FE081EEBD00000000000030
:1003220000000000000000000000000000000000CB
:10033200000000000000000000005F9A5F98F19842
:10034200E0E0E0938500E0938400E991EFBFF9914A
:10035200E99118950E94FF060E940D07E05EFC4F8E
:10036200E081EEBD0000000000000000000000007F
:10037200000000000000000000000000000000007B
:1003820000000000299A29980E940D07EF5BFC4F9C
:10039200E081EEBD0000000000000000000000004F
:1003A200000000000000000000000000000000004B
:1003B200000000002A9A2A980E940D07EE59FC4F6D
:1003C200E081EEBD0000000000000000000000001F
:1003D200000000000000000000000000000000001B
:1003E200000000005E9A5E980E940D07ED57FC4FD8
:1003F200E081EEBD000000000000000000000000EF
:1004020000000000000000000000000000000000EA
:10041200000000005F9A5F98E091A503EF5FE09310
:10042200A503E091A403A091A503EA1721F4F19A90
:10043200E0E0E093A5030E941107EF2FF0E0E093C4
:100442008B000E941107E0938A00E991EFBFF991B6
:10045200E991B991A99118951A931EB51991189518
:10046200E0E0E093EB06F298F398F198F49A98D1D1
:100472000E948004E9B1F0E0E871F0700E9439084E
:10048200EA930E943F04F49B8CC00E941D07E6354C
:10049200A0E0FA0769F50E941D07E134A0E0FA071F
:1004A20011F4E0E011C0E234A0E0FA0711F4E1E057
:1004B2000BC0E334A0E0FA0711F4E2E005C0E43433
:1004C200A0E0FA0741F4E3E0EA930E946604E093B5
:1004D200B007F093B107E091B107EA930E940401DB
:1004E200E091B007F091B107EA930E94040159C06C
:1004F200E335A0E0FA0761F40E94BD00E093E7064D
:10050200E03019F00E94CD0402C00E94D00449C01C
:10051200E332A0E0FA07B9F5EBB1F0E0A4E0B0E015
:10052200EA27FB27EBB90E94BD00E093E8060E9490
:10053200BD00E093E9060E94BD00E093EA06A091A7
:10054200EB06B0E0A451B94FE091E806F0E0E050CC
:10055200FD4FE081EC93E091EB060E942307EA0F46
:10056200FB1F0F01A091EA06BB27F091E906E0E02C
:10057200EA0FFB1FD001ED93FC93E091EB06EF5FD6
:10058200E093EB060EC0E435A0E0FA0751F40E94B6
:10059200BD00E093E706F498E03011F4F29A01C04E
:1005A200F39AF29B21C0E0E0E093AC070E94290796
:1005B20088F40E942F07EA930E9436070E943907A7
:1005C200FA93EA93E091AC07EA930E94D8050E945D
:1005D2003E07ECCFF19BFECF0E94E504E0E0E09302
:1005E200EB06F49AF298F198F39BD8C0E0E0E0931E
:1005F200AC070E942907A0F50E942F070E9444071A
:100602000E944C070E943907E015F10588F40E9408
:100612005107E45BF84FBF010E9455070E944C0747
:100622000E9439070E945D07E459F84FA0E014C008
:100632000E945107E45BF84FBF010E943607AE0FDC
:10064200BF1F0D901C900E9455070E9439070E94FF
:100652005D07E459F84FA1E0A0830E943E07C9CF8D
:10066200ECE4F7E0FA93EA93E091EB06EA930E9456
:10067200D106E093AF07E0E0E093AC070E942907C0
:10068200A8F40E9451070F01E457F84FBF01A0914F
:10069200AF07BB27F001E45BF84F0E9467070E9497
:1006A2006708DB01EC930E943E07E8CFE0E0E093AD
:1006B200AC07E091AF07A091AC07AE1710F00C9415
:1006C200CA03E0E0E093AD07E091EB06A091AD072D
:1006D200AE1710F00C94BE03A091AC07BB270E948A
:1006E2006A07E457F84F0E9467070E946C08309728
:1006F20039F40E946A07E45BF84FE081E13008F4C4
:1007020036C0A091AD07B0E0A45BB84FEC91E150C8
:10071200EC930E946A07E451F94FE0810E9444077A
:10072200EA0FFB1F0F01DF010E948808DF010E9410
:100732006A07E459F84F0E946707309719F0E9E118
:10074200F0E002C0E7EEFFEFEA0FFB1FD001ED93EE
:10075200FC93E091AE07EA930E9455070E94390785
:10076200FA93EA93E091AD07EA930E94D805E091EB
:10077200AD07EF5FE093AD07A7CFF19BFECF0E94DD
:10078200E504F198E3E0EA930E94F0060E943E0736
:1007920090CFE0E0E093EB06F49AF39874CEFFCFAB
:1007A200E0E8E0936100E0E0E0936100E5B9EEE3A8
:1007B200E4B9E0E0E8B9EFEFE7B9E8E1EBB9E4EC7E
:1007C200EAB9E0E0E4BDE5BDE6BDE0E9E7BDE0E0B1
:1007D200E8BDE0938000E0938100E0938200E09323
:1007E2008700E0938600E0E9E0938900E0E0E0938F
:1007F2008800EAE0E0938B00EDECE0938A00E0E011
:10080200E093B600E093B000E093B100E093B20051
:10081200E093B300E093B400E0936900EDBBE09392
:100822006800E2E0E0936E00E6E0E0936F00E0E053
:10083200E0937000E093C000E8EDE093C100E6E0D1
:10084200E093C200E0E0E093C500EFE5E093C4006E
:10085200E0E8E0BFE0E0E0937B00EFE0E0937E00C1
:10086200E0E0E0937C00E7E8E0937A00E0E5ECBDAD
:10087200E1E0EDBDEDB5EEB578940895E881F0E0E4
:10088200309729F4E0E0E093C500E7E01AC0E130D8
:10089200A0E0FA0729F4E0E0E093C500E7E111C027
:1008A200E230A0E0FA0729F4E0E0E093C500EFE5CA
:1008B20008C0E330A0E0FA0731F4E1E0E093C500BC
:1008C200EFE7E093C4000C94FD06E881F0E0E093CA
:1008D2007C0081E38A95F1F70E946E07E064EC9355
:1008E200E0917A00F0E0E071D9F30E946E07E061D6
:1008F200EC93E0917800F09179000C94FD061A9344
:100902000A930E947307ACECBAE0AE1BBF0BA09334
:100912002604B0932704EFEFFFEF6FEF7FEFE09332
:10092200A603F093A7036093A8037093A903ECEDC9
:10093200F5E0E0936604F093670400E010E0003213
:10094200E0E01E0774F4F801A6EAB4E0EE0FFF1F20
:10095200AE0FBF1FECEDF5E0ED93FC930F5F1F4F61
:10096200EECFE0E0E093A503E1E0E093A403E0E052
:10097200E0932003E0936203E0934103E093830357
:10098200EFEFE0932103E0936303E0934203E093EC
:1009920084030991199108950E9477070895E0E070
:1009A200E0938100EEBDEDB5F0E00E9439080E94AF
:1009B20037083097C1F3299A29982A9A2A985E9A79
:1009C2005E985F9A5F9808951A93E0E0E093810041
:1009D200E091B307E093A4030E940907E05EFC4F95
:1009E2000E948507EE59FC4F0E948507EF5BFC4F82
:1009F2000E948507ED57FC4F0E948507E05EFC4F81
:100A02000E946707DF010E9488070E949107E09316
:100A120020030E940907EF5BFC4F0E946707FF93C8
:100A2200EF930E949607E8E00E942608AF91BF91DB
:100A32000E949107E09341030E940907EE59FC4F7F
:100A42000E946707DF010E9488070E9440080E94F7
:100A52009107E09362030E940907ED57FC4F0E9441
:100A62006707FF93EF930E949607E8E10E9426082A
:100A7200AF91BF910E949107E0938303E0916604D6
:100A8200F09167040E949F070E94A4070E94AD078D
:100A9200A6E2B4E00E94D108ED93FC9311E0E0914C
:100AA200A4031E1710F00C94D4050E94B307E05E55
:100AB200FC4FFF93EF930E9406070E94B607E05E89
:100AC200FC4F0E94BD07D0010E949107AF91BF91D8
:100AD200EC930E94B307EF5BFC4FFF93EF930E94EE
:100AE20006070E94B607EF5BFC4F0E946707FF9361
:100AF200EF930E94CA07E8E00E942608AF91BF91D7
:100B02000E949107AF91BF91EC930E94B307EE59F7
:100B1200FC4FFF93EF930E9406070E94B607EE591F
:100B2200FC4F0E94BD070E944008D0010E9491071D
:100B3200AF91BF91EC930E94B307ED57FC4FFF9327
:100B4200EF930E9406070E94B607ED57FC4F0E94E2
:100B52006707FF93EF930E94CA07E8E10E94260805
:100B6200AF91BF910E949107AF91BF91EC93E12F9A
:100B7200A6E2B4E00E94D707EA0FFB1FFF93EF93B0
:100B8200E12F0E94DB070E9439070E949F070E9403
:100B9200A4070E94AD07AF91BF910E94D108ED93C7
:100BA200FC931F5F7CCF0E947707199108950E94E2
:100BB200DF09A091A403BB27EC81F0E0EA0FE093E8
:100BC200B307EF81A6EAB4E00E94D7070E94DE07CE
:100BD20010E0E091B3071E1710F00C9447060E9434
:100BE200E507EA0FFB1FFF93EF93DF010E948C08DA
:100BF2007F936F93FF93EF930E94EC07AFEFBFEFEA
:100C02008FEF9FEF0E940908AF91BF918F919F9143
:100C12000E94FF07AF91BF910E9492080E94E507D0
:100C2200AE0FBF1F0E948C080E94DB0969F5012FDD
:100C3200E091B3070E1710F5E02F0E94F7070F019E
:100C4200A02FBB270E944508A655BC4F0E948C08C6
:100C5200D0010E949208E02F0E94DB07EA0FFB1FDF
:100C62000F01A02FBB27AA0FBB1FA859BB4F0E9481
:100C72008808D001ED93FC930F5FDACFE091B307C0
:100C8200E150E093B30701C01F5FA3CF30E0E091D2
:100C9200B3073E1710F00C94B106E32F0E94DB0756
:100CA2000E943907AD81BE81EA17FB07C9F4E32F21
:100CB2000E94F707FF93EF93DF010E948C087F9356
:100CC2006F93FF93EF930E94EC07AF91BF918F91C7
:100CD2009F910E940408AF91BF910E9492085CC04C
:100CE200E32F0E94DB070E943907AD81BE81AE1758
:100CF200BF07A0F51091B307311748F5E12F0E9405
:100D0200DB07EA0FFB1FBF010E9406070E94B6071E
:100D1200A6E6B4E0EE0FFF1F0E943907DB01ED9358
:100D2200FC930E94E507EA0FFB1FCF010E94060712
:100D32000E94B607A6EAB3E00E943208AE0FBF1FB8
:100D42000E948C08DC010E9492081150D5CFE32F3B
:100D52000E94DB070E94DE07E32F0AC03F5F97CFA6
:100D6200E091B3070E94DB070E94DE07E091B30720
:100D7200A6EAB3E0F0E00E943208EA0FFB1FFF93FD
:100D8200EF930E94EC07AF91BF910E949208E0910D
:100D9200B307EF5FE093B3070E94E4092896089532
:100DA2001A930A93AB81BC81EC910E2F10E0EA8179
:100DB2001E1780F4AB81BC81EE27A10FBE1FEC9100
:100DC2000E1730F4AB81BC81EE27A10FBE1F0C9130
:100DD2001F5FEDCFE02F1981088125960895E0E08D
:100DE200E093E604E5E0E5BDE881A091E604AE17F4
:100DF200D8F3E0E0E5BDE6BD21960895AA93BA9343
:100E0200EA93FA93EFB7EA930895A12FB0E0089519
:100E1200E091A403F0E00895E091A503F0E00895C5
:100E2200E091A503A6E2B4E0F0E0EE0FFF1FAE0FE3
:100E3200BF1F0E94880808950E94BD00E093E70644
:100E4200F0E00895ACE0B7E0F0E0EE0FFF1F089588
:100E5200E091EB06A091AC07AE170895E091AC07C4
:100E6200F0E0E451F94FE0810895E091AC07EACF58
:100E7200AE0FBF1F0E9488080895E091AC07EF5F94
:100E8200E093AC070895E093AE07A6EAB4E0F0E081
:100E9200EE0FFF1F0895AE0FBF1F0D901C90E5CF00
:100EA200E091AC07F0E00895E091AE07A6EAB4E065
:100EB200F0E0EE0FFF1F0895D001AE1BBF0BE9E17A
:100EC200F0E00E945408DB01EC93EACFE081F0E00D
:100ED2000895E091AD07F0E00895AAE7B0E0EC9143
:100EE200F0E00895E091B207F0E00895E091270460
:100EF200E0938B00E0912604F0912704E0938A00AE
:100F0200E2E0E09381000895AFEFA08381CFE0910A
:100F1200A603F091A7036091A8037091A903089515
:100F22000E944F080E9409080895A091A603B0915B
:100F3200A7038091A8039091A90308950E944A08EB
:100F42000E940A090895AAEFBDEE8BEE9FE30E946C
:100F52008D09DF01CB01C6CFF1DF0E9497080E9405
:100F62003D090895E12FF0E00895E1E0F0E00E94EC
:100F72009D08EA1BFB0B089500801124E12FA6EACD
:100F8200B3E0F0E00E943208AE0FBF1F0E948C084F
:100F92000895E12FA6EAB3E0F0E00E943208AE0F16
:100FA200BF1F0E948C08DF01CB010895F0E0EE0F15
:100FB200FF1F0895A6E6B4E0F9CFEA0FFB1FAD814B
:100FC200BE81A083B1830895E12FA6EAB3E0F0E0E9
:100FD2000E9432080895EF81F0E00E944A08A1E0E1
:100FE200B0E080E090E00E941A080895A6EAB3E01B
:100FF200F0E00E943208EA0FFB1F0895EA23FB2368
:10100200682379230895EA2BFB2B682B792B08950B
:10101200EA27FB27682779270895F195E195F040A3
:101022000895F09560957095E195FF4F6F4F7F4F52
:101032000895EE230E2EFD01BC0131F0EE0FFF1FCD
:10104200661F771F0A94D1F70895EE230E2EFD0135
:10105200BC0131F076956795F795E7950A94D1F73B
:101062000895EE0FFF1FEE0FFF1F0895F595E79508
:10107200F595E795F595E795F595E7950895E62FAA
:10108200F72F60E070E00895AA0FBB1FAA0FBB1FE5
:1010920008956F2F660F660B762F08958B2F880F9A
:1010A200880B982F08950024112490E1AA0FBB1FEA
:1010B200001C111C0E1A1F0A18F40E0E1F1E01C06E
:1010C200A1609A9599F7FD01D001089512D0EBDF46
:1010D2000EF4A3DF0895E894B7FF04C0A095B0957D
:1010E20011966894F7FD99DFDEDFFD010EF495DFBE
:1010F2000895E894F7FF02C090DF6894B7FF06C036
:10110200A095B095119600F8039400FA0895ED9118
:10111200FC9111970895ED91FD916D917C9113973A
:101122000895ED93FD936D937C930895182E862F69
:10113200612D192E972F712D1B2EBF2FF12D1A2ED7
:10114200AE2FE12D0895552342F4503811F4E0FFFB
:1011520004C03196691F791F6BF050E8572711F4CC
:101162005F93C8C05F3F31F0660F000C57956795DB
:10117200752F08955F9300200AF0C8C0C1C050E8DF
:10118200192E1522880F991F9527550F879550E81C
:10119200072E0522660F771F7527550F679508954D
:1011A200689401C0E8945F93F2DF703818F07F3FD3
:1011B20008F4A0C056E1571BAAF4519558300EF41A
:1011C200593030F0EFEFFFEF6FEF7FE777F91AC09A
:1011D20077275523B9F0EE0FFF1F661F771F5A9529
:1011E200D1F710C07727583028F0EF2FF62F672F4E
:1011F2005850F9CF552331F076956795F795E795D5
:101202005A95D1F700200AF40CDF5F910895689493
:1012120001C0E894309760407040B1F0002426F09D
:10122200772312F40094FDDE172E7EE1112032F0B6
:101232007A95EE0FFF1F661F111CF9CFEF2FF62FC5
:10124200612D5F938ADF5F9108954F93AF01FD0196
:10125200DA01AB01BC01CA01402D012C142E4F91C1
:101262000895EA0FFB1F681F0895E095F0956095B9
:10127200EF5FFF4F6F4F08955F9381DF903849F121
:1012820050E81526703821F1572F591B13F112F42B
:10129200DCDFFACF583118F0AA27BB27882758304D
:1012A20028F0AB2FB82F88275850F9CF552329F0B3
:1012B2008695B795A7955A95D9F7502D512562F085
:1012C200D0DF38F46795F795E795739513F41EC050
:1012D200BCDF43DF5F910895EA1BFB0B680B51F003
:1012E20010F40094C2DF6623A2F3EE0FFF1F661F05
:1012F2007A95CBF7EE27FF27662777275F91089528
:10130200EFEFFFEF6FE77FEF5F910895EFEFFFEFF2
:101312006FE77FE75F9108955F9331DF703851F394
:10132200903841F301240894791F23F41CF3002020
:101332003AF3ECCF0F921F932F933F934F931127C2
:1013420022279927689FA0018F9F302D410D591F99
:101352006B9F300D411D591F8E9F27D0BF9F25D0F7
:101362006A9F23D0BE9F1DD0AF9F1BD0AE9F110D91
:10137200291F391F491F591FE32FF42F652F522FA1
:101382004F913F912F911F910F9066232AF0550F95
:10139200EE1FFF1F661F02C073954BF2D4DE5F91F2
:1013A2000895100D211D391F02C0200D311D491F46
:1013B200591F089530976040704008953A932A93D8
:1013C2001A930A9308953B812A811981088108950D
:00000001FF
