:100000000C9435010C9400000C9400000C9400003A
:100010000C9400000C9400000C9400000C94000060
:100020000C9400000C9400000C9400000C94E10966
:100030000C946D0C0C9400000C9400000C940000C7
:100040000C9400000C9400000C94350C0C940000EF
:100050000C94480C0C9400000C9400000C940000CC
:100060000C9400000C9400008F008F008F008F0014
:100070008F220804BFDFEFF7FBFEFD7F7FBFDFEFBE
:10008000F7FBFDFEFEFDFBF7EFDFBF7F7FFEFDFB15
:10009000F7EFDFBF53534333322D56322E30374103
:1000A0006C70686131412D4547500D00BE01000064
:1000B000BF015907C1010A0FC3015407C5010F0F42
:1000C000C701ED15C901000ECB01180ECE01060EB9
:1000D000D001230ED3010C0ED5012E0ED801120E25
:1000E000DA01390EDD01050FE101000FE5015E07C0
:1000F000EC016207EE013115CC016A07F1013B15F5
:10010000F6017307F8012C15FB011D15FE014F07C1
:10011000010278070302860706023615DF01E8159B
:100120000A02F21510028B0712022715150222157A
:1001300018021D091B0245092102750927029F09A2
:10014000EA0190072C02440E2F024C0E3202540E8C
:1001500035025C0E380295073C02000000000000EA
:10016000F615FB150100580207160C160200460092
:100170002016251603000000391641160400000061
:1001800052165A16200000006B1676164000DC0549
:1001900095169B166000F401A916B0168000C409DC
:1001A000BC16C316A000FFFFCF16D6160000000035
:1001B000000000000000000000000000000000231C
:1001C000002C003A003B003D004100414C00420041
:1001D000424C004300434C004400444C004545520F
:1001E0000045455700474F424F4F5400480049587B
:1001F000004F4E4345005000504100504C00504FBE
:1002000000510051500051504C005244464C540093
:100210005300534D00535100535300535343415423
:1002200000535344454C0053544F50005641005620
:10023000420056430056440056455200FF0001005C
:100240009904680001009A046A0001009B046C0094
:1002500001009C046E000200A70470000200A904C3
:1002600072000200CF04BC010000F894EE27EFBB3F
:10027000F1E0F5BFE5BFF8E1A895A4B7A77FA4BF5B
:10028000F0936000E09360008DE0A2E0BB27ED9367
:100290008A95E9F780E094E0A0E0B1E0ED93019762
:1002A000E9F7EEE3F2E085919591009761F0A59171
:1002B000B59105901590BF01F00105900D92019741
:1002C000E1F7FB01F0CFE0E0EEBBEFEFEDBFE4E0E4
:1002D000EEBFCEE2D1E00C949402E0E1E5B9EEE2AB
:1002E000E4B9EFE0E8B9E0E0E7B9ECE1EBB9E6EE5C
:1002F000EAB9E0E0E4BDE3E0E5BDE0E0E6BDE7BD8E
:10030000E8BDE0938000E1E0E0938100E0E0E0936D
:100310008500E0938400E0938700E0938600E093FB
:100320008900E0938800E0938B00E0938A00E093DB
:10033000B600E093B000E093B100E093B200E09328
:10034000B300E093B400E5BFE0936E00E0936F006C
:10035000E0937000E0E8E0BFE0E0E0937B00E0E7DE
:10036000ECBDE1E0EDBDE0E0E093C000E8E9E09342
:10037000C100EEE8E093C200E7E8E0937A00EBE02A
:10038000E093B800E0E0E093BA00E4E0E093BC0062
:1003900008950E942217E53680F500E0F5013196B8
:1003A0005F0100E00E9429170E17E8F40E942E1743
:1003B000AE5FBF4F0E94621A1E2F103011F010382E
:1003C00008F011C01B3309F41DE00E9431171C9383
:1003D0000E940803E091CE01F091CF0131970E9475
:1003E00036170F5FDFCF0E943117EBE1EC930E94CD
:1003F0000803E0E0E093940403C0E0E00E943B17B0
:100400000991199108950E949F1A0E9440178F0127
:1004100017FD7EC001FF08C00E9445170E94F50C21
:100420000E944C170E94040D02FF1AC0219720E081
:100430002032A8F4A22F0E945317E883A881A53682
:1004400014F0E4E604C0A881AC3914F4ECE9E883C4
:10045000E22F0E945917A881A0832F5FE9CF219630
:1004600003FF50C0229720E0203210F00C94790254
:10047000E22F0E945D17E883F983A881B9810E9469
:10048000931A21F0AF3FEFEFBE0709F418C0A8811F
:10049000B981A53CE9E0BE0718F0E0E0F0E90DC045
:1004A000A881B981A43FE1E0BE0718F4EDECFCE1BE
:1004B00004C0E881F9810E946717E883F983E5E0C9
:1004C000E29FF001E35FFD4FA881B981A083B18372
:1004D000E5E0E29FF001E45FFD4F2083E5E0E29F6D
:1004E000F001E15FFD4FAFEFBFEFA083B1832F5F5E
:1004F000BBCFE0E2EA93E0E0EA93E0E0F0E00E94C4
:10050000761722960E944017E17011F00E94C901EF
:100510000E94A61A239608950E949D0DA89B03C0D1
:10052000A89A0E94700D08950E946D010E94140DFA
:100530000E94230BEEE2F1E05F01EEE2F1E00E94A7
:100540003617E0E0E093D001EEEAF1E06F010E949F
:1005500003027894E8E5F1E00E94531AE491EF3F3A
:1005600021F0E1E2EA930E94AC0C0E949C0BA09166
:100570009704B0919804559750F0E0919704F0914A
:1005800098047497E0939704F093980405C0E0E012
:10059000E0939704E09398040E948C020E942A0A38
:1005A000DF01EAE6F3E0EA17FB0790F00E947A1712
:1005B0000E94310A0E947A170E947E170E948217B9
:1005C0000E947E170E948D170E947E170E94981726
:1005D0000E948C020E940803E0919404E23021F40E
:1005E000E1E0E093940402C0E03011F45A9801C0B5
:1005F0005A9AE0E0E093CB040E94A4170E94AA1745
:10060000D8F30E94A4170E94AA17D8F7AECFFFCF45
:10061000A0919D04A13020F0A091D001A03208F05B
:1006200011C0E0919E04EF5FE0939E040E94B21718
:10063000E081EA930E94AC0CE0919D04E150E093CC
:100640009D04E6CF0E94B7170E94860CE03011F49B
:100650000C940D04E1E04E2E442011F40C940C0493
:10066000E091D101E03011F423D2D5C0E33049F458
:100670000E94BC170E94BF17E4E0E093D10144241C
:10068000CAC0E43041F40E94C4170E94C9170E94F6
:100690003F084424C0C0E53049F40E94BC170E94C2
:1006A000BF17E6E0E093D1014424B5C0E63041F441
:1006B0000E94C4170E94C9170E948F084424ABC02F
:1006C000E73049F40E94BC170E94BF17E8E0E093AE
:1006D000D1014424A0C0E83049F40E94C4170E940C
:1006E000C9170E94380833D2442495C0E930F1F488
:1006F000ABEEB1E0BF93AF930E94481A7F936F9324
:10070000FF93EF930E94D017E4E00E94A019AF91ED
:10071000BF918F919F910E949719AF91BF910E94B5
:100720004E1AEAE0E093D101442475C0EA30F1F4B6
:10073000ABEEB1E0BF93AF930E94481A7F936F93E3
:10074000FF93EF930E94D017EBE00E94A019AF91A6
:10075000BF918F919F910E949719AF91BF910E9475
:100760004E1AEBE0E093D101442455C0EB30F1F494
:10077000ABEEB1E0BF93AF930E94481A7F936F93A3
:10078000FF93EF930E94D017E2E10E94A019AF916E
:10079000BF918F919F910E949719AF91BF910E9435
:1007A0004E1AECE0E093D101442435C0EC30F9F46A
:1007B000ABEEB1E0BF93AF930E94481A7F936F9363
:1007C000FF93EF930E94D017E9E10E94A019AF9127
:1007D000BF918F919F910E949719AF91BF910E94F5
:1007E0004E1A1CD0E0E0E093D101442414C0ED3057
:1007F00011F478D010C0EE3011F4FDD00CC0EF3001
:1008000011F411D108C0E23119F40E94540903C057
:10081000E0E00E94D71720CF15CF089524970E94BB
:100820009E1A00E0E091EB01F091EC016091ED0186
:100830007091EE01EC83FD836E837F83E0E0E093B3
:100840009E04E0939D0410E0103210F00C946704B5
:10085000EC81E17081F1E8E0E19FF001EC58FC4FA0
:1008600020813181F9010E94DB179F01E12F0E9455
:100870005917E081D901F0E0E7FDFFEFAE1BBF0B98
:100880009D01003258F4E32FF070EA930E94AC0C03
:10089000F901F070EA930E94AC0C0CC00E94EA17B8
:1008A000DF01E32FF070EC930E94EA17DF01F901FA
:1008B000F070EC930E5FEC81FD816E817F810E9470
:1008C000C919EC83FD836E837F831F5FBDCF0E94B8
:1008D000A51A28960895EDE0E093D101E0E0E093B9
:1008E000EA0108950E949D1A5A920E94EB165E2E0C
:1008F000E1E25E1690F0EEE7E51578F0E0E35E16D3
:1009000018F0E9E3E51548F4EBE2E51531F0EDE226
:10091000E51519F0EEE2E51509F414C04424A091A0
:10092000EA01A83058F4E091EA01EF5FE093EA01B0
:10093000E150F0E0EF51FE4F508203C0E1E0E09360
:10094000E10146C0E091EA01E03019F44424ACD062
:100950003FC0E091EA01F0E0EF51FE4FA0E0A0833C
:1009600026E104E011E040E0E1EEF1E0FA93EA93E1
:10097000F8010E94531AFA93EA930E9410173E2F2F
:10098000303051F42297F80132960E94531AE883CE
:10099000F983099522961CC0303014F43FEF01C052
:1009A00031E0213029F4431711F07ED011C001C08D
:1009B0002695303034F40E94F017AE1BBF0B8D012A
:1009C00005C00E94F017EA0FFB1F8F01432FCCCF09
:1009D0000E94A41A25960895EEE0E093D101E1E08B
:1009E000E093D201E0E0E093D301E093D401E0E0B2
:1009F000E093D5010895EBE2E51511F444240DC010
:100A0000EDE2E51529F4E0E0E093D201442405C0CD
:100A1000E0E2E51511F4442401C001D00895EFE0AF
:100A2000E093D10108950A935A920E94E316E030B0
:100A300079F14424E1E0E093D5010E94F617AA3948
:100A4000E9E1BE0718F0EFEFFFEF1DC0E52DE05321
:100A50000E2F0E94F617EAE00E94061A0E94BF17A6
:100A60000E94F617EFEFFFEFEA1BFB0B0E942E1719
:100A7000EA17FB0718F4EFEFFFEF05C0E02F0E9425
:100A8000F6170E94FB17E093D301F093D4010AC03C
:100A90000BD0E091D501E03029F0E091DA01F0913E
:100AA000DB01099509910895E0E0E093D1010895F3
:100AB000E52DE078E03891F54424E52DE07EE0383E
:100AC00049F4E52DEF71F0E00E94BF170E942A085B
:100AD000E3E021C0E0EAE51511F4E5E01CC0E1EA3D
:100AE000E51511F4E7E017C0E2EAE51531F4E0E2BC
:100AF000E093EB010E94B30910C0E52DE07FE03BDD
:100B000061F4E52DEF70ABEEB1E0FF2766277727A4
:100B10000E944E1AE9E0E093D10118C0EDE0E5151E
:100B200019F4442414D012C0EBE1E51529F444244F
:100B3000E0E0E093DC010AC0E0E2E51519F0EAE04C
:100B4000E51511F4442402C00E946B040895E0915D
:100B5000DC01E13071F4E091AB04EF5F0E94FF171C
:100B6000E0919504F0919604E0939704F093980433
:100B70003FC0E23011F419D13BC0E33019F40E94B8
:100B8000D90636C0E53019F40E94EB0631C0E630D4
:100B900019F40E9428072CC0E93019F40E94230997
:100BA00027C0E13119F40E949A0922C0E03119F4FA
:100BB0000E9470091DC0EA3019F40E946C0E18C022
:100BC000EC3019F40E94AC1213C0ED3019F40E94FD
:100BD000A3130EC0EE3019F40E946D1509C0EF305A
:100BE00019F40E94961504C0E23111F40E94B30971
:100BF000E0E0E093DC01089528970E949D1A0E948E
:100C00000718003011F40C947B060E9411181196FD
:100C10003D914C91E32FF42FAD81BE811396ED935E
:100C2000FC93AD81BE810E94441A309711F43D932C
:100C30004C93AF81B88513961D912C91AF81B885E7
:100C4000EC910E9459170E941C18E30FF41F0F012A
:100C5000AD81BE810E94441AD001AE1BBF0B3A2F5A
:100C60004B2F3050404034F4E32FF42F0E949C1956
:100C70003E2F4F2FE32FF42FAF81B8851396ED93BE
:100C8000FC93012E022A09F166277727A1EDB3E430
:100C900080E090E00E94E619DF01CB01E12FF22F06
:100CA000662777270E941F1ADF01CB01E8E00E9428
:100CB000AC190E9423180E942818A030E0E0BE075B
:100CC000E1E08E07E0E09E0730F0EFEFFFEF60E03D
:100CD00070E00E942318ED85FE850E942818662783
:100CE00077270E94971A20F4E985FA85ED87FE8719
:100CF0000E942D1886CFED85FE85E0939504F09334
:100D00009604309731F4E1E0F0E0E0939504F0933D
:100D100096040E940718003011F40C94D1060E942A
:100D2000111813963D914C91E32FF42F66277727E6
:100D3000A0E0B4E180E090E00E94E619DF01CB0181
:100D4000ED85FE85662777270E941F1A0E942318CB
:100D50000E942818A030E0E0BE07E0E08E07E1E046
:100D60009E0730F0EFEFFFEF6FEF70E00E94231867
:100D7000E985FA856B857C85EF7FF0706070707017
:100D8000AD81BE811796EC930E942818E8E00E947E
:100D9000AC19AD81BE811596ED93FC930E942D1880
:100DA000BACF0E94A41A61960895F8940C94FF1F7C
:100DB00008950A9300E0E091EB010E1758F4ACEEB1
:100DC000B1E0EE27A00FBE1FEC91EA930E94AC0C9D
:100DD0000F5FF1CFDCC222970E949D1AEBEEF1E08B
:100DE000ED83FE8310E0143078F5AD81BE81EC9187
:100DF000E03019F1E12FEE0FEE0FEE0F0E943418E4
:100E00003E2F4F2FAD81BE8111962C9108E001300D
:100E1000A0F020FF06C0A32FB42F1396EFEFFFEF33
:100E200005C0A32FB42F1396E0E0F0E0ED93FC9300
:100E30002695385F4F4F0150EACFED81FE81329603
:100E4000ED83FE831F5FCFCF0E94A41A27960895DB
:100E50000A9300E0003210F50E943A180F01EC5896
:100E6000FB4FE081AE2FF001E551FE4FE081EA1724
:100E700099F0E8E0E09FF001E758FC4FAFEFBFEFDB
:100E8000A083B1830E942E17AC58BB4F0E943A1822
:100E9000E551FE4FE081EC930F5FDCCF78C2EDE9C6
:100EA000F7E00E943D180895EDECF7E00E943D1830
:100EB0000895EAE2F8E00E943D180895E2E00E94F9
:100EC000D7170895EFEFFFEF0E94BF17D8D00E9409
:100ED00054050895E0E0E093D301E093D401CFD02E
:100EE0000E9454050895EFE3F8E00E943D1808952C
:100EF000E0919704F0919804309711F4EEE201C06C
:100F0000EBE2EA931DD10E9454050895E7EFF7E064
:100F10000E943D180895EFE8F8E00E943D180895FA
:100F2000E8E3F8E00E943D180895E4E9F0E0FA9360
:100F3000EA931FD10E94540508950A930E94431812
:100F4000909708F024C2A091DC01A63071F0EBEE7E
:100F5000F1E0FA93EA93E4E7F4E0FA93EA93E0E24B
:100F6000F0E0FA93EA930E94F216E6E0E093DC01E7
:100F70000E94F617A536E0E0BE0710F004E602C0B6
:100F80000091D301E091D201E03009F401950E9473
:100F90004818E551FE4F0083FAC11A930A930E9444
:100FA0004318149708F06EC1A091DC01A53061F0E0
:100FB000EBEEF1E0FA93EA93E0E0EA93E1E2F0E0AD
:100FC000FA93EA930E940217E5E0E093DC010E94A5
:100FD0004818EE0FFF1FE551FE4F8F01D801E1E0E9
:100FE000EC930E944D18D8011196EC934BC11A93C3
:100FF0000A930E94F617909760F50E944D180E9480
:10100000B819EC58FC4F008111810E944D18EC5822
:10101000FB4F0E941C180E1B1F0BF8010E94DB17D0
:101020008F01F80166277727AAE9B9E180E090E00F
:101030000E94E619E050F0486F4F7F4F0E94CE1992
:101040008F010030E1E01E0710F00FEF10E00A936F
:1010500077D018C10E94F617909718F40E944D1887
:1010600002C0EFEFF0E0E093DD01F093DE010895C0
:101070000E944D18E093DF01F093E00108950E9473
:101080009E1A0E944318909708F045C0A091DC0179
:10109000A13029F00E945218EFEFE093AB04E1E099
:1010A000E093DC010091D3011091D40100240016DB
:1010B000010629F0EFEFFFEFE017F10709F411C087
:1010C000043FE1E01E0718F404EF11E006C0053C00
:1010D000E9E01E0710F004EC19E0F8010E94671720
:1010E0008F01E091AB04EF5FEF71E093AB04A5E0FB
:1010F000EA9FF001E45FFD4F9F010E944818D9016B
:10110000EC931396EFEFFFEFED93FC93F801D90109
:101110001196ED93FC930E94A51A249608950E94BF
:101120004318909708F00895A091AB04E5E0EA9F7A
:10113000F001E15FFD4F0E94F617A083B18308958F
:101140000A930091EB01A091DC01A33021F0E3E0D0
:10115000E093DC0100E0003240F4ACEEB1E0E02FBF
:101160000F5F0E94FB17A981A0830093EB01088108
:1011700062C01A930A9300E0E02FAA81BB810E940B
:10118000FB171491103029F01A930E94A0080F5FEA
:10119000F3CF19810881249608950E949E1A00E0D9
:1011A00010E127E200240116020658F5E12FF22F84
:1011B000AC81BD810E940C1A3E2F332339F40030DC
:1011C00029F4E1E0F0E0E117F20731F401E0E32F68
:1011D000E05DEA930E94A008E12FF22FA32FB0E078
:1011E0000E94DE19AC81BD81AE1BBF0BAC83BD83F9
:1011F000A12FB22FEAE0F0E00E940C1A1E2F2F2F31
:10120000D1CFEDE0EA930E94A0080E94A51A26968D
:101210000895A881B981109754F4EDE2EA930E94F1
:10122000A008E881F9810E949C19E883F983E8818C
:10123000F9810E945818229608950E945405E9E009
:10124000E093DC0108950E9422171E2F153608F046
:1012500010E0E2E2EA930E94AC0C00E0011778F49F
:10126000A091D001AE31E0F70E942E17AE5FBF4FC4
:101270000E94621AEA930E94AC0C0F5FEFCFE2E289
:101280000E945C18099119910895E0E1E093DC0156
:10129000E2E1E093D1010E942917E093EB01E0E243
:1012A000E51509F444240895EDE0E51519F0EBE1A6
:1012B000E51519F40E9454050895A091EB01A43698
:1012C00068F4E091EB01EF5FE093EB01E150F0E0B7
:1012D000EE5FFF4FDF01E52D0E94761A442408954A
:1012E000E091EB010E943B170895EAE7F9E00E94C4
:1012F0003D180895E1E1E093DC010E942917E09395
:10130000EB010E944D18A091EB010E94631870F44C
:10131000ABEEB1E0BD01AC910E944D18B0E00E946F
:10132000571AEA1BFB0BDB01EC9303C0E0E0E093F0
:10133000EB010895E091EB010E943B170895EAEA62
:10134000F9E00E943D18E0E2E093EB01E2E1E09376
:10135000DC0108950E94F617909720F4E091D301E4
:10136000E093EB0108950A93A091EB01A03010F0F7
:10137000A03208F005C0E091EB01EA930AD007C063
:1013800000E0003220F40A9304D00F5FFACF0991F5
:1013900008951A930A93EA810E9434188F01D801A4
:1013A0000E94441A0E9467181981088123960895A3
:1013B000F409F009FC09F809040A000A0C0A080AF1
:1013C000100A3E014F01EFB6E101E991EEBDE9914E
:1013D000F0918400FE1BE2F3E991E991F9910994FF
:1013E0002998E991299AF2CF2998E881299A24C06D
:1013F0002A98E9912A9AEACF2A98E8812A9A1CC069
:101400005E98E9915E9AE2CF5E98E8815E9A14C098
:101410005F98E9915F9ADACF5F98E8815F9A0CC094
:10142000C43751F4CCEAD2E0FA81F058FA83259619
:10143000C437D1F7CCEAD2E0E981FA81E054F04038
:10144000F0938900E09388001E01E301F401EFBEF0
:10145000189518951A930A93F89481017894F801D5
:1014600068C129970E949C1A0E946C18FA93EA930B
:10147000EFEFEA93E8E2F0E0FA93EA930E940217B2
:101480004FEFE0E0E987E8890E9434188F01A985D1
:10149000A83010F00C94B90AD8010E94441AEE83C7
:1014A000FF83309709F45FC0E889A985EA0FE987CF
:1014B000F0E0EC58FF4F5491A889E985EA1BE987D1
:1014C0004523AE81BF81AF3FEFEFBE0709F44BC0AC
:1014D000AE81BF811B96E6E1F0E00E940C1AA6E106
:1014E000B0E00E94DE19EE83FF830E946C189F011A
:1014F000E8E0E887F901A181B281EE81FF81AE17B2
:10150000BF0730F4E885E150E8872B5F3F4FF2CF0B
:10151000F901A181B281EE81FF81EA17FB0731F465
:10152000F901DF01EC91E523EC931DC0E885E03083
:10153000D1F0F901DE011A9685E00E94851AEE814C
:10154000FF81D9011196ED93FC93E52FD901EC931E
:10155000EB85FC85EE83FF835A85E885E150E887BB
:101560002B5F3F4FE3CFE985EF5FE987085F1F4FB0
:101570008ECFEF85A5E0EA9FF001E455FD4FDF0136
:10158000E42FE095EC930E94A31A619608952297A8
:101590000E949C1AE985A5E0EA9FF001E455FD4F01
:1015A0008F010E947518EE83FF83D8014C91D801FA
:1015B00011960E947A1858E020E030E05030B9F0DF
:1015C0000B5F1F4FD801EC914E23E42FEC930E9448
:1015D0007518EF3FAFEFFA0721F4F90176960E94F4
:1015E0007F18D80111962D913C915150E7CF2FEFE4
:1015F0003FEF59E0503019F1F801A181B281F901B2
:10160000EA1BFB0BE038A0E0FA0718F00E948418F0
:1016100008C0E885EF5FE8870E948418E885E150FC
:10162000E887D80111962D913C91EE81FF81E20F60
:10163000F31F0E947F18515005501040DBCF0E94CD
:10164000A31A2A9608951A930A93E0E0F0E0E09333
:10165000AD02F093AE02E2ECF5E9E093DA02F0932A
:10166000DB02E5E8FBE2E0930703F0930803E7E41D
:10167000F1ECE0933403F0933503EAE0F7E5E0930F
:101680006103F0936203E3E3F3EBE0936603F0930B
:101690006703E9E9F9E9E0936B03F0936C03EDE389
:1016A000FAE7E0937003F09371030E948F18E093C0
:1016B0006303F09364030E948F18E0936803F09330
:1016C00069030E948F18E0936D03F0936E030E94EC
:1016D0008F18E0937203F09373030E947A170E94AD
:1016E000310A0E947A170E94C70A0E9482170E943C
:1016F000C70A0E948D170E94C70A0E949817E0E649
:10170000F3E01F01E0916103F0916203E054F040C7
:101710008F0110938500F801E093840010938900F5
:10172000E0938800E2E0E6BBE0916F00E260E093C6
:101730006F0009911991089525970E949C1AE0E085
:10174000E887E4E7F3E0EE83FF83A885A03210F09A
:101750000C94310CAE81BF8113960E94441AE98724
:10176000FA87AE81BF810D911C91AE81BF81129627
:101770004C91AE81BF8115962D913C91AE81BF8178
:1017800017965C91A985BA850E94931A21F0AF3F04
:10179000EFEFBE0721F409851A850C941E0CE8852D
:1017A0000E9459170E941C18A985BA85EA0FFB1FD1
:1017B000E987FA87A985BA85AD3CECE1BE0718F444
:1017C0000DEC1CE108C0A985BA85A130E0E9BE078F
:1017D00010F000E010E900240016010629F0EFEFF8
:1017E000FFEFE017F10711F409851A85A985BA857D
:1017F0000A171B0710F00C940E0CE985FA85E01B04
:10180000F10BE217F30728F409851A8540E00C94E0
:101810000C0C450F021F131F0C941E0CA985BA85D2
:10182000F801EA1BFB0BE217F30728F409851A8578
:1018300040E00C941E0C451B020B130BAE81BF81C4
:101840000D931C93E42FAE81BF811296EC93E88533
:10185000EF5FE887EE81FF813896EE83FF830C947B
:10186000A50B0E94A31A2B960895EFB63F01E091B5
:10187000C0008090C600EC7139F4F5018192EE3A17
:1018800011F4E058F040AE2EF301EFBE1895189514
:10189000EFB63F018090D0018820C1F08090A9046C
:1018A0009090AA04E0918400F0918500E80DF91D64
:1018B000F0938B00E0938A00E4E0E6BBE0916F00D8
:1018C000E460E0936F00F301EFBE1895E091C10072
:1018D000EF7BE093C100F7CF1895EFB63F01F6011B
:1018E00081908092C600EE3C11F4E052F0406F010E
:1018F0008090D0018A948092D001E0916F00EB7FBC
:10190000E0936F00F301EFBE189518950E94311710
:10191000AA16BB0619F4E0E0229608950E9431173A
:10192000EC91A881B981EC93F8940E94311711963B
:10193000A093CE01B093CF01EEEAF1E0EA17FB07E6
:1019400021F4EEE2F1E00E9436177894E2E0E093B1
:101950009404E1E0229608950E949E1AA091D0017D
:10196000A03220F00E94A51A25960895F894E091DF
:10197000D001F0E0EC0DFD1D8F01EEECF1E00E1753
:101980001F0710F000521040EC81D801EC93E09159
:10199000D001EF5FE093D001E091C100E07401F568
:1019A000209184003327E0918500FE2FE0E02E2B6C
:1019B0003F2BE091A704F091A8042E0F3F1F309316
:1019C0008B00F901E0938A00E4E0E6BBE091C100FE
:1019D000E064E093C100E0916F00E460E0936F0089
:1019E00078940E94A51A25960895A881B9811A971E
:1019F00020F4EAE0F0E0E883F9830E949418E09391
:101A0000A704F093A8040EC0A881B9811A9720F406
:101A1000EAE0F0E0E883F9830E949418E093A904D7
:101A2000F093AA04229608951A930A93E9B1E871F3
:101A3000E03019F407E010E01BC0E83019F407E1CA
:101A400010E016C0E03119F40FE510E011C0E831E4
:101A500069F45C98549A549A4B9B03C00FE711E0C9
:101A600002C007E010E054985C9A02C00FE711E052
:101A7000E091CD04F091CE04E017F10739F0F8942D
:101A80001093C500F801E093C40078940093CD044E
:101A90001093CE040991199108950A93AA81BB81EC
:101AA0000C91E02FE078A0E00E94D3190E2EA981BE
:101AB000E0E00E94D319E01511F40F600BC0015053
:101AC000E02FEF7039F4E981E03019F40F770F66F9
:101AD00001C00F6DAA81BB810C93088124960895E3
:101AE000409B09C0E9E9F4E0FA93EA93E6B1E170BA
:101AF000EA930E944D0D419B09C0EAE9F4E0FA9394
:101B0000EA93E6B1E270EA930E944D0D429B09C050
:101B1000EBE9F4E0FA93EA93E6B1E470EA930E9409
:101B20004D0D439B09C0ECE9F4E0FA93EA93E6B16A
:101B3000E870EA930E944D0D08950E949F1AE0916B
:101B40007A00E07409F04BC0E0917C00E03031F4A1
:101B5000E8B1E2700E2F1FE924E015C0E13031F446
:101B6000E8B1E4700E2F11EA24E00DC0E23031F448
:101B7000E8B1E8700E2F13EA24E005C0E8B1E17087
:101B80000E2F15EA24E0E0917A00E071D9F0A12F40
:101B9000B22F0E94441AA3E0B0E00E94DE19DF01D8
:101BA000E0917800F0917900AE0FBF1FFD010E9417
:101BB000C419A12FB22FED93FC93E0917A00E0615C
:101BC000E0937A00E0917C00EF5FE370E0937C00AB
:101BD000003029F4E0917A00E064E0937A000E94FA
:101BE000A61A239608950E945405E881E03011F06A
:101BF000E1E301C0E0E3EA930E94A0082196089582
:101C0000409AE09199040E949D180895419AE091AC
:101C10009A040E949D180895429AE0919B040E94A4
:101C20009D180895439AE0919C040E949D18089580
:101C3000409AA09199040E94A118E0919904EF7E26
:101C4000E09399040895419AA0919A040E94A118E2
:101C5000E0919A04EF7EE0939A040895429AA0914D
:101C60009B040E94A118E0919B04EF7EE0939B04EB
:101C70000895439AA0919C040E94A118E0919C04AD
:101C8000EF7EE0939C0408954098E0919F04F091CA
:101C9000A0040E94AB1808954198E091A104F0912E
:101CA000A2040E94AB1808954298E091A304F09119
:101CB000A4040E94AB1808954398E091A504F09104
:101CC000A6040E94AB180895E881F981F170F2BD75
:101CD000E1BDF89AE0B5D7C00A93E091D801E030B1
:101CE000E1F000E0E091D9010E17B0F40E94B218C3
:101CF000F2BDE1BD0E943A18E551FE4FE081E0BD22
:101D00000E94B2183196F1700E94B718FA9AF99AA7
:101D1000F999FECF0F5FE6CF28C00E94BC1800E003
:101D2000E091D9010E17E0F4E091D601EF7311F4C0
:101D3000003009F407C094D00E94B7170E9486199A
:101D40000E94BC180E943A18E551FE4FE081EA93C8
:101D50007DD00F5F0E94B21831960E94B718E0CF75
:101D60007FD00E94B7170E948619CCC0EAE00E947B
:101D7000C118E0E0E093D9010895EBE00E94C1189A
:101D80000895A091DC01AA3021F4A091D901A032DC
:101D900008F00BC0E091D901EF5FE093D9010E94F8
:101DA000B217DF010E944D18EC9308951A930A931D
:101DB000A091DC01AB3009F50091D3010130E8F0CE
:101DC000E091D801E03039F00E94B218FA93EA931A
:101DD0000E94640E07C00E94B218FA93EA93E1E0F1
:101DE0000E94CA181E2F0E94B21831960E94B7187E
:101DF0001A930E94A0080150E1CF0991199108950A
:101E0000E6EBFEE00E943D180895EDEBFEE00E9437
:101E10003D180895E1ECFEE00E943D180895E6EDBE
:101E2000FEE00E943D1808950A930FEF013020F064
:101E3000E091BC00E07809F002C00150F7CF62C029
:101E4000E4EAE093BC000E94140F0895E881E09357
:101E5000BB00E4E8E093BC000E94140F21960895B3
:101E6000E4E9E093BC0008950E94200FE0EAEA93C1
:101E70000E94260FE981F070EA930E94260FE88104
:101E8000EA930E94260F22960895E981FA81FA9337
:101E9000EA930E94340F0E94200FE1EAEA930E9425
:101EA000260FE091B900E87FE83411F4E0E009C0C2
:101EB000A881A13011F4E4E801C0E4ECE093BC0097
:101EC000E881E093CC04239608950A93E091CC0432
:101ED000E03011F4EFEF16C00E94140F0091BB0028
:101EE000E091CC04E150E093CC04E03019F40E947E
:101EF000300F07C0E13011F4E4E801C0E4ECE093F6
:101F0000BC00E02F09910895A091CB04A23030F4D9
:101F1000F8D1E091CB04EF5FE093CB0408950A93EE
:101F2000A981BA811B960C91A981BA810E94CF1810
:101F30004CF40F5FA981BA811796EC910E1708F047
:101F400000E007C0003021F4A981BA8117960C91F6
:101F50000150E02F0881239608950E949F1A07EAF6
:101F600012E0EB81FC810E94D418AD81BE810E94F9
:101F7000D918AB81BC8116962C912130C8F00E94F3
:101F8000E118F8013396FF93EF93DF010E94441AA2
:101F9000FF93EF930E94650FAF91BF910E94EA18E3
:101FA000AF91BF91ED93FC93215005501040E5CFC8
:101FB0000E94A61A259608950E949D1A07EA12E02B
:101FC000AD81BE811B96EC91A2E0EA9FF0013E2F0D
:101FD0004F2FAD81BE811696EC91A32FB42F0E9496
:101FE000EE1832963E0F4F1FAD81BE8119960E94AA
:101FF000441AE30FF41FFA93EA93AF81B88516965B
:10200000EC910E94F318AD81BE8116962C9121307F
:1020100018F10E94F9183E2F4F2F0E94FE183E2BF8
:102020004F2B343FE1E04E0718F434EF41E006C097
:10203000353CE9E04E0710F034EC49E0E32FF42F93
:102040000E9467173E2F4F2FE32FF42F0E947F1817
:10205000215005501040DBCF0E94A41A2796089506
:102060002C9788E0A0E0B0E0E4EBF1E00E94AA1A2F
:102070000E949C1AAA89BB890E94441A309719F4BD
:10208000EFEFFFEF3AC107EA12E0EA89FB89FA9322
:10209000EA930E948F0FA2E0EA9FF001AF01AA89A4
:1020A000BB891696EC91DA010E94EE184E0F5F1F65
:1020B0000E94021914F04E5F5F4FAA89BB891996DE
:1020C0000E94441AE40FF51FFA93EA93AC89BD8984
:1020D0001696EC91A2E0EA9FF001EE5FEA930E946F
:1020E000450F0E94021924F40E94F9180E94051954
:1020F000AA89BB8916962C91213010F40C94E91012
:10210000D801EC910E9434184081518100240416BA
:10211000050629F0EFEFFFEFE417F50711F431E0C2
:1021200009C030E0D801EC910E9459170E941C1898
:102130004E1B5F0B0E947518E417F50730F4F80189
:10214000A181B2814A1B5B0B05C00E947518E41B7C
:10215000F50BAF01303049F4FA010E941B196627D4
:1021600077270E9492190E9420190E94F918AF0146
:102170000E94FE184E2B5F2B443FE1E05E0718F4EF
:1021800044EF51E006C0453CE9E05E0710F044EC46
:1021900059E0FA010E946717AF010E947518E41711
:1021A000F50730F4F801A181B2814A1B5B0B05C031
:1021B0000E947518E41BF50BAF01303031F40E941A
:1021C00025190E9492190E942D1921500550104086
:1021D00093CF0E94021924F00E94F9180E94051959
:1021E000AA89BB891896AC91A23051F40E941B19A0
:1021F000A132E0E0BE07E0E08E07E0E09E0708F0D5
:1022000004C00E9432190E942D190E9437190E94A1
:102210008F1A31F40E9432190E9420190E942D1940
:102220000E94021944F4AA89BB890E94441A0E94A0
:102230009C19AF0104C0AA89BB894D915C910E9491
:1022400025190E94E6190E942D190E941B19E4E627
:10225000F0E060E070E00E94E6190E9420190E9400
:102260001B19A130E0E0BE07E1E08E07E0E09E0729
:1022700078F0EE81FF81688579850E94C9190E94F6
:1022800020190E9437190E94C9190E942D19E7CF01
:102290000E9437190E948F1A21F40E9432190E945D
:1022A0002D19EE81FF8168857985AE85BF85888986
:1022B00099890E94E619DF01CB010E9437190E941B
:1022C0001F1AEE87FF87688B798BAE85BF8588895B
:1022D0009989A136EAEEBE07E0E08E07E0E09E07AE
:1022E00040F0E0E6FAEE60E070E0EE87FF87688B92
:1022F000798BEE85FF85688979890E94A31A649697
:1023000008950E949E1AE091CB04AFE0EA9FF0018D
:102310000E943C1909F48DC3D9011896AC91A530DF
:1023200031F4D9010E94441A309709F482C3F901AB
:10233000A281B381559740F0D9011296ED91FD919C
:102340007497FE93EE9304C0D90112960E947A18F6
:10235000D9011896EC91E330D1F42197F9010E944C
:10236000D418D9010E94D918D9011696EC91E883A6
:10237000A881A13030F00E944419E881E150E8833F
:10238000F7CFD9011896E0E0EC93219652C3E430E0
:1023900069F4F901A281B3810E94931A08F449C338
:1023A000D9011596EC91E068EC9302C0E23009F493
:1023B00002C0E53009F404C0E13011F00C94AB1216
:1023C000D9011596EC91E07831F4F901A281B3813D
:1023D0000E94931A08F001C02CC3D9011596EC9104
:1023E000EF77EC93D90112960E94441A309759F472
:1023F000D9011896AC91A13031F4F901A485B585C5
:102400000E94931A08F009C0D9011C960E94441A30
:102410000E944D19E4E0EC930CC3D9010E94441AC8
:102420003097D1F42197F9010E94D418D9010E9464
:10243000D918D9011696EC91E883A881A13030F023
:102440000E944419E881E150E883F7CFD90118963A
:10245000E5E0EC932196EDC2D9011896AC91A1303C
:1024600051F0D9011896AC91A43029F0D9011896F1
:10247000AC91A53031F4D90112960E94441A3097DC
:1024800009F03DC0D9011596EC91E076E03639F4BB
:10249000F9010384D9011E96EC91E01509F005C0FD
:1024A000D9011896E0E0EC93C4C2D9011596EC91DD
:1024B000E062EC93D9010E94CF188CF0D9011B96F1
:1024C000EC91EF5FEC93F9010384D9011796EC913D
:1024D000E01521F4D9011B96E0E0EC9310C0D9017E
:1024E0001B96EC91E03031F4D9011796EC91D901AB
:1024F0001B96EC93D9011B96EC91E150EC933A9327
:102500002A930E94AD0F3A932A930E94DC0FD901BF
:102510001896AC91A23029F40091DF011091E001EE
:1025200005C03A932A930E9430108F01F901A681C9
:10253000AA93D9011696AC91E0E2EA1BEA931A93AA
:102540000A930E94FC05E0919504F09196040E9484
:102550004D19E1E0EC936DC21A930A93E091CA041D
:10256000AFE0EA9FF001E455FB4F8F01E091F001ED
:10257000E03099F4D8011896AC91A03029F0D80138
:102580001896AC91A23021F4D8011896E0E003C06F
:10259000D8011896E3E0EC93D3C0A091F001A032EB
:1025A00051F4D8010E94441AA091EB01B091EC01C2
:1025B000EA17FB0709F001C0C3C0A091F001A031E8
:1025C00019F40E945419BCC0D8011896AC91A030DF
:1025D00029F0D8011896AC91A330C1F4A091F00174
:1025E000E0E8EA2391F0D8011896E2E0EC93D801F4
:1025F0001B96E0E0EC93D801E4E6F0E0ED93FC9369
:10260000D8011C960E947A1801C09AC0A091F001CE
:10261000E0E8EA23A9F0E091EF01D8011496EC93E9
:10262000E091F101D8011696EC93E091F201D80106
:102630001796EC930E945D19D8011996ED93FC93BF
:10264000A091F001E0E4EA2329F0E091F601D8013D
:102650001B96EC93A091F001E0E2EA2389F1D80106
:102660001896AC91A230E9F0D8011896AC91A4303C
:10267000C1F0F801A281B381559798F0D8010E946A
:10268000441ADF01E0E0F0E00E94D8190E2EA0917C
:10269000EB01B091EC01E0E0F0E00E94D819E01508
:1026A00009F407C01A930A930E948F0FD8011B9652
:1026B000EC93E091EB01F091EC01D801ED93FC93E8
:1026C000A091F001E0E1EA2311F00E945419D80131
:1026D0001596E0E8EC93A091F001E8E0EA2381F19F
:1026E000D8011596EC91E064EC93D8010E94441A4D
:1026F000DF010E94931A84F4D8011B96EC91E0301C
:1027000019F4D801179602C0D8011B96EC91E1503C
:10271000D8011E96EC9314C0F8010384D8011796D3
:10272000EC91E1500E1628F0D8011E96E0E0EC93F3
:1027300007C0D8011B96EC91EF5FD8011E96EC9371
:102740000991199108950E949D1A0CE012E00E94CF
:102750005D19FA93EA93A091F101E3E0EA9FF00199
:10276000EA930E94450F4091F1014130C8F00E9468
:10277000E118F8013396FF93EF93DF010E94441AAA
:10278000FF93EF930E94650FAF91BF910E94EA18EB
:10279000AF91BF91ED93FC9341500B5F1F4FE5CF7D
:1027A0000CE012E0E091F601A2E0EA9FF0019F0147
:1027B000D9011396E091F101F0E00E94DE19329602
:1027C0002E0F3F1F0E945D19E20FF31FFA93EA9349
:1027D000E091F1010E94F3184091F1014130F8F0CD
:1027E0000E94F9189F010E94FE182E2B3F2B243FB8
:1027F000E1E03E0718F424EF31E006C0253CE9E0B3
:102800003E0710F024EC39E0F9010E9467179F01A0
:10281000F9010E947F1841500B5F1F4FDFCFE091FD
:10282000F1010E94FF170E94A41A259608950E94A4
:102830004D18E093CA04E23018F4ECE0E093DC01B8
:102840000E945218E0E0E093F00108950A9300918D
:10285000D301003808F059C0A091DC01AC3051F030
:10286000EDE0E093DC01E0E0E093F001E093F601BD
:102870000E9452180093EF01E091F001E068E093AC
:10288000F001E2E0E09FF001FA93EA93E2E00E94B7
:10289000CA18FE2FE0E0E093F401F093F501A4EFF5
:1028A000B1E0BF93AF930E94441AFF93EF930E944D
:1028B000650FAF91BF910E94EA18AF91BF91ED9360
:1028C000FC930E945D19FA93EA93E3E00E94CA1810
:1028D0000E2FE091EF01E01731F4A091F401B091D7
:1028E000F501509718F4E0E0E093DC010E94650FD9
:1028F000E093F1010E94650FE093F201A4EFB1E0D3
:10290000ED91FD913396FE93EE9309910895A09178
:10291000DC01AC3009F00895E091F001E062E09351
:10292000F0010E94F617A93CE0E0BE0718F0E8ECC1
:10293000F0E002C00E944D18E093EB01F093EC012F
:10294000E091D201E03051F4E091EB01F091EC0123
:102950000E949C19E093EB01F093EC010895A09183
:10296000DC01AC3011F0AD3009F401C00895E09104
:10297000F2010E94F617F0E0AE17BF0748F4E091AD
:10298000D301E093F601E091F001E064E093F001FF
:102990000895A091DC01AC3009F008950E944D1813
:1029A000E093F701F093F801E091F001E061E0932A
:1029B000F00108950E949E1A0091D3010430C8F5D9
:1029C000EFE0E09FF0010E943C1949F4EFEF0E9414
:1029D00062190E9462190E946219EA9328C0F901E3
:1029E000A481AA930E94A008F901A385AA930E943A
:1029F000A0083A932A930E948F0FEA930E94A0089E
:102A00001FEFF901A281B381AC39E3E6BE0740F4C0
:102A1000F901A281B381E4E6F0E00E940C1A1E2FB6
:102A2000D9011896AC91A43009F410E01A930E94D1
:102A3000A0080E94A51A24960895E7E1F4E10E94F7
:102A40003D180895E6E2F4E10E943D180895E7E894
:102A5000F4E10E943D180895E9ECF4E10E943D186C
:102A60000895EFEAF4E10E943D180895EAEDF4E1DB
:102A70000E943D180895A091DC01AC3009F0089542
:102A8000E091F001E860E093F0010E9454050895A0
:102A90001A930A93AA81A03218F0EA81E07EEA83B1
:102AA000ECE5F1E08F01F80134960E94531A30975B
:102AB00071F0F8010E94531ADF01EA81F0E0EA1791
:102AC000FB0711F4F80105C0085F1F4FECCFE0E0F1
:102AD000F0E019810881239608950E949F1A0091C1
:102AE000EB010A930E9448151E2F2F2F012E022A58
:102AF000C9F0003208F400E00F71E091EF01E0301E
:102B000041F00A93E12FF22F36960E94531A09954D
:102B100009C00A93E12FF22F34960E94531A0995A7
:102B20000E94D9060E94A61A239608950E949E1A12
:102B300020E02A930E9448158F01002E012AB1F04F
:102B4000203210F430E003C0E22FEF713E2FF80185
:102B500032960E94531A0E94BF17E1E0E093D2011F
:102B60003A93F80136960E94531A09952F5F203048
:102B700001F7EFE4EA930E94AC0CEBE40E945C18CE
:102B80000E94A51A249608950E94F617A030E1E04D
:102B9000BE0750F4EEE0E093DC01E091D301E09356
:102BA000EB01E0E0E093EF010895A091DC01AE308D
:102BB00009F008950E944D18E093EC01F093ED01A7
:102BC000E091D201E093EE01E1E0E093EF0108959E
:102BD000E4ECF5E10E943D180895E5EDF5E10E9471
:102BE0003D180895EFE00E94D71708950E944017FE
:102BF0000E945818E6C00E9440170E94671931F0E1
:102C00000E944D18AEEFB1E00E946E1ADAC00E9429
:102C100045170E94CD08D5C0ACEFB1E00E945E1A06
:102C20000E94671931F00E944D18ACEFB1E00E948C
:102C30006E1A0E944D18FA93EA930E94F50CC1C0D7
:102C40000E944C170E94CD08BCC0AAEFB1E00E94C0
:102C50005E1A0E94671931F00E944D18AAEFB1E088
:102C60000E946E1A0E944D18FA93EA930E94040D76
:102C7000A8C0A9EFB1E00E94621AF0E00E945818C3
:102C8000A0C0A9EFB1E00E94621AAE2F0E944D18B9
:102C90000E94631831F00E944D18A9EFB1E00E9424
:102CA000761A8FC0A8EFB1E00E94621AF0E00E948D
:102CB000581887C0A8EFB1E00E94621AAE2F0E9498
:102CC0004D180E94631831F00E944D18A8EFB1E032
:102CD0000E94761A76C0A8810E945317F0E0E7FDA3
:102CE000FFEFFA93EA930E9409096BC00A930E94CE
:102CF000F617A536E0E0BE0710F004E602C000912A
:102D0000D301E091D201E03009F40195A9810E943C
:102D100053170E1739F0A981B0E0A054BE4FE02F31
:102D20000E94761A088122960895E8810E945D1714
:102D30000E94581846C0E8810E945D170E946719DA
:102D400039F0E881A0E8B1E00E946B190E946F1988
:102D500038C00E9475190E9479190E94581831C014
:102D60000E9475190E9479190E94671921F00E942A
:102D700075190E946F1925C00E947E190E94791949
:102D80000E9458181EC00E947E190E9479190E9444
:102D9000671921F00E947E190E946F1912C00E94CB
:102DA00082190E9479190E9458180BC00E9482193A
:102DB0000E9479190E94671921F00E9482190E94CD
:102DC0006F1921960895E1E0F991F03310F0FA338C
:102DD00008F0EE270895E991E13618F0EB3708F492
:102DE000E052089599818881009641F0BD81AC81BF
:102DF000FB81EA8161916D930197E1F7FD81EC819F
:102E000026960895B981A881109631F0FC81EB8156
:102E10006A8161931197E9F7EB81FC81259608950A
:102E2000E991F991A991B9911D900590011421F4AE
:102E30000020D1F7EE2708951018E1F3E1E008F43F
:102E4000E25008951A930A93A1E0B0E00E94621A3A
:102E50000895A1E0B0E00E94621A0895A02FB0E0AA
:102E60000895A091CE01B091CF010895E093CE01D5
:102E7000F093CF010895A1E0B0E00E94761A089582
:102E8000AEEFB1E00E945E1A0895ACEFB1E00E948F
:102E90005E1AFA93EA930895AAEFB1E00E945E1ACF
:102EA000FA93EA930895B0E0A054BE4F0E94621ACC
:102EB0000895F0E0EC58FB4F0895A0E8B1E0F0E091
:102EC000EE0FFF1FAE0FBF1F0E945E1A0895662708
:102ED0007727AFEDBEEB8EE090E00E94E619E05060
:102EE000F0486F4F7F4F0E94CE190895FA93EA93EE
:102EF0000C94FC05E0E0EA93EA9308950E94C70A67
:102F00000C948C02E8E0EA93E9E0EA930E94310A2B
:102F1000E9E0EA93E2E0EA930895E0E1EA93E2E18E
:102F2000EA930E94310AE2E1EA93E4E0EA93089529
:102F3000E8E1EA93EBE1EA930E94310AEBE1EA93DC
:102F4000E6E0EA930C94C70A0E9408030E94840FEB
:102F50000C948C020E942A0ADF01EBE5F3E0EA17E9
:102F6000FB070895E150F0E0E551FE4F0895E5E0DC
:102F7000F0E0FA93EA930895E52DF0E00895E093E8
:102F8000D301F093D4010895F091D301E0E0DF0183
:102F9000F3CFEA2BFB2BF3DFE0E0E093D1010895C0
:102FA000E52DFF2766277727DF01CB010895E09302
:102FB000DC010C94540566277727ACE5B1E180E08D
:102FC00090E00E94E619E050F0486F4F7F4F0E945A
:102FD000CE190895E0919D04EF5FE0939D04C2CF68
:102FE000E22FD801F0E00E94BA190895A091D30110
:102FF000B091D4010895F0E0EA0FFB1F0895EA9321
:10300000E0E0EA93E091DF01F091E0016FCF088901
:10301000EF85A5E0EA9FF001E45FFD4FEF83F887BD
:103020000895AF81B885EC91F0E00E94B819EC5892
:10303000FC4FED83FE830895E081ABE3EA02F001EB
:103040000E94BF190895E987FA876B877C870895E6
:10305000A985BA858B859C8508950150EF81F885F7
:103060003596EF83F8870895F0E00E94B819EC5880
:10307000FC4F0895E02FF0E00895E093DA01F0931B
:10308000DB010C94EC04A091DD01B091DE01089508
:10309000E091DD01F091DE010895E091D301F0911E
:1030A000D4010895E0E0E093DF01E093E0010895AA
:1030B000FA93EA930C94CD08EA930E94AC0CEDE0ED
:1030C000EA930C94AC0CB0E0EA17FB070895D80122
:1030D0001396ED93FC930895EF85EF5FE887A5E0E5
:1030E000EA9FF001E455FD4F0895D80111960E9422
:1030F000441A0895E0E0F0E0ED93FC930895D801C0
:103100001196ED93FC930895E885A0EBB3E1F0E010
:10311000EE0FFF1FEA0FFB1F0E94531AD8CFE0ECFF
:10312000F3E10E94531A0895E881F9810E94C419BD
:10313000ABE3B0E00E94DE190895E078EA930C94C6
:10314000F30DE0E8AE27E0E9EA23A0E00E94D319FE
:10315000EA930C94F30D0E94C419EA930E94A0080C
:103160000C945405E091D601F091D7010895E093B5
:10317000D601F093D7010895F5DFFA93EA930C9402
:10318000340FE093DC0189DFF2DFE091D201E093BC
:10319000D8010895EA930E94450F0C94650F0E9490
:1031A000441ADF0110970895A185B285BA93AA93B6
:1031B00008951696AC91E3E0EA9FF001EA930C942F
:1031C000450F0E94650FD801EC930E94650FFE2FFA
:1031D000E0E07DCFF0E0EA2BFB2B08951396F0E0C2
:1031E0000E94DE190895A2E0EA9FF001EA930C9490
:1031F000450F0E94650FFE2FE0E008950E94650FC5
:10320000F0E00895AA89BB89CACF66277727EE87A1
:10321000FF87688B798B0E94650FAE85BF85888993
:103220009989FF27662777270E949719EE87FF87DE
:10323000688B798B0895AE81BF81888599850895C3
:10324000EE83FF83688779870895FA01AA85BB8595
:103250008C859D85662777270895EA87FB876C878D
:103260007D870895E1E0F0E060E070E00895EA8590
:10327000FB856C857D850895E455FB4F9F01D90141
:103280001896EC91E03008950E94650FEA930E9431
:10329000C9090E94650F0C94650FD9011296ED9330
:1032A000FC93D90118960895E091F701F091F80187
:1032B000D8011C96ED93FC930895E091F401F091F0
:1032C000F5010895EA930E94A008E0E008958EDEDB
:1032D000EA17FB070895F0E0EE0FFF1F0895AE0F09
:1032E000BF1FDBDE0E946E1A0895E881A0E4B1E002
:1032F000F2CFAE0FBF1F0E945E1A0895E881A0E0D2
:10330000B1E0E9CFE881A0ECB0E0E5CFE991F99137
:10331000309639F086E69EE00197F1F7A89531974F
:10332000C9F70895EA0FFB1F681F791F0895EA2B5C
:10333000FB2B682B792B0895F195E195F0400895CA
:10334000EE230E2EFD01BC0131F0EE0FFF1F661FB4
:10335000771F0A94D1F70895EE230E2EFD01BC01CC
:1033600031F076956795F795E7950A94D1F708952A
:10337000EE0FFF1FEE0FFF1FEE0FFF1F0895F595D5
:10338000E795F595E7950895F695E795F695E79510
:10339000089576956795F795E7950895E62FF72FA9
:1033A00060E070E00895EA17E1E009F0EE27089583
:1033B000AE17BF07E1E00CF4EE270895FA9FF02D59
:1033C000EB9FF00DEA9FE02DF10D08957A9F702D8F
:1033D0006B9F700DF89F700DE99F700D6A9F602DB7
:1033E000710DFB9F600D711DE89F600D711D882799
:1033F000FA9FF02D610D781FEB9FF00D611D781F76
:10340000EA9FE02DF10D681F781F08956E2F6A9FC7
:10341000F0016B9FF00D08950024112490E1AA0F94
:10342000BB1F001C111C0E1A1F0A18F40E0E1F1EC3
:1034300001C0A1609A9599F7FD01D00108953F93CD
:103440004F935F93002411244427552730E2AA0F9D
:10345000BB1F881F991F001C111C441F551F0E1AEB
:103460001F0A460B570B28F40E0E1F1E461F571F30
:1034700001C0A1603A9559F7FD01BC01D001CA0114
:103480005F914F913F910895ED91FC9111970895AF
:10349000ED91FD916D917C9113970895ED93FD93BE
:1034A0006D937C9308950590F491E02D08951B2E63
:1034B000BF2FF12D1A2EAE2FE12D0895119602D0B7
:1034C000FE2F1197F999FECFFF93FFB7F894A1BD96
:1034D000B2BDF89AE0B5FFBFFF91089507D01196ED
:1034E000EF93EF2F03D0EF9111970895F999FECF45
:1034F0009FB7F894A1BDB2BDF89A80B5E81719F04E
:10350000E0BDFA9AF99A9FBF08959927EF93FF9328
:1035100061916D930197E1F7FF91EF9108953097D5
:1035200060407040089500240A160B060895EA17BB
:10353000FB076807790708955A934A933A932A93A9
:103540001A930A9308955D814C813B812A811981E8
:1035500008810895AC0FBD1F05900D928A95E1F783
:103560000895FFFFFFFFFFFFFFFFFFFFFFFFFFFFCC
:10357000FFFFFFFFFFFFFFFFFFFFFFFFFFFFFFFF5B
:10358000FFFFFFFFFFFFFFFFFFFFFFFFFFFFFFFF4B
:10359000FFFFFFFFFFFFFFFFFFFFFFFFFFFFFFFF3B
:1035A000FFFFFFFFFFFFFFFFFFFFFFFFFFFFFFFF2B
:103E000022242AB808E00BB901E005BF25BEE0E096
:103E1000F0E0C591D491219639F04B9B0C940000B1
:103E2000549A04914B99FACF22242092C00008E1C1
:103E30000093C10006E00093C2002092C50007E095
:103E40000093C40004E00EBF0FEF0DBF4DD00D3046
:103E5000C9F3063789F0402F3CD04736C9F14237C5
:103E600071F0473791F0453689F703E056D001E10C
:103E700054D00EE24BD0E6CF02E348D0E7CF30E497
:103E800005913BD03A95E1F7F4CF30E225D0012EF1
:103E9000102E01E042D032963A95C1F70BD0E0588F
:103EA000F0400E2F0F7781F70F2F007069F705E0B4
:103EB00034D0DDCF19D00D3029F6089515D0005338
:103EC000D0F20A3020F00750B0F20031A0F6089589
:103ED000099402D0F801EECF01D0102FEFDF029548
:103EE000202FECDF022B08955091C00057FFFCCF2C
:103EF0000091C6000A30C1F30895102F029501D039
:103F0000012F0F70005D0A3308F0095F5091C00067
:103F100055FFFCCF0093C600089517B710FDFDCFE5
:103F200007BFE8950895FFFFFFFFFFFFFFFFFFFFBB
:103F3000FFFFFFFFFFFFFFFFFFFFFFFFFFFFFFFF91
:103F4000FFFFFFFFFFFFFFFFFFFFFFFFFFFFFFFF81
:103F5000FFFFFFFFFFFFFFFFFFFFFFFFFFFFFFFF71
:103F6000FFFFFFFFFFFFFFFFFFFFFFFFFFFFFFFF61
:103F7000FFFFFFFFFFFFFFFFFFFFFFFFFFFFFFFF51
:103F8000FFFFFFFFFFFFFFFFFFFFFFFFFFFFFFFF41
:103F9000FFFFFFFFFFFFFFFFFFFFFFFFFFFFFFFF31
:103FA000FFFFFFFFFFFFFFFFFFFFFFFFFFFFFFFF21
:103FB000FFFFFFFFFFFFFFFFFFFFFFFFFFFFFFFF11
:103FC000FFFFFFFFFFFFFFFFFFFFFFFFFFFFFFFF01
:103FD000FFFFFFFFFFFFFFFFFFFFFFFFFFFFFFFFF1
:103FE000FFFFFFFFFFFFFFFFFFFFFFFFFFFFFFFFE1
:103FF000FFFFFFFFFFFFFFFFFFFFFFFF8ECF14CF8D
:00000001FF
