:020000040800F2
:10000000A00600209D010008A5010008A701000826
:10001000A9010008AB010008AD01000800000000C4
:10002000000000000000000000000000AF01000818
:10003000B101000800000000B3010008B50100088C
:10004000B7010008B7010008B7010008B7010008B0
:10005000B7010008B7010008B7010008B7010008A0
:10006000B7010008B7010008B7010008B701000890
:10007000B7010008B7010008B7010008B701000880
:10008000B7010008B7010008B7010008B701000870
:10009000B7010008B7010008B7010008B701000860
:1000A000B7010008B7010008B7010008B701000850
:1000B000B7010008B7010008B7010008B701000840
:1000C000B7010008B7010008B7010008B701000830
:1000D000B701000831180008AB170008B701000885
:1000E000B7010008B7010008B7010008B701000810
:1000F000B7010008B7010008B7010008B701000800
:10010000B7010008B7010008B7010008B7010008EF
:10011000B7010008B7010008B7010008B7010008DF
:10012000B7010008B7010008B7010008B7010008CF
:10013000B7010008B7010008B7010008B7010008BF
:10014000B7010008B7010008B7010008B7010008AF
:10015000B7010008B7010008B7010008B70100089F
:10016000B7010008B7010008B7010008B70100088F
:10017000B7010008B7010008B7010008B70100087F
:10018000B7010008B7010008DFF80CD003F072FADD
:1001900000480047A50E0008A0060020064880473A
:1001A00006480047FEE7FEE7FEE7FEE7FEE7FEE75C
:1001B000FEE7FEE7FEE7FEE7C71500088901000835
:1001C00033490143334A1160704770B50021002361
:1001D0000F22C47824B32F4C246804F4E064C4F5DF
:1001E000E064C4F30721C1F10404E3B20A41447896
:1001F0009C40E1B28478144021430C07210E264C28
:1002000005786155047804F01F050124AC40057899
:100210006D114FF0E02606EB8505C5F8004109E0B9
:10022000047804F01F040125A5401C4C06787611C3
:1002300044F8265070BD1A4A0A400243154B1B1F52
:100240001A60704739B1134A121D12680243114BEC
:100250001B1D1A6006E00F4A121D126882430D4BE7
:100260001B1D1A607047042808D14FF0E02109696E
:1002700041F004014FF0E022116107E04FF0E0216E
:10028000096921F004014FF0E0221161704700007C
:100290000000FA050CED00E000E400E080E100E081
:1002A00080FFFF1F10B504468C48844208D101210D
:1002B000084600F00EFD0021012000F00AFD5EE07E
:1002C0008748844208D10121022000F002FD00216C
:1002D000022000F0FEFC52E08248844208D1012155
:1002E000042000F0F6FC0021042000F0F2FC46E0BF
:1002F0007D48844208D10121082000F0EAFC002159
:10030000082000F0E6FC3AE07848844208D1012158
:10031000102000F0DEFC0021102000F0DAFC2EE0BE
:100320007348844208D10121202000F0D2FC002132
:10033000202000F0CEFC22E06E48844208D101214A
:10034000402000F0C6FC0021402000F0C2FC16E076
:100350006948844208D10121802000F0BAFC0021C4
:10036000802000F0B6FC0AE06448844207D10121F5
:10037000801500F0AEFC0021A01500F0AAFC10BD15
:10038000F0B50A4600210023002400BF3DE001250E
:1003900005FA01F3156805EA03049C4234D10568A7
:1003A0004F000326BE40B543056015794E00B540A9
:1003B0000668354305601579012D02D01579022DA7
:1003C00016D185684F000326BE40B5438560557938
:1003D0004E00B540866835438560456801268E40ED
:1003E000B5434560456896798E40B6B23543456061
:1003F000C5684F000326BE40B543C560D5794E00A1
:10040000B540C6683543C560491C1029BFD3F0BD4F
:100410004FF6FF7101600021017141718171C1715D
:10042000704708B54FF480320092009A0A43009258
:10043000009AC261C161009AC261C2690092C26938
:10044000009208BD0246002013690B4201D0012032
:1004500000E0002070470146086980B270470246FC
:10046000002053690B4201D0012000E000207047BA
:100470000146486980B270470183704741837047E5
:100480000AB1018300E041837047416170474269CE
:100490004A4042617047F0B5002300244D07ED0E3D
:1004A00002FA05F3CE1000F1200555F826504E074C
:1004B000F70E0F26BE40B543CF1000F1200646F8D8
:1004C0002750CE1000F1200555F8265045EA0304C8
:1004D000CE1000F1200545F82640F0BD0000024096
:1004E0000004024000080240000C024000100240DC
:1004F0000014024000180240001C0240002002408C
:1005000010B50446F748844208D10121102000F0BC
:1005100037FC0021102000F033FC3EE0F24884421A
:1005200009D10121480400F01AFC00214FF40030E9
:1005300000F015FC31E0ED48844209D10121880426
:1005400000F00DFC00214FF4802000F008FC24E0B6
:10055000E748844209D10121C80400F000FC0021D1
:100560004FF4002000F0FBFB17E0E248844209D181
:100570000121080500F0F3FB00214FF4801000F08A
:10058000EEFB0AE0DC48844207D10121202000F084
:10059000F7FB0021202000F0F3FB10BD2DE9FF4701
:1005A00005460E460024A14600BFA046B08900B112
:1005B00000BF2C8A24F44054F08804432C82AC8978
:1005C00041F20C608443B088318908437189084343
:1005D0000443AC81AC8A24F44074B0890443AC82F7
:1005E000684600F08CFABF48854202D0C248854276
:1005F00002D1DDF80C9001E0DDF80890A88910F434
:10060000004F08D009EBC90000EB09103168490020
:10061000B0FBF1F707E009EBC90000EB0910316806
:100620008900B0FBF1F76420B7FBF0F0040120096A
:10063000642101FB1078A88910F4004F08D0322003
:1006400000EBC800B0FBF1F000F00700044308E045
:10065000322000EB08106421B0FBF1F000F00F0035
:1006600004432C81BDE8FF874FF41651016000213F
:100670008180C18001810C214181002181817047ED
:1006800010B502460020108A20F470600B884C8858
:1006900023438C882343CC8823431843108210BD06
:1006A0000021018041808180C180704721B1828911
:1006B00042F40052828104E082894DF6FF731A40B1
:1006C00082817047028B02F47F420283028B0A43CD
:1006D0000283704721B1828942F40042828103E0A3
:1006E0008289C2F30E028281704721B1828A42F46C
:1006F0000062828204E0828A4FF2FF731A40828293
:100700007047C1F308028280704701468888C0F3B1
:1007100008007047028A4FF6F0731A400282028A7C
:100720000A430282704721B1828942F0020282812B
:1007300004E082894FF6FD731A40828170478289F6
:100740004FF2FF731A40828182890A438281704787
:10075000028A4FF6DF731A400282028A0A4302823B
:10076000704721B1028A42F48042028204E0028A88
:100770004BF6FF731A4002827047818941F00101F4
:100780008181704721B1828A42F00802828204E0AE
:10079000828A4FF6F7731A4082827047028BD2B278
:1007A0000283028B42EA01220283704721B1828ACE
:1007B00042F02002828204E0828A4FF6DF731A4000
:1007C0008282704721B1828A42F01002828204E064
:1007D000828A4FF6EF731A4082827047828A4FF600
:1007E000FB731A408282828A0A438282704721B157
:1007F000828A42F00202828204E0828A4FF6FD730E
:100800001A40828270471AB1838A0B43838202E0C6
:10081000838A8B4383827047F0B503460024002609
:1008200000250020A1F510676A3F00D100BF1846DF
:10083000C1F3421401F01F06012707FA06F5012C47
:1008400001D10C3004E0022C01D1103000E0143052
:100850001AB107682F43076002E00768AF430760DB
:10086000F0BD02460020B1F5007F00D100BF138823
:100870000B4201D0012000E00020704701F400721B
:10088000B2F5007F00D100BFCA430280704770B547
:1008900002460024002300250020A1F510666A3ED0
:1008A00000D100BFC1F3421501F01F03012606FA73
:1008B00003F3012D02D19689334006E0022D02D1C7
:1008C000168A334001E0968A33400C12012606FA5C
:1008D00004F41688344013B10CB1012000E000206C
:1008E00070BD00000010014000440040004800407E
:1008F000004C0040005000400014014010B50022A0
:100900000023A1F510646A3C00D100BF0A12012443
:100910009440A3B2DC43048010BD0000FA48006894
:1009200040F00100F84908600020F74908310860EC
:10093000F5480068F5490840F3490860F448091D86
:100940000860081F006820F48020091F086000204C
:10095000ED490C31086070470021EB4A921C117080
:1009600011460870704710B5014600220023002090
:100970004A11012A02D1E44C236808E0022A03D17B
:10098000E14C7034236802E0DF4C7434236801F0DA
:100990001F02012494401C4201D0012000E00020ED
:1009A00010BD38B5002000900024002500BF312084
:1009B000FFF7D9FF05460098401C00900098B0F55D
:1009C000A06F01D0002DF2D03120FFF7CCFF08B18D
:1009D000012400E00024204638BD01460020CA4A18
:1009E000106820F0F80040EAC10010607047C94963
:1009F000086070470021C44A7032117011700128DC
:100A000002D004280AD104E00121BF4A70321170DB
:100A100005E00521BC4A7032117000E000BF00BF44
:100A20007047BD490860704770B5049C41EA821563
:100A30000126C6EB530645EA0645054345EA04652B
:100A4000B14E361D356070BDB249086670478201EF
:100A500042EA0172AC4B84331A607047AD49886634
:100A60007047AC49C864704702460020A64B083363
:100A7000186820F0EC6042EA01031843A24B0833E7
:100A800018607047024600209F4B0833186820F01A
:100A9000784042EA010318439B4B083318607047C3
:100AA00001460020984A0832106820F003000843ED
:100AB0001060704794480830006800F00C007047E0
:100AC00001460020904A0832106820F0F0000843E8
:100AD00010607047014600208B4A0832106820F4ED
:100AE000E05008431060704701460020864A0832F3
:100AF000106820F4604040EAC10010607047F0B513
:100B00000021002200240225002602237E4F083700
:100B10003F6807F00C0121B1042905D0082937D11D
:100B200005E07E4F076036E07D4F076033E0764F8B
:100B30003F1D3F68C7F38056734F3F1D3F6807F066
:100B40003F036EB1764FB7FBF3F7DFF8BCC10CF192
:100B5000040CDCF800C0CCF3881C07FB0CF40CE0A0
:100B60006E4FB7FBF3F7DFF8A0C10CF1040CDCF813
:100B700000C0CCF3881C07FB0CF4634F3F1D3F689B
:100B8000C7F301477F1C7D00B4FBF5F7076002E067
:100B9000624F076000BF00BF5B4F08373F6807F038
:100BA000F00109095F4F7A5C0768D7404760564FEC
:100BB00008373F6807F4E051890A5A4F7A5C476862
:100BC000D7408760504F08373F6807F46041490BB2
:100BD000544F7A5C4768D740C760F0BD002100F4ED
:100BE0004072B2F5407F0AD1474A0832116821F4B9
:100BF000F8114D4A02401143434A08321160424AFB
:100C000070321268C0F30B031A433F4B70331A6003
:100C1000704741494439086070473F49403908608E
:100C2000704742490860704739B1374A303212681C
:100C30000243354B30331A6006E0334A30321268D3
:100C40008243314B30331A60704739B12E4A343207
:100C5000126802432C4B34331A6006E02A4A3432BD
:100C600012688243284B34331A60704739B1264AE0
:100C7000383212680243244B38331A6006E0224AA5
:100C8000383212688243204B38331A60704739B1CA
:100C90001D4A4032126802431B4B40331A6006E083
:100CA000194A403212688243174B40331A6070472A
:100CB00039B1154A443212680243134B44331A6067
:100CC00006E0114A4432126882430F4B44331A60E3
:100CD000704739B10C4A1032126802430A4B103384
:100CE0001A6006E0084A103212688243064B10333D
:100CF0001A607047E1B1044A143212680243024B91
:100D000014331A6019E0000000380240FFFFF6FEBD
:100D10001030002400004742800E47420024F400B7
:100D200000127A0000000020FFFCFF0F5C01474228
:100D30005B4A126882435A4B1A60704739B1584A6D
:100D4000121D12680243564B1B1D1A6006E0544ADE
:100D5000121D12688243524B1B1D1A60704739B135
:100D60004F4A0C32126802434D4B0C331A6006E0B6
:100D70004B4A0C3212688243494B0C331A6070475D
:100D800039B1474A103212680243454B10331A609A
:100D900006E0434A103212688243414B10331A6016
:100DA000704739B13E4A3C32126802433C4B3C33F7
:100DB0001A6006E03A4A3C3212688243384B3C33B0
:100DC0001A60704739B1364A403212680243344BD8
:100DD00040331A6006E0324A403212688243304B98
:100DE00040331A60704739B12D4A443212680243C9
:100DF0002B4B44331A6006E0294A4432126882437E
:100E0000274B44331A60704739B1254A4C32126877
:100E10000243234B4C331A6006E0214A4C321268DD
:100E200082431F4B4C331A60704739B11C4A503211
:100E3000126802431A4B50331A6006E0184A5032C7
:100E400012688243164B50331A60704739B1144A06
:100E5000D21F12780243124BDB1F1A7006E0104AB1
:100E6000D21F127882430E4BDB1F1A7070470C485A
:100E70006030006840F08070094960310860704758
:100E800001460020064A083A12680A4201D00120B1
:100E900000E0002070470249891F08707047000079
:100EA0001438024008B500F062FD0020FD490880BA
:100EB000FD490870FD4908700120FD4908700020B7
:100EC000FC490870FC490870FC490870FC4908702E
:100ED000FC490870FC490870FC490870FC4908701E
:100EE000FC490870FC490870FC490870FC4908700E
:100EF000FC490870FC490870FC490870FC490870FE
:100F0000FC490870FC490870FC490870FC490870ED
:100F1000FC490870FC490870FC490870FC490870DD
:100F2000FC490870FC490870FC490870FC490870CD
:100F30009BE2DD480078002871D0DA48008840281C
:100F40007FD01EDC36285AD012DC322847D008DC8D
:100F5000012834D0022836D0032838D0312831D1A6
:100F600039E033283FD0342841D03528F7D142E04A
:100F70003738072826D2DFE800F0464A4E54585C3E
:100F80006000482871D009DCA0F141000728F1D2A7
:100F9000DFE800F05B5F63676C707400522871D00B
:100FA00006DC492877D0502879D05128D7D17AE06B
:100FB00053286AD0A12869D0DD28D0D17FE0012054
:100FC000BE49087086E00120D649087082E0012001
:100FD000D54908707EE00120B64908707AE001200A
:100FE000B549087076E00120B549087072E001202B
:100FF000B44908706EE00120B34908706AE001202E
:10100000B249087066E00120B549087062E001202D
:10101000B44908705EE00120B34908705AE05DE011
:101020000FE00120AA49087054E00120A949087086
:1010300050E00120A84908704CE00120A749087041
:1010400048E00120A949087044E00120AA4908703D
:1010500040E00120A74908703CE00120A449087045
:1010600038E00120A549087034E010E00120A449CF
:1010700008702FE00120A34908702BE00120A2494D
:10108000087027E013E006E009E014E01FE001200B
:101090009E4908701EE001209D4908701AE0012059
:1010A0009C49087016E001209B49087012E001205D
:1010B0009A4908700EE00120994908700AE002F090
:1010C0004BF90446A1B29948FFF71BFB02E002F07E
:1010D00088FA00BF00BF0020734908707748007885
:1010E00080B100F0AEFC00F0DCFC00F073FE904834
:1010F00002F053F956228E498E4800F0BFFB0020C3
:101100006E4908708748007880B1012068490870EE
:1011100049208DF8000001208DF801000222694667
:10112000844800F0ABFB00207E4908707E480078C0
:1011300080B102205E49087049208DF8000002202D
:101140008DF80100022269467A4800F097FB0020E2
:10115000754908705E48007868B1002053490870EE
:101160003C21782001F03BFB2E217048FFF7C9FAA3
:101170000020574908705748007868B100204B4953
:1011800008703C21782001F0EAFB2E216748FFF728
:10119000B8FA00204F4908704F48007868B1002025
:1011A000424908703C21782001F0A0FC2E215F48C4
:1011B000FFF7A7FA0020484908704848007868B14E
:1011C00000203A4908703C21782001F04FFD2E2183
:1011D0005648FFF796FA00204049087035480078D5
:1011E00098B100F0E9FE00F05CFC00F0F3FD50481F
:1011F00002F0D3F856224E494E4800F03FFB012042
:101200004D49087000202B4908702B48007880B1A8
:1012100000F047FC00F0DEFD454802F0BEF8562223
:101220004349444800F02AFB00F0D4FE0020224944
:1012300008702348007858B13C227821022000F041
:101240009FFF2E213948FFF75CFA00201C490870E7
:101250001C48007858B13C227821022001F06BF83C
:101260002E213248FFF74DFA002016490870164823
:10127000007858B128227821012001F021F92E218F
:101280002A48FFF73EFA00200F4908700F480078FF
:1012900038B128227821012001F0DCF92E212348E1
:1012A0004CE050E01200002018000020190000203F
:1012B000380100201D0000201E0000201A00002020
:1012C0001F0000202000002021000020220000201C
:1012D00023000020240000202500002026000020FC
:1012E0002700002028000020290000202A000020DC
:1012F0002D0000202C0000202B0000202E000020BC
:101300002F0000203000002031000020320000209B
:10131000330000203400002035000020360000207B
:10132000370000201B0000201C000020001001409E
:101330003C0100200044004010000020FFF7E1F9CC
:101340000020574908705748007828B1282001F03C
:101350007BFE0020534908705348007828B12820AC
:1013600001F028FE0020504908705048007828B14C
:10137000282001F03BFD00204C4908704C480078C3
:1013800028B1282001F092FD002049490870494801
:10139000007828B1282001F0C3FD002045490870DD
:1013A0004548007828B1282001F086FD00204249F8
:1013B00008704248007820B101F0E6FD00203F4966
:1013C00008703F48007810B100203D4908703D4842
:1013D000007828B1642001F0D6FE00203949087059
:1013E0003948007828B1642001F0E4FE0020364935
:1013F00008703648007828B1642001F02EFF0020E4
:10140000324908703248007828B1642001F03CFF6E
:1014100000202F4908702F48007828B1642001F07F
:1014200005FF00202B4908702B48007828B1642064
:1014300001F0D7FE0020284908702848007828B11C
:10144000142001F064FF002024490870244800782B
:1014500028B1142001F07AFF0020214908702148AA
:10146000007810B100201F49087062E51CB5012109
:101470000846FFF7D9FB4FF40040009001208DF89B
:10148000040000208DF8060001208DF807000220DE
:101490008DF8050069461448FEF772FF1CBD000078
:1014A0002200002027000020280000202900002022
:1014B0002A0000202B0000202C0000202D000020FE
:1014C0002E0000202F0000203000002031000020DE
:1014D00032000020330000203400002035000020BE
:1014E0003600002037000020000002400CB500202C
:1014F000019000907248006840F4803070490860A4
:1015000000BF6F48006800F4003000900198401C54
:101510000190009818B90198B0F5A06FF1D1684812
:10152000006810F4003F02D00120009001E000208C
:1015300000900098012845D161484030006840F093
:1015400080505F49403108605E48006840F4804048
:101550005C4908605A4808300068594908310860F9
:101560000846006840F4004008600846006840F4FF
:10157000A05008605448091F0860081F006840F028
:101580008070091F086000BF4D48006810F0007FA0
:10159000FAD040F205604D490860494808300068BB
:1015A00020F003004649083108600846006840F012
:1015B0000200086000BF42480830006800F00C00DC
:1015C0000828F8D10CBD10B53D48006840F0010076
:1015D0003B49086000203A490831086038480068F3
:1015E0003B490840364908603A48091D0860081F11
:1015F000006820F48020091F0860002030490C3169
:101600000860FFF773FF4FF000603349086010BDBA
:1016100070B500200022022300240221284D083545
:101620002D6805F00C0020B1042806D0082834D11C
:1016300007E02A4D2A4E356033E02A4D284E3560AA
:101640002FE01F4D2D1D2D68C5F380541C4D2D1D01
:101650002D6805F03F0154B1224DB5FBF1F5184E50
:10166000361D3668C6F3881605FB06F209E01B4DE9
:10167000B5FBF1F5124E361D3668C6F3881605FB2C
:1016800006F20F4D2D1D2D68C5F301456D1C6B0035
:10169000B2FBF3F5124E356003E0104D104E35608D
:1016A00000BF00BF064D08352D68C5F303150E4E6B
:1016B000705D0B4D2D68C540094E356070BD000052
:1016C000003802400070004008544007003C0240CF
:1016D000FFFFF6FE1030002408ED00E00024F400C7
:1016E0003800002000127A003C00002010B588B0BD
:1016F000044601214804FFF7CAFA01210846FFF712
:1017000093FA0C20069002208DF81C008DF81D0025
:1017100000208DF81E008DF81F0006A93E48FEF738
:101720002FFE072202213C48FEF7B5FE07220321C7
:101730003948FEF7B0FE072202213748FEF7ABFE1C
:101740004FF4165002900020ADF80C00ADF80E00DA
:10175000ADF81000ADF814000C20ADF8120002A98D
:101760002E48FEF71BFF01212C48FEF79FFF4FF488
:10177000A060FEF725FD26208DF8040000208DF8DE
:1017800005008DF8060001208DF8070001A8FEF77E
:101790001CFD012240F225512048FFF73DF80121B0
:1017A0001E48FEF783FF08B010BD10B540F225516A
:1017B0001A48FFF76CF888B11848FEF7A6FFC4B2C4
:1017C000174818490978445416480078401C1549B0
:1017D000087015480068401C1349086010BD00BF20
:1017E000114909680029FBD00D49104A1278885C1C
:1017F0000E490978491C0D4A11700B490968491EA8
:10180000094A1160704700200749086007490870BD
:101810000449087070470000000002400044004086
:101820009A010020510000204C00002050000020B0
:1018300010B5C0B05948008810F0200F1CD0574890
:10184000FEF763FF04464FF48071684601F0FFFE27
:101850005348028853A1684601F04CFFAA2C03D1DB
:1018600001205149087005E050480480012050498A
:10187000087000BF00BF00BF40B010BD2DE9F041AF
:1018800007460D461646002400BF0EE000BF80212B
:101890003846FEF7E6FF0028F9D0295D3846FEF706
:1018A00030FF822C00DD02E0641CB442EEDB00BF9E
:1018B00000BF40213846FEF7D4FF0028F9D0BDE82C
:1018C000F08110B586B0044601211020FFF7F0F931
:1018D00001210220FFF7A8F9C020049002208DF812
:1018E00014008DF8150000208DF816008DF81700F3
:1018F00004A93048FEF744FD072206212D48FEF7D3
:10190000CAFD072211462B48FEF7C5FD00940020B2
:10191000ADF80400ADF80600ADF80800ADF80C0015
:101920000C20ADF80A0069461C48FEF737FE01227C
:1019300040F225511948FEF76FFF01211748FEF7C5
:10194000B5FE06B010BD08B54FF4A060FEF738FC38
:1019500025208DF8000000208DF801008DF8020090
:1019600001208DF803006846FEF72FFC08BD10B576
:10197000FFF7E9FF4FF41650FFF7A3FF4FF416509F
:10198000FFF7B4FE10BD01B549F64042009901FBD6
:1019900002F000E0401E0028FCD108BD001001400C
:1019A00058000020256300001900002012000020CC
:1019B00018000020000402400146FD4850F82100B4
:1019C000B0F5617F08D9FA4850F8210040F634029A
:1019D000904201D2012070470020FCE710B510B101
:1019E000012818D10BE0F34A1268F14B53F822207A
:1019F000521AF04B1B68EE4C44F823200BE0ED4AE2
:101A00005268EB4B53F822200A44EA4B5B68E84CDF
:101A100044F8232000BF00BF10BDE6490968E44A2E
:101A200052F82110C1F5FA604FF4FA61E14A1268E8
:101A3000DF4B43F822104910DE4A526843F8221067
:101A4000704740F2DC50DB490968D94A42F821006E
:101A5000D849496842F821007047D7490968D44AF3
:101A600052F821100144D44A1268D14B43F8221095
:101A70007047D1494968CE4A52F821100144CE4AF4
:101A80005268CB4B43F822107047CB498968C84A4B
:101A900052F821100144C84A9268C54B43F82210FD
:101AA000704740F2A460C4490968C14A42F8210065
:101AB00040F2DC50C049496842F82100BE498968BB
:101AC00042F82100704710B506284CD2DFE800F03C
:101AD000030F1B27333FB94A5268B54B53F82220F6
:101AE0000A44B64B5B68B24C44F823203BE0B44A4E
:101AF0005268AF4B53F822200A44B14B5B68AC4CA0
:101B000044F823202FE0AF4A5268A94B53F8222013
:101B10000A44AC4B5B68A64C44F8232023E0AA4A55
:101B20005268A34B53F82220521AA74B5B68A04C73
:101B300044F8232017E0A54A52689D4B53F8222011
:101B4000521AA24B5B689A4C44F823200BE0A04A3F
:101B50005268974B53F82220521A9D4B5B68944C65
:101B600044F8232000BF00BF10BD30B505460C4629
:101B700061422846FFF7A7FF30BD062846D2DFE8BE
:101B800000F0030E19242F3A8C494968884A52F80C
:101B900021108A4A9268864B43F8221036E0884921
:101BA0004968834A52F82110854A9268804B43F86D
:101BB00022102BE0834949687D4A52F82110814A5E
:101BC00092687B4B43F8221020E07F494968784AAD
:101BD00052F821107C4A9268754B43F8221015E0A8
:101BE0007A494968724A52F82110784A9268704BD3
:101BF00043F822100AE0764949686D4A52F82110EC
:101C0000734A92686A4B43F8221000BF00BF7047C6
:101C100010B506284CD2DFE800F0030F1B27333F36
:101C2000664A1268624B53F822200A44634B1B68D1
:101C30005F4C44F823203BE0614A12685C4B53F848
:101C400022200A445E4B1B68594C44F823202FE0A5
:101C50005C4A1268564B53F822200A44594B1B68C1
:101C6000534C44F8232023E0574A1268504B53F852
:101C70002220521A544B1B684D4C44F8232017E085
:101C8000524A12684A4B53F82220521A4F4B1B6893
:101C9000474C44F823200BE04D4A1268444B53F85C
:101CA0002220521A4A4B1B68414C44F8232000BFA3
:101CB00000BF10BD30B505460C4661422846FFF70F
:101CC000A7FF30BD062870D2DFE800F003152739E2
:101CD0004B5D40F2DC51394A1268354B43F8221013
:101CE0004FF4E161354A526843F82210334A926852
:101CF00043F8221059E040F2DC51314A12682C4B73
:101D000043F822104FF4E1612D4A526843F8221043
:101D10002B4A926843F8221047E040F2DC51294AEE
:101D20001268234B43F822104FF4E161254A5268B0
:101D300043F82210234A926843F8221035E040F21B
:101D4000DC51214A12681A4B43F822104FF4966175
:101D50001D4A526843F822101B4A926843F8221029
:101D600023E040F2DC51194A1268114B43F822106B
:101D70004FF49661154A526843F82210134A92684C
:101D800043F8221011E040F2DC51114A1268084B6E
:101D900043F822104FF496610D4A526843F822101E
:101DA0000B4A926843F8221000BF00BF7047000042
:101DB0005C0000203001002024010020DC00002015
:101DC000E8000020F4000020000100200C010020A9
:101DD0001801002040F2DC50FB490968FB4A42F838
:101DE00021004FF4E160F849496842F82100F649C2
:101DF000896842F8210040F2DC50F549096842F850
:101E000021004FF4E160F249496842F82100F049AD
:101E1000896842F8210040F2DC50EE49096842F836
:101E200021004FF4E160EB49496842F82100E9499B
:101E3000896842F8210040F2DC50E749096842F81D
:101E400021004FF49660E449496842F82100E249D4
:101E5000896842F8210040F2DC50E049096842F804
:101E600021004FF49660DD49496842F82100DB49C2
:101E7000896842F8210040F2DC50D949096842F8EB
:101E800021004FF49660D649496842F82100D449B0
:101E9000896842F82100704710B5044621460320A6
:101EA000FFF711FE21460120FFF70DFE2146052018
:101EB000FFF709FE0320FFF760FE0120FFF75DFE3C
:101EC0000520FFF75AFE10BD10B504466042FFF72B
:101ED000E3FF10BD10B5044621460320FFF798FE2E
:101EE00021460120FFF794FE21460520FFF790FED2
:101EF00010BD10B504466042FFF7ECFF10BD10B5F1
:101F0000044621460320FFF7D5FE21460120FFF7B6
:101F10007FFE21460520FFF7CDFE10BD10B504461B
:101F20006042FFF7ECFF10BD10B5044621460020CB
:101F3000FFF7C9FD21460420FFF7C5FD2146022019
:101F4000FFF7C1FD0020FFF718FE0420FFF715FE84
:101F50000220FFF712FE10BD10B504466042FFF7E5
:101F6000E3FF10BD10B5044621460020FFF750FEE8
:101F700021460420FFF74CFE21460220FFF748FED1
:101F800010BD10B504466042FFF7ECFF10BD10B560
:101F9000044621460020FFF73BFE21460420FFF7C0
:101FA00089FE21460220FFF733FE10BD10B504461E
:101FB0006042FFF7ECFF10BD38B58AA000680090C2
:101FC000684601F04FFB0446224669468648FFF703
:101FD00055FC38BD08B585A000680090022269460E
:101FE0008148FFF74BFC08BD10B50146002018E002
:101FF000754B53F82020232301F8203083005B1C0D
:10200000CA54724B33F82230C3F3072483009B1C5D
:10201000CC546E4B13F822408300DB1CCC54431C81
:10202000D8B20328E4DB1DE0032390FBF3F403FBA9
:102030001403674C54F82320232301F82030830035
:102040005B1CCA54614B33F82230C3F3072483006E
:102050009B1CCC545D4B13F822408300DB1CCC54FA
:10206000431CD8B20628DFDB1DE0032390FBF3F40A
:1020700003FB1403574C54F82320232301F820308A
:1020800083005B1CCA54514B33F82230C3F307243E
:1020900083009B1CCC544D4B13F822408300DB1C67
:1020A000CC54431CD8B20928DFDB1DE0032390FB8E
:1020B000F3F403FB1403484C54F82320232301F8C2
:1020C000203083005B1CCA54404B33F82230C3F3EA
:1020D000072483009B1CCC543C4B13F82240830004
:1020E000DB1CCC54431CD8B20C28DFDB1DE00323DF
:1020F00090FBF3F403FB1403384C54F82320232300
:1021000001F8203083005B1CCA54304B33F8223076
:10211000C3F3072483009B1CCC542C4B13F82240A0
:102120008300DB1CCC54431CD8B20F28DFDB1DE03E
:10213000032390FBF3F403FB1403294C54F82320EE
:10214000232301F8203083005B1CCA541F4B33F853
:102150002230C3F3072483009B1CCC541B4B13F881
:1021600022408300DB1CCC54431CD8B21228DFDB96
:10217000542301F82030012483005B1CCC5410BD93
:102180002DE9F04393B005460C46164600BF1420D7
:1021900094FBF0F808EB880040001549097800FB33
:1021A00001F94846FFF7EFFB2046FFF78DFE20467A
:1021B000FFF7BAFE6846FFF717FF4A2269460A484A
:1021C000FFF75CFB00279FE0DC0000205C000020A4
:1021D000E8000020F4000020000100200C01002095
:1021E0001801002053010000004400405302000089
:1021F000380100204846FFF7C6FB3046FFF779FE5E
:102200003046FFF7AFFE2046FFF7A6FE6846FFF711
:10221000EBFE4A226946FE48FFF730FB4846FFF7CF
:10222000B2FB2046FFF798FE6846FFF7DDFE4A2224
:102230006946F748FFF722FB4846FFF7A4FB204614
:10224000FFF72AFE6846FFF7CFFE4A226946F048AC
:10225000FFF714FB4846FFF796FB2046FFF71CFEEE
:102260003046FFF737FE3046FFF78BFE6846FFF734
:10227000BBFE4A226946E648FFF700FB4846FFF7E7
:1022800082FB2046FFF720FE3046FFF723FE304654
:10229000FFF777FE6846FFF7A7FE4A226946DC484B
:1022A000FFF7ECFA4846FFF76EFB2046FFF70CFEFF
:1022B0006846FFF799FE4A226946D548FFF7DEFADD
:1022C0004846FFF760FB2046FFF72EFE6846FFF703
:1022D0008BFE4A226946CE48FFF7D0FA4846FFF700
:1022E00052FB3046FFF705FE3046FFF73BFE204627
:1022F000FFF71AFE6846FFF777FE4A226946C44890
:10230000FFF7BCFA781CC7B2AF42FFF673AF48467E
:10231000FFF739FB2046FFF7BFFD2046FFF71CFE05
:102320006846FFF761FE4A226946B948FFF7A6FAF8
:1023300013B0BDE8F0832DE9F04393B005460C4699
:10234000164600BF142094FBF0F808EB880040000C
:10235000B049097800FB01F94846FFF714FB204615
:10236000FFF7B2FD2046FFF7DFFD6846FFF73CFEB2
:102370004A226946A648FFF781FA002789E04846C5
:10238000FFF701FB3046FFF7A5FD3046FFF7F9FDEB
:102390002046FFF7E1FD6846FFF726FE4A22694620
:1023A0009B48FFF76BFA4846FFF7EDFA2046FFF728
:1023B000D3FD6846FFF718FE4A2269469448FFF7A6
:1023C0005DFA4846FFF7DFFA2046FFF765FD6846ED
:1023D000FFF70AFE4A2269468D48FFF74FFA484642
:1023E000FFF7D1FA2046FFF757FD3046FFF781FD92
:1023F0003046FFF7B7FD6846FFF7F6FD4A2269460B
:102400008348FFF73BFA4846FFF7BDFA2046FFF73F
:102410005BFD3046FFF76DFD3046FFF7A3FD6846D4
:10242000FFF7E2FD4A2269467948FFF727FA484656
:10243000FFF7A9FA2046FFF747FD6846FFF7D4FDEE
:102440004A2269467248FFF719FA4846FFF79BFA95
:102450002046FFF769FD6846FFF7C6FD4A22694638
:102460006B48FFF70BFA4846FFF78DFA3046FFF747
:1024700031FD3046FFF785FD2046FFF755FD6846E4
:10248000FFF7B2FD4A2269466148FFF7F7F9781C69
:10249000C7B2AF42FFF673AF4846FFF774FA204663
:1024A000FFF7FAFC2046FFF757FD6846FFF79CFD53
:1024B0004A2269465648FFF7E1F913B0BDE8F083B8
:1024C0002DE9F04393B005460C46164600BF142094
:1024D00094FBF0F808EB880040004E49097800FBB7
:1024E00001F94846FFF74FFA2046FFF7EDFC20467A
:1024F000FFF71AFD6846FFF777FD4A226946444810
:10250000FFF7BCF900278EE04846FFF73CFA30465B
:10251000FFF704FD3046FFF73AFD2046FFF71CFDAC
:102520006846FFF761FD4A2269463948FFF7A6F978
:102530004846FFF728FA2046FFF70EFD6846FFF7EA
:1025400053FD4A2269463248FFF798F94846FFF79B
:102550001AFA2046FFF7A0FC6846FFF745FD4A221D
:1025600069462B48FFF78AF94846FFF70CFA2046E0
:10257000FFF792FC3046FFF7C2FC3046FFF716FD2E
:102580006846FFF731FD4A2269462148FFF776F990
:102590004846FFF7F8F92046FFF796FC3046FFF76C
:1025A000AEFC3046FFF702FD6846FFF71DFD4A22EC
:1025B00069461748FFF762F94846FFF7E4F92046F5
:1025C000FFF782FC6846FFF70FFD4A226946104874
:1025D000FFF754F94846FFF7D6F92046FFF7A4FC69
:1025E0006846FFF701FD4A2269460948FFF746F9A8
:1025F0004846FFF7C8F93046FFF790FC3046FFF732
:10260000C6FC2046FFF790FC6846FFF7EDFC03E0B0
:1026100000440040380100204A226946FE48FFF786
:102620002DF9781CC7B2AF42FFF66EAF4846FFF7F0
:10263000AAF92046FFF730FC2046FFF78DFC6846DC
:10264000FFF7D2FC4A226946F348FFF717F913B0A7
:10265000BDE8F0832DE9F04393B005460C461646DD
:1026600000BF142094FBF0F808EB88004000EB4911
:10267000097800FB01F94846FFF785F92046FFF786
:1026800023FC2046FFF750FC6846FFF7ADFC4A22CA
:102690006946E148FFF7F2F8002789E04846FFF76E
:1026A00072F93046FFF72BFC3046FFF77FFC2046DF
:1026B000FFF752FC6846FFF797FC4A226946D64866
:1026C000FFF7DCF84846FFF75EF92046FFF744FCC9
:1026D0006846FFF789FC4A226946CF48FFF7CEF8E3
:1026E0004846FFF750F92046FFF7D6FB6846FFF74C
:1026F0007BFC4A226946C848FFF7C0F84846FFF706
:1027000042F92046FFF7C8FB3046FFF707FC30468A
:10271000FFF73DFC6846FFF767FC4A226946BE4862
:10272000FFF7ACF84846FFF72EF92046FFF7CCFB41
:102730003046FFF7F3FB3046FFF729FC6846FFF70A
:1027400053FC4A226946B448FFF798F84846FFF719
:102750001AF92046FFF7B8FB6846FFF745FC4A2206
:102760006946AD48FFF78AF84846FFF70CF920465E
:10277000FFF7DAFB6846FFF737FC4A226946A648AE
:10278000FFF77CF84846FFF7FEF83046FFF7B7FB47
:102790003046FFF70BFC2046FFF7C6FB6846FFF705
:1027A00023FC4A2269469C48FFF768F8781CC7B2A8
:1027B000AF42FFF673AF4846FFF7E5F82046FFF754
:1027C0006BFB2046FFF7C8FB6846FFF70DFC4A226B
:1027D00069469148FFF752F813B0BDE8F083F0B5B1
:1027E00093B004460D46142094FBF0F606EB8600E9
:1027F00040008A49097800FB01F73846FFF7C3F823
:102800002046FFF761FB2046FFF78EFB6846FFF787
:10281000EBFB4A2269468048FFF730F887E03846EC
:10282000FFF7B1F82846FFF764FB2846FFF79AFB4D
:102830002046FFF791FB6846FFF7D6FB4A22694620
:102840007548FFF71BF83846FFF79DF82046FFF75D
:1028500083FB6846FFF7C8FB4A2269466E48FFF7CC
:102860000DF83846FFF78FF82046FFF715FB68464E
:10287000FFF7BAFB4A2269466748FEF7FFFF384672
:10288000FFF781F82046FFF707FB2846FFF722FBFA
:102890002846FFF776FB6846FFF7A6FB4A22694603
:1028A0005D48FEF7EBFF3846FFF76DF82046FFF76F
:1028B0000BFB2846FFF70EFB2846FFF762FB684636
:1028C000FFF792FB4A2269465348FEF7D7FF384686
:1028D000FFF759F82046FFF7F7FA6846FFF784FB41
:1028E0004A2269464C48FEF7C9FF3846FFF74BF8C5
:1028F0002046FFF719FB6846FFF776FB4A22694638
:102900004548FEF7BBFF3846FFF73DF82846FFF77E
:10291000F0FA2846FFF726FB2046FFF705FB68463E
:10292000FFF762FB4A2269463B48FEF7A7FF3C4897
:10293000007800283FF473AF3846FFF724F82046AC
:10294000FFF7AAFA2046FFF707FB6846FFF74CFBA4
:102950004A2269463048FEF791FF13B0F0BDF0B54A
:1029600093B004460D46142094FBF0F606EB860067
:1029700040002A49097800FB01F73846FFF703F8C1
:102980002046FFF7A1FA2046FFF7CEFA6846FFF788
:102990002BFB4A2269462048FEF770FF8EE038463E
:1029A000FEF7F1FF2846FFF795FA2846FFF7E9FA08
:1029B0002046FFF7D1FA6846FFF716FB4A22694620
:1029C0001548FEF75BFF3846FEF7DDFF2046FFF7B0
:1029D000C3FA6846FFF708FB4A2269460E48FEF72D
:1029E0004DFF3846FEF7CFFF2046FFF755FA684601
:1029F000FFF7FAFA4A2269460748FEF73FFF3846D2
:102A0000FEF7C1FF2046FFF747FA2846FFF771FAA5
:102A10002846FFF7A7FA05E00044004038010020EF
:102A2000190000206846FFF7DFFA4A226946F94894
:102A3000FEF724FF3846FEF7A6FF2046FFF744FACC
:102A40002846FFF756FA2846FFF78CFA6846FFF744
:102A5000CBFA4A226946EF48FEF710FF3846FEF7E8
:102A600092FF2046FFF730FA6846FFF7BDFA4A2288
:102A70006946E848FEF702FF3846FEF784FF204625
:102A8000FFF752FA6846FFF7AFFA4A226946E14873
:102A9000FEF7F4FE3846FEF776FF2846FFF71AFAEF
:102AA0002846FFF76EFA2046FFF73EFA6846FFF722
:102AB0009BFA4A226946D748FEF7E0FED6480078DE
:102AC00000283FF46CAF3846FEF75DFF2046FFF765
:102AD000E3F92046FFF740FA6846FFF785FA4A22F5
:102AE0006946CC48FEF7CAFE13B0F0BDF0B593B00E
:102AF00004460D46142094FBF0F606EB86004000D9
:102B0000C649097800FB01F73846FEF73CFF20462E
:102B1000FFF7DAF92046FFF707FA6846FFF764FA8D
:102B20004A226946BB48FEF7A9FE87E03846FEF711
:102B30002AFF2846FFF7F2F92846FFF728FA204631
:102B4000FFF70AFA6846FFF74FFA4A226946B1488A
:102B5000FEF794FE3846FEF716FF2046FFF7FCF915
:102B60006846FFF741FA4A226946AA48FEF786FE00
:102B70003846FEF708FF2046FFF78EF96846FFF754
:102B800033FA4A226946A348FEF778FE3846FEF734
:102B9000FAFE2046FFF780F92846FFF7B0F92846ED
:102BA000FFF704FA6846FFF71FFA4A226946994878
:102BB000FEF764FE3846FEF7E6FE2046FFF784F98E
:102BC0002846FFF79CF92846FFF7F0F96846FFF71B
:102BD0000BFA4A2269468F48FEF750FE3846FEF748
:102BE000D2FE2046FFF770F96846FFF7FDF94A224A
:102BF00069468848FEF742FE3846FEF7C4FE204686
:102C0000FFF792F96846FFF7EFF94A2269468148D3
:102C1000FEF734FE3846FEF7B6FE2846FFF77EF98B
:102C20002846FFF7B4F92046FFF77EF96846FFF71C
:102C3000DBF94A2269467748FEF720FE764800789D
:102C400000283FF473AF3846FEF79DFE2046FFF79D
:102C500023F92046FFF780F96846FFF7C5F94A22B5
:102C600069466C48FEF70AFE13B0F0BDF0B593B0AC
:102C700004460D46142094FBF0F606EB8600400057
:102C80006649097800FB01F73846FEF77CFE2046CE
:102C9000FFF71AF92046FFF747F96846FFF7A4F94E
:102CA0004A2269465B48FEF7E9FD87E03846FEF7B1
:102CB0006AFE2846FFF723F92846FFF777F92046F2
:102CC000FFF74AF96846FFF78FF94A2269465148EB
:102CD000FEF7D4FD3846FEF756FE2046FFF73CF9D6
:102CE0006846FFF781F94A2269464A48FEF7C6FD61
:102CF0003846FEF748FE2046FFF7CEF86846FFF755
:102D000073F94A2269464348FEF7B8FD3846FEF794
:102D10003AFE2046FFF7C0F82846FFF7FFF828469E
:102D2000FFF735F96846FFF75FF94A2269463948E7
:102D3000FEF7A4FD3846FEF726FE2046FFF7C4F84E
:102D40002846FFF7EBF82846FFF721F96846FFF71A
:102D50004BF94A2269462F48FEF790FD3846FEF7A8
:102D600012FE2046FFF7B0F86846FFF73DF94A2209
:102D700069462848FEF782FD3846FEF704FE2046E5
:102D8000FFF7D2F86846FFF72FF94A226946214833
:102D9000FEF774FD3846FEF7F6FD2846FFF7AFF85C
:102DA0002846FFF703F92046FFF7BEF86846FFF70D
:102DB0001BF94A2269461748FEF760FD164800785D
:102DC00000283FF473AF3846FEF7DDFD2046FFF7DD
:102DD00063F82046FFF7C0F86846FFF705F94A2276
:102DE00069460C48FEF74AFD13B0F0BD10B594B02B
:102DF00004460B490868FEF7DFFD48B108494868FA
:102E0000FEF7DAFD20B106498868FEF7D5FD48B91E
:102E100014B010BD0044004019000020380100200B
:102E200000010020FA490868FEF7C6FD48B1F849DC
:102E30004868FEF7C1FD20B1F5498868FEF7BCFD82
:102E400000B9E5E721460320FEF78FFE2146042066
:102E5000FEF78BFE21460520FEF787FE2146002067
:102E6000FEF731FE21460120FEF72DFE214602200D
:102E7000FEF729FE0320FEF780FE0420FEF77DFE0C
:102E80000520FEF77AFE0020FEF777FE0120FEF710
:102E900074FE0220FEF771FE01A8FFF7A5F84A2292
:102EA00001A9DC48FEF7EAFC00BFB1E710B5044613
:102EB0006042FFF79BFF10BD10B594B00446D649A1
:102EC0000868FEF779FD48B1D3494868FEF774FDFC
:102ED00020B1D1498868FEF76FFD08B914B010BD64
:102EE000CB490868FEF768FD48B1C9494868FEF754
:102EF00063FD20B1C6498868FEF75EFD00B9EDE7C5
:102F00002046FEF7C9FF2046FFF70EF801A8FFF79D
:102F10006BF84A2201A9BF48FEF7B0FC00BFDDE70D
:102F200010B594B00446BC490868FEF745FD48B1A9
:102F3000B9494868FEF740FD20B1B7498868FEF7F7
:102F40003BFD08B914B010BDB1490868FEF734FD67
:102F500048B1AF494868FEF72FFD20B1AC498868F9
:102F6000FEF72AFD00B9EDE72046FEF7ADFF20464B
:102F7000FEF7F2FF01A8FFF737F84A2201A9A5489A
:102F8000FEF77CFC00BFDDE710B594B0002405E03F
:102F900040F2DC50A14941F82400641C202CF7DBEE
:102FA00001A8FFF721F84A2201A99A48FEF766FC1A
:102FB00014B010BD10B594B0044699490868FEF7E6
:102FC000FBFC48B196494868FEF7F6FC20B19449ED
:102FD0008868FEF7F1FC08B914B010BD8E49086886
:102FE000FEF7EAFC48B18C494868FEF7E5FC20B1E1
:102FF00089498868FEF7E0FC00B9EDE72146022028
:10300000FEF761FD21460520FEF75DFD61420020CF
:10301000FEF759FD61420320FEF755FD0220FEF741
:10302000ACFD0520FEF7A9FD0020FEF7A6FD03205C
:10303000FEF7A3FD01A8FEF7D7FF4A2201A97548B4
:10304000FEF71CFC00BFC7E710B594B004467449F6
:103050000868FEF7B1FC48B171494868FEF7ACFC5E
:1030600020B16F498868FEF7A7FC08B914B010BDFD
:1030700069490868FEF7A0FC48B167494868FEF74F
:103080009BFC20B164498868FEF796FC00B9EDE727
:1030900061420220FEF717FD61420520FEF713FD95
:1030A00021460020FEF70FFD21460320FEF70BFD11
:1030B0000220FEF762FD0520FEF75FFD0020FEF70F
:1030C0005CFD0320FEF759FD01A8FEF78DFF4A22A3
:1030D00001A95048FEF7D2FB00BFC7E723220270C8
:1030E000504A127842704F4A11684C4A32F82120F7
:1030F000120A8270494A12F82120C27023220271FA
:10310000484A12794271474A5168444A32F82120AC
:10311000120A8271414A12F82120C27123220272DE
:10312000414A12784272404A11683C4A32F82120E2
:10313000120A8272394A12F82120C27223220273C3
:10314000394A12794273384A5168344A32F8212098
:10315000120A8273314A12F82120C27323220274A8
:10316000314A127A4274304A91682C4A32F821204E
:10317000120A8274294A12F82120C274542202755C
:1031800001224275704710B586B00446264908688A
:10319000FEF712FC08B906B010BD2046FEF75DFC34
:1031A0006846FFF79BFF162269461A48FEF766FB42
:1031B00000BFF0E710B586B004461B490868FEF76B
:1031C000FBFB08B906B010BD6042FEF746FC68463E
:1031D000FFF784FF162269460E48FEF74FFB00BF3B
:1031E000F0E710B586B004460F498868FEF7E4FBA7
:1031F00008B906B010BD2046FEF747FC6846FFF749
:103200006DFF162269460348FEF738FB00BFF0E762
:10321000DC00002000440040000100205C00002091
:1032200018010020300100202401002010B586B0D4
:103230000446F9498868FEF7BFFB08B906B010BD1F
:103240006042FEF722FC6846FFF748FF16226946F7
:10325000F248FEF713FB00BFF0E710B586B0044656
:10326000ED494868FEF7A8FB08B906B010BD204636
:10327000FEF7FFFB6846FFF731FF16226946E74875
:10328000FEF7FCFA00BFF0E710B586B00446E2494D
:103290004868FEF791FB08B906B010BD6042FEF722
:1032A000E8FB6846FFF71AFF16226946DB48FEF77F
:1032B000E5FA00BFF0E723220270D94A1278427083
:1032C000D74A1268D74B53F822100A0A8270C1708D
:1032D00023220271D24A12794271D14A526853F8BC
:1032E00022100A0A8271C1715422027201224272B2
:1032F00070473EB5FEF791FB04466846FFF7DBFFDB
:103300000A226946C548FEF7B9FA20463EBD3EB5D9
:103310000446C3490868FEF74FFB20B1C04948681E
:10332000FEF74AFB00B93EBD21460020FEF756FBE2
:1033300021460120FEF752FB6846FFF7BCFF0A2238
:103340006946B648FEF79AFA00BFECE710B50446A6
:103350006042FFF7DCFF10BD2DE9F041002500249D
:103360000026002700BF12E0FEF74DFA4421AB48CB
:10337000FDF7C7F9FEF733FA0646FEF730FA0746BF
:1033800007EB06203A21B0FBF1F004446D1C082D38
:10339000EADBE4082046BDE8F08130B501460020B4
:1033A00018E0A14B53F82020232301F8203083009C
:1033B0005B1CCA549B4B33F82230C3F307248300B1
:1033C0009B1CCC54974B13F822408300DB1CCC543D
:1033D000431CD8B20328E4DB1DE0032390FBF3F485
:1033E00003FB1403914C54F82320232301F82030CD
:1033F00083005B1CCA548B4B33F82230C3F3072481
:1034000083009B1CCC54874B13F822408300DB1CA9
:10341000CC54431CD8B20628DFDB1DE0032390FB0D
:10342000F3F403FB1403824C54F82320232301F804
:10343000203083005B1CCA547A4B33F82230C3F32C
:10344000072483009B1CCC54764B13F82240830046
:10345000DB1CCC54431CD8B20928DFDB1DE003235E
:1034600090FBF3F403FB1403724C54F82320232342
:1034700001F8203083005B1CCA546A4B33F82230B9
:10348000C3F3072483009B1CCC54664B13F82240E3
:103490008300DB1CCC54431CD8B20C28DFDB1DE0BE
:1034A000032390FBF3F403FB1403634C54F8232031
:1034B000232301F8203083005B1CCA54594B33F896
:1034C0002230C3F3072483009B1CCC54554B13F8C4
:1034D00022408300DB1CCC54431CD8B20F28DFDB16
:1034E0001DE0032390FBF3F403FB1403534C54F847
:1034F0002320232301F8203083005B1CCA54494B4E
:1035000033F82230C3F3072483009B1CCC54454B73
:1035100013F822408300DB1CCC54431CD8B2122881
:10352000DFDB1FE00346C41700EB9474A410A0EB8C
:103530008404394D55F82420232301F820308300DA
:103540005B1CCA54374B33F82230C3F30724830083
:103550009B1CCC54334B13F822408300DB1CCC540F
:10356000431CD8B21528DDDB542301F82030012498
:1035700083005B1CCC5430BD23220270264A127893
:103580004270254A1168274A32F82120120A8270B7
:10359000244A12F82120C270232202711E4A127995
:1035A00042711D4A51681F4A32F82120120A827165
:1035B0001C4A12F82120C27123220272164A127A82
:1035C0004272154A9168174A32F82120120A827213
:1035D000144A12F82120C27254220273012242734B
:1035E000704770B5FFF7B8FE85B2FFF782FE06465A
:1035F0003C2D00DD70BD052095FBF0F43C227821C8
:103600002046FEF7BDFDFFF7A7FE85B23046FFF767
:103610007EFE00BFEEE700002401002000440040D1
:10362000300100205C000020DC000020E8000020C9
:10363000F4000020000100200C01002018010020EF
:10364000D2B201E000F8012B491EFBD270470022E4
:10365000F6E710B513460A4604461946FFF7F0FF91
:10366000204610BD421C10F8011B0029FBD1801A16
:1036700070470000064C074D06E0E06840F001038B
:1036800094E8070098471034AC42F6D3FCF780FD6D
:10369000143800083438000870B501EB020410F843
:1036A000015B15F0070301D110F8013B2A1106D187
:1036B00010F8012B03E010F8016B01F8016B5B1EA1
:1036C000F9D12B0705D40023521E0FD401F8013B7A
:1036D000FAE710F8013B02F10202A1EB030303E059
:1036E00013F8015B01F8015B521EF9D5A142D6D354
:1036F000002070BD0FB4084B10B504A902AA0398AE
:1037000000F01BF8044602A9002000F07EF82046D5
:1037100010BC5DF814FB00000B38000802E008C87C
:10372000121F08C1002AFAD170477047002001E03B
:1037300001C1121F002AFBD170472DE9F84F9946AD
:10374000924688460546002759E0252801D0514673
:1037500023E0002315F8011F18462E2915D115F86E
:10376000011F04232A290DD06FF02F022978A1F11F
:103770003004092C09D800EB800002EB400008441B
:103780006D1CF3E758F8040B6D1C2A7872B3632A9A
:1037900008D0732A10D0514610464A46904707F188
:1037A00001072BE018F8042B8DF8002000218DF87C
:1037B00001106E46012103E058F8046B4FF0FF3111
:1037C0005A074FF0000401D409E0641C84420BDA6C
:1037D0008C42FADB325D002AF7D105E0641C8C4292
:1037E000FCDB305D0028F9D1274405E00AE016F83B
:1037F000010B51464A469047641EF8D26D1C28784A
:103800000028A2D13846BDE8F88F0A68531C0B6027
:103810001070704734380008000000203C010000A0
:10382000983600087C3800083C0100206405000040
:103830002C370008412D010203040405290607085E
:1038400009847A030A09163C0B7CDC0504399C3197
:103850003202320429133206320829AD29C132104E
:103860003211321232143215321632183219321A1B
:0C387000320D320E320F320372130000D2
:040000050800018965
:00000001FF
