:080000000C9455000C94000063
:100008000C9400000C9400000C942D010C9400003A
:100018000C9400000C9400000C9400000C94000058
:100028000C9400000C9470010C94CA010C9400000C
:100038000C945E010C9400000C9400000C943F0298
:100048000C948D000C9400000C94DA000C940000C1
:100058000C9400000C9400000C9400000C94000018
:100068001027E80364000A000100001000011000D6
:100078000100010203040507060008090A0B0C0D1C
:100088000E0F1716151413121110181F1E1D1C1B06
:100098001A190E00200003037A000100B7079A001E
:1000A8000000F894EE27EFBBF1E0F5BFE5BFF8E1FB
:1000B800A895A4B7A77FA4BFF0936000E093600061
:1000C8008DE0A2E0BB27ED938A95E9F780E098E000
:1000D800A0E0B1E0ED930197E9F7ECE9F0E0859154
:1000E8009591009761F0A591B59105901590BF0184
:1000F800F00105900D920197E1F7FB01F0CFE0E0E8
:10010800EEBBEFEFEDBFE8E0EEBFC0E0D3E00C944C
:1001180043020E945A071A930A931091C000009153
:10012800C6000E946107ECE1F0E0EA23FB23309768
:10013800E1F4E32DF42DE751FB4F0083E32DF42D7B
:1001480031963E2E4F2EE030A1E0FA0711F4332409
:100158004424E72DF82D31967E2E8F2EE030A1E035
:10016800FA0719F477248824F09A09911991ADC0F7
:100178001A93072C0828E9F3A9EEB4E0A50DB61DDB
:100188001C91E52DF62D31965E2E6F2EE030A1E004
:10019800FA0711F455246624F894E72DF82D3197C1
:1001A8007E2E8F2E7894E12F0C9440060A92AA9303
:1001B800BA93EA93FA93EFB7EA930D2C0E28B9F0A5
:1001C800ED2DFE2D3197DE2EEF2EA9EEB5E0AB0D0D
:1001D800BC1DEC91E093C600EB2DFC2D3196BE2E94
:1001E800CF2EE030A1E0FA0711F4BB24CC24E9912A
:1001F800EFBFF991E991B991A99109901895E0E0BB
:10020800F1E0ED15FE05D9F3F8940D2C0E2829F42C
:10021800E091C000F0E0E072B1F4E92DFA2DE75169
:10022800FA4FA881A083E92DFA2D31969E2EAF2E84
:10023800E030A1E0FA0711F49924AA24E1E0F0E003
:10024800DE0EEF1E03C0E881E093C60078940C949C
:10025800E8040A921A92AA93BA93EA93FA93EFB728
:10026800EA93E6B1F0E0E17011F0E2E019C0E5B51B
:10027800E030B9F00E946407AFEFB0E00E94B70821
:10028800DF01E6B5F0E0AE0FBF1FFD01F695E7957B
:10029800E0930003F0930103E1E0E0930203E0E060
:1002A800E5BDE991EFBFF991E991B991A99119904B
:1002B800099018950E945A07A0E0B3E0ED91FD91CE
:1002C8003196FE93EE93E0E0E6BDE991EFBFF99138
:1002D800E991B991A9911895EA93FA93EFB7EA933E
:1002E800E091A703F0E0ED5DFC4FE081EEBD00007A
:1002F8000000000000000000000000000000E09185
:10030800A703F0E0EC5BFC4FE081299A2998EEBD49
:1003180000000000000000000000000000000000D5
:10032800E091A703F0E0EB59FC4FE0812A9A2A9864
:10033800EEBD00000000000000000000000000000A
:100348000000E091A703F0E0EA57FC4FE0815E9AD5
:100358005E98EEBD000000000000000000000000F4
:100368000000000000000000000000000000000085
:1003780000005F9A5F98F198E0E0E0938500E093D1
:100388008400E991EFBFF991E9911895AA93BA937E
:10039800EA93FA93EFB7EA931A930A93E091A803C2
:1003A800F0E0ED5DFC4FE081EEBD000000000000D4
:1003B80000000000000000000000E091A803F0E049
:1003C800EC5BFC4FE081299A2998EEBD0000000003
:1003D800000000000000000000000000E091A803F9
:1003E800F0E0EB59FC4FE0812A9A2A98EEBD000014
:1003F8000000000000000000000000000000E09184
:10040800A803F0E0EA57FC4FE0815E9A5E98EEBDE3
:1004180000000000000000000000E091A803EF5F6A
:10042800E093A803E091A703A091A803EA175F9AB5
:100438005F9821F4F19AE0E0E093A803E091A80323
:10044800A9E2B4E0F0E0EE0FFF1FAE0FBF1F0D9161
:100458001C91F801EF2FFF27E7FDFFEFE0938B00DA
:1004680000938A0009911991E991EFBFF991E991F7
:10047800B991A99118951A931EB519911895E0E0AC
:10048800E093ED06F298F398F198F49AE1E0E0939E
:10049800AE07C5D10E94EA04E9B1F0E0E871F07056
:1004A8000E949C08EA930E947C04F49BB6C00E94B8
:1004B8006907E091E906F0E0E934A0E0FA0771F491
:1004C8000E946907A091E906A13010F0AF3108F049
:1004D80004C0E091E906E093AE079FC0E434A0E0D1
:1004E800FA0799F40E94A204E093B507F093B607BF
:1004F800E091B607EA930E940301E091B507F091F5
:10050800B607EA930E94030188C0E635A0E0FA071F
:1005180081F50E946907E091E906F0E0E134A0E086
:10052800FA0711F4E0E011C0E234A0E0FA0711F490
:10053800E1E00BC0E334A0E0FA0711F4E2E005C003
:10054800E434A0E0FA0741F4E3E0EA930E94C70428
:10055800E093B307F093B407E091B407EA930E94DD
:100568000301E091B307F091B407EA930E940301F5
:1005780054C0E335A0E0FA0761F40E946907A0912E
:10058800E906A13019F40E94370502C00E943A0515
:1005980044C0E332A0E0FA0791F50E946E070E947A
:1005A800BC00E093EA060E94BC00E093EB060E94C0
:1005B800BC00E093EC06A091ED06B0E0A251B94F63
:1005C800E091EA06F0E0ED5FFC4FE081EC93E0910A
:1005D800ED060E947607EA0FFB1F0F01A091EC06BB
:1005E800BB27F091EB06E0E0EA0FFB1FD001ED938B
:1005F800FC93E091ED06EF5FE093ED060EC0E43565
:10060800A0E0FA0751F40E946907F498E091E9061E
:10061800E03011F4F29A01C0F39AF29B21C0E0E0B5
:10062800E093AF070E947C0788F40E948207EA9350
:100638000E9489070E948C07FA93EA93E091AF071A
:10064800EA930E9442060E949107ECCFF19BFECFED
:100658000E944F05E0E0E093ED06F49AF298F198D5
:10066800F39BDBC0E0E0E093AF070E947C07A0F5B6
:100678000E9482070E9497070E949F070E948C078A
:10068800E015F10588F40E94A407E25BF84FBF016A
:100698000E94A8070E949F070E948C070E94B0072B
:1006A800E259F84FA0E014C00E94A407E25BF84F9B
:1006B800BF010E948907AE0FBF1F0D901C900E94BA
:1006C800A8070E948C070E94B007E259F84FA1E0E2
:1006D800A0830E949107C9CFEEE4F7E0FA93EA936A
:1006E800E091ED06EA930E943B07E093B207E0E051
:1006F800E093AF070E947C07A8F40E94A4070F01AB
:10070800E257F84FBF01A091B207BB27F001E25BA7
:10071800F84F0E94BA070E94D208DB01EC930E94AE
:100728009107E8CFE0E0E093AF07E091B207A0912E
:10073800AF07AE1710F00C940C04E0E0E093B0079C
:10074800E091ED06A091B007AE1710F00C94FD03F0
:10075800A091AF07BB270E94BD07E257F84F0E9440
:10076800BA070E94D708309739F40E94BD07E25BA8
:10077800F84FE081E13008F436C0A091B007B0E04E
:10078800A25BB84FEC91E150EC930E94BD07E25197
:10079800F94FE0810E949707EA0FFB1F0F01DF0165
:1007A8000E94F308DF010E94BD07E259F84F0E943A
:1007B800BA07309719F0E4E1F0E002C0ECEEFFEF81
:1007C800EA0FFB1FD001ED93FC93E091B107EA9388
:1007D8000E94A8070E948C07FA93EA93E091B00759
:1007E800EA930E944206E091B007EF5FE093B007FA
:1007F800A7CFF19BFECF0E944F05F198E091AE077D
:10080800F0E0FA93EA930E9456080E9491078DCF70
:10081800E0E0E093ED06F49AF39847CEFFCFE0E8E6
:10082800E0936100E0E0E0936100E5B9EEE3E4B94C
:10083800E1E0E8B9EEEFE7B9E8E1EBB9E4ECEAB9F1
:10084800E0E0E4BDE5BDE6BDEFEFE7BDE0E0E8BD13
:10085800E0938000E0938100E0938200E0938700BA
:10086800E0938600E0E9E0938900E0E0E093880007
:10087800EAE0E0938B00EDECE0938A00E0E0E0939F
:10088800B600E093B000E093B100E093B200E093CB
:10089800B300E093B400E0936900EDBBE093680017
:1008A800E1E0E0936C00E2E0EBBBE0936E00E6E091
:1008B800E0936F00E0E0E0937000E093C000E8EDA3
:1008C800E093C100E6E0E093C200E0E0E093C500F9
:1008D800EFE5E093C400E0E8E0BFE0E0E0937B00F0
:1008E800E0E5ECBDE1E0EDBDEDB5EEB57894089539
:1008F800E881F0E0309729F4E0E0E093C500E7E014
:100908001AC0E130A0E0FA0729F4E0E0E093C5005E
:10091800E7E111C0E230A0E0FA0729F4E0E0E09353
:10092800C500EFE508C0E330A0E0FA0731F4E1E0E4
:10093800E093C500EFE7E093C40046C0E0E0E09331
:100948000203E0E0F0E0E0930003F0930103419834
:1009580081E38A95F1F7419A81E38A95F1F7419805
:10096800E2E0E0936800E0910203E030E1F3E0E0C8
:10097800E09368000E946407309711F00E946E07A8
:100988000E9464070895EFE0E0937E00E0E0E093C2
:100998007C00E7E8E0937A00E881F0E0E0937C00EF
:1009A80081E38A95F1F70E94C107E064EC93E09136
:1009B8007A00F0E0E071D9F30E94C107E061EC939E
:1009C800E0917800F0917900219608951A930A939E
:1009D8000E94C607ACECBAE0AE1BBF0BA09329047B
:1009E800B0932A04EFEFFFEF6FEF7FEFE093A903D7
:1009F800F093AA036093AB037093AC03ECEDF5E0BE
:100A0800E0936904F0936A0400E010E00032E0E04B
:100A18001E0774F4F801A9EAB4E0EE0FFF1FAE0F49
:100A2800BF1FECEDF5E0ED93FC930F5F1F4FEECF8A
:100A3800E0E0E093A803E1E0E093A703E0E0E093BF
:100A48002303E0936503E0934403E0938603EFEF09
:100A5800E0932403E0936603E0934503E093870360
:100A68000991199108950E94CA070895E0E0E0935A
:100A78008100EEBDEDB5F0E00E949C080E949A0846
:100A88003097C1F3299A29982A9A2A985E9A5E98EB
:100A98005F9A5F9808951A93E0E0E0938100E091EF
:100AA800B807E093A7030E94D807ED5DFC4F0E94AA
:100AB800DC07EB59FC4F0E94DC07EC5BFC4F0E9403
:100AC800DC07EA57FC4F0E94DC07ED5DFC4F0E94F3
:100AD800BA07DF010E94DF070E94E807E0932303BB
:100AE8000E94D807EC5BFC4F0E94BA07FF93EF9374
:100AF8000E94ED07E8E00E948908AF91BF910E942B
:100B0800E807E09344030E94D807EB59FC4F0E9482
:100B1800BA07DF010E94DF070E94A3080E94E807C6
:100B2800E09365030E94D807EA57FC4F0E94BA0772
:100B3800FF93EF930E94ED07E8E10E948908AF91C7
:100B4800BF910E94E807E0938603E0916904F09161
:100B58006A040E94F6070E94FB070E940408A9E2A3
:100B6800B4E00E943C09ED93FC9311E0E091A703E7
:100B78001E1710F00C943E060E940A08ED5DFC4F0B
:100B8800FF93EF930E9461070E940D08ED5DFC4FF3
:100B98000E941408D0010E94E807AF91BF91EC931E
:100BA8000E940A08EC5BFC4FFF93EF930E946107D9
:100BB8000E940D08EC5BFC4F0E94BA07FF93EF936D
:100BC8000E942108E8E00E948908AF91BF910E9425
:100BD800E807AF91BF91EC930E940A08EB59FC4FCC
:100BE800FF93EF930E9461070E940D08EB59FC4F99
:100BF8000E9414080E94A308D0010E94E807AF9140
:100C0800BF91EC930E940A08EA57FC4FFF93EF93B9
:100C18000E9461070E940D08EA57FC4F0E94BA071C
:100C2800FF93EF930E942108E8E10E948908AF91A1
:100C3800BF910E94E807AF91BF91EC93E12FA9E221
:100C4800B4E00E942E08EA0FFB1FFF93EF93E12FF9
:100C58000E9432080E948C070E94F6070E94FB0738
:100C68000E940408AF91BF910E943C09ED93FC9348
:100C78001F5F7CCF0E94CA07199108950E944A0AF3
:100C8800A091A703BB27EC81F0E0EA0FE093B80737
:100C9800EF81A9EAB4E00E942E080E94350810E00E
:100CA800E091B8071E1710F00C94B1060E943C089A
:100CB800EA0FFB1FFF93EF93DF010E94F7087F9372
:100CC8006F93FF93EF930E944308AFEFBFEF8FEF4F
:100CD8009FEF0E946C08AF91BF918F919F910E94E6
:100CE8006208AF91BF910E94FD080E943C08AE0FB8
:100CF800BF1F0E94F7080E94460A69F5012FE0917C
:100D0800B8070E1710F5E02F0E944E080F01A02F0C
:100D1800BB270E94A808A355BC4F0E94F708D00122
:100D28000E94FD08E02F0E943208EA0FFB1F0F0106
:100D3800A02FBB27AA0FBB1FA559BB4F0E94F308C2
:100D4800D001ED93FC930F5FDACFE091B807E15043
:100D5800E093B80701C01F5FA3CF30E0E091B80768
:100D68003E1710F00C941B07E32F0E9432080E94D4
:100D78008C07AD81BE81EA17FB07C9F4E32F0E94F7
:100D88004E08FF93EF93DF010E94F7087F936F935C
:100D9800FF93EF930E944308AF91BF918F919F916A
:100DA8000E946708AF91BF910E94FD085CC0E32FC5
:100DB8000E9432080E948C07AD81BE81AE17BF0722
:100DC800A0F51091B807311748F5E12F0E943208B5
:100DD800EA0FFB1FBF010E9461070E940D08A9E6E8
:100DE800B4E0EE0FFF1F0E948C07DB01ED93FC932C
:100DF8000E943C08EA0FFB1FCF010E9461070E9476
:100E08000D08A9EAB3E00E949508AE0FBF1F0E9423
:100E1800F708DC010E94FD081150D5CFE32F0E948E
:100E280032080E943508E32F0AC03F5F97CFE09150
:100E3800B8070E9432080E943508E091B807A9EA6D
:100E4800B3E0F0E00E949508EA0FFB1FFF93EF93D1
:100E58000E944308AF91BF910E94FD08E091B80736
:100E6800EF5FE093B8070E944F0A289608951A93F7
:100E78000A93AB81BC81EC910E2F10E0EA811E171A
:100E880080F4AB81BC81EE27A10FBE1FEC910E1739
:100E980030F4AB81BC81EE27A10FBE1F0C911F5F00
:100EA800EDCFE02F1981088125960895AA93BA936A
:100EB800EA93FA93EFB7EA930895A12FB0E0089563
:100EC800E0910003F091010308950E94BC00E093B3
:100ED800E9060895EBB1F0E0A4E0B0E0EA27FB27CB
:100EE800EBB90895AEE0B7E0F0E0EE0FFF1F08950C
:100EF800E091ED06A091AF07AE170895E091AF0716
:100F0800F0E0E251F94FE0810895E091AF07EACFB0
:100F1800AE0FBF1F0E94F3080895E091AF07EF5F7F
:100F2800E093AF070895E093B107A9EAB4E0F0E0D1
:100F3800EE0FFF1F0895AE0FBF1F0D901C90E5CF59
:100F4800E091AF07F0E00895E091B107A9EAB4E0B5
:100F5800F0E0EE0FFF1F0895D001AE1BBF0BE4E1D8
:100F6800F0E00E94BF08DB01EC93EACFE081F0E0FB
:100F78000895E091B007F0E00895AAE7B0E0EC9199
:100F8800F0E00895E091B707F0E00895E0912A04B1
:100F9800E0938B00E0912904F0912A04E0938A0001
:100FA800E2E0E09381000895E091A703F0E008955E
:100FB800AFEFA083F9CFE091A903F091AA03609164
:100FC800AB037091AC0308950E94B2080E946C08AC
:100FD8000895A091A903B091AA038091AB039091C1
:100FE800AC0308950E94AD080E9475090895AAEF00
:100FF800BDEE8BEE9FE30E94F809DF01CB01C2CF63
:10100800F1DF0E9402090E94A8090895E12FF0E08B
:101018000895E1E0F0E00E940809EA1BFB0B08953F
:1010280000801124E12FA9EAB3E0F0E00E949508BE
:10103800AE0FBF1F0E94F7080895E12FA9EAB3E099
:10104800F0E00E949508AE0FBF1F0E94F708DF016D
:10105800CB010895F0E0EE0FFF1F0895A9E6B4E074
:10106800F9CFEA0FFB1FAD81BE81A083B18308953C
:10107800E12FA9EAB3E0F0E00E9495080895EF8116
:10108800F0E00E94AD08A1E0B0E080E090E00E94AE
:101098007D080895A9EAB3E0F0E00E949508EA0FF8
:1010A800FB1F0895E991F991309639F086E69EE0A4
:1010B8000197F1F7A8953197C9F70895EA23FB231B
:1010C800682379230895EA2BFB2B682B792B089545
:1010D800EA27FB27682779270895F195E195F040DD
:1010E8000895F09560957095E195FF4F6F4F7F4F8C
:1010F8000895EE230E2EFD01BC0131F0EE0FFF1F07
:10110800661F771F0A94D1F70895EE230E2EFD016E
:10111800BC0131F076956795F795E7950A94D1F774
:101128000895EE0FFF1FEE0FFF1F0895F595E79541
:10113800F595E795F595E795F595E7950895E62FE3
:10114800F72F60E070E00895AA0FBB1FAA0FBB1F1E
:1011580008956F2F660F660B762F08958B2F880FD3
:10116800880B982F0895FA9FF02DEB9FF00DEA9FBA
:10117800E02DF10D08950024112490E1AA0FBB1F62
:10118800001C111C0E1A1F0A18F40E0E1F1E01C097
:10119800A1609A9599F7FD01D001089512D0EBDF6F
:1011A8000EF49BDF0895E894B7FF04C0A095B095AE
:1011B80011966894F7FD91DFDEDFFD010EF48DDFF7
:1011C8000895E894F7FF02C088DF6894B7FF06C067
:1011D800A095B095119600F8039400FA0895ED9142
:1011E800FC9111970895ED91FD916D917C91139764
:1011F8000895ED93FD936D937C930895182E862F93
:10120800612D192E972F712D1B2EBF2FF12D1A2E00
:10121800AE2FE12D0895552342F4503811F4E0FF24
:1012280004C03196691F791F6BF050E8572711F4F5
:101238005F93C8C05F3F31F0660F000C5795679504
:10124800752F08955F9300200AF0C8C0C1C050E808
:10125800192E1522880F991F9527550F879550E845
:10126800072E0522660F771F7527550F6795089576
:10127800689401C0E8945F93F2DF703818F07F3FFC
:1012880008F4A0C056E1571BAAF4519558300EF443
:10129800593030F0EFEFFFEF6FEF7FE777F91AC0C3
:1012A80077275523B9F0EE0FFF1F661F771F5A9552
:1012B800D1F710C07727583028F0EF2FF62F672F77
:1012C8005850F9CF552331F076956795F795E795FE
:1012D8005A95D1F700200AF404DF5F9108956894C5
:1012E80001C0E894309760407040B1F0002426F0C7
:1012F800772312F40094F5DE172E7EE1112032F0E8
:101308007A95EE0FFF1F661F111CF9CFEF2FF62FEE
:10131800612D5F938ADF5F9108954F93AF01FD01BF
:10132800DA01AB01BC01CA01402D012C142E4F91EA
:101338000895EA0FFB1F681F0895E095F0956095E2
:10134800EF5FFF4F6F4F08955F9381DF903849F14A
:1013580050E81526703821F1572F591B13F112F454
:10136800DCDFFACF583118F0AA27BB278827583076
:1013780028F0AB2FB82F88275850F9CF552329F0DC
:101388008695B795A7955A95D9F7502D512562F0AE
:10139800D0DF38F46795F795E795739513F41EC079
:1013A800BCDF43DF5F910895EA1BFB0B680B51F02C
:1013B80010F40094C2DF6623A2F3EE0FFF1F661F2E
:1013C8007A95CBF7EE27FF27662777275F91089551
:1013D800EFEFFFEF6FE77FEF5F910895EFEFFFEF1C
:1013E8006FE77FE75F9108955F9331DF703851F3BE
:1013F800903841F301240894791F23F41CF300204A
:101408003AF3ECCF0F921F932F933F934F931127EB
:1014180022279927689FA0018F9F302D410D591FC2
:101428006B9F300D411D591F8E9F27D0BF9F25D020
:101438006A9F23D0BE9F1DD0AF9F1BD0AE9F110DBA
:10144800291F391F491F591FE32FF42F652F522FCA
:101458004F913F912F911F910F9066232AF0550FBE
:10146800EE1FFF1F661F02C073954BF2D4DE5F911B
:101478000895100D211D391F02C0200D311D491F6F
:10148800591F089530976040704008953A932A9301
:101498001A930A9308953B812A8119810881089536
:00000001FF
