:020000040800F2
:10000000A00600209D010008A5010008A701000826
:10001000A9010008AB010008AD01000800000000C4
:10002000000000000000000000000000AF01000818
:10003000B101000800000000B3010008B50100088C
:10004000B7010008B7010008B7010008B7010008B0
:10005000B7010008B7010008B7010008B7010008A0
:10006000B7010008B7010008B7010008B701000890
:10007000B7010008B7010008B7010008B701000880
:10008000B7010008B7010008B7010008B701000870
:10009000B7010008B7010008B7010008B701000860
:1000A000B7010008B7010008B7010008B701000850
:1000B000B7010008B7010008B7010008B701000840
:1000C000B7010008B7010008B7010008B701000830
:1000D000B701000831180008AB170008B701000885
:1000E000B7010008B7010008B7010008B701000810
:1000F000B7010008B7010008B7010008B701000800
:10010000B7010008B7010008B7010008B7010008EF
:10011000B7010008B7010008B7010008B7010008DF
:10012000B7010008B7010008B7010008B7010008CF
:10013000B7010008B7010008B7010008B7010008BF
:10014000B7010008B7010008B7010008B7010008AF
:10015000B7010008B7010008B7010008B70100089F
:10016000B7010008B7010008B7010008B70100088F
:10017000B7010008B7010008B7010008B70100087F
:10018000B7010008B7010008DFF80CD003F048FA07
:1001900000480047A50E0008A0060020064880473A
:1001A00006480047FEE7FEE7FEE7FEE7FEE7FEE75C
:1001B000FEE7FEE7FEE7FEE7C71500088901000835
:1001C00033490143334A1160704770B50021002361
:1001D0000F22C47824B32F4C246804F4E064C4F5DF
:1001E000E064C4F30721C1F10404E3B20A41447896
:1001F0009C40E1B28478144021430C07210E264C28
:1002000005786155047804F01F050124AC40057899
:100210006D114FF0E02606EB8505C5F8004109E0B9
:10022000047804F01F040125A5401C4C06787611C3
:1002300044F8265070BD1A4A0A400243154B1B1F52
:100240001A60704739B1134A121D12680243114BEC
:100250001B1D1A6006E00F4A121D126882430D4BE7
:100260001B1D1A607047042808D14FF0E02109696E
:1002700041F004014FF0E022116107E04FF0E0216E
:10028000096921F004014FF0E0221161704700007C
:100290000000FA050CED00E000E400E080E100E081
:1002A00080FFFF1F10B504468C48844208D101210D
:1002B000084600F00EFD0021012000F00AFD5EE07E
:1002C0008748844208D10121022000F002FD00216C
:1002D000022000F0FEFC52E08248844208D1012155
:1002E000042000F0F6FC0021042000F0F2FC46E0BF
:1002F0007D48844208D10121082000F0EAFC002159
:10030000082000F0E6FC3AE07848844208D1012158
:10031000102000F0DEFC0021102000F0DAFC2EE0BE
:100320007348844208D10121202000F0D2FC002132
:10033000202000F0CEFC22E06E48844208D101214A
:10034000402000F0C6FC0021402000F0C2FC16E076
:100350006948844208D10121802000F0BAFC0021C4
:10036000802000F0B6FC0AE06448844207D10121F5
:10037000801500F0AEFC0021A01500F0AAFC10BD15
:10038000F0B50A4600210023002400BF3DE001250E
:1003900005FA01F3156805EA03049C4234D10568A7
:1003A0004F000326BE40B543056015794E00B540A9
:1003B0000668354305601579012D02D01579022DA7
:1003C00016D185684F000326BE40B5438560557938
:1003D0004E00B540866835438560456801268E40ED
:1003E000B5434560456896798E40B6B23543456061
:1003F000C5684F000326BE40B543C560D5794E00A1
:10040000B540C6683543C560491C1029BFD3F0BD4F
:100410004FF6FF7101600021017141718171C1715D
:10042000704708B54FF480320092009A0A43009258
:10043000009AC261C161009AC261C2690092C26938
:10044000009208BD0246002013690B4201D0012032
:1004500000E0002070470146086980B270470246FC
:10046000002053690B4201D0012000E000207047BA
:100470000146486980B270470183704741837047E5
:100480000AB1018300E041837047416170474269CE
:100490004A4042617047F0B5002300244D07ED0E3D
:1004A00002FA05F3CE1000F1200555F826504E074C
:1004B000F70E0F26BE40B543CF1000F1200646F8D8
:1004C0002750CE1000F1200555F8265045EA0304C8
:1004D000CE1000F1200545F82640F0BD0000024096
:1004E0000004024000080240000C024000100240DC
:1004F0000014024000180240001C0240002002408C
:1005000010B50446F748844208D10121102000F0BC
:1005100037FC0021102000F033FC3EE0F24884421A
:1005200009D10121480400F01AFC00214FF40030E9
:1005300000F015FC31E0ED48844209D10121880426
:1005400000F00DFC00214FF4802000F008FC24E0B6
:10055000E748844209D10121C80400F000FC0021D1
:100560004FF4002000F0FBFB17E0E248844209D181
:100570000121080500F0F3FB00214FF4801000F08A
:10058000EEFB0AE0DC48844207D10121202000F084
:10059000F7FB0021202000F0F3FB10BD2DE9FF4701
:1005A00005460E460024A14600BFA046B08900B112
:1005B00000BF2C8A24F44054F08804432C82AC8978
:1005C00041F20C608443B088318908437189084343
:1005D0000443AC81AC8A24F44074B0890443AC82F7
:1005E000684600F08CFABF48854202D0C248854276
:1005F00002D1DDF80C9001E0DDF80890A88910F434
:10060000004F08D009EBC90000EB09103168490020
:10061000B0FBF1F707E009EBC90000EB0910316806
:100620008900B0FBF1F76420B7FBF0F0040120096A
:10063000642101FB1078A88910F4004F08D0322003
:1006400000EBC800B0FBF1F000F00700044308E045
:10065000322000EB08106421B0FBF1F000F00F0035
:1006600004432C81BDE8FF874FF41651016000213F
:100670008180C18001810C214181002181817047ED
:1006800010B502460020108A20F470600B884C8858
:1006900023438C882343CC8823431843108210BD06
:1006A0000021018041808180C180704721B1828911
:1006B00042F40052828104E082894DF6FF731A40B1
:1006C00082817047028B02F47F420283028B0A43CD
:1006D0000283704721B1828942F40042828103E0A3
:1006E0008289C2F30E028281704721B1828A42F46C
:1006F0000062828204E0828A4FF2FF731A40828293
:100700007047C1F308028280704701468888C0F3B1
:1007100008007047028A4FF6F0731A400282028A7C
:100720000A430282704721B1828942F0020282812B
:1007300004E082894FF6FD731A40828170478289F6
:100740004FF2FF731A40828182890A438281704787
:10075000028A4FF6DF731A400282028A0A4302823B
:10076000704721B1028A42F48042028204E0028A88
:100770004BF6FF731A4002827047818941F00101F4
:100780008181704721B1828A42F00802828204E0AE
:10079000828A4FF6F7731A4082827047028BD2B278
:1007A0000283028B42EA01220283704721B1828ACE
:1007B00042F02002828204E0828A4FF6DF731A4000
:1007C0008282704721B1828A42F01002828204E064
:1007D000828A4FF6EF731A4082827047828A4FF600
:1007E000FB731A408282828A0A438282704721B157
:1007F000828A42F00202828204E0828A4FF6FD730E
:100800001A40828270471AB1838A0B43838202E0C6
:10081000838A8B4383827047F0B503460024002609
:1008200000250020A1F510676A3F00D100BF1846DF
:10083000C1F3421401F01F06012707FA06F5012C47
:1008400001D10C3004E0022C01D1103000E0143052
:100850001AB107682F43076002E00768AF430760DB
:10086000F0BD02460020B1F5007F00D100BF138823
:100870000B4201D0012000E00020704701F400721B
:10088000B2F5007F00D100BFCA430280704770B547
:1008900002460024002300250020A1F510666A3ED0
:1008A00000D100BFC1F3421501F01F03012606FA73
:1008B00003F3012D02D19689334006E0022D02D1C7
:1008C000168A334001E0968A33400C12012606FA5C
:1008D00004F41688344013B10CB1012000E000206C
:1008E00070BD00000010014000440040004800407E
:1008F000004C0040005000400014014010B50022A0
:100900000023A1F510646A3C00D100BF0A12012443
:100910009440A3B2DC43048010BD0000FA48006894
:1009200040F00100F84908600020F74908310860EC
:10093000F5480068F5490840F3490860F448091D86
:100940000860081F006820F48020091F086000204C
:10095000ED490C31086070470021EB4A921C117080
:1009600011460870704710B5014600220023002090
:100970004A11012A02D1E44C236808E0022A03D17B
:10098000E14C7034236802E0DF4C7434236801F0DA
:100990001F02012494401C4201D0012000E00020ED
:1009A00010BD38B5002000900024002500BF312084
:1009B000FFF7D9FF05460098401C00900098B0F55D
:1009C000A06F01D0002DF2D03120FFF7CCFF08B18D
:1009D000012400E00024204638BD01460020CA4A18
:1009E000106820F0F80040EAC10010607047C94963
:1009F000086070470021C44A7032117011700128DC
:100A000002D004280AD104E00121BF4A70321170DB
:100A100005E00521BC4A7032117000E000BF00BF44
:100A20007047BD490860704770B5049C41EA821563
:100A30000126C6EB530645EA0645054345EA04652B
:100A4000B14E361D356070BDB249086670478201EF
:100A500042EA0172AC4B84331A607047AD49886634
:100A60007047AC49C864704702460020A64B083363
:100A7000186820F0EC6042EA01031843A24B0833E7
:100A800018607047024600209F4B0833186820F01A
:100A9000784042EA010318439B4B083318607047C3
:100AA00001460020984A0832106820F003000843ED
:100AB0001060704794480830006800F00C007047E0
:100AC00001460020904A0832106820F0F0000843E8
:100AD00010607047014600208B4A0832106820F4ED
:100AE000E05008431060704701460020864A0832F3
:100AF000106820F4604040EAC10010607047F0B513
:100B00000021002200240225002602237E4F083700
:100B10003F6807F00C0121B1042905D0082937D11D
:100B200005E07E4F076036E07D4F076033E0764F8B
:100B30003F1D3F68C7F38056734F3F1D3F6807F066
:100B40003F036EB1764FB7FBF3F7DFF8BCC10CF192
:100B5000040CDCF800C0CCF3881C07FB0CF40CE0A0
:100B60006E4FB7FBF3F7DFF8A0C10CF1040CDCF813
:100B700000C0CCF3881C07FB0CF4634F3F1D3F689B
:100B8000C7F301477F1C7D00B4FBF5F7076002E067
:100B9000624F076000BF00BF5B4F08373F6807F038
:100BA000F00109095F4F7A5C0768D7404760564FEC
:100BB00008373F6807F4E051890A5A4F7A5C476862
:100BC000D7408760504F08373F6807F46041490BB2
:100BD000544F7A5C4768D740C760F0BD002100F4ED
:100BE0004072B2F5407F0AD1474A0832116821F4B9
:100BF000F8114D4A02401143434A08321160424AFB
:100C000070321268C0F30B031A433F4B70331A6003
:100C1000704741494439086070473F49403908608E
:100C2000704742490860704739B1374A303212681C
:100C30000243354B30331A6006E0334A30321268D3
:100C40008243314B30331A60704739B12E4A343207
:100C5000126802432C4B34331A6006E02A4A3432BD
:100C600012688243284B34331A60704739B1264AE0
:100C7000383212680243244B38331A6006E0224AA5
:100C8000383212688243204B38331A60704739B1CA
:100C90001D4A4032126802431B4B40331A6006E083
:100CA000194A403212688243174B40331A6070472A
:100CB00039B1154A443212680243134B44331A6067
:100CC00006E0114A4432126882430F4B44331A60E3
:100CD000704739B10C4A1032126802430A4B103384
:100CE0001A6006E0084A103212688243064B10333D
:100CF0001A607047E1B1044A143212680243024B91
:100D000014331A6019E0000000380240FFFFF6FEBD
:100D10001030002400004742800E47420024F400B7
:100D200000127A0000000020FFFCFF0F5C01474228
:100D30005B4A126882435A4B1A60704739B1584A6D
:100D4000121D12680243564B1B1D1A6006E0544ADE
:100D5000121D12688243524B1B1D1A60704739B135
:100D60004F4A0C32126802434D4B0C331A6006E0B6
:100D70004B4A0C3212688243494B0C331A6070475D
:100D800039B1474A103212680243454B10331A609A
:100D900006E0434A103212688243414B10331A6016
:100DA000704739B13E4A3C32126802433C4B3C33F7
:100DB0001A6006E03A4A3C3212688243384B3C33B0
:100DC0001A60704739B1364A403212680243344BD8
:100DD00040331A6006E0324A403212688243304B98
:100DE00040331A60704739B12D4A443212680243C9
:100DF0002B4B44331A6006E0294A4432126882437E
:100E0000274B44331A60704739B1254A4C32126877
:100E10000243234B4C331A6006E0214A4C321268DD
:100E200082431F4B4C331A60704739B11C4A503211
:100E3000126802431A4B50331A6006E0184A5032C7
:100E400012688243164B50331A60704739B1144A06
:100E5000D21F12780243124BDB1F1A7006E0104AB1
:100E6000D21F127882430E4BDB1F1A7070470C485A
:100E70006030006840F08070094960310860704758
:100E800001460020064A083A12680A4201D00120B1
:100E900000E0002070470249891F08707047000079
:100EA0001438024008B500F062FD0020FD490880BA
:100EB000FD490870FD4908700120FD4908700020B7
:100EC000FC490870FC490870FC490870FC4908702E
:100ED000FC490870FC490870FC490870FC4908701E
:100EE000FC490870FC490870FC490870FC4908700E
:100EF000FC490870FC490870FC490870FC490870FE
:100F0000FC490870FC490870FC490870FC490870ED
:100F1000FC490870FC490870FC490870FC490870DD
:100F2000FC490870FC490870FC490870FC490870CD
:100F30009BE2DD480078002871D0DA48008840281C
:100F40007FD01EDC36285AD012DC322847D008DC8D
:100F5000012834D0022836D0032838D0312831D1A6
:100F600039E033283FD0342841D03528F7D142E04A
:100F70003738072826D2DFE800F0464A4E54585C3E
:100F80006000482871D009DCA0F141000728F1D2A7
:100F9000DFE800F05B5F63676C707400522871D00B
:100FA00006DC492877D0502879D05128D7D17AE06B
:100FB00053286AD0A12869D0DD28D0D17FE0012054
:100FC000BE49087086E00120D649087082E0012001
:100FD000D54908707EE00120B64908707AE001200A
:100FE000B549087076E00120B549087072E001202B
:100FF000B44908706EE00120B34908706AE001202E
:10100000B249087066E00120B549087062E001202D
:10101000B44908705EE00120B34908705AE05DE011
:101020000FE00120AA49087054E00120A949087086
:1010300050E00120A84908704CE00120A749087041
:1010400048E00120A949087044E00120AA4908703D
:1010500040E00120A74908703CE00120A449087045
:1010600038E00120A549087034E010E00120A449CF
:1010700008702FE00120A34908702BE00120A2494D
:10108000087027E013E006E009E014E01FE001200B
:101090009E4908701EE001209D4908701AE0012059
:1010A0009C49087016E001209B49087012E001205D
:1010B0009A4908700EE00120994908700AE002F090
:1010C00022F90446A1B29948FFF71BFB02E002F0A7
:1010D0005FFA00BF00BF00207349087077480078AE
:1010E00080B100F0C5FC00F0F3FC00F089FE9048F0
:1010F00002F02AF956228E498E4800F0BFFB0020EC
:101100006E4908708748007880B1012068490870EE
:1011100049208DF8000001208DF801000222694667
:10112000844800F0ABFB00207E4908707E480078C0
:1011300080B102205E49087049208DF8000002202D
:101140008DF80100022269467A4800F097FB0020E2
:10115000754908705E48007868B1002053490870EE
:101160003C21782001F053FB2E217048FFF7C9FA8B
:101170000020574908705748007868B100204B4953
:1011800008703C21782001F002FC2E216748FFF70F
:10119000B8FA00204F4908704F48007868B1002025
:1011A000424908703C21782001F0B8FC2E215F48AC
:1011B000FFF7A7FA0020484908704848007868B14E
:1011C00000203A4908703C21782001F067FD2E216B
:1011D0005648FFF796FA00204049087035480078D5
:1011E00098B100F0FFFE00F073FC00F009FE5048DB
:1011F00002F0AAF856224E494E4800F03FFB01206B
:101200004D49087000202B4908702B48007880B1A8
:1012100000F05EFC00F0F4FD454802F095F856221F
:101220004349444800F02AFB00F0EAFE002022492E
:1012300008702348007858B13C227821022000F041
:10124000B5FF2E213948FFF75CFA00201C490870D1
:101250001C48007858B13C227821022001F082F825
:101260002E213248FFF74DFA002016490870164823
:10127000007858B128227821012001F038F92E2178
:101280002A48FFF73EFA00200F4908700F480078FF
:1012900038B128227821012001F0F4F92E212348C9
:1012A0004CE050E01200002018000020190000203F
:1012B000380100201D0000201E0000201A00002020
:1012C0001F0000202000002021000020220000201C
:1012D00023000020240000202500002026000020FC
:1012E0002700002028000020290000202A000020DC
:1012F0002D0000202C0000202B0000202E000020BC
:101300002F0000203000002031000020320000209B
:10131000330000203400002035000020360000207B
:10132000370000201B0000201C000020001001409E
:101330003C0100200044004010000020FFF7E1F9CC
:101340000020574908705748007828B1282001F03C
:1013500061FE0020534908705348007828B12820C6
:1013600001F028FE0020504908705048007828B14C
:10137000282001F059FD00204C4908704C480078A5
:1013800028B1282001F08EFD002049490870494805
:10139000007828B1282001F0DDFD002045490870C3
:1013A0004548007828B1282001F0BAFD00204249C4
:1013B00008704248007820B101F0E6FD00203F4966
:1013C00008703F48007810B100203D4908703D4842
:1013D000007828B1642001F0A2FE0020394908708D
:1013E0003948007828B1642001F0B0FE0020364969
:1013F00008703648007828B1642001F0ECFE002027
:10140000324908703248007828B1642001F0FAFEB1
:1014100000202F4908702F48007828B1642001F07F
:10142000C3FE00202B4908702B48007828B16420A7
:1014300001F0A3FE0020284908702848007828B150
:10144000142001F02CFF0020244908702448007863
:1014500028B1142001F03DFF0020214908702148E7
:10146000007810B100201F49087062E51CB5012109
:101470000846FFF7D9FB4FF40040009001208DF89B
:10148000040000208DF8060001208DF807000220DE
:101490008DF8050069461448FEF772FF1CBD000078
:1014A0002200002027000020280000202900002022
:1014B0002A0000202B0000202C0000202D000020FE
:1014C0002E0000202F0000203000002031000020DE
:1014D00032000020330000203400002035000020BE
:1014E0003600002037000020000002400CB500202C
:1014F000019000907248006840F4803070490860A4
:1015000000BF6F48006800F4003000900198401C54
:101510000190009818B90198B0F5A06FF1D1684812
:10152000006810F4003F02D00120009001E000208C
:1015300000900098012845D161484030006840F093
:1015400080505F49403108605E48006840F4804048
:101550005C4908605A4808300068594908310860F9
:101560000846006840F4004008600846006840F4FF
:10157000A05008605448091F0860081F006840F028
:101580008070091F086000BF4D48006810F0007FA0
:10159000FAD040F205604D490860494808300068BB
:1015A00020F003004649083108600846006840F012
:1015B0000200086000BF42480830006800F00C00DC
:1015C0000828F8D10CBD10B53D48006840F0010076
:1015D0003B49086000203A490831086038480068F3
:1015E0003B490840364908603A48091D0860081F11
:1015F000006820F48020091F0860002030490C3169
:101600000860FFF773FF4FF000603349086010BDBA
:1016100070B500200022022300240221284D083545
:101620002D6805F00C0020B1042806D0082834D11C
:1016300007E02A4D2A4E356033E02A4D284E3560AA
:101640002FE01F4D2D1D2D68C5F380541C4D2D1D01
:101650002D6805F03F0154B1224DB5FBF1F5184E50
:10166000361D3668C6F3881605FB06F209E01B4DE9
:10167000B5FBF1F5124E361D3668C6F3881605FB2C
:1016800006F20F4D2D1D2D68C5F301456D1C6B0035
:10169000B2FBF3F5124E356003E0104D104E35608D
:1016A00000BF00BF064D08352D68C5F303150E4E6B
:1016B000705D0B4D2D68C540094E356070BD000052
:1016C000003802400070004008544007003C0240CF
:1016D000FFFFF6FE1030002408ED00E00024F400C7
:1016E0003800002000127A003C00002010B588B0BD
:1016F000044601214804FFF7CAFA01210846FFF712
:1017000093FA0C20069002208DF81C008DF81D0025
:1017100000208DF81E008DF81F0006A93E48FEF738
:101720002FFE072202213C48FEF7B5FE07220321C7
:101730003948FEF7B0FE072202213748FEF7ABFE1C
:101740004FF4165002900020ADF80C00ADF80E00DA
:10175000ADF81000ADF814000C20ADF8120002A98D
:101760002E48FEF71BFF01212C48FEF79FFF4FF488
:10177000A060FEF725FD26208DF8040000208DF8DE
:1017800005008DF8060001208DF8070001A8FEF77E
:101790001CFD012240F225512048FFF73DF80121B0
:1017A0001E48FEF783FF08B010BD10B540F225516A
:1017B0001A48FFF76CF888B11848FEF7A6FFC4B2C4
:1017C000174818490978445416480078401C1549B0
:1017D000087015480068401C1349086010BD00BF20
:1017E000114909680029FBD00D49104A1278885C1C
:1017F0000E490978491C0D4A11700B490968491EA8
:10180000094A1160704700200749086007490870BD
:101810000449087070470000000002400044004086
:101820009A010020510000204C00002050000020B0
:1018300010B5C0B05948008810F0200F1CD0574890
:10184000FEF763FF04464FF48071684601F0D5FE51
:101850005348028853A1684601F022FFAA2C03D105
:1018600001205149087005E050480480012050498A
:10187000087000BF00BF00BF40B010BD2DE9F041AF
:1018800007460D461646002400BF0EE000BF80212B
:101890003846FEF7E6FF0028F9D0295D3846FEF706
:1018A00030FF822C00DD02E0641CB442EEDB00BF9E
:1018B00000BF40213846FEF7D4FF0028F9D0BDE82C
:1018C000F08110B586B0044601211020FFF7F0F931
:1018D00001210220FFF7A8F9C020049002208DF812
:1018E00014008DF8150000208DF816008DF81700F3
:1018F00004A93048FEF744FD072206212D48FEF7D3
:10190000CAFD072211462B48FEF7C5FD00940020B2
:10191000ADF80400ADF80600ADF80800ADF80C0015
:101920000C20ADF80A0069461C48FEF737FE01227C
:1019300040F225511948FEF76FFF01211748FEF7C5
:10194000B5FE06B010BD08B54FF4A060FEF738FC38
:1019500025208DF8000000208DF801008DF8020090
:1019600001208DF803006846FEF72FFC08BD10B576
:10197000FFF7E9FF4FF41650FFF7A3FF4FF416509F
:10198000FFF7B4FE10BD01B549F64042009901FBD6
:1019900002F000E0401E0028FCD108BD001001400C
:1019A00058000020256300001900002012000020CC
:1019B00018000020000402400146FE4850F82100B3
:1019C000B0F5617F08D9FB4850F8210040F6340299
:1019D000904201D2012070470020FCE70146F54803
:1019E00050F8210040F63402904201D200207047A6
:1019F0000120FCE70146EF4850F82100B0F5617F77
:101A000001D9002070470120FCE710B510B1012872
:101A100018D10BE0E84A1268E64B53F82220521A1C
:101A2000E54B1B68E34C44F823200BE0E24A526884
:101A3000E04B53F822200A44DF4B5B68DD4C44F84E
:101A4000232000BF00BF10BDDB490968D94A52F806
:101A50002110C1F5FA604FF4FA61D74A1268D54BEC
:101A600043F822104910D44A526843F822107047B4
:101A700040F2DC50D0490968CE4A42F82100CE49F4
:101A8000496842F821007047CC490968C94A52F8B0
:101A900021100144C94A1268C64B43F8221070470E
:101AA000C6494968C34A52F821100144C34A5268E2
:101AB000C04B43F822107047C0498968BD4A52F8AC
:101AC00021100144BD4A9268BA4B43F82210704776
:101AD00040F2A460B9490968B64A42F8210040F2D0
:101AE000DC50B649496842F82100B449896842F897
:101AF0002100704710B506284CD2DFE800F0030F34
:101B00001B27333FAE4A5268AA4B53F822200A449F
:101B1000AB4B5B68A74C44F823203BE0A94A5268D2
:101B2000A44B53F822200A44A64B5B68A14C44F80E
:101B300023202FE0A44A52689E4B53F822200A44E7
:101B4000A14B5B689B4C44F8232023E09F4A5268DA
:101B5000984B53F82220521A9C4B5B68954C44F8E2
:101B6000232017E09A4A5268924B53F82220521AC7
:101B7000974B5B688F4C44F823200BE0954A5268E2
:101B80008C4B53F82220521A924B5B68894C44F8D4
:101B9000232000BF00BF10BD30B505460C46614292
:101BA0002846FFF7A7FF30BD062846D2DFE800F041
:101BB000030E19242F3A824949687E4A52F82110AF
:101BC0007F4A92687B4B43F8221036E07D49496892
:101BD000784A52F821107B4A9268764B43F82210DB
:101BE0002BE079494968734A52F82110764A926885
:101BF000704B43F8221020E0744949686D4A52F84E
:101C00002110724A92686B4B43F8221015E070491C
:101C10004968684A52F821106D4A9268654B43F84A
:101C200022100AE06B494968624A52F82110694A59
:101C30009268604B43F8221000BF00BF704710B598
:101C400006284CD2DFE800F0030F1B27333F5C4A25
:101C50001268584B53F822200A44594B1B68554CC4
:101C600044F823203BE0574A1268524B53F8222095
:101C70000A44544B1B684F4C44F823202FE0524A2F
:101C800012684C4B53F822200A444F4B1B68494CB6
:101C900044F8232023E04D4A1268464B53F8222093
:101CA000521A4A4B1B68434C44F8232017E0484A19
:101CB0001268404B53F82220521A454B1B683D4C8A
:101CC00044F823200BE0434A12683A4B53F8222091
:101CD000521A404B1B68374C44F8232000BF00BF0A
:101CE00010BD30B505460C4661422846FFF7A7FFF8
:101CF00030BD062815D2DFE800F0031527394B6FF9
:101D000040F2DC512E4A12682A4B43F822104FF45D
:101D1000E1612B4A526843F82210294A926843F83D
:101D200022106BE040F2DC51264A1268214B43F846
:101D300022104FF4E161234A526843F82210214AED
:101D4000926843F8221059E040F2DC511E4A1268B2
:101D5000184B43F822104FF4E1611B4A526843F8D4
:101D60002210194A926843F8221047E040F2DC51F1
:101D7000164A12680F4B43F822104FF49661134A2B
:101D8000526843F82210114A926843F8221035E055
:101D900040F2DC510E4A1268064B43F822104FF411
:101DA00096610B4A526843F82210094A926843F838
:101DB000221023E05C0000203001002024010020DC
:101DC000DC000020E8000020F400002000010020DA
:101DD0000C0100201801002040F2DC51FE4A12687C
:101DE000FE4B43F822104FF49661FB4A526843F8C9
:101DF0002210F94A926843F8221000BF00BF7047D2
:101E000040F2DC50F6490968F44A42F821004FF4E8
:101E1000E160F349496842F82100F149896842F8D4
:101E2000210040F2DC50EF49096842F821004FF4EC
:101E3000E160EC49496842F82100EA49896842F8C2
:101E4000210040F2DC50E849096842F821004FF4D3
:101E5000E160E549496842F82100E349896842F8B0
:101E6000210040F2DC50E149096842F821004FF4BA
:101E70009660DE49496842F82100DC49896842F8E9
:101E8000210040F2DC50DA49096842F821004FF4A1
:101E90009660D749496842F82100D549896842F8D7
:101EA000210040F2DC50CC49096842F821004FF48F
:101EB0009660C949496842F82100C749896842F8D3
:101EC0002100704710B5044621460320FFF712FE9B
:101ED00021460120FFF70EFE21460520FFF70AFEEE
:101EE0000320FFF761FE0120FFF75EFE0520FFF7EC
:101EF0005BFE10BD10B504466042FFF7E3FF10BD66
:101F000010B5044621460320FFF799FE2146012023
:101F1000FFF795FE21460520FFF791FE10BD10B595
:101F200004466042FFF7ECFF10BD10B504462146A1
:101F30000320FFF7D6FE21460120FFF780FE214651
:101F40000520FFF7CEFE10BD10B504466042FFF736
:101F5000ECFF10BD10B5044621460020FFF7CAFD76
:101F600021460420FFF7C6FD21460220FFF7C2FDEF
:101F70000020FFF719FE0420FFF716FE0220FFF7EE
:101F800013FE10BD10B504466042FFF7E3FF10BD1D
:101F900010B5044621460020FFF751FE21460420DB
:101FA000FFF74DFE21460220FFF749FE10BD10B598
:101FB00004466042FFF7ECFF10BD10B50446214611
:101FC0000020FFF73CFE21460420FFF78AFE214651
:101FD0000220FFF734FE10BD10B504466042FFF743
:101FE000ECFF10BD38B583A000680090684601F092
:101FF0000FFB0446224669467F48FFF73FFC38BD89
:1020000008B57EA000680090022269467A48FFF772
:1020100035FC08BD10B50146002018E0704B53F8A0
:102020002020232301F8203083005B1CCA546B4B13
:1020300033F82230C3F3072483009B1CCC54674B36
:1020400013F822408300DB1CCC54431CD8B2032875
:10205000E4DB1DE0032390FBF3F403FB1403614C6A
:1020600054F82320232301F8203083005B1CCA543A
:102070005A4B33F82230C3F3072483009B1CCC5403
:10208000564B13F822408300DB1CCC54431CD8B2BF
:102090000628DFDB1DE0032390FBF3F403FB1403AE
:1020A000514C54F82320232301F8203083005B1C7B
:1020B000CA544A4B33F82230C3F3072483009B1CD5
:1020C000CC54464B13F822408300DB1CCC54431CF9
:1020D000D8B20928DFDB1DE0032390FBF3F403FBF8
:1020E0001403424C54F82320232301F820308300AA
:1020F0005B1CCA54394B33F82230C3F307248300E6
:102100009B1CCC54354B13F822408300DB1CCC5471
:10211000431CD8B20C28DFDB1DE0032390FBF3F453
:1021200003FB1403324C54F82320232301F82030FE
:1021300083005B1CCA54294B33F82230C3F30724B5
:1021400083009B1CCC54254B13F822408300DB1CDE
:10215000CC54431CD8B20F28DFDB1DE0032390FBD7
:10216000F3F403FB14031C4C54F82320232301F83D
:10217000203083005B1CCA54184B33F82230C3F361
:10218000072483009B1CCC54144B13F8224083007B
:10219000DB1CCC54431CD8B21228DFDB542301F8DB
:1021A0002030012483005B1CCC5410BD2DE9F0438A
:1021B00093B005460C46164600BF142094FBF0F879
:1021C00008EB880040000E49097800FB01F94846F9
:1021D000FFF7D9FB204615E0180100205C00002025
:1021E000DC000020E8000020F400002000010020B6
:1021F0000C01002053010000004400405302000085
:1022000038010020FFF776FE2046FFF7A3FE684660
:10221000FFF700FF4A226946FE48FFF72FFB002721
:1022200089E04846FFF7AFFB3046FFF778FE3046BF
:10223000FFF7AEFE2046FFF7A5FE6846FFF7EAFE71
:102240004A226946F348FFF719FB4846FFF79BFB14
:102250002046FFF797FE6846FFF7DCFE4A226946F4
:10226000EC48FFF70BFB4846FFF78DFB2046FFF7D6
:1022700029FE6846FFF7CEFE4A226946E548FFF789
:10228000FDFA4846FFF77FFB2046FFF71BFE30466E
:10229000FFF736FE3046FFF78AFE6846FFF7BAFEC4
:1022A0004A226946DB48FFF7E9FA4846FFF76BFB2D
:1022B0002046FFF71FFE3046FFF722FE3046FFF7AD
:1022C00076FE6846FFF7A6FE4A226946D148FFF728
:1022D000D5FA4846FFF757FB2046FFF70BFE684646
:1022E000FFF798FE4A226946CA48FFF7C7FA4846F0
:1022F000FFF749FB2046FFF72DFE6846FFF78AFEF1
:102300004A226946C348FFF7B9FA4846FFF73BFB44
:102310003046FFF704FE3046FFF73AFE2046FFF74F
:1023200019FE6846FFF776FE4A226946B948FFF76C
:10233000A5FA781CC7B2AF42FFF673AF4846FFF765
:1023400022FB2046FFF7BEFD2046FFF71BFE684636
:10235000FFF760FE4A226946AE48FFF78FFA13B0D6
:10236000BDE8F0832DE9F04393B005460C461646D0
:1023700000BF142094FBF0F808EB88004000A64949
:10238000097800FB01F94846FFF7FDFA2046FFF700
:10239000B1FD2046FFF7DEFD6846FFF73BFE4A220F
:1023A00069469C48FFF76AFA002789E04846FFF72C
:1023B000EAFA3046FFF7A4FD3046FFF7F8FD204665
:1023C000FFF7E0FD6846FFF725FE4A22694691487F
:1023D000FFF754FA4846FFF7D6FA2046FFF7D2FD3A
:1023E0006846FFF717FE4A2269468A48FFF746FA11
:1023F0004846FFF7C8FA2046FFF764FD6846FFF736
:1024000009FE4A2269468348FFF738FA4846FFF733
:10241000BAFA2046FFF756FD3046FFF780FD3046FA
:10242000FFF7B6FD6846FFF7F5FD4A226946794891
:10243000FFF724FA4846FFF7A6FA2046FFF75AFDB1
:102440003046FFF76CFD3046FFF7A2FD6846FFF708
:10245000E1FD4A2269466F48FFF710FA4846FFF748
:1024600092FA2046FFF746FD6846FFF7D3FD4A2261
:1024700069466848FFF702FA4846FFF784FA2046A3
:10248000FFF768FD6846FFF7C5FD4A2269466148C7
:10249000FFF7F4F94846FFF776FA3046FFF730FDCC
:1024A0003046FFF784FD2046FFF754FD6846FFF7EE
:1024B000B1FD4A2269465748FFF7E0F9781CC7B2D8
:1024C000AF42FFF673AF4846FFF75DFA2046FFF7CD
:1024D000F9FC2046FFF756FD6846FFF79BFD4A22B0
:1024E00069464C48FFF7CAF913B0BDE8F0832DE9FF
:1024F000F04393B005460C46164600BF142094FBEB
:10250000F0F808EB880040004349097800FB01F926
:102510004846FFF738FA2046FFF7ECFC2046FFF765
:1025200019FD6846FFF776FD4A2269463948FFF7EC
:10253000A5F900278FE04846FFF725FA3046FFF758
:1025400003FD3046FFF739FD2046FFF71BFD6846C7
:10255000FFF760FD4A2269462E48FFF78FF948468B
:10256000FFF711FA2046FFF70DFD6846FFF752FD11
:102570004A2269462748FFF781F94846FFF703FAE0
:102580002046FFF79FFC6846FFF744FD4A22694654
:102590002048FFF773F94846FFF7F5F92046FFF7A3
:1025A00091FC3046FFF7C1FC3046FFF715FD684649
:1025B000FFF730FD4A2269461648FFF75FF94846A3
:1025C000FFF7E1F92046FFF795FC3046FFF7ADFC39
:1025D0003046FFF701FD6846FFF71CFD4A226946B9
:1025E0000C48FFF74BF94846FFF7CDF92046FFF7B7
:1025F00081FC6846FFF70EFD4A2269460548FFF751
:102600003DF94846FFF7BFF92046FFF7A3FC6846AF
:1026100004E000000044004038010020FFF7FAFC0D
:102620004A226946FE48FFF729F94846FFF7ABF909
:102630003046FFF789FC3046FFF7BFFC2046FFF726
:1026400089FC6846FFF7E6FC4A226946F448FFF732
:1026500015F9781CC7B2AF42FFF66DAF4846FFF7D9
:1026600092F92046FFF72EFC2046FFF78BFC6846C8
:10267000FFF7D0FC4A226946E948FFF7FFF813B09C
:10268000BDE8F0832DE9F04393B005460C461646AD
:1026900000BF142094FBF0F808EB88004000E149EB
:1026A000097800FB01F94846FFF76DF92046FFF76E
:1026B00021FC2046FFF74EFC6846FFF7ABFC4A22A0
:1026C0006946D748FFF7DAF8002789E04846FFF760
:1026D0005AF93046FFF729FC3046FFF77DFC2046CB
:1026E000FFF750FC6846FFF795FC4A226946CC4844
:1026F000FFF7C4F84846FFF746F92046FFF742FCCB
:102700006846FFF787FC4A226946C548FFF7B6F8D6
:102710004846FFF738F92046FFF7D4FB6846FFF735
:1027200079FC4A226946BE48FFF7A8F84846FFF7F9
:102730002AF92046FFF7C6FB3046FFF705FC304676
:10274000FFF73BFC6846FFF765FC4A226946B44840
:10275000FFF794F84846FFF716F92046FFF7CAFB43
:102760003046FFF7F1FB3046FFF727FC6846FFF7DE
:1027700051FC4A226946AA48FFF780F84846FFF70D
:1027800002F92046FFF7B6FB6846FFF743FC4A22F2
:102790006946A348FFF772F84846FFF7F4F8204669
:1027A000FFF7D8FB6846FFF735FC4A2269469C488C
:1027B000FFF764F84846FFF7E6F83046FFF7B5FB49
:1027C0003046FFF709FC2046FFF7C4FB6846FFF7D9
:1027D00021FC4A2269469248FFF750F8781CC7B29C
:1027E000AF42FFF673AF4846FFF7CDF82046FFF73C
:1027F00069FB2046FFF7C6FB6846FFF70BFC4A2241
:1028000069468748FFF73AF813B0BDE8F083F0B5A2
:1028100093B004460D46142094FBF0F606EB8600B8
:1028200040008049097800FB01F73846FFF7ABF814
:102830002046FFF75FFB2046FFF78CFB6846FFF75B
:10284000E9FB4A2269467648FFF718F887E03846E0
:10285000FFF799F82846FFF762FB2846FFF798FB39
:102860002046FFF78FFB6846FFF7D4FB4A226946F4
:102870006B48FFF703F83846FFF785F82046FFF767
:1028800081FB6846FFF7C6FB4A2269466448FEF7AB
:10289000F5FF3846FFF777F82046FFF713FB684649
:1028A000FFF7B8FB4A2269465D48FEF7E7FF384666
:1028B000FFF769F82046FFF705FB2846FFF720FBE6
:1028C0002846FFF774FB6846FFF7A4FB4A226946D7
:1028D0005348FEF7D3FF3846FFF755F82046FFF779
:1028E00009FB2846FFF70CFB2846FFF760FB68460C
:1028F000FFF790FB4A2269464948FEF7BFFF38467A
:10290000FFF741F82046FFF7F5FA6846FFF782FB2C
:102910004A2269464248FEF7B1FF3846FFF733F8CE
:102920002046FFF717FB6846FFF774FB4A2269460B
:102930003B48FEF7A3FF3846FFF725F82846FFF788
:10294000EEFA2846FFF724FB2046FFF703FB684614
:10295000FFF760FB4A2269463148FEF78FFF324895
:10296000007800283FF473AF3846FFF70CF8204694
:10297000FFF7A8FA2046FFF705FB6846FFF74AFB7A
:102980004A2269462648FEF779FF13B0F0BDF0B53C
:1029900093B004460D46142094FBF0F606EB860037
:1029A00040002049097800FB01F73846FEF7EBFFAD
:1029B0002046FFF79FFA2046FFF7CCFA6846FFF75C
:1029C00029FB4A2269461648FEF758FF8EE0384632
:1029D000FEF7D9FF2846FFF793FA2846FFF7E7FAF4
:1029E0002046FFF7CFFA6846FFF714FB4A226946F4
:1029F0000B48FEF743FF3846FEF7C5FF2046FFF7BA
:102A0000C1FA6846FFF706FB4A2269460448FEF70A
:102A100035FF3846FEF7B7FF2046FFF753FA05E0CB
:102A20000044004038010020190000206846FFF7EC
:102A3000F1FA4A226946F948FEF720FF3846FEF7C8
:102A4000A2FF2046FFF73EFA2846FFF768FA28461D
:102A5000FFF79EFA6846FFF7DDFA4A226946EF481B
:102A6000FEF70CFF3846FEF78EFF2046FFF742FACE
:102A70002846FFF754FA2846FFF78AFA6846FFF718
:102A8000C9FA4A226946E548FEF7F8FE3846FEF7DD
:102A90007AFF2046FFF72EFA6846FFF7BBFA4A2274
:102AA0006946DE48FEF7EAFE3846FEF76CFF204630
:102AB000FFF750FA6846FFF7ADFA4A226946D74851
:102AC000FEF7DCFE3846FEF75EFF2846FFF718FAF1
:102AD0002846FFF76CFA2046FFF73CFA6846FFF7F6
:102AE00099FA4A226946CD48FEF7C8FECC480078DC
:102AF00000283FF46CAF3846FEF745FF2046FFF74D
:102B0000E1F92046FFF73EFA6846FFF783FA4A22CA
:102B10006946C248FEF7B2FE13B0F0BDF0B593B0FF
:102B200004460D46142094FBF0F606EB86004000A8
:102B3000BC49097800FB01F73846FEF724FF204620
:102B4000FFF7D8F92046FFF705FA6846FFF762FA63
:102B50004A226946B148FEF791FE87E03846FEF703
:102B600012FF2846FFF7F0F92846FFF726FA20461D
:102B7000FFF708FA6846FFF74DFA4A226946A74868
:102B8000FEF77CFE3846FEF7FEFE2046FFF7FAF918
:102B90006846FFF73FFA4A226946A048FEF76EFEF4
:102BA0003846FEF7F0FE2046FFF78CF96846FFF73F
:102BB00031FA4A2269469948FEF760FE3846FEF728
:102BC000E2FE2046FFF77EF92846FFF7AEF92846D9
:102BD000FFF702FA6846FFF71DFA4A2269468F4856
:102BE000FEF74CFE3846FEF7CEFE2046FFF782F990
:102BF0002846FFF79AF92846FFF7EEF96846FFF7EF
:102C000009FA4A2269468548FEF738FE3846FEF73B
:102C1000BAFE2046FFF76EF96846FFF7FBF94A2235
:102C200069467E48FEF72AFE3846FEF7ACFE20468F
:102C3000FFF790F96846FFF7EDF94A2269467748B1
:102C4000FEF71CFE3846FEF79EFE2846FFF77CF98D
:102C50002846FFF7B2F92046FFF77CF96846FFF7F0
:102C6000D9F94A2269466D48FEF708FE6C4800789B
:102C700000283FF473AF3846FEF785FE2046FFF785
:102C800021F92046FFF77EF96846FFF7C3F94A228B
:102C900069466248FEF7F2FD13B0F0BDF0B593B09F
:102CA00004460D46142094FBF0F606EB8600400027
:102CB0005C49097800FB01F73846FEF764FE2046C0
:102CC000FFF718F92046FFF745F96846FFF7A2F924
:102CD0004A2269465148FEF7D1FD87E03846FEF7A3
:102CE00052FE2846FFF721F92846FFF775F92046DE
:102CF000FFF748F96846FFF78DF94A2269464748C9
:102D0000FEF7BCFD3846FEF73EFE2046FFF73AF9D7
:102D10006846FFF77FF94A2269464048FEF7AEFD54
:102D20003846FEF730FE2046FFF7CCF86846FFF73E
:102D300071F94A2269463948FEF7A0FD3846FEF788
:102D400022FE2046FFF7BEF82846FFF7FDF828468A
:102D5000FFF733F96846FFF75DF94A2269462F48C5
:102D6000FEF78CFD3846FEF70EFE2046FFF7C2F850
:102D70002846FFF7E9F82846FFF71FF96846FFF7EE
:102D800049F94A2269462548FEF778FD3846FEF79C
:102D9000FAFD2046FFF7AEF86846FFF73BF94A22F6
:102DA00069461E48FEF76AFD3846FEF7ECFD2046F0
:102DB000FFF7D0F86846FFF72DF94A226946174811
:102DC000FEF75CFD3846FEF7DEFD2846FFF7ADF85E
:102DD0002846FFF701F92046FFF7BCF86846FFF7E1
:102DE00019F94A2269460D48FEF748FD0C4800785B
:102DF00000283FF473AF3846FEF7C5FD2046FFF7C5
:102E000061F82046FFF7BEF86846FFF703F94A224B
:102E100069460248FEF732FD13B0F0BD00440040A1
:102E2000190000203801002010B594B00446FA497A
:102E30004868FEF7D3FD08B114B010BD2146032049
:102E4000FEF7AAFE21460420FEF7A6FE2146052035
:102E5000FEF7A2FE21460020FEF74CFE214601208F
:102E6000FEF748FE21460220FEF744FE0320FEF74F
:102E70009BFE0420FEF798FE0520FEF795FE00203D
:102E8000FEF792FE0120FEF78FFE0220FEF78CFE79
:102E900001A8FFF7BFF84A2201A9E048FEF7EEFCBF
:102EA00000BFC9E710B594B00446DB494868FEF797
:102EB000A1FD08B114B010BD21460320FEF71AFE93
:102EC00021460420FEF716FE21460520FEF712FEDD
:102ED00021460020FEF760FE21460120FEF75CFE41
:102EE00021460220FEF758FE0320FEF75DFE042077
:102EF000FEF75AFE0520FEF757FE0020FEF754FEAF
:102F00000120FEF751FE0220FEF74EFE01A8FFF75A
:102F100081F84A2201A9C148FEF7B0FC00BFC9E709
:102F200010B594B00446BC494868FEF757FD08B197
:102F300014B010BD2046FEF7C5FF2046FFF70AF883
:102F400001A8FFF767F84A2201A9B448FEF796FCEA
:102F500000BFEDE710B594B00446AF494868FEF7EE
:102F600049FD08B114B010BD2046FEF7C3FF20464E
:102F7000FFF708F801A8FFF74DF84A2201A9A74872
:102F8000FEF77CFC00BFEDE710B594B0002405E02F
:102F900040F2DC50A24941F82400641C202CF7DBED
:102FA00001A8FFF737F84A2201A99C48FEF766FC02
:102FB00014B010BD10B594B0044697494868FEF7A8
:102FC00019FD08B114B010BD21460220FEF792FD94
:102FD00021460520FEF78EFD61420020FEF78AFDA6
:102FE00061420320FEF786FD0220FEF7DDFD05208D
:102FF000FEF7DAFD0020FEF7D7FD0320FEF7D4FD33
:1030000001A8FFF707F84A2201A98448FEF736FC19
:1030100000BFD7E710B594B004467F494868FEF773
:10302000DDFC08B114B010BD61420220FEF762FD64
:1030300061420520FEF75EFD21460020FEF75AFDA5
:1030400021460320FEF756FD0220FEF7ADFD0520C8
:10305000FEF7AAFD0020FEF7A7FD0320FEF7A4FD62
:1030600001A8FEF7D7FF4A2201A96C48FEF706FC2B
:1030700000BFD7E7232202706A4A12784270694A79
:103080001168674A32F82120120A8270644A12F8E5
:103090002120C27023220271624A12794271614A70
:1030A00051685F4A32F82120120A82715C4A12F894
:1030B0002120C271232202725B4A127842725A4A5C
:1030C0001168574A32F82120120A8272544A12F8C3
:1030D0002120C27223220273534A12794273524A48
:1030E00051684F4A32F82120120A82734C4A12F872
:1030F0002120C273232202744B4A127A42744A4A34
:103100009168474A32F82120120A8274444A12F820
:103110002120C2745422027501224275704710B5F5
:1031200086B0044640490868FEF758FC08B106B06E
:1031300010BD2046FEF7A8FC6846FFF79BFF16224D
:1031400069463648FEF79AFB00BFF0E710B586B037
:10315000044635490868FEF74DFC08B106B010BDBD
:103160006042FEF791FC6846FFF784FF162269462D
:103170002A48FEF783FB00BFF0E710B586B004468F
:1031800029498868FEF72AFC08B106B010BD204620
:10319000FEF792FC6846FFF76DFF162269461F484E
:1031A000FEF76CFB00BFF0E710B586B004461E4981
:1031B0008868FEF71FFC08B106B010BD6042FEF73C
:1031C0007BFC6846FFF756FF162269461348FEF758
:1031D00055FB00BFF0E710B586B0044612494868B9
:1031E000FEF7FCFB08B106B010BD2046FEF758FC08
:1031F0006846FFF73FFF162269460848FEF73EFB88
:1032000000BFF0E710B586B0044607494868FEF7EE
:10321000F1FB58B106B010BDDC00002000440040B6
:103220005C00002030010020240100206042FEF7F5
:1032300037FC6846FFF71EFF16226946E148FEF795
:103240001DFB00BFE6E723220270DF4A12784270BE
:10325000DD4A1268DD4B53F822100A0A8270C170F1
:1032600023220271D84A12794271D74A526853F820
:1032700022100A0A8271C171542202720122427222
:1032800070473EB5FEF7E0FB04466846FFF7DBFFFC
:103290000A226946CB48FEF7F1FA20463EBD3EB50C
:1032A0000446C9494868FEF799FB00B13EBD214676
:1032B0000020FEF7AAFB21460120FEF7A6FB684688
:1032C000FFF7C1FF0A226946BE48FEF7D7FA00BFE2
:1032D000ECE73EB50446BC494868FEF78BFB00B1FD
:1032E0003EBD21460020FEF790FB21460120FEF75F
:1032F0008CFB6846FFF7A7FF0A226946B148FEF734
:10330000BDFA00BFECE72DE9F041002500240026BE
:10331000002700BF12E0FEF776FA4421A948FDF726
:10332000F0F9FEF75CFA0646FEF759FA074607EB96
:1033300006203A21B0FBF1F004446D1C082DEADBB5
:10334000E4082046BDE8F08130B50146002018E0D1
:103350009F4B53F82020232301F8203083005B1C6F
:10336000CA549A4B33F82230C3F3072483009B1CC2
:10337000CC54964B13F822408300DB1CCC54431CE6
:10338000D8B20328E4DB1DE0032390FBF3F403FB36
:103390001403904C54F82320232301F82030830099
:1033A0005B1CCA54894B33F82230C3F307248300D3
:1033B0009B1CCC54854B13F822408300DB1CCC545F
:1033C000431CD8B20628DFDB1DE0032390FBF3F497
:1033D00003FB1403804C54F82320232301F82030EE
:1033E00083005B1CCA54794B33F82230C3F30724A3
:1033F00083009B1CCC54754B13F822408300DB1CCC
:10340000CC54431CD8B20928DFDB1DE0032390FB1A
:10341000F3F403FB1403714C54F82320232301F825
:10342000203083005B1CCA54684B33F82230C3F34E
:10343000072483009B1CCC54644B13F82240830068
:10344000DB1CCC54431CD8B20C28DFDB1DE003236B
:1034500090FBF3F403FB1403614C54F82320232363
:1034600001F8203083005B1CCA54584B33F82230DB
:10347000C3F3072483009B1CCC54544B13F8224005
:103480008300DB1CCC54431CD8B20F28DFDB1DE0CB
:10349000032390FBF3F403FB1403524C54F8232052
:1034A000232301F8203083005B1CCA54474B33F8B8
:1034B0002230C3F3072483009B1CCC54434B13F8E6
:1034C00022408300DB1CCC54431CD8B21228DFDB23
:1034D0001FE00346C41700EB9474A410A0EB84040F
:1034E000414D55F82420232301F8203083005B1C34
:1034F000CA54364B33F82230C3F3072483009B1C95
:10350000CC54324B13F822408300DB1CCC54431CB8
:10351000D8B21528DDDB542301F8203001248300C4
:103520005B1CCC5430BD232202702F4A12784270AB
:103530002D4A1168254A32F82120120A8270234A46
:1035400012F82120C27023220271274A1279427197
:10355000254A51681D4A32F82120120A82711B4AFD
:1035600012F82120C271232202721F4A127A42727B
:103570001D4A9168154A32F82120120A8272134AB4
:1035800012F82120C2725422027301224273704742
:1035900070B5FFF7B8FE85B2FFF773FE06463C2D07
:1035A00000DD70BD052095FBF0F43C22782120461B
:1035B000FEF7FCFDFFF7A7FE85B23046FFF76FFE72
:1035C00000BFEEE700440040300100205C00002016
:1035D000DC000020E8000020F400002000010020B2
:1035E0000C0100201801002024010020D2B201E0CB
:1035F00000F8012B491EFBD270470022F6E710B5F8
:1036000013460A4604461946FFF7F0FF204610BD50
:10361000421C10F8011B0029FBD1801A70470000E2
:10362000064C074D06E0E06840F0010394E807000F
:1036300098471034AC42F6D3FCF7AAFDC037000817
:10364000E037000870B501EB020410F8015B15F0DB
:10365000070301D110F8013B2A1106D110F8012B04
:1036600003E010F8016B01F8016B5B1EF9D12B0729
:1036700005D40023521E0FD401F8013BFAE710F8DD
:10368000013B02F10202A1EB030303E013F8015B2B
:1036900001F8015B521EF9D5A142D6D3002070BDBE
:1036A0000FB4084B10B504A902AA039800F01BF848
:1036B000044602A9002000F07EF8204610BC5DF808
:1036C00014FB0000B737000802E008C8121F08C149
:1036D000002AFAD170477047002001E001C1121F93
:1036E000002AFBD170472DE9F84F9946924688464B
:1036F0000546002759E0252801D0514623E0002344
:1037000015F8011F18462E2915D115F8011F04239D
:103710002A290DD06FF02F022978A1F13004092C4D
:1037200009D800EB800002EB400008446D1CF3E771
:1037300058F8040B6D1C2A7872B3632A08D0732AD8
:1037400010D0514610464A46904707F101072BE03A
:1037500018F8042B8DF8002000218DF801106E461A
:10376000012103E058F8046B4FF0FF315A074FF086
:10377000000401D409E0641C84420BDA8C42FADBB9
:10378000325D002AF7D105E0641C8C42FCDB305D21
:103790000028F9D1274405E00AE016F8010B51464C
:1037A0004A469047641EF8D26D1C28780028A2D1A2
:1037B0003846BDE8F88F0A68531C0B6010707047DC
:1037C000E0370008000000203C01000044360008FB
:1037D000283800083C01002064050000D8360008A5
:1037E000412D0102030404052906070809847A0310
:1037F0000A09163C0B7CDC0504399C313202320488
:1038000029133206320829AD29C132103211321281
:1038100032143215321632183219321A320D320E73
:08382000320F320372130000A5
:040000050800018965
:00000001FF
