:020000040800F2
:10000000A00600209D010008A5010008A701000826
:10001000A9010008AB010008AD01000800000000C4
:10002000000000000000000000000000AF01000818
:10003000B101000800000000B3010008B50100088C
:10004000B7010008B7010008B7010008B7010008B0
:10005000B7010008B7010008B7010008B7010008A0
:10006000B7010008B7010008B7010008B701000890
:10007000B7010008B7010008B7010008B701000880
:10008000B7010008B7010008B7010008B701000870
:10009000B7010008B7010008B7010008B701000860
:1000A000B7010008B7010008B7010008B701000850
:1000B000B7010008B7010008B7010008B701000840
:1000C000B7010008B7010008B7010008B701000830
:1000D000B7010008111800088B170008B7010008C5
:1000E000B7010008B7010008B7010008B701000810
:1000F000B7010008B7010008B7010008B701000800
:10010000B7010008B7010008B7010008B7010008EF
:10011000B7010008B7010008B7010008B7010008DF
:10012000B7010008B7010008B7010008B7010008CF
:10013000B7010008B7010008B7010008B7010008BF
:10014000B7010008B7010008B7010008B7010008AF
:10015000B7010008B7010008B7010008B70100089F
:10016000B7010008B7010008B7010008B70100088F
:10017000B7010008B7010008B7010008B70100087F
:10018000B7010008B7010008DFF80CD003F008FA47
:1001900000480047A50E0008A0060020064880473A
:1001A00006480047FEE7FEE7FEE7FEE7FEE7FEE75C
:1001B000FEE7FEE7FEE7FEE7A71500088901000855
:1001C00033490143334A1160704770B50021002361
:1001D0000F22C47824B32F4C246804F4E064C4F5DF
:1001E000E064C4F30721C1F10404E3B20A41447896
:1001F0009C40E1B28478144021430C07210E264C28
:1002000005786155047804F01F050124AC40057899
:100210006D114FF0E02606EB8505C5F8004109E0B9
:10022000047804F01F040125A5401C4C06787611C3
:1002300044F8265070BD1A4A0A400243154B1B1F52
:100240001A60704739B1134A121D12680243114BEC
:100250001B1D1A6006E00F4A121D126882430D4BE7
:100260001B1D1A607047042808D14FF0E02109696E
:1002700041F004014FF0E022116107E04FF0E0216E
:10028000096921F004014FF0E0221161704700007C
:100290000000FA050CED00E000E400E080E100E081
:1002A00080FFFF1F10B504468C48844208D101210D
:1002B000084600F00EFD0021012000F00AFD5EE07E
:1002C0008748844208D10121022000F002FD00216C
:1002D000022000F0FEFC52E08248844208D1012155
:1002E000042000F0F6FC0021042000F0F2FC46E0BF
:1002F0007D48844208D10121082000F0EAFC002159
:10030000082000F0E6FC3AE07848844208D1012158
:10031000102000F0DEFC0021102000F0DAFC2EE0BE
:100320007348844208D10121202000F0D2FC002132
:10033000202000F0CEFC22E06E48844208D101214A
:10034000402000F0C6FC0021402000F0C2FC16E076
:100350006948844208D10121802000F0BAFC0021C4
:10036000802000F0B6FC0AE06448844207D10121F5
:10037000801500F0AEFC0021A01500F0AAFC10BD15
:10038000F0B50A4600210023002400BF3DE001250E
:1003900005FA01F3156805EA03049C4234D10568A7
:1003A0004F000326BE40B543056015794E00B540A9
:1003B0000668354305601579012D02D01579022DA7
:1003C00016D185684F000326BE40B5438560557938
:1003D0004E00B540866835438560456801268E40ED
:1003E000B5434560456896798E40B6B23543456061
:1003F000C5684F000326BE40B543C560D5794E00A1
:10040000B540C6683543C560491C1029BFD3F0BD4F
:100410004FF6FF7101600021017141718171C1715D
:10042000704708B54FF480320092009A0A43009258
:10043000009AC261C161009AC261C2690092C26938
:10044000009208BD0246002013690B4201D0012032
:1004500000E0002070470146086980B270470246FC
:10046000002053690B4201D0012000E000207047BA
:100470000146486980B270470183704741837047E5
:100480000AB1018300E041837047416170474269CE
:100490004A4042617047F0B5002300244D07ED0E3D
:1004A00002FA05F3CE1000F1200555F826504E074C
:1004B000F70E0F26BE40B543CF1000F1200646F8D8
:1004C0002750CE1000F1200555F8265045EA0304C8
:1004D000CE1000F1200545F82640F0BD0000024096
:1004E0000004024000080240000C024000100240DC
:1004F0000014024000180240001C0240002002408C
:1005000010B50446F748844208D10121102000F0BC
:1005100037FC0021102000F033FC3EE0F24884421A
:1005200009D10121480400F01AFC00214FF40030E9
:1005300000F015FC31E0ED48844209D10121880426
:1005400000F00DFC00214FF4802000F008FC24E0B6
:10055000E748844209D10121C80400F000FC0021D1
:100560004FF4002000F0FBFB17E0E248844209D181
:100570000121080500F0F3FB00214FF4801000F08A
:10058000EEFB0AE0DC48844207D10121202000F084
:10059000F7FB0021202000F0F3FB10BD2DE9FF4701
:1005A00005460E460024A14600BFA046B08900B112
:1005B00000BF2C8A24F44054F08804432C82AC8978
:1005C00041F20C608443B088318908437189084343
:1005D0000443AC81AC8A24F44074B0890443AC82F7
:1005E000684600F08CFABF48854202D0C248854276
:1005F00002D1DDF80C9001E0DDF80890A88910F434
:10060000004F08D009EBC90000EB09103168490020
:10061000B0FBF1F707E009EBC90000EB0910316806
:100620008900B0FBF1F76420B7FBF0F0040120096A
:10063000642101FB1078A88910F4004F08D0322003
:1006400000EBC800B0FBF1F000F00700044308E045
:10065000322000EB08106421B0FBF1F000F00F0035
:1006600004432C81BDE8FF874FF41651016000213F
:100670008180C18001810C214181002181817047ED
:1006800010B502460020108A20F470600B884C8858
:1006900023438C882343CC8823431843108210BD06
:1006A0000021018041808180C180704721B1828911
:1006B00042F40052828104E082894DF6FF731A40B1
:1006C00082817047028B02F47F420283028B0A43CD
:1006D0000283704721B1828942F40042828103E0A3
:1006E0008289C2F30E028281704721B1828A42F46C
:1006F0000062828204E0828A4FF2FF731A40828293
:100700007047C1F308028280704701468888C0F3B1
:1007100008007047028A4FF6F0731A400282028A7C
:100720000A430282704721B1828942F0020282812B
:1007300004E082894FF6FD731A40828170478289F6
:100740004FF2FF731A40828182890A438281704787
:10075000028A4FF6DF731A400282028A0A4302823B
:10076000704721B1028A42F48042028204E0028A88
:100770004BF6FF731A4002827047818941F00101F4
:100780008181704721B1828A42F00802828204E0AE
:10079000828A4FF6F7731A4082827047028BD2B278
:1007A0000283028B42EA01220283704721B1828ACE
:1007B00042F02002828204E0828A4FF6DF731A4000
:1007C0008282704721B1828A42F01002828204E064
:1007D000828A4FF6EF731A4082827047828A4FF600
:1007E000FB731A408282828A0A438282704721B157
:1007F000828A42F00202828204E0828A4FF6FD730E
:100800001A40828270471AB1838A0B43838202E0C6
:10081000838A8B4383827047F0B503460024002609
:1008200000250020A1F510676A3F00D100BF1846DF
:10083000C1F3421401F01F06012707FA06F5012C47
:1008400001D10C3004E0022C01D1103000E0143052
:100850001AB107682F43076002E00768AF430760DB
:10086000F0BD02460020B1F5007F00D100BF138823
:100870000B4201D0012000E00020704701F400721B
:10088000B2F5007F00D100BFCA430280704770B547
:1008900002460024002300250020A1F510666A3ED0
:1008A00000D100BFC1F3421501F01F03012606FA73
:1008B00003F3012D02D19689334006E0022D02D1C7
:1008C000168A334001E0968A33400C12012606FA5C
:1008D00004F41688344013B10CB1012000E000206C
:1008E00070BD00000010014000440040004800407E
:1008F000004C0040005000400014014010B50022A0
:100900000023A1F510646A3C00D100BF0A12012443
:100910009440A3B2DC43048010BD0000FA48006894
:1009200040F00100F84908600020F74908310860EC
:10093000F5480068F5490840F3490860F448091D86
:100940000860081F006820F48020091F086000204C
:10095000ED490C31086070470021EB4A921C117080
:1009600011460870704710B5014600220023002090
:100970004A11012A02D1E44C236808E0022A03D17B
:10098000E14C7034236802E0DF4C7434236801F0DA
:100990001F02012494401C4201D0012000E00020ED
:1009A00010BD38B5002000900024002500BF312084
:1009B000FFF7D9FF05460098401C00900098B0F55D
:1009C000A06F01D0002DF2D03120FFF7CCFF08B18D
:1009D000012400E00024204638BD01460020CA4A18
:1009E000106820F0F80040EAC10010607047C94963
:1009F000086070470021C44A7032117011700128DC
:100A000002D004280AD104E00121BF4A70321170DB
:100A100005E00521BC4A7032117000E000BF00BF44
:100A20007047BD490860704770B5049C41EA821563
:100A30000126C6EB530645EA0645054345EA04652B
:100A4000B14E361D356070BDB249086670478201EF
:100A500042EA0172AC4B84331A607047AD49886634
:100A60007047AC49C864704702460020A64B083363
:100A7000186820F0EC6042EA01031843A24B0833E7
:100A800018607047024600209F4B0833186820F01A
:100A9000784042EA010318439B4B083318607047C3
:100AA00001460020984A0832106820F003000843ED
:100AB0001060704794480830006800F00C007047E0
:100AC00001460020904A0832106820F0F0000843E8
:100AD00010607047014600208B4A0832106820F4ED
:100AE000E05008431060704701460020864A0832F3
:100AF000106820F4604040EAC10010607047F0B513
:100B00000021002200240225002602237E4F083700
:100B10003F6807F00C0121B1042905D0082937D11D
:100B200005E07E4F076036E07D4F076033E0764F8B
:100B30003F1D3F68C7F38056734F3F1D3F6807F066
:100B40003F036EB1764FB7FBF3F7DFF8BCC10CF192
:100B5000040CDCF800C0CCF3881C07FB0CF40CE0A0
:100B60006E4FB7FBF3F7DFF8A0C10CF1040CDCF813
:100B700000C0CCF3881C07FB0CF4634F3F1D3F689B
:100B8000C7F301477F1C7D00B4FBF5F7076002E067
:100B9000624F076000BF00BF5B4F08373F6807F038
:100BA000F00109095F4F7A5C0768D7404760564FEC
:100BB00008373F6807F4E051890A5A4F7A5C476862
:100BC000D7408760504F08373F6807F46041490BB2
:100BD000544F7A5C4768D740C760F0BD002100F4ED
:100BE0004072B2F5407F0AD1474A0832116821F4B9
:100BF000F8114D4A02401143434A08321160424AFB
:100C000070321268C0F30B031A433F4B70331A6003
:100C1000704741494439086070473F49403908608E
:100C2000704742490860704739B1374A303212681C
:100C30000243354B30331A6006E0334A30321268D3
:100C40008243314B30331A60704739B12E4A343207
:100C5000126802432C4B34331A6006E02A4A3432BD
:100C600012688243284B34331A60704739B1264AE0
:100C7000383212680243244B38331A6006E0224AA5
:100C8000383212688243204B38331A60704739B1CA
:100C90001D4A4032126802431B4B40331A6006E083
:100CA000194A403212688243174B40331A6070472A
:100CB00039B1154A443212680243134B44331A6067
:100CC00006E0114A4432126882430F4B44331A60E3
:100CD000704739B10C4A1032126802430A4B103384
:100CE0001A6006E0084A103212688243064B10333D
:100CF0001A607047E1B1044A143212680243024B91
:100D000014331A6019E0000000380240FFFFF6FEBD
:100D10001030002400004742800E47420024F400B7
:100D200000127A0000000020FFFCFF0F5C01474228
:100D30005B4A126882435A4B1A60704739B1584A6D
:100D4000121D12680243564B1B1D1A6006E0544ADE
:100D5000121D12688243524B1B1D1A60704739B135
:100D60004F4A0C32126802434D4B0C331A6006E0B6
:100D70004B4A0C3212688243494B0C331A6070475D
:100D800039B1474A103212680243454B10331A609A
:100D900006E0434A103212688243414B10331A6016
:100DA000704739B13E4A3C32126802433C4B3C33F7
:100DB0001A6006E03A4A3C3212688243384B3C33B0
:100DC0001A60704739B1364A403212680243344BD8
:100DD00040331A6006E0324A403212688243304B98
:100DE00040331A60704739B12D4A443212680243C9
:100DF0002B4B44331A6006E0294A4432126882437E
:100E0000274B44331A60704739B1254A4C32126877
:100E10000243234B4C331A6006E0214A4C321268DD
:100E200082431F4B4C331A60704739B11C4A503211
:100E3000126802431A4B50331A6006E0184A5032C7
:100E400012688243164B50331A60704739B1144A06
:100E5000D21F12780243124BDB1F1A7006E0104AB1
:100E6000D21F127882430E4BDB1F1A7070470C485A
:100E70006030006840F08070094960310860704758
:100E800001460020064A083A12680A4201D00120B1
:100E900000E0002070470249891F08707047000079
:100EA0001438024008B500F052FD0020FE490880C9
:100EB000FE490870FE4908700120FE4908700020B4
:100EC000FD490870FD490870FD490870FD4908702A
:100ED000FD490870FD490870FD490870FD4908701A
:100EE000FD490870FD490870FD490870FD4908700A
:100EF000FD490870FD490870FD490870FD490870FA
:100F0000FD490870FD490870FD490870FD490870E9
:100F1000FD490870FD490870FD490870FD490870D9
:100F2000FD490870FD490870FD490870FD490870C9
:100F300090E2DE480078002871D0DB480088402825
:100F40007FD01EDC36285AD012DC322847D008DC8D
:100F5000012834D0022836D0032838D0312831D1A6
:100F600039E033283FD0342841D03528F7D142E04A
:100F70003738072826D2DFE800F0464A4E54585C3E
:100F80006000482871D009DCA0F141000728F1D2A7
:100F9000DFE800F05B5F63676C707400522871D00B
:100FA00006DC492877D0502879D05128D7D17AE06B
:100FB00053286AD0A12869D0DD28D0D17FE0012054
:100FC000BF49087086E00120D749087082E00120FF
:100FD000D64908707EE00120B74908707AE0012008
:100FE000B649087076E00120B649087072E0012029
:100FF000B54908706EE00120B44908706AE001202C
:10100000B349087066E00120B649087062E001202B
:10101000B54908705EE00120B44908705AE05DE00F
:101020000FE00120AB49087054E00120AA49087084
:1010300050E00120A94908704CE00120A84908703F
:1010400048E00120AA49087044E00120AB4908703B
:1010500040E00120A84908703CE00120A549087043
:1010600038E00120A649087034E010E00120A549CD
:1010700008702FE00120A44908702BE00120A3494B
:10108000087027E013E006E009E014E01FE001200B
:101090009F4908701EE001209E4908701AE0012057
:1010A0009D49087016E001209C49087012E001205B
:1010B0009B4908700EE001209A4908700AE002F08E
:1010C000E2F80446A1B29A48FFF71BFB02E002F0E7
:1010D0001FFA00BF00BF00207449087078480078EC
:1010E00080B100F0AAFC00F0EDFC00F0D2FE9148C7
:1010F00002F0EAF856228F498F4800F0AFFB00203B
:101100006F4908708848007880B1012069490870EB
:1011100049208DF8000001208DF801000222694667
:10112000854800F09BFB00207F4908707F480078CD
:1011300080B102205F49087049208DF8000002202C
:101140008DF80100022269467B4800F087FB0020F1
:10115000764908705F48007868B1002054490870EB
:101160003C21782001F09EFB2E217148FFF7C9FA3F
:101170000020584908705848007868B100204C4950
:1011800008703C21782001F053FC2E216848FFF7BD
:10119000B8FA0020504908705048007868B1002023
:1011A000434908703C21782001F002FD2E2160485F
:1011B000FFF7A7FA0020494908704948007868B14C
:1011C00000203B4908703C21782001F0B1FD2E2120
:1011D0005748FFF796FA00204149087036480078D2
:1011E00038B100F048FF012054490870002032490E
:1011F00008703248007880B100F064FC00F049FECD
:101200004C4802F061F85E224A494B4800F026FB48
:1012100000F03FFF0020294908702A48007858B1A3
:101220003C227821022001F01EF82E214048FFF7D1
:1012300068FA0020234908702348007858B13C22FE
:101240007821022001F0D4F82E213948FFF759FA0D
:1012500000201D4908701D48007858B128227821C7
:10126000012001F08AF92E213148FFF74AFA0020C7
:10127000164908701648007858B1282278210120B4
:1012800001F04BFA2E212A48FFF73BFA00201049C3
:1012900008701448007828B1282001F0C2FE002010
:1012A00010494DE04DE00000120000201800002021
:1012B00019000020380100201D0000201E00002021
:1012C0001A0000201F000020200000202100002024
:1012D0002200002023000020240000202500002000
:1012E00026000020270000202800002029000020E0
:1012F0002A0000202D0000202C0000202B000020C0
:101300002E0000202F00002030000020310000209F
:10131000320000203300002034000020350000207F
:1013200036000020370000201B0000201C00002099
:10133000001001403C01002000440040100000204B
:1013400008705148007828B1282001F03CFE0020A8
:101350004D4908704D48007828B1282001F0AFFDB4
:1013600000204A4908704A48007828B1282001F036
:10137000DDFD0020464908704648007828B1282045
:1013800001F0F3FD0020434908704348007828B17C
:10139000282001F0D1FD00203F4908703F48007827
:1013A00020B101F0FAFD00203C4908703C4800786B
:1013B00010B100203A4908703A48007828B16420FA
:1013C00001F0B2FE0020374908703748007828B194
:1013D000642001F0B9FE00203349087033480078DA
:1013E00028B1642001F0E0FE002030490870304848
:1013F000007828B1642001F0E7FE00202C49087035
:101400002C48007828B1642001F0BEFE0020294954
:1014100008702948007828B1642001F0A5FE00205A
:10142000254908702548007828B1142001F012FFE2
:101430000020224908702248007828B1142001F0C9
:101440001CFF00201E4908701E48007810B10020C3
:101450001C4908706DE51CB501210846FFF7E4FB47
:101460004FF40040009001208DF8040000208DF81A
:10147000060001208DF8070002208DF8050069465E
:101480001148FEF77DFF1CBD280000202900002028
:101490002A0000202B0000202C0000202D0000201E
:1014A0002E0000202F0000203000002031000020FE
:1014B00032000020330000203400002035000020DE
:1014C0003600002037000020000002400CB500204C
:1014D000019000907248006840F4803070490860C4
:1014E00000BF6F48006800F4003000900198401C75
:1014F0000190009818B90198B0F5A06FF1D1684833
:10150000006810F4003F02D00120009001E00020AC
:1015100000900098012845D161484030006840F0B3
:1015200080505F49403108605E48006840F4804068
:101530005C4908605A480830006859490831086019
:101540000846006840F4004008600846006840F41F
:10155000A05008605448091F0860081F006840F048
:101560008070091F086000BF4D48006810F0007FC0
:10157000FAD040F205604D490860494808300068DB
:1015800020F003004649083108600846006840F032
:101590000200086000BF42480830006800F00C00FC
:1015A0000828F8D10CBD10B53D48006840F0010096
:1015B0003B49086000203A49083108603848006813
:1015C0003B490840364908603A48091D0860081F31
:1015D000006820F48020091F0860002030490C3189
:1015E0000860FFF773FF4FF000603349086010BDDB
:1015F00070B500200022022300240221284D083566
:101600002D6805F00C0020B1042806D0082834D13C
:1016100007E02A4D2A4E356033E02A4D284E3560CA
:101620002FE01F4D2D1D2D68C5F380541C4D2D1D21
:101630002D6805F03F0154B1224DB5FBF1F5184E70
:10164000361D3668C6F3881605FB06F209E01B4D09
:10165000B5FBF1F5124E361D3668C6F3881605FB4C
:1016600006F20F4D2D1D2D68C5F301456D1C6B0055
:10167000B2FBF3F5124E356003E0104D104E3560AD
:1016800000BF00BF064D08352D68C5F303150E4E8B
:10169000705D0B4D2D68C540094E356070BD000072
:1016A000003802400070004008544007003C0240EF
:1016B000FFFFF6FE1030002408ED00E00024F400E7
:1016C0003800002000127A003C00002010B588B0DD
:1016D000044601214804FFF7DAFA01210846FFF722
:1016E000A3FA0C20069002208DF81C008DF81D0036
:1016F00000208DF81E008DF81F0006A93E48FEF759
:101700003FFE072202213C48FEF7C5FE07220321C7
:101710003948FEF7C0FE072202213748FEF7BBFE1C
:101720004FF4165002900020ADF80C00ADF80E00FA
:10173000ADF81000ADF814000C20ADF8120002A9AD
:101740002E48FEF72BFF01212C48FEF7AFFF4FF488
:10175000A060FEF735FD26208DF8040000208DF8EE
:1017600005008DF8060001208DF8070001A8FEF79E
:101770002CFD012240F225512048FFF74DF80121B0
:101780001E48FEF793FF08B010BD10B540F225517A
:101790001A48FFF77CF888B11848FEF7B6FFC4B2C4
:1017A000174818490978445416480078401C1549D0
:1017B000087015480068401C1349086010BD00BF40
:1017C000114909680029FBD00D49104A1278885C3C
:1017D0000E490978491C0D4A11700B490968491EC8
:1017E000094A1160704700200749086007490870DE
:1017F00004490870704700000000024000440040A7
:101800009A010020510000204C00002050000020D0
:1018100010B5C0B05948008810F0200F1CD05748B0
:10182000FEF773FF04464FF48071684601F0A5FE91
:101830005348028853A1684601F0F2FEAA2C03D156
:1018400001205149087005E05048048001205049AA
:10185000087000BF00BF00BF40B010BD2DE9F041CF
:1018600007460D461646002400BF0EE000BF80214B
:101870003846FEF7F6FF0028F9D0295D3846FEF716
:1018800040FF822C00DD02E0641CB442EEDB00BFAE
:1018900000BF40213846FEF7E4FF0028F9D0BDE83C
:1018A000F08110B586B0044601211020FFF700FA40
:1018B00001210220FFF7B8F9C020049002208DF822
:1018C00014008DF8150000208DF816008DF8170013
:1018D00004A93048FEF754FD072206212D48FEF7E3
:1018E000DAFD072211462B48FEF7D5FD00940020B3
:1018F000ADF80400ADF80600ADF80800ADF80C0036
:101900000C20ADF80A0069461C48FEF747FE01228C
:1019100040F225511948FEF77FFF01211748FEF7D5
:10192000C5FE06B010BD08B54FF4A060FEF748FC38
:1019300025208DF8000000208DF801008DF80200B0
:1019400001208DF803006846FEF73FFC08BD10B586
:10195000FFF7E9FF4FF41650FFF7A3FF4FF41650BF
:10196000FFF7B4FE10BD01B549F64042009901FBF6
:1019700002F000E0401E0028FCD108BD001001402C
:1019800058000020256300001900002012000020EC
:1019900018000020000402400146FA4850F82100D7
:1019A000B0F5617F08D9F74850F8210040F63402BD
:1019B000904201D2012070470020FCE710B5044698
:1019C0000B4614B1012C22D110E0EF490868FFF753
:1019D000E3FF50B1EC480068EA4951F82000C01A12
:1019E000E9490968E74A42F8210010E0E6494868F9
:1019F000FFF7D2FF50B1E4484068E24951F82000B7
:101A00001844E1494968DF4A42F8210000BF00BF9D
:101A100010BDDD490968DB4A52F82110C1F5FA60B2
:101A20004FF4FA61D84A1268D64B43F82210491095
:101A3000D54A526843F82210704740F2DC50D24930
:101A40000968D04A42F82100CF49496842F821008C
:101A5000704700B50346CD490868FFF79DFF50B1B8
:101A6000CA480068C74951F820001844C7490968A6
:101A7000C44A42F8210000BD00B50346C349486886
:101A8000FFF78AFF50B1C1484068BE4951F82000B5
:101A90001844BE494968BB4A42F8210000BD00B560
:101AA0000346BA498868FFF777FF50B1B7488068A6
:101AB000B44951F820001844B4498968B14A42F841
:101AC000210000BD40F2A460B0490968AD4A42F867
:101AD000210040F2DC50AD49496842F82100AB4991
:101AE000896842F82100704730B505460C46062D3E
:101AF00070D2DFE805F0031527394B5DA44948682B
:101B0000FFF74AFF00B930BDA14840689D4951F830
:101B1000200020449E4949689A4A42F8210059E031
:101B20009C494868FFF738FF00B9ECE799484068DE
:101B3000944951F82000204496494968914A42F856
:101B4000210047E094494868FFF726FF00B9DAE72B
:101B5000914840688B4951F8200020448E494968DB
:101B6000884A42F8210035E08C494868FFF714FFA5
:101B700000B9C8E789484068824951F82000001B35
:101B8000864949687F4A42F8210023E08449486831
:101B9000FFF702FF00B9B6E781484068794951F87C
:101BA0002000001B7E494968764A42F8210011E076
:101BB0007C494868FFF7F0FE00B9A4E7794840681F
:101BC000704951F82000001B764949686D4A42F877
:101BD000210000BF00BF00BF95E730B505460C46A9
:101BE00061422846FFF780FF30BD062846D2DFE875
:101BF00000F0030E19242F3A65494968614A52F8EA
:101C00002110634A92685F4B43F8221036E0614925
:101C100049685C4A52F821105E4A9268594B43F871
:101C200022102BE05C494968564A52F821105A4A62
:101C30009268544B43F8221020E058494968514AB1
:101C400052F82110554A92684E4B43F8221015E085
:101C5000534949684B4A52F82110514A9268494BFE
:101C600043F822100AE04F494968464A52F82110C9
:101C70004C4A9268434B43F8221000BF00BF7047A4
:101C800030B505460C46062D70D2DFE805F0031589
:101C900027394B5D3E490868FFF77EFE00B930BD2D
:101CA0003B480068374951F820002044384909680A
:101CB000344A42F8210059E036490868FFF76CFEC3
:101CC00000B9ECE7334800682E4951F82000204461
:101CD000304909682B4A42F8210047E02E4908683C
:101CE000FFF75AFE00B9DAE72B480068254951F89A
:101CF0002000204428490968224A42F8210035E0A2
:101D000026490868FFF748FE00B9C8E7234800687D
:101D10001C4951F82000001B20490968194A42F863
:101D2000210023E01E490868FFF736FE00B9B6E738
:101D30001B480068134951F82000001B1849096826
:101D4000104A42F8210011E016490868FFF724FE06
:101D500000B9A4E7134800680A4951F82000001BA5
:101D600010490968074A42F8210000BF00BF00BFC0
:101D700095E730B505460C4661422846FFF780FFDF
:101D800030BD00005C000020300100202401002054
:101D9000DC000020E8000020F4000020000100200A
:101DA0000C01002018010020062870D2DFE800F0A6
:101DB000031527394B5D40F2DC51FC4A1268FC4B9D
:101DC00043F822104FF4E161F84A526843F82210B8
:101DD000F64A926843F8221059E040F2DC51F54A85
:101DE0001268F34B43F822104FF4E161F14A526854
:101DF00043F82210EF4A926843F8221047E040F27D
:101E0000DC51ED4A1268EA4B43F822104FF4E161CD
:101E1000E94A526843F82210E74A926843F82210D0
:101E200035E040F2DC51E54A1268E14B43F82210FC
:101E30004FF49661E14A526843F82210DF4A9268F3
:101E400043F8221023E040F2DC51DD4A1268D84BFF
:101E500043F822104FF49661D94A526843F8221091
:101E6000D74A926843F8221011E040F2DC51D54A7B
:101E70001268CF4B43F822104FF49661D14A526852
:101E800043F82210CF4A926843F8221000BF00BFE7
:101E9000704740F2DC50C5490968C54A42F8210044
:101EA0004FF4E160C149496842F82100BF4989689F
:101EB00042F8210040F2DC50BE49096842F8210096
:101EC0004FF4E160BB49496842F82100B94989688B
:101ED00042F8210040F2DC50B749096842F821007D
:101EE0004FF4E160B449496842F82100B249896879
:101EF00042F8210040F2DC50B049096842F8210064
:101F00004FF49660AD49496842F82100AB498968B1
:101F100042F8210040F2DC50A949096842F821004A
:101F20004FF49660A649496842F82100A44989689F
:101F300042F8210040F2DC50A249096842F8210031
:101F40004FF496609F49496842F821009D4989688D
:101F500042F82100704710B5044621460320FFF7E0
:101F6000C3FD21460120FFF7BFFD21460520FFF7F5
:101F7000BBFD0320FFF739FE0120FFF736FE0520E9
:101F8000FFF733FE10BD10B504466042FFF7E3FFD4
:101F900010BD10B5044621460320FFF771FE21460F
:101FA0000120FFF76DFE21460520FFF769FE10BDF9
:101FB00010B504466042FFF7ECFF10BD10B50446B3
:101FC00021460320FFF7D5FE21460120FFF758FEEA
:101FD00021460520FFF7CDFE10BD10B50446604236
:101FE000FFF7ECFF10BD10B5044621460020FFF7B7
:101FF0007BFD21460420FFF777FD21460220FFF7F5
:1020000073FD0020FFF7F1FD0420FFF7EEFD022035
:10201000FFF7EBFD10BD10B504466042FFF7E3FF8C
:1020200010BD10B5044621460020FFF729FE2146C9
:102030000420FFF725FE21460220FFF721FE10BDF8
:1020400010B504466042FFF7ECFF10BD10B5044622
:1020500021460020FFF714FE21460420FFF789FEE9
:1020600021460220FFF70CFE10BD10B50446604269
:10207000FFF7ECFF10BD38B553A00068009068462C
:1020800001F086FA0446224669465048FFF7E6FB0F
:1020900038BD08B54EA000680090022269464B4842
:1020A000FFF7DCFB08BD10B50146002018E03F4BF0
:1020B00053F82020232301F8203083005B1CCA54EE
:1020C0003B4B33F82230C3F3072483009B1CCC54D2
:1020D000374B13F822408300DB1CCC54431CD8B28E
:1020E0000328E4DB1DE0032390FBF3F403FB14035C
:1020F000304C54F82320232301F8203083005B1C4C
:10210000CA542B4B33F82230C3F3072483009B1CA3
:10211000CC54274B13F822408300DB1CCC54431CC7
:10212000D8B20628DFDB1DE0032390FBF3F403FBAA
:102130001403214C54F82320232301F8203083007A
:102140005B1CCA541A4B33F82230C3F307248300B4
:102150009B1CCC54164B13F822408300DB1CCC5440
:10216000431CD8B20928DFDB1DE0032390FBF3F406
:1021700003FB1403114C54F82320232301F82030CF
:1021800083005B1CCA540A4B33F82230C3F3072484
:1021900083009B1CCC54064B13F822408300DB1CAD
:1021A000CC54431CD8B20C28DFDB31E0DC0000202B
:1021B0005C000020E8000020F40000200001002066
:1021C0000C010020180100205301000000440040D1
:1021D00053020000032390FBF3F403FB1403F94CB8
:1021E00054F82320232301F8203083005B1CCA54B9
:1021F000F54B33F82230C3F3072483009B1CCC54E7
:10220000F14B13F822408300DB1CCC54431CD8B2A2
:102210000F28DFDB1DE0032390FBF3F403FB140323
:10222000EA4C54F82320232301F8203083005B1C60
:10223000CA54E54B33F82230C3F3072483009B1CB8
:10224000CC54E14B13F822408300DB1CCC54431CDC
:10225000D8B21228DFDB542301F820300124830098
:102260005B1CCC5410BD2DE9F04393B005460C46E1
:10227000164600BF142094FBF0F808EB88004000DD
:10228000D349097800FB01F94846FFF76CFB20466B
:10229000FFF779FE2046FFF7A6FE6846FFF703FF2B
:1022A0004A226946CB48FFF7D9FA002789E0484619
:1022B000FFF759FB3046FFF77BFE3046FFF7B1FED4
:1022C0002046FFF7A8FE6846FFF7EDFE4A22694662
:1022D000C048FFF7C3FA4846FFF745FB2046FFF723
:1022E0009AFE6846FFF7DFFE4A226946B948FFF7C3
:1022F000B5FA4846FFF737FB2046FFF72CFE684645
:10230000FFF7D1FE4A226946B248FFF7A7FA4846CE
:10231000FFF729FB2046FFF71EFE3046FFF739FE88
:102320003046FFF78DFE6846FFF7BDFE4A2269463C
:10233000A848FFF793FA4846FFF715FB2046FFF73A
:1023400022FE3046FFF725FE3046FFF779FE68464D
:10235000FFF7A9FE4A2269469E48FFF77FFA4846E2
:10236000FFF701FB2046FFF70EFE6846FFF79BFED6
:102370004A2269469748FFF771FA4846FFF7F3FA91
:102380002046FFF730FE6846FFF78DFE4A22694679
:102390009048FFF763FA4846FFF7E5FA3046FFF743
:1023A00007FE3046FFF73DFE2046FFF71CFE68465D
:1023B000FFF779FE4A2269468648FFF74FFA781CF4
:1023C000C7B2AF42FFF673AF4846FFF7CCFA2046DC
:1023D000FFF7C1FD2046FFF71EFE6846FFF763FECC
:1023E0004A2269467B48FFF739FA13B0BDE8F0830B
:1023F0002DE9F04393B005460C46164600BF142065
:1024000094FBF0F808EB880040007149097800FB64
:1024100001F94846FFF7A7FA2046FFF7B4FD20462A
:10242000FFF7E1FD6846FFF73EFE4A22694669482C
:10243000FFF714FA002789E04846FFF794FA304680
:10244000FFF7A7FD3046FFF7FBFD2046FFF7E3FD52
:102450006846FFF728FE4A2269465E48FFF7FEF904
:102460004846FFF780FA2046FFF7D5FD6846FFF79C
:102470001AFE4A2269465748FFF7F0F94846FFF727
:1024800072FA2046FFF767FD6846FFF70CFE4A2206
:1024900069465048FFF7E2F94846FFF764FA2046DC
:1024A000FFF759FD3046FFF783FD3046FFF7B9FDD2
:1024B0006846FFF7F8FD4A2269464648FFF7CEF91D
:1024C0004846FFF750FA2046FFF75DFD3046FFF71C
:1024D0006FFD3046FFF7A5FD6846FFF7E4FD4A2291
:1024E00069463C48FFF7BAF94846FFF73CFA2046F0
:1024F000FFF749FD6846FFF7D6FD4A226946354891
:10250000FFF7ACF94846FFF72EFA2046FFF76BFDC0
:102510006846FFF7C8FD4A2269462E48FFF79EF934
:102520004846FFF720FA3046FFF733FD3046FFF705
:1025300087FD2046FFF757FD6846FFF7B4FD4A22A6
:1025400069462448FFF78AF9781CC7B2AF42FFF604
:1025500073AF4846FFF707FA2046FFF7FCFC20461A
:10256000FFF759FD6846FFF79EFD4A226946194864
:10257000FFF774F913B0BDE8F0832DE9F04393B091
:1025800005460C46164600BF142094FBF0F808EBF5
:10259000880040000E49097800FB01F94846FFF722
:1025A000E2F92046FFF7EFFC2046FFF71CFD6846E6
:1025B000FFF779FD4A2269460648FFF74FF90027E1
:1025C00094E000000C0100205C00002018010020B5
:1025D00038010020004400404846FFF7C4F9304667
:1025E000FFF7FBFC3046FFF731FD2046FFF713FDF8
:1025F0006846FFF758FD4A226946FE48FFF72EF964
:102600004846FFF7B0F92046FFF705FD6846FFF79B
:102610004AFD4A226946F748FFF720F94846FFF786
:10262000A2F92046FFF797FC6846FFF73CFD4A22D7
:102630006946F048FFF712F94846FFF794F920463B
:10264000FFF789FC3046FFF7B9FC3046FFF70DFD78
:102650006846FFF728FD4A226946E648FFF7FEF87C
:102660004846FFF780F92046FFF78DFC3046FFF71C
:10267000A5FC3046FFF7F9FC6846FFF714FD4A2237
:102680006946DC48FFF7EAF84846FFF76CF9204650
:10269000FFF779FC6846FFF706FD4A226946D548F0
:1026A000FFF7DCF84846FFF75EF92046FFF79BFC92
:1026B0006846FFF7F8FC4A226946CE48FFF7CEF895
:1026C0004846FFF750F93046FFF787FC3046FFF7E2
:1026D000BDFC2046FFF787FC6846FFF7E4FC4A2272
:1026E0006946C448FFF7BAF8781CC7B2AF42FFF694
:1026F00073AF4846FFF737F92046FFF72CFC20461A
:10270000FFF789FC6846FFF7CEFC4A226946B948C4
:10271000FFF7A4F813B0BDE8F0832DE9F04393B0C0
:1027200005460C46164600BF142094FBF0F808EB53
:1027300088004000B049097800FB01F94846FFF7DE
:1027400012F92046FFF71FFC2046FFF74CFC6846B5
:10275000FFF7A9FC4A226946A648FFF77FF8002741
:1027600089E04846FFF7FFF83046FFF727FC304680
:10277000FFF77BFC2046FFF74EFC6846FFF793FC13
:102780004A2269469B48FFF769F84846FFF7EBF88D
:102790002046FFF740FC6846FFF785FC4A22694661
:1027A0009448FFF75BF84846FFF7DDF82046FFF74F
:1027B000D2FB6846FFF777FC4A2269468D48FFF74F
:1027C0004DF84846FFF7CFF82046FFF7C4FB3046E8
:1027D000FFF703FC3046FFF739FC6846FFF763FC60
:1027E0004A2269468348FFF739F84846FFF7BBF8A5
:1027F0002046FFF7C8FB3046FFF7EFFB3046FFF7F8
:1028000025FC6846FFF74FFC4A2269467948FFF7E6
:1028100025F84846FFF7A7F82046FFF7B4FB6846BF
:10282000FFF741FC4A2269467248FFF717F848460D
:10283000FFF799F82046FFF7D6FB6846FFF733FC11
:102840004A2269466B48FFF709F84846FFF78BF8BC
:102850003046FFF7B3FB3046FFF707FC2046FFF793
:10286000C2FB6846FFF71FFC4A2269466148FEF733
:10287000F5FF781CC7B2AF42FFF673AF4846FFF7CB
:1028800072F82046FFF767FB2046FFF7C4FB684657
:10289000FFF709FC4A2269465648FEF7DFFF13B0EE
:1028A000BDE8F083F0B593B004460D46142094FBC8
:1028B000F0F606EB860040004F49097800FB01F76F
:1028C0003846FFF750F82046FFF75DFB2046FFF73C
:1028D0008AFB6846FFF7E7FB4A2269464548FEF750
:1028E000BDFF8DE03846FFF73EF82846FFF760FB56
:1028F0002846FFF796FB2046FFF78DFB6846FFF75B
:10290000D2FB4A2269463B48FEF7A8FF3846FFF74C
:102910002AF82046FFF77FFB6846FFF7C4FB4A22F0
:1029200069463448FEF79AFF3846FFF71CF8204600
:10293000FFF711FB6846FFF7B6FB4A2269462D48B0
:10294000FEF78CFF3846FFF70EF82046FFF703FB33
:102950002846FFF71EFB2846FFF772FB6846FFF785
:10296000A2FB4A2269462348FEF778FF3846FEF765
:10297000FAFF2046FFF707FB2846FFF70AFB284629
:10298000FFF75EFB6846FFF78EFB4A22694619484F
:10299000FEF764FF3846FEF7E6FF2046FFF7F3FA3E
:1029A0006846FFF780FB4A2269461248FEF756FF49
:1029B0003846FEF7D8FF2046FFF715FB6846FFF7BD
:1029C00072FB4A2269460B48FEF748FF3846FEF77D
:1029D000CAFF2846FFF7ECFA2846FFF722FB2046FD
:1029E000FFF701FB6846FFF75EFB4A226946014894
:1029F00004E000000044004038010020FEF72EFFF4
:102A0000FE48007800283FF46DAF3846FEF7ABFF74
:102A10002046FFF7A0FA2046FFF7FDFA6846FFF7C9
:102A200042FB4A226946F648FEF718FF13B0F0BD94
:102A3000F0B593B004460D46142094FBF0F606EB77
:102A400086004000EF49097800FB01F73846FEF7A1
:102A50008AFF2046FFF797FA2046FFF7C4FA684638
:102A6000FFF721FB4A226946E548FEF7F7FE87E0BB
:102A70003846FEF778FF2846FFF78BFA2846FFF71F
:102A8000DFFA2046FFF7C7FA6846FFF70CFB4A2239
:102A90006946DB48FEF7E2FE3846FEF764FF204653
:102AA000FFF7B9FA6846FFF7FEFA4A226946D448AA
:102AB000FEF7D4FE3846FEF756FF2046FFF74BFAE6
:102AC0006846FFF7F0FA4A226946CD48FEF7C6FE8F
:102AD0003846FEF748FF2046FFF73DFA2846FFF745
:102AE00067FA2846FFF79DFA6846FFF7DCFA4A22A4
:102AF0006946C348FEF7B2FE3846FEF734FF20466B
:102B0000FFF741FA2846FFF753FA2846FFF789FAFC
:102B10006846FFF7C8FA4A226946B948FEF79EFEA2
:102B20003846FEF720FF2046FFF72DFA6846FFF7EC
:102B3000BAFA4A226946B248FEF790FE3846FEF7D6
:102B400012FF2046FFF74FFA6846FFF7ACFA4A2219
:102B50006946AB48FEF782FE3846FEF704FF28467A
:102B6000FFF717FA2846FFF76BFA2046FFF73BFA04
:102B70006846FFF798FA4A226946A148FEF76EFEBA
:102B80009E48007800283FF473AF3846FEF7EBFE0E
:102B90002046FFF7E0F92046FFF73DFA6846FFF7C9
:102BA00082FA4A2269469648FEF758FE13B0F0BDF5
:102BB000F0B593B004460D46142094FBF0F606EBF6
:102BC000860040008F49097800FB01F73846FEF780
:102BD000CAFE2046FFF7D7F92046FFF704FA6846F9
:102BE000FFF761FA4A2269468548FEF737FE87E01B
:102BF0003846FEF7B8FE2846FFF7EFF92846FFF7FC
:102C000025FA2046FFF707FA6846FFF74CFA4A22F2
:102C100069467B48FEF722FE3846FEF7A4FE2046B2
:102C2000FFF7F9F96846FFF73EFA4A226946744809
:102C3000FEF714FE3846FEF796FE2046FFF78BF9A6
:102C40006846FFF730FA4A2269466D48FEF706FEED
:102C50003846FEF788FE2046FFF77DF92846FFF745
:102C6000ADF92846FFF701FA6846FFF71CFA4A2239
:102C700069466348FEF7F2FD3846FEF774FE2046CB
:102C8000FFF781F92846FFF799F92846FFF7EDF994
:102C90006846FFF708FA4A2269465948FEF7DEFD02
:102CA0003846FEF760FE2046FFF76DF96846FFF7ED
:102CB000FAF94A2269465248FEF7D0FD3846FEF737
:102CC00052FE2046FFF78FF96846FFF7ECF94A22DB
:102CD00069464B48FEF7C2FD3846FEF744FE2846DB
:102CE000FFF77BF92846FFF7B1F92046FFF77BF99C
:102CF0006846FFF7D8F94A2269464148FEF7AEFD1B
:102D00003E48007800283FF473AF3846FEF72BFEAC
:102D10002046FFF720F92046FFF77DF96846FFF7C8
:102D2000C2F94A2269463648FEF798FD13B0F0BD55
:102D3000F0B593B004460D46142094FBF0F606EB74
:102D4000860040002F49097800FB01F73846FEF75E
:102D50000AFE2046FFF717F92046FFF744F96846B8
:102D6000FFF7A1F94A2269462548FEF777FD8EE074
:102D70003846FEF7F8FD2846FFF720F92846FFF70A
:102D800074F92046FFF747F96846FFF78CF94A22A5
:102D900069461B48FEF762FD3846FEF7E4FD204613
:102DA000FFF739F96846FFF77EF94A226946144869
:102DB000FEF754FD3846FEF7D6FD2046FFF7CBF868
:102DC0006846FFF770F94A2269460D48FEF746FD4E
:102DD0003846FEF7C8FD2046FFF7BDF82846FFF746
:102DE000FCF82846FFF732F96846FFF75CF94A22FB
:102DF00069460348FEF732FD384605E01900002019
:102E00000044004038010020FEF7ADFD2046FFF7EA
:102E1000BAF82846FFF7E1F82846FFF717F96846A1
:102E2000FFF741F94A226946FE48FEF717FD38468A
:102E3000FEF799FD2046FFF7A6F86846FFF733F93D
:102E40004A226946F748FEF709FD3846FEF78BFD32
:102E50002046FFF7C8F86846FFF725F94A22694679
:102E6000F048FEF7FBFC3846FEF77DFD2846FFF7ED
:102E7000A5F82846FFF7F9F82046FFF7B4F86846AA
:102E8000FFF711F94A226946E648FEF7E7FCE648F3
:102E9000007800283FF46CAF3846FEF764FD20460A
:102EA000FFF759F82046FFF7B6F86846FFF7FBF83A
:102EB0004A226946DB48FEF7D1FC13B0F0BD10B5DD
:102EC00094B0044621460320FEF787FE21460420E5
:102ED000FEF783FE21460520FEF77FFE21460020F7
:102EE000FEF702FE21460120FEF7FEFD21460220EC
:102EF000FEF7FAFD0320FEF778FE0420FEF775FECC
:102F00000520FEF772FE0020FEF76FFE0120FEF79F
:102F10006CFE0220FEF769FE01A8FFF7C4F84A2202
:102F200001A9C048FEF79AFC14B010BD10B50446C4
:102F30006042FFF7C4FF10BD10B594B00446BB4813
:102F4000406940F6340188420DD22046FFF703F86D
:102F50002046FFF748F801A8FFF7A5F84A2201A983
:102F6000B048FEF77BFC14B010BD10B594B0044619
:102F7000AE484069B0F57A7F0DD92046FFF703F8D7
:102F80002046FFF748F801A8FFF78DF84A2201A96B
:102F9000A448FEF763FC14B010BD10B594B0002433
:102FA00005E040F2DC50A14941F82400641C202CCB
:102FB000F7DB01A8FFF777F84A2201A99948FEF745
:102FC0004DFC14B010BD10B594B00446974840684D
:102FD000B0F5617F23D921460220FEF785FD214609
:102FE0000520FEF781FD61420020FEF77DFD614274
:102FF0000320FEF779FD0220FEF7F7FD0520FEF71E
:10300000F4FD0020FEF7F1FD0320FEF7EEFD01A820
:10301000FFF749F84A2201A98248FEF71FFC14B0C5
:1030200010BD10B594B0044680484068B0F5FA6F02
:1030300023D261420220FEF757FD61420520FEF7D0
:1030400053FD21460020FEF74FFD21460320FEF7E9
:103050004BFD0220FEF7C9FD0520FEF7C6FD00204E
:10306000FEF7C3FD0320FEF7C0FD01A8FFF71BF824
:103070004A2201A96B48FEF7F1FB14B010BD2322D0
:1030800002706B4A12784270694A1168674A32F8D6
:103090002120120A8270654A12F82120C270232270
:1030A0000271634A12794271614A51685F4A32F88B
:1030B0002120120A82715D4A12F82120C271232256
:1030C00002725C4A127842725A4A1168574A32F8C0
:1030D0002120120A8272554A12F82120C27223223C
:1030E0000273544A12794273524A51684F4A32F875
:1030F0002120120A82734D4A12F82120C273232222
:1031000002744C4A127A42744A4A9168474A32F829
:103110002120120A8274454A12F82120C2745422D6
:10312000027501224275704710B586B004462046EC
:10313000FEF78FFC6846FFF7A2FF16226946394862
:10314000FEF78CFB06B010BD10B586B00446604299
:10315000FEF77FFC6846FFF792FF1622694631486A
:10316000FEF77CFB06B010BD10B586B004462046C5
:10317000FEF795FC6846FFF782FF1622694629484C
:10318000FEF76CFB06B010BD10B586B00446604279
:10319000FEF785FC6846FFF772FF16226946214854
:1031A000FEF75CFB06B010BD10B586B004462046A5
:1031B000FEF762FC6846FFF762FF1622694619486F
:1031C000FEF74CFB06B010BD10B586B00446604259
:1031D000FEF752FC6846FFF752FF16226946114877
:1031E000FEF73CFB06B010BD23220270104A127895
:1031F00042700F4A12680D4B53F822100A0A82706F
:10320000C170232202710A4A12794271084A526837
:1032100053F822100A0A8271C171542202720122EB
:103220004272704700440040190000205C000020FA
:1032300030010020240100203EB5FEF7EAFB0446E1
:103240006846FFF7D1FF0A226946BF48FEF706FB32
:1032500020463EBD3EB5044621460020FEF7AEFBAB
:1032600021460120FEF7AAFB6846FFF7BDFF0A22B0
:103270006946B548FEF7F2FA3EBD10B50446604215
:10328000FFF7E8FF10BD2DE9F041002500240026DE
:10329000002700BF12E0FEF7A6FA4421AA48FDF776
:1032A00030FAFEF78CFA0646FEF789FA074607EB76
:1032B00006203A21B0FBF1F004446D1C082DEADB36
:1032C000E4082046BDE8F08130B50146002018E052
:1032D0009E4B53F82020232301F8203083005B1CF1
:1032E000CA549B4B33F82230C3F3072483009B1C42
:1032F000CC54974B13F822408300DB1CCC54431C66
:10330000D8B20328E4DB1DE0032390FBF3F403FBB6
:103310001403904C54F82320232301F82030830019
:103320005B1CCA548A4B33F82230C3F30724830052
:103330009B1CCC54864B13F822408300DB1CCC54DE
:10334000431CD8B20628DFDB1DE0032390FBF3F417
:1033500003FB1403804C54F82320232301F820306E
:1033600083005B1CCA547A4B33F82230C3F3072422
:1033700083009B1CCC54764B13F822408300DB1C4B
:10338000CC54431CD8B20928DFDB1DE0032390FB9B
:10339000F3F403FB1403714C54F82320232301F8A6
:1033A000203083005B1CCA54694B33F82230C3F3CE
:1033B000072483009B1CCC54654B13F822408300E8
:1033C000DB1CCC54431CD8B20C28DFDB1DE00323EC
:1033D00090FBF3F403FB1403614C54F823202323E4
:1033E00001F8203083005B1CCA54594B33F822305B
:1033F000C3F3072483009B1CCC54554B13F8224085
:103400008300DB1CCC54431CD8B20F28DFDB1DE04B
:10341000032390FBF3F403FB1403524C54F82320D2
:10342000232301F8203083005B1CCA54484B33F837
:103430002230C3F3072483009B1CCC54444B13F865
:1034400022408300DB1CCC54431CD8B21228DFDBA3
:103450001FE00346C41700EB9474A410A0EB84048F
:10346000414D55F82420232301F8203083005B1CB4
:10347000CA54374B33F82230C3F3072483009B1C14
:10348000CC54334B13F822408300DB1CCC54431C38
:10349000D8B21528DDDB542301F820300124830045
:1034A0005B1CCC5430BD232202702F4A127842702C
:1034B0002D4A1168264A32F82120120A8270244AC5
:1034C00012F82120C27023220271274A1279427118
:1034D000254A51681E4A32F82120120A82711C4A7C
:1034E00012F82120C271232202721F4A127A4272FC
:1034F0001D4A9168164A32F82120120A8272144A33
:1035000012F82120C27254220273012242737047C2
:1035100070B5FFF7B8FE84B2FFF78EFE05463C2C6F
:1035200000DD70BD60000A2190FBF1F63C2278219D
:103530003046FEF798FEFFF7A6FE84B22846FFF756
:1035400089FE00BFEDE7000000440040DC000020E1
:103550005C000020E8000020F400002000010020B2
:103560000C0100201801002024010020D2B201E04B
:1035700000F8012B491EFBD270470022F6E710B578
:1035800013460A4604461946FFF7F0FF204610BDD1
:10359000421C10F8011B0029FBD1801A7047000063
:1035A000064C074D06E0E06840F0010394E8070090
:1035B00098471034AC42F6D3FCF7EAFD40370008D8
:1035C0006037000870B501EB020410F8015B15F0DC
:1035D000070301D110F8013B2A1106D110F8012B85
:1035E00003E010F8016B01F8016B5B1EF9D12B07AA
:1035F00005D40023521E0FD401F8013BFAE710F85E
:10360000013B02F10202A1EB030303E013F8015BAB
:1036100001F8015B521EF9D5A142D6D3002070BD3E
:103620000FB4084B10B504A902AA039800F01BF8C8
:10363000044602A9002000F07EF8204610BC5DF888
:1036400014FB00003737000802E008C8121F08C149
:10365000002AFAD170477047002001E001C1121F13
:10366000002AFBD170472DE9F84F994692468846CB
:103670000546002759E0252801D0514623E00023C4
:1036800015F8011F18462E2915D115F8011F04231E
:103690002A290DD06FF02F022978A1F13004092CCE
:1036A00009D800EB800002EB400008446D1CF3E7F2
:1036B00058F8040B6D1C2A7872B3632A08D0732A59
:1036C00010D0514610464A46904707F101072BE0BB
:1036D00018F8042B8DF8002000218DF801106E469B
:1036E000012103E058F8046B4FF0FF315A074FF007
:1036F000000401D409E0641C84420BDA8C42FADB3A
:10370000325D002AF7D105E0641C8C42FCDB305DA1
:103710000028F9D1274405E00AE016F8010B5146CC
:103720004A469047641EF8D26D1C28780028A2D122
:103730003846BDE8F88F0A68531C0B60107070475C
:1037400060370008000000203C010000C43500087C
:10375000A83700083C010020640500005836000826
:10376000412D0102030404052906070809847A0390
:103770000A09163C0B7CDC0504399C313202320408
:1037800029133206320829AD29C132103211321202
:1037900032143215321632183219321A320D320EF4
:0837A000320F32037213000026
:040000050800018965
:00000001FF
