:020000040800F2
:10000000600400209D010008A5010008A701000868
:10001000A9010008AB010008AD01000800000000C4
:10002000000000000000000000000000AF01000818
:10003000B101000800000000B3010008B50100088C
:10004000B7010008B7010008B7010008B7010008B0
:10005000B7010008B7010008B7010008B7010008A0
:10006000B7010008B7010008B7010008B701000890
:10007000B7010008B7010008B7010008B701000880
:10008000B7010008B7010008B7010008B701000870
:10009000B7010008B7010008B7010008B701000860
:1000A000B7010008B7010008B7010008B701000850
:1000B000B7010008B7010008B7010008B701000840
:1000C000B7010008B7010008B7010008B701000830
:1000D000B70100088D1C0008551C0008B701000876
:1000E000B7010008B7010008B7010008B701000810
:1000F000B7010008B7010008B7010008B701000800
:10010000B7010008B7010008B7010008B7010008EF
:10011000B7010008B7010008B7010008B7010008DF
:10012000B7010008B7010008B7010008B7010008CF
:10013000B7010008B7010008B7010008B7010008BF
:10014000B7010008B7010008B7010008B7010008AF
:10015000B7010008B7010008B7010008B70100089F
:10016000B7010008B7010008B7010008B70100088F
:10017000B7010008B7010008B7010008B70100087F
:10018000B7010008B7010008DFF80CD002F082F8D0
:1001900000480047A50E000860040020064880477C
:1001A00006480047FEE7FEE7FEE7FEE7FEE7FEE75C
:1001B000FEE7FEE7FEE7FEE7BF0F00088901000843
:1001C00033490143334A1160704770B50021002361
:1001D0000F22C47824B32F4C246804F4E064C4F5DF
:1001E000E064C4F30721C1F10404E3B20A41447896
:1001F0009C40E1B28478144021430C07210E264C28
:1002000005786155047804F01F050124AC40057899
:100210006D114FF0E02606EB8505C5F8004109E0B9
:10022000047804F01F040125A5401C4C06787611C3
:1002300044F8265070BD1A4A0A400243154B1B1F52
:100240001A60704739B1134A121D12680243114BEC
:100250001B1D1A6006E00F4A121D126882430D4BE7
:100260001B1D1A607047042808D14FF0E02109696E
:1002700041F004014FF0E022116107E04FF0E0216E
:10028000096921F004014FF0E0221161704700007C
:100290000000FA050CED00E000E400E080E100E081
:1002A00080FFFF1F10B504468C48844208D101210D
:1002B000084600F00EFD0021012000F00AFD5EE07E
:1002C0008748844208D10121022000F002FD00216C
:1002D000022000F0FEFC52E08248844208D1012155
:1002E000042000F0F6FC0021042000F0F2FC46E0BF
:1002F0007D48844208D10121082000F0EAFC002159
:10030000082000F0E6FC3AE07848844208D1012158
:10031000102000F0DEFC0021102000F0DAFC2EE0BE
:100320007348844208D10121202000F0D2FC002132
:10033000202000F0CEFC22E06E48844208D101214A
:10034000402000F0C6FC0021402000F0C2FC16E076
:100350006948844208D10121802000F0BAFC0021C4
:10036000802000F0B6FC0AE06448844207D10121F5
:10037000801500F0AEFC0021A01500F0AAFC10BD15
:10038000F0B50A4600210023002400BF3DE001250E
:1003900005FA01F3156805EA03049C4234D10568A7
:1003A0004F000326BE40B543056015794E00B540A9
:1003B0000668354305601579012D02D01579022DA7
:1003C00016D185684F000326BE40B5438560557938
:1003D0004E00B540866835438560456801268E40ED
:1003E000B5434560456896798E40B6B23543456061
:1003F000C5684F000326BE40B543C560D5794E00A1
:10040000B540C6683543C560491C1029BFD3F0BD4F
:100410004FF6FF7101600021017141718171C1715D
:10042000704708B54FF480320092009A0A43009258
:10043000009AC261C161009AC261C2690092C26938
:10044000009208BD0246002013690B4201D0012032
:1004500000E0002070470146086980B270470246FC
:10046000002053690B4201D0012000E000207047BA
:100470000146486980B270470183704741837047E5
:100480000AB1018300E041837047416170474269CE
:100490004A4042617047F0B5002300244D07ED0E3D
:1004A00002FA05F3CE1000F1200555F826504E074C
:1004B000F70E0F26BE40B543CF1000F1200646F8D8
:1004C0002750CE1000F1200555F8265045EA0304C8
:1004D000CE1000F1200545F82640F0BD0000024096
:1004E0000004024000080240000C024000100240DC
:1004F0000014024000180240001C0240002002408C
:1005000010B50446F748844208D10121102000F0BC
:1005100037FC0021102000F033FC3EE0F24884421A
:1005200009D10121480400F01AFC00214FF40030E9
:1005300000F015FC31E0ED48844209D10121880426
:1005400000F00DFC00214FF4802000F008FC24E0B6
:10055000E748844209D10121C80400F000FC0021D1
:100560004FF4002000F0FBFB17E0E248844209D181
:100570000121080500F0F3FB00214FF4801000F08A
:10058000EEFB0AE0DC48844207D10121202000F084
:10059000F7FB0021202000F0F3FB10BD2DE9FF4701
:1005A00005460E460024A14600BFA046B08900B112
:1005B00000BF2C8A24F44054F08804432C82AC8978
:1005C00041F20C608443B088318908437189084343
:1005D0000443AC81AC8A24F44074B0890443AC82F7
:1005E000684600F08CFABF48854202D0C248854276
:1005F00002D1DDF80C9001E0DDF80890A88910F434
:10060000004F08D009EBC90000EB09103168490020
:10061000B0FBF1F707E009EBC90000EB0910316806
:100620008900B0FBF1F76420B7FBF0F0040120096A
:10063000642101FB1078A88910F4004F08D0322003
:1006400000EBC800B0FBF1F000F00700044308E045
:10065000322000EB08106421B0FBF1F000F00F0035
:1006600004432C81BDE8FF874FF41651016000213F
:100670008180C18001810C214181002181817047ED
:1006800010B502460020108A20F470600B884C8858
:1006900023438C882343CC8823431843108210BD06
:1006A0000021018041808180C180704721B1828911
:1006B00042F40052828104E082894DF6FF731A40B1
:1006C00082817047028B02F47F420283028B0A43CD
:1006D0000283704721B1828942F40042828103E0A3
:1006E0008289C2F30E028281704721B1828A42F46C
:1006F0000062828204E0828A4FF2FF731A40828293
:100700007047C1F308028280704701468888C0F3B1
:1007100008007047028A4FF6F0731A400282028A7C
:100720000A430282704721B1828942F0020282812B
:1007300004E082894FF6FD731A40828170478289F6
:100740004FF2FF731A40828182890A438281704787
:10075000028A4FF6DF731A400282028A0A4302823B
:10076000704721B1028A42F48042028204E0028A88
:100770004BF6FF731A4002827047818941F00101F4
:100780008181704721B1828A42F00802828204E0AE
:10079000828A4FF6F7731A4082827047028BD2B278
:1007A0000283028B42EA01220283704721B1828ACE
:1007B00042F02002828204E0828A4FF6DF731A4000
:1007C0008282704721B1828A42F01002828204E064
:1007D000828A4FF6EF731A4082827047828A4FF600
:1007E000FB731A408282828A0A438282704721B157
:1007F000828A42F00202828204E0828A4FF6FD730E
:100800001A40828270471AB1838A0B43838202E0C6
:10081000838A8B4383827047F0B503460024002609
:1008200000250020A1F510676A3F00D100BF1846DF
:10083000C1F3421401F01F06012707FA06F5012C47
:1008400001D10C3004E0022C01D1103000E0143052
:100850001AB107682F43076002E00768AF430760DB
:10086000F0BD02460020B1F5007F00D100BF138823
:100870000B4201D0012000E00020704701F400721B
:10088000B2F5007F00D100BFCA430280704770B547
:1008900002460024002300250020A1F510666A3ED0
:1008A00000D100BFC1F3421501F01F03012606FA73
:1008B00003F3012D02D19689334006E0022D02D1C7
:1008C000168A334001E0968A33400C12012606FA5C
:1008D00004F41688344013B10CB1012000E000206C
:1008E00070BD00000010014000440040004800407E
:1008F000004C0040005000400014014010B50022A0
:100900000023A1F510646A3C00D100BF0A12012443
:100910009440A3B2DC43048010BD0000FA48006894
:1009200040F00100F84908600020F74908310860EC
:10093000F5480068F5490840F3490860F448091D86
:100940000860081F006820F48020091F086000204C
:10095000ED490C31086070470021EB4A921C117080
:1009600011460870704710B5014600220023002090
:100970004A11012A02D1E44C236808E0022A03D17B
:10098000E14C7034236802E0DF4C7434236801F0DA
:100990001F02012494401C4201D0012000E00020ED
:1009A00010BD38B5002000900024002500BF312084
:1009B000FFF7D9FF05460098401C00900098B0F55D
:1009C000A06F01D0002DF2D03120FFF7CCFF08B18D
:1009D000012400E00024204638BD01460020CA4A18
:1009E000106820F0F80040EAC10010607047C94963
:1009F000086070470021C44A7032117011700128DC
:100A000002D004280AD104E00121BF4A70321170DB
:100A100005E00521BC4A7032117000E000BF00BF44
:100A20007047BD490860704770B5049C41EA821563
:100A30000126C6EB530645EA0645054345EA04652B
:100A4000B14E361D356070BDB249086670478201EF
:100A500042EA0172AC4B84331A607047AD49886634
:100A60007047AC49C864704702460020A64B083363
:100A7000186820F0EC6042EA01031843A24B0833E7
:100A800018607047024600209F4B0833186820F01A
:100A9000784042EA010318439B4B083318607047C3
:100AA00001460020984A0832106820F003000843ED
:100AB0001060704794480830006800F00C007047E0
:100AC00001460020904A0832106820F0F0000843E8
:100AD00010607047014600208B4A0832106820F4ED
:100AE000E05008431060704701460020864A0832F3
:100AF000106820F4604040EAC10010607047F0B513
:100B00000021002200240225002602237E4F083700
:100B10003F6807F00C0121B1042905D0082937D11D
:100B200005E07E4F076036E07D4F076033E0764F8B
:100B30003F1D3F68C7F38056734F3F1D3F6807F066
:100B40003F036EB1764FB7FBF3F7DFF8BCC10CF192
:100B5000040CDCF800C0CCF3881C07FB0CF40CE0A0
:100B60006E4FB7FBF3F7DFF8A0C10CF1040CDCF813
:100B700000C0CCF3881C07FB0CF4634F3F1D3F689B
:100B8000C7F301477F1C7D00B4FBF5F7076002E067
:100B9000624F076000BF00BF5B4F08373F6807F038
:100BA000F00109095F4F7A5C0768D7404760564FEC
:100BB00008373F6807F4E051890A5A4F7A5C476862
:100BC000D7408760504F08373F6807F46041490BB2
:100BD000544F7A5C4768D740C760F0BD002100F4ED
:100BE0004072B2F5407F0AD1474A0832116821F4B9
:100BF000F8114D4A02401143434A08321160424AFB
:100C000070321268C0F30B031A433F4B70331A6003
:100C1000704741494439086070473F49403908608E
:100C2000704742490860704739B1374A303212681C
:100C30000243354B30331A6006E0334A30321268D3
:100C40008243314B30331A60704739B12E4A343207
:100C5000126802432C4B34331A6006E02A4A3432BD
:100C600012688243284B34331A60704739B1264AE0
:100C7000383212680243244B38331A6006E0224AA5
:100C8000383212688243204B38331A60704739B1CA
:100C90001D4A4032126802431B4B40331A6006E083
:100CA000194A403212688243174B40331A6070472A
:100CB00039B1154A443212680243134B44331A6067
:100CC00006E0114A4432126882430F4B44331A60E3
:100CD000704739B10C4A1032126802430A4B103384
:100CE0001A6006E0084A103212688243064B10333D
:100CF0001A607047E1B1044A143212680243024B91
:100D000014331A6019E0000000380240FFFFF6FEBD
:100D10001030002400004742800E47420024F400B7
:100D200000127A0000000020FFFCFF0F5C01474228
:100D30005B4A126882435A4B1A60704739B1584A6D
:100D4000121D12680243564B1B1D1A6006E0544ADE
:100D5000121D12688243524B1B1D1A60704739B135
:100D60004F4A0C32126802434D4B0C331A6006E0B6
:100D70004B4A0C3212688243494B0C331A6070475D
:100D800039B1474A103212680243454B10331A609A
:100D900006E0434A103212688243414B10331A6016
:100DA000704739B13E4A3C32126802433C4B3C33F7
:100DB0001A6006E03A4A3C3212688243384B3C33B0
:100DC0001A60704739B1364A403212680243344BD8
:100DD00040331A6006E0324A403212688243304B98
:100DE00040331A60704739B12D4A443212680243C9
:100DF0002B4B44331A6006E0294A4432126882437E
:100E0000274B44331A60704739B1254A4C32126877
:100E10000243234B4C331A6006E0214A4C321268DD
:100E200082431F4B4C331A60704739B11C4A503211
:100E3000126802431A4B50331A6006E0184A5032C7
:100E400012688243164B50331A60704739B1144A06
:100E5000D21F12780243124BDB1F1A7006E0104AB1
:100E6000D21F127882430E4BDB1F1A7070470C485A
:100E70006030006840F08070094960310860704758
:100E800001460020064A083A12680A4201D00120B1
:100E900000E0002070470249891F08707047000079
:100EA0001438024001F009F800BFFEE71CB501212B
:100EB0000846FFF7B9FE4FF40040009001208DF87E
:100EC000040000208DF8060001208DF807000220A4
:100ED0008DF8050069460248FFF752FA1CBD000074
:100EE000000002400CB5002001900090724800689C
:100EF00040F480307049086000BF6F48006800F41B
:100F0000003000900198401C0190009818B9019899
:100F1000B0F5A06FF1D16848006810F4003F02D02E
:100F20000120009001E0002000900098012845D1A8
:100F300061484030006840F080505F4940310860AF
:100F40005E48006840F480405C4908605A480830B8
:100F500000685949083108600846006840F40040BC
:100F600008600846006840F4A05008605448091F13
:100F70000860081F006840F08070091F086000BF0B
:100F80004D48006810F0007FFAD040F205604D49EE
:100F9000086049480830006820F0030046490831DD
:100FA00008600846006840F00200086000BF424840
:100FB0000830006800F00C000828F8D10CBD10B50E
:100FC0003D48006840F001003B49086000203A4974
:100FD00008310860384800683B49084036490860D5
:100FE0003A48091D0860081F006820F48020091F86
:100FF0000860002030490C310860FFF773FF4FF0A4
:1010000000603349086010BD70B500200022022343
:1010100000240221284D08352D6805F00C0020B170
:10102000042806D0082834D107E02A4D2A4E35601E
:1010300033E02A4D284E35602FE01F4D2D1D2D68C1
:10104000C5F380541C4D2D1D2D6805F03F0154B192
:10105000224DB5FBF1F5184E361D3668C6F38816DD
:1010600005FB06F209E01B4DB5FBF1F5124E361DEE
:101070003668C6F3881605FB06F20F4D2D1D2D6848
:10108000C5F301456D1C6B00B2FBF3F5124E3560E4
:1010900003E0104D104E356000BF00BF064D08350F
:1010A0002D68C5F303150E4E705D0B4D2D68C540C0
:1010B000094E356070BD00000038024000700040ED
:1010C00008544007003C0240FFFFF6FE10300024A9
:1010D00008ED00E00024F4001000002000127A0067
:1010E0001400002008B5FAA0006800906946F9488D
:1010F00000F07AFE08BD08B5F7A0006800906946C8
:10110000F44800F071FE08BD00B59DB0642168464A
:1011100001F0ADF840F28A2000F0FAFEC0B21C9057
:1011200040F28A2000F0E2FEC0B21B9040F6FC00C4
:1011300000F0EEFEC0B21A9040F6FC0000F0D6FEC1
:10114000C0B219901BAB1CAAE449684600F0F4FE3B
:101150001BAB1CAAE249684600F0EEFE19AB1AAAC6
:10116000E049684600F0E8FE1BAB1CAADE49684671
:1011700000F0E2FE1BAB1CAADC49684600F0DCFE76
:1011800019AB1AAADA49684600F0D6FE19AB1AAABA
:10119000D849684600F0D0FE19AB1AAAD64968466D
:1011A00000F0CAFE1BAB1CAAD449684600F0C4FE7E
:1011B00019AB1AAAD249684600F0BEFE19AB1AAAAA
:1011C000D049684600F0B8FE1BAB1CAACE49684661
:1011D00000F0B2FECD49684600F0A2FE6946BD4867
:1011E00000F002FE1DB000BD00B59BB06421684652
:1011F00001F03DF840F2DC5000F08AFEC0B21A90D7
:1012000040F2DC5000F072FEC0B21990C04968464E
:1012100000F086FE1AA9684600F082FE19A9684609
:1012200000F07EFEBB49684600F07AFE1AA96846C7
:1012300000F076FE19A9684600F072FEB6496846CD
:1012400000F06EFE1AA9684600F06AFE19A9684609
:1012500000F066FEA149684600F062FE1AA96846E1
:1012600000F05EFE19A9684600F05AFE9C496846E7
:1012700000F056FE1AA9684600F052FE19A9684609
:1012800000F04EFE9749684600F04AFE1AA96846EB
:1012900000F046FE19A9684600F042FE92496846F1
:1012A00000F03EFE1AA9684600F03AFE19A9684609
:1012B00000F036FE8D49684600F032FE1AA96846F5
:1012C00000F02EFE19A9684600F02AFE88496846FB
:1012D00000F026FE1AA9684600F022FE19A9684609
:1012E00000F01EFE8D49684600F01AFE1AA96846F5
:1012F00000F016FE19A9684600F012FE88496846FB
:1013000000F00EFE1AA9684600F00AFE19A9684608
:1013100000F006FE8349684600F002FE1AA96846FE
:1013200000F0FEFD19A9684600F0FAFD7149684613
:1013300000F0F6FD1AA9684600F0F2FD19A968460A
:1013400000F0EEFD6C49684600F0EAFD1AA9684617
:1013500000F0E6FD19A9684600F0E2FD674968461D
:1013600000F0DEFD1AA9684600F0DAFD19A968460A
:1013700000F0D6FD6249684600F0D2FD1AA9684621
:1013800000F0CEFD19A9684600F0CAFD5D49684627
:1013900000F0C6FD1AA9684600F0C2FD19A968460A
:1013A00000F0BEFD5849684600F0BAFD1AA968462B
:1013B00000F0B6FD19A9684600F0B2FD5A4968462A
:1013C00000F0AEFD1AA9684600F0AAFD19A968460A
:1013D00000F0A6FD5549684600F0A2FD1AA968462E
:1013E00000F09EFD19A9684600F09AFD5049684634
:1013F00000F096FD1AA9684600F092FD19A968460A
:1014000000F08EFD4B49684600F08AFD1AA9684637
:1014100000F086FD19A9684600F082FD464968463D
:1014200000F07EFD1AA9684600F07AFD19A9684609
:1014300000F076FD3549684600F072FD69462548A2
:1014400000F0D2FC1BB000BD70B5A2B004460D4642
:101450001646642101A800F00AFFA4F5967188B22F
:1014600000F056FDC0B22190A4F5967188B200F04C
:101470003DFDC0B2209004F5967188B200F048FDA1
:10148000C0B21F9004F5967188B200F02FFDC0B273
:101490001E90A5F1C80188B200F03AFDC0B21D90BF
:1014A000A5F1C80188B200F021FDC0B21C9005F181
:1014B000C80188B200F02CFDC0B21B9005F1C80134
:1014C00088B200F013FDC0B21A90304622B070BD51
:1014D000530100000044004053020000300000208F
:1014E00032000020340000203600002038000020A8
:1014F0003A0000203C0000203E0000204000002078
:10150000420000204400002046000020520000203D
:101510002400002026000020280000202A000020AF
:101520002C0000202E000020480000204A0000204F
:10153000500000204E0000204C0000207FB50646E1
:101540000C461546611B88B200F0E2FCC0B2039065
:10155000611B88B200F0CAFCC0B20290611988B267
:1015600000F0D6FCC0B20190611988B200F0BEFC58
:10157000C0B2009002AB03AAFB49304600F0DCFC8D
:101580006B4601AAF949304600F0D6FC02AB03AA2B
:10159000F749304600F0D0FC7FBD7FB505460C46CC
:1015A0001646204600F0B4FCC0B20390204600F07E
:1015B0009DFCC0B20290204600F0AAFCC0B201908F
:1015C000204600F093FCC0B2009002AB03AAE649AB
:1015D000284600F0B1FC6B4601AAE449284600F019
:1015E000ABFC02AB03AAE249284600F0A5FC7FBD94
:1015F0007FB506460C461546611988B200F088FC96
:10160000C0B20390611988B200F070FCC0B20290C1
:10161000611B88B200F07CFCC0B20190611B88B2F3
:1016200000F064FCC0B2009002AB03AACE49304681
:1016300000F082FC6B4601AACC49304600F07CFCED
:1016400002AB03AACA49304600F076FC7FBD7FB5E5
:1016500006460C461546611988B200F059FCC0B226
:101660000390611988B200F041FCC0B20290611B86
:1016700088B200F04DFCC0B20190611B88B200F04E
:1016800035FCC0B2009002AB03AABA49304600F064
:1016900053FC6B4601AAB849304600F04DFC02AB42
:1016A00003AAB649304600F047FC7FBD7FB505462A
:1016B0000C461646204600F02BFCC0B20390204694
:1016C00000F014FCC0B20290204600F021FCC0B231
:1016D0000190204600F00AFCC0B2009002AB03AAC1
:1016E000A449284600F028FC6B4601AAA2492846D6
:1016F00000F022FC02AB03AAA049284600F01CFC23
:101700007FBD7FB506460C461546611B88B200F0CA
:10171000FFFBC0B20390611B88B200F0E7FBC0B2D0
:101720000290611988B200F0F3FBC0B20190611918
:1017300088B200F0DBFBC0B2009002AB03AA8D4977
:10174000304600F0F9FB6B4601AA8B49304600F0A9
:10175000F3FB02AB03AA8949304600F0EDFB7FBDE5
:101760007FB506460C461546611988B200F0D0FBDD
:10177000C0B20390611988B200F0B8FBC0B2029009
:10178000611B88B200F0C4FBC0B20190611B88B23B
:1017900000F0ACFBC0B2009002AB03AA784930461F
:1017A00000F0CAFB02AB03AA7649304600F0C4FB46
:1017B0006B4601AA7449304600F0BEFB6B4601AA95
:1017C0007249304600F0B8FB02AB03AA70493046BC
:1017D00000F0B2FB02AB03AA6E49304600F0ACFB4E
:1017E0007FBD7FB506460C461546611988B200F0EC
:1017F0008FFBC0B20390611988B200F077FBC0B2D2
:101800000290611B88B200F083FBC0B20190611BA3
:1018100088B200F06BFBC0B2009002AB03AA58493B
:10182000304600F089FB02AB03AA5649304600F06F
:1018300083FB6B4601AA5449304600F07DFB6B46A2
:1018400001AA5249304600F077FB02AB03AA504987
:10185000304600F071FB02AB03AA4E49304600F05F
:101860006BFB7FBD7FB506460C461546611B88B2F3
:1018700000F04EFBC0B20390611B88B200F036FB53
:10188000C0B20290611988B200F042FBC0B2019070
:10189000611988B200F02AFBC0B2009002AB03AA23
:1018A0003749304600F048FB02AB03AA35493046C1
:1018B00000F042FB6B4601AA3349304600F03CFB86
:1018C0006B4601AA3149304600F036FB02AB03AA51
:1018D0002F49304600F030FB02AB03AA2D493046B9
:1018E00000F02AFB7FBD7FB506460C461546611BFE
:1018F00088B200F00DFBC0B20390611B88B200F00B
:10190000F5FAC0B20290611988B200F001FBC0B2D2
:101910000190611988B200F0E9FAC0B2009002AB00
:1019200003AA1D49304600F007FB02AB03AA1B497E
:10193000304600F001FB6B4601AA1949304600F021
:10194000FBFA6B4601AA1749304600F0F5FA02ABE4
:1019500003AA1549304600F0EFFA02AB03AA134977
:10196000304600F0E9FA7FBD240000202800002066
:10197000260000202A0000202E0000202C0000203D
:101980003000002036000020340000203A00002003
:1019900032000020380000203C00002042000020DF
:1019A00040000020460000203E00002044000020AF
:1019B0007FB506460C461546611988B200F0A8FAB4
:1019C000C0B20390611988B200F090FAC0B20290E0
:1019D000611B88B200F09CFAC0B20190611B88B212
:1019E00000F084FAC0B2009002AB03AA4749304627
:1019F00000F0A2FA02AB03AA4549304600F09CFA77
:101A00006B4601AA4349304600F096FA6B4601AA9C
:101A10004149304600F090FA02AB03AA3F493046F4
:101A200000F08AFA02AB03AA3D49304600F084FA7E
:101A30007FBD7FB506460C461546611988B200F099
:101A400067FAC0B20390611988B200F04FFAC0B2D1
:101A50000290611B88B200F05BFAC0B20190611B7A
:101A600088B200F043FAC0B2009002AB03AA274943
:101A7000304600F061FA02AB03AA2549304600F077
:101A80005BFA6B4601AA2349304600F055FA6B46D3
:101A900001AA2149304600F04FFA02AB03AA1F49C0
:101AA000304600F049FA02AB03AA1D49304600F067
:101AB00043FA7FBD00B5B3B0C82240F2DC511AA88A
:101AC000FFF74EFEC82240F2DC511AA8FFF736FDA0
:101AD00014491AA800F024FAC82240F2DC5101A8E7
:101AE000FFF766FFC82240F2DC5101A8FFF709FEAC
:101AF0000C4901A800F014FA1AA90B4800F074F977
:101B000001A9094800F070F933B000BD3C00002085
:101B10004200002040000020460000203E0000203F
:101B200044000020520000200044004010B588B05E
:101B3000044601214804FFF7AAF801210846FFF7EF
:101B400073F80420069002208DF81C008DF81D000B
:101B500000208DF81E0001208DF81F0006A94448C2
:101B6000FEF70EFC072202214148FEF794FC0722F3
:101B700003213F48FEF78FFC072202213C48FEF775
:101B80008AFC4FF4165002900020ADF80C00ADF81E
:101B90000E00ADF81000ADF814000820ADF81200EA
:101BA00002A93448FEF7FAFC01213248FEF77EFD17
:101BB0004FF4A060FEF704FB26208DF804000020FF
:101BC0008DF805008DF8060001208DF8070001A8AA
:101BD000FEF7FBFA01212748FEF768FD08B010BDAB
:101BE00070B505460E4600240BE0295D2148FEF73E
:101BF00088FD00BF40211F48FEF733FE0028F9D0C2
:101C0000641CB442F1DB70BD10B504460BE02178D2
:101C10001848FEF776FD641C00BF40211548FEF70A
:101C200020FE0028F9D020780028F0D110BD10B592
:101C300004460CE021460F48FEF763FD601CC4B269
:101C400000BF40210B48FEF70CFE0028F9D0002C05
:101C5000F0D110BD10B540F225510648FEF717FE31
:101C600028B10448FEF751FDC4B20348047010BD0A
:101C700000000240004400405400002001B500BFB5
:101C80000098411E00910028FAD108BD10B5C2B0DD
:101C900090A0006801909048008810F0200F76D046
:101CA0008D48FEF732FD8D4908804FF4807102A8FF
:101CB00000F0DDFA8948028889A102A800F0FCFA48
:101CC000864804880088313811286ED2DFE800F099
:101CD0000911192027344552608888888888886EC1
:101CE0007B00FFF7FFF9FFF77FFA01207D490870BD
:101CF00077E0FFF709FAFFF7FEF90020794908704D
:101D00006FE078480078012801D100F087F968E099
:101D100074480078012801D100F0A7F961E071480A
:101D20000078012807D100F079F900F09EF900F061
:101D3000D4F900F0DFF954E06A48007801280BD1AB
:101D400000F06CF900F09BF900F0BAF900F0DCF952
:101D50004FF4FA70FFF792FF43E0624800780128E1
:101D600007D100F05BF900F094F900F0B6F900F04B
:101D7000D5F936E05B480078012807D100F04EF92C
:101D800000F087F900F08FF900F0C8F929E029E0A8
:101D900054480078012807D100F05AF900F079F989
:101DA00000F081F900F0BAF91BE019E04D48007825
:101DB000012807D100F04CF900F057F900F073F951
:101DC00000F098F90DE047480078012807D100F0AD
:101DD00025F900F04AF900F066F900F08BF900E00F
:101DE00000BF00BF42B010BD70B505460C460AE00A
:101DF00000BF288810F0400FFBD021782846FEF75E
:101E000080FC14F8010B20780028F1D170BD10B5CA
:101E100086B0044601211020FEF74AFF012102206E
:101E2000FEF702FFC020049002208DF814008DF808
:101E3000150000208DF816008DF8170004A92A4817
:101E4000FEF79EFA072206212748FEF724FB072209
:101E500011462548FEF71FFB00940020ADF8040052
:101E6000ADF80600ADF80800ADF80C000C20ADF898
:101E70000A0069461848FEF791FB012240F22551FD
:101E80001548FEF7C9FC01211348FEF70FFC06B008
:101E900010BD08B54FF4A060FEF792F925208DF82B
:101EA000000000208DF801008DF8020001208DF85F
:101EB00003006846FEF789F908BD10B5FFF7E9FF92
:101EC0004FF41650FFF7A3FF4FF41650FFF72EFE06
:101ED00010BD000054010000001001405800002017
:101EE00025630000560000200004024030B5014682
:101EF000002200230846CD1701EB1565C5F30F221C
:101F00004FF6FF7000EA0223C81A84B2204630BDA3
:101F100001460A46C81701EB1060C0F30F20704756
:101F200070B504460D46204600F0ACF9064614B1E3
:101F3000A0192988018070BD2DE9F04106460F46A1
:101F400014461D4639463046FFF7EAFF2146304623
:101F5000FFF7E6FF29463046FFF7E2FFBDE8F081D4
:101F600001464A78102A01D1012200E000224B7874
:101F7000182B01D1012300E000231A434B78142BC6
:101F800001D1012300E000231A434B78112B01D12A
:101F9000012300E000231A434B78192B01D10123C0
:101FA00000E000231A434B78122B01D1012300E0FB
:101FB00000231A434B781A2B01D1012300E00023A0
:101FC0001A434B78152B01D1012300E000231A435B
:101FD0004B78162B01D1012300E000231A434B78E4
:101FE0001C2B01D1012300E000231A4301D0022061
:101FF00000E0012070472DE9F04281460E4614466C
:102000001D463046FFF7ACFFB8F1010F02D1601951
:1020100087B201E0601B87B2BDE8F08200B587B0EF
:102020001C2243A1684600F009F969464748FFF7BA
:10203000DBFE07B000BD00B587B01C2244A1684696
:1020400000F0FCF869464148FFF7CEFE07B000BD3E
:1020500000B587B01C2245A1684600F0EFF869463C
:102060003A48FFF7C1FE07B000BD1FB546A30FCB2E
:102070008DE80F0069463548FFF7B6FE1FBD1FB556
:1020800045A30FCB8DE80F0069463048FFF7ACFE43
:102090001FBD1FB544A30FCB8DE80F0069462B4829
:1020A000FFF7A2FE1FBD00B587B01C2242A1684603
:1020B00000F0C4F869462548FFF796FE07B000BD5A
:1020C00000B587B01C2243A1684600F0B7F8694606
:1020D0001E48FFF789FE07B000BD00B587B01C227F
:1020E00043A1684600F0AAF869461848FFF77CFE4D
:1020F00007B000BD1FB545A30FCB8DE80F006946A3
:102100001248FFF771FE1FBD1FB544A30FCB8DE82A
:102110000F0069460D48FFF767FE1FBD1FB543A3BB
:102120000FCB8DE80F0069460848FFF75DFE1FBD25
:102130002311070823120708230504B0230604B05F
:1021400023190708231A070854010000004400401F
:10215000231104B0231204B023050708230607083F
:10216000231904B0231A04B054010000231105DC24
:10217000231205DC230505DC230605DC231905DC19
:10218000231A05DC5401000023100514230406A4BF
:102190002318051454010000231005DC230405DC7A
:1021A000231805DC54010000231006A423040514A1
:1021B000231806A454010000230104B0230204B034
:1021C0002315070823160708230904B0230A04B0BF
:1021D000540100002301070823020708231504B057
:1021E000231604B023090708230A07085401000036
:1021F000230105DC230205DC231505DC231605DCA1
:10220000230905DC230A05DC54010000230305141F
:10221000231406A42308051454010000230305DC3D
:10222000231405DC230805DC54010000230306A465
:1022300023140514230806A45401000040EA0103F6
:102240009B0703D009E008C9121F08C0042AFAD26C
:1022500003E011F8013B00F8013B521EF9D2704730
:10226000D2B201E000F8012B491EFBD270470022D8
:10227000F6E710B513460A4604461946FFF7F0FF85
:10228000204610BD421C10F8011B0029FBD1801A0A
:1022900070470000064C074D06E0E06840F001037F
:1022A00094E8070098471034AC42F6D3FDF770FF6E
:1022B000D8230008F82300080FB4084B10B504A970
:1022C00002AA039800F01BF8044602A9002000F0BF
:1022D0007EF8204610BC5DF814FB0000CF230008F8
:1022E00002E008C8121F08C1002AFAD170477047DF
:1022F000002001E001C1121F002AFBD170472DE927
:10230000F84F9946924688460546002759E0252809
:1023100001D0514623E0002315F8011F18462E294D
:1023200015D115F8011F04232A290DD06FF02F02B3
:102330002978A1F13004092C09D800EB800002EBC8
:10234000400008446D1CF3E758F8040B6D1C2A7814
:1023500072B3632A08D0732A10D0514610464A46F9
:10236000904707F101072BE018F8042B8DF80020A7
:1023700000218DF801106E46012103E058F8046B2E
:102380004FF0FF315A074FF0000401D409E0641CFC
:1023900084420BDA8C42FADB325D002AF7D105E089
:1023A000641C8C42FCDB305D0028F9D1274405E039
:1023B0000AE016F8010B51464A469047641EF8D2CF
:1023C0006D1C28780028A2D13846BDE8F88F0A682D
:1023D000531C0B6010707047F823000800000020A9
:1023E0005C000000E0220008542400085C0000208B
:1023F00004040000F02200080000000001020304B1
:102400000102030406070809007A030A000000001D
:102410000000000001020304060708092310231826
:102420002304230323082314231123192305231230
:10243000231A23062301230923152302230A231623
:10244000231C230C231D230D230E54010000000028
:042450000000000088
:040000050800018965
:00000001FF
