:020000040800F2
:10000000580400209D010008A5010008A701000870
:10001000A9010008AB010008AD01000800000000C4
:10002000000000000000000000000000AF01000818
:10003000B101000800000000B3010008B50100088C
:10004000B7010008B7010008B7010008B7010008B0
:10005000B7010008B7010008B7010008B7010008A0
:10006000B7010008B7010008B7010008B701000890
:10007000B7010008B7010008B7010008B701000880
:10008000B7010008B7010008B7010008B701000870
:10009000B7010008B7010008B7010008B701000860
:1000A000B7010008B7010008B7010008B701000850
:1000B000B7010008B7010008B7010008B701000840
:1000C000B7010008B7010008B7010008B701000830
:1000D000B7010008C115000899150008B70100080C
:1000E000B7010008B7010008B7010008B701000810
:1000F000B7010008B7010008B7010008B701000800
:10010000B7010008B7010008B7010008B7010008EF
:10011000B7010008B7010008B7010008B7010008DF
:10012000B7010008B7010008B7010008B7010008CF
:10013000B7010008B7010008B7010008B7010008BF
:10014000B7010008B7010008B7010008B7010008AF
:10015000B7010008B7010008B7010008B70100089F
:10016000B7010008B7010008B7010008B70100088F
:10017000B7010008B7010008B7010008B70100087F
:10018000B7010008B7010008DFF80CD001F01AFB36
:1001900000480047A50E0008580400200648804784
:1001A00006480047FEE7FEE7FEE7FEE7FEE7FEE75C
:1001B000FEE7FEE7FEE7FEE7BF0F00088901000843
:1001C00033490143334A1160704770B50021002361
:1001D0000F22C47824B32F4C246804F4E064C4F5DF
:1001E000E064C4F30721C1F10404E3B20A41447896
:1001F0009C40E1B28478144021430C07210E264C28
:1002000005786155047804F01F050124AC40057899
:100210006D114FF0E02606EB8505C5F8004109E0B9
:10022000047804F01F040125A5401C4C06787611C3
:1002300044F8265070BD1A4A0A400243154B1B1F52
:100240001A60704739B1134A121D12680243114BEC
:100250001B1D1A6006E00F4A121D126882430D4BE7
:100260001B1D1A607047042808D14FF0E02109696E
:1002700041F004014FF0E022116107E04FF0E0216E
:10028000096921F004014FF0E0221161704700007C
:100290000000FA050CED00E000E400E080E100E081
:1002A00080FFFF1F10B504468C48844208D101210D
:1002B000084600F00EFD0021012000F00AFD5EE07E
:1002C0008748844208D10121022000F002FD00216C
:1002D000022000F0FEFC52E08248844208D1012155
:1002E000042000F0F6FC0021042000F0F2FC46E0BF
:1002F0007D48844208D10121082000F0EAFC002159
:10030000082000F0E6FC3AE07848844208D1012158
:10031000102000F0DEFC0021102000F0DAFC2EE0BE
:100320007348844208D10121202000F0D2FC002132
:10033000202000F0CEFC22E06E48844208D101214A
:10034000402000F0C6FC0021402000F0C2FC16E076
:100350006948844208D10121802000F0BAFC0021C4
:10036000802000F0B6FC0AE06448844207D10121F5
:10037000801500F0AEFC0021A01500F0AAFC10BD15
:10038000F0B50A4600210023002400BF3DE001250E
:1003900005FA01F3156805EA03049C4234D10568A7
:1003A0004F000326BE40B543056015794E00B540A9
:1003B0000668354305601579012D02D01579022DA7
:1003C00016D185684F000326BE40B5438560557938
:1003D0004E00B540866835438560456801268E40ED
:1003E000B5434560456896798E40B6B23543456061
:1003F000C5684F000326BE40B543C560D5794E00A1
:10040000B540C6683543C560491C1029BFD3F0BD4F
:100410004FF6FF7101600021017141718171C1715D
:10042000704708B54FF480320092009A0A43009258
:10043000009AC261C161009AC261C2690092C26938
:10044000009208BD0246002013690B4201D0012032
:1004500000E0002070470146086980B270470246FC
:10046000002053690B4201D0012000E000207047BA
:100470000146486980B270470183704741837047E5
:100480000AB1018300E041837047416170474269CE
:100490004A4042617047F0B5002300244D07ED0E3D
:1004A00002FA05F3CE1000F1200555F826504E074C
:1004B000F70E0F26BE40B543CF1000F1200646F8D8
:1004C0002750CE1000F1200555F8265045EA0304C8
:1004D000CE1000F1200545F82640F0BD0000024096
:1004E0000004024000080240000C024000100240DC
:1004F0000014024000180240001C0240002002408C
:1005000010B50446F748844208D10121102000F0BC
:1005100037FC0021102000F033FC3EE0F24884421A
:1005200009D10121480400F01AFC00214FF40030E9
:1005300000F015FC31E0ED48844209D10121880426
:1005400000F00DFC00214FF4802000F008FC24E0B6
:10055000E748844209D10121C80400F000FC0021D1
:100560004FF4002000F0FBFB17E0E248844209D181
:100570000121080500F0F3FB00214FF4801000F08A
:10058000EEFB0AE0DC48844207D10121202000F084
:10059000F7FB0021202000F0F3FB10BD2DE9FF4701
:1005A00005460E460024A14600BFA046B08900B112
:1005B00000BF2C8A24F44054F08804432C82AC8978
:1005C00041F20C608443B088318908437189084343
:1005D0000443AC81AC8A24F44074B0890443AC82F7
:1005E000684600F08CFABF48854202D0C248854276
:1005F00002D1DDF80C9001E0DDF80890A88910F434
:10060000004F08D009EBC90000EB09103168490020
:10061000B0FBF1F707E009EBC90000EB0910316806
:100620008900B0FBF1F76420B7FBF0F0040120096A
:10063000642101FB1078A88910F4004F08D0322003
:1006400000EBC800B0FBF1F000F00700044308E045
:10065000322000EB08106421B0FBF1F000F00F0035
:1006600004432C81BDE8FF874FF41651016000213F
:100670008180C18001810C214181002181817047ED
:1006800010B502460020108A20F470600B884C8858
:1006900023438C882343CC8823431843108210BD06
:1006A0000021018041808180C180704721B1828911
:1006B00042F40052828104E082894DF6FF731A40B1
:1006C00082817047028B02F47F420283028B0A43CD
:1006D0000283704721B1828942F40042828103E0A3
:1006E0008289C2F30E028281704721B1828A42F46C
:1006F0000062828204E0828A4FF2FF731A40828293
:100700007047C1F308028280704701468888C0F3B1
:1007100008007047028A4FF6F0731A400282028A7C
:100720000A430282704721B1828942F0020282812B
:1007300004E082894FF6FD731A40828170478289F6
:100740004FF2FF731A40828182890A438281704787
:10075000028A4FF6DF731A400282028A0A4302823B
:10076000704721B1028A42F48042028204E0028A88
:100770004BF6FF731A4002827047818941F00101F4
:100780008181704721B1828A42F00802828204E0AE
:10079000828A4FF6F7731A4082827047028BD2B278
:1007A0000283028B42EA01220283704721B1828ACE
:1007B00042F02002828204E0828A4FF6DF731A4000
:1007C0008282704721B1828A42F01002828204E064
:1007D000828A4FF6EF731A4082827047828A4FF600
:1007E000FB731A408282828A0A438282704721B157
:1007F000828A42F00202828204E0828A4FF6FD730E
:100800001A40828270471AB1838A0B43838202E0C6
:10081000838A8B4383827047F0B503460024002609
:1008200000250020A1F510676A3F00D100BF1846DF
:10083000C1F3421401F01F06012707FA06F5012C47
:1008400001D10C3004E0022C01D1103000E0143052
:100850001AB107682F43076002E00768AF430760DB
:10086000F0BD02460020B1F5007F00D100BF138823
:100870000B4201D0012000E00020704701F400721B
:10088000B2F5007F00D100BFCA430280704770B547
:1008900002460024002300250020A1F510666A3ED0
:1008A00000D100BFC1F3421501F01F03012606FA73
:1008B00003F3012D02D19689334006E0022D02D1C7
:1008C000168A334001E0968A33400C12012606FA5C
:1008D00004F41688344013B10CB1012000E000206C
:1008E00070BD00000010014000440040004800407E
:1008F000004C0040005000400014014010B50022A0
:100900000023A1F510646A3C00D100BF0A12012443
:100910009440A3B2DC43048010BD0000FA48006894
:1009200040F00100F84908600020F74908310860EC
:10093000F5480068F5490840F3490860F448091D86
:100940000860081F006820F48020091F086000204C
:10095000ED490C31086070470021EB4A921C117080
:1009600011460870704710B5014600220023002090
:100970004A11012A02D1E44C236808E0022A03D17B
:10098000E14C7034236802E0DF4C7434236801F0DA
:100990001F02012494401C4201D0012000E00020ED
:1009A00010BD38B5002000900024002500BF312084
:1009B000FFF7D9FF05460098401C00900098B0F55D
:1009C000A06F01D0002DF2D03120FFF7CCFF08B18D
:1009D000012400E00024204638BD01460020CA4A18
:1009E000106820F0F80040EAC10010607047C94963
:1009F000086070470021C44A7032117011700128DC
:100A000002D004280AD104E00121BF4A70321170DB
:100A100005E00521BC4A7032117000E000BF00BF44
:100A20007047BD490860704770B5049C41EA821563
:100A30000126C6EB530645EA0645054345EA04652B
:100A4000B14E361D356070BDB249086670478201EF
:100A500042EA0172AC4B84331A607047AD49886634
:100A60007047AC49C864704702460020A64B083363
:100A7000186820F0EC6042EA01031843A24B0833E7
:100A800018607047024600209F4B0833186820F01A
:100A9000784042EA010318439B4B083318607047C3
:100AA00001460020984A0832106820F003000843ED
:100AB0001060704794480830006800F00C007047E0
:100AC00001460020904A0832106820F0F0000843E8
:100AD00010607047014600208B4A0832106820F4ED
:100AE000E05008431060704701460020864A0832F3
:100AF000106820F4604040EAC10010607047F0B513
:100B00000021002200240225002602237E4F083700
:100B10003F6807F00C0121B1042905D0082937D11D
:100B200005E07E4F076036E07D4F076033E0764F8B
:100B30003F1D3F68C7F38056734F3F1D3F6807F066
:100B40003F036EB1764FB7FBF3F7DFF8BCC10CF192
:100B5000040CDCF800C0CCF3881C07FB0CF40CE0A0
:100B60006E4FB7FBF3F7DFF8A0C10CF1040CDCF813
:100B700000C0CCF3881C07FB0CF4634F3F1D3F689B
:100B8000C7F301477F1C7D00B4FBF5F7076002E067
:100B9000624F076000BF00BF5B4F08373F6807F038
:100BA000F00109095F4F7A5C0768D7404760564FEC
:100BB00008373F6807F4E051890A5A4F7A5C476862
:100BC000D7408760504F08373F6807F46041490BB2
:100BD000544F7A5C4768D740C760F0BD002100F4ED
:100BE0004072B2F5407F0AD1474A0832116821F4B9
:100BF000F8114D4A02401143434A08321160424AFB
:100C000070321268C0F30B031A433F4B70331A6003
:100C1000704741494439086070473F49403908608E
:100C2000704742490860704739B1374A303212681C
:100C30000243354B30331A6006E0334A30321268D3
:100C40008243314B30331A60704739B12E4A343207
:100C5000126802432C4B34331A6006E02A4A3432BD
:100C600012688243284B34331A60704739B1264AE0
:100C7000383212680243244B38331A6006E0224AA5
:100C8000383212688243204B38331A60704739B1CA
:100C90001D4A4032126802431B4B40331A6006E083
:100CA000194A403212688243174B40331A6070472A
:100CB00039B1154A443212680243134B44331A6067
:100CC00006E0114A4432126882430F4B44331A60E3
:100CD000704739B10C4A1032126802430A4B103384
:100CE0001A6006E0084A103212688243064B10333D
:100CF0001A607047E1B1044A143212680243024B91
:100D000014331A6019E0000000380240FFFFF6FEBD
:100D10001030002400004742800E47420024F400B7
:100D200000127A0000000020FFFCFF0F5C01474228
:100D30005B4A126882435A4B1A60704739B1584A6D
:100D4000121D12680243564B1B1D1A6006E0544ADE
:100D5000121D12688243524B1B1D1A60704739B135
:100D60004F4A0C32126802434D4B0C331A6006E0B6
:100D70004B4A0C3212688243494B0C331A6070475D
:100D800039B1474A103212680243454B10331A609A
:100D900006E0434A103212688243414B10331A6016
:100DA000704739B13E4A3C32126802433C4B3C33F7
:100DB0001A6006E03A4A3C3212688243384B3C33B0
:100DC0001A60704739B1364A403212680243344BD8
:100DD00040331A6006E0324A403212688243304B98
:100DE00040331A60704739B12D4A443212680243C9
:100DF0002B4B44331A6006E0294A4432126882437E
:100E0000274B44331A60704739B1254A4C32126877
:100E10000243234B4C331A6006E0214A4C321268DD
:100E200082431F4B4C331A60704739B11C4A503211
:100E3000126802431A4B50331A6006E0184A5032C7
:100E400012688243164B50331A60704739B1144A06
:100E5000D21F12780243124BDB1F1A7006E0104AB1
:100E6000D21F127882430E4BDB1F1A7070470C485A
:100E70006030006840F08070094960310860704758
:100E800001460020064A083A12680A4201D00120B1
:100E900000E0002070470249891F08707047000079
:100EA0001438024000F038FC00BFFEE71CB50121F9
:100EB0000846FFF7B9FE4FF40040009001208DF87E
:100EC000040000208DF8060001208DF807000220A4
:100ED0008DF8050069460248FFF752FA1CBD000074
:100EE000000002400CB5002001900090724800689C
:100EF00040F480307049086000BF6F48006800F41B
:100F0000003000900198401C0190009818B9019899
:100F1000B0F5A06FF1D16848006810F4003F02D02E
:100F20000120009001E0002000900098012845D1A8
:100F300061484030006840F080505F4940310860AF
:100F40005E48006840F480405C4908605A480830B8
:100F500000685949083108600846006840F40040BC
:100F600008600846006840F4A05008605448091F13
:100F70000860081F006840F08070091F086000BF0B
:100F80004D48006810F0007FFAD040F205604D49EE
:100F9000086049480830006820F0030046490831DD
:100FA00008600846006840F00200086000BF424840
:100FB0000830006800F00C000828F8D10CBD10B50E
:100FC0003D48006840F001003B49086000203A4974
:100FD00008310860384800683B49084036490860D5
:100FE0003A48091D0860081F006820F48020091F86
:100FF0000860002030490C310860FFF773FF4FF0A4
:1010000000603349086010BD70B500200022022343
:1010100000240221284D08352D6805F00C0020B170
:10102000042806D0082834D107E02A4D2A4E35601E
:1010300033E02A4D284E35602FE01F4D2D1D2D68C1
:10104000C5F380541C4D2D1D2D6805F03F0154B192
:10105000224DB5FBF1F5184E361D3668C6F38816DD
:1010600005FB06F209E01B4DB5FBF1F5124E361DEE
:101070003668C6F3881605FB06F20F4D2D1D2D6848
:10108000C5F301456D1C6B00B2FBF3F5124E3560E4
:1010900003E0104D104E356000BF00BF064D08350F
:1010A0002D68C5F303150E4E705D0B4D2D68C540C0
:1010B000094E356070BD00000038024000700040ED
:1010C00008544007003C0240FFFFF6FE10300024A9
:1010D00008ED00E00024F4001000002000127A0067
:1010E0001400002008B5C6A0006800906946C548F5
:1010F00000F0A9FA08BD08B5C3A0006800906946D1
:10110000C04800F0A0FA08BD00B59DB0BFA00068BF
:101110001C90642101A800F042FB40F2DC5000F07A
:1011200023FBC0B21B9040F2DC5000F00BFBC0B2BE
:101130001A90B74901A800F01FFB1BA901A800F0F5
:101140001BFB1AA901A800F017FBB24901A800F087
:1011500013FB1BA901A800F00FFB1AA901A800F0BE
:101160000BFBAD4901A800F007FB1BA901A800F08B
:1011700003FB1AA901A800F0FFFAA84901A800F092
:10118000FBFA1BA901A800F0F7FA1AA901A800F0C0
:10119000F3FAA34901A800F0EFFA1BA901A800F097
:1011A000EBFA1AA901A800F0E7FA9E4901A800F09D
:1011B000E3FA1BA901A800F0DFFA1AA901A800F0C0
:1011C000DBFA994901A800F0D7FA1BA901A800F0A1
:1011D000D3FA1AA901A800F0CFFA944901A800F0A7
:1011E000CBFA1BA901A800F0C7FA1AA901A800F0C0
:1011F000C3FA8F4901A800F0BFFA1BA901A800F0AB
:10120000BBFA1AA901A800F0B7FA8A4901A800F0B0
:10121000B3FA1BA901A800F0AFFA1AA901A800F0BF
:10122000ABFA854901A800F0A7FA1BA901A800F0B4
:10123000A3FA1AA901A800F09FFA804901A800F0BA
:101240009BFA1BA901A800F097FA1AA901A800F0BF
:1012500093FA7B4901A800F08FFA1BA901A800F0BE
:101260008BFA1AA901A800F087FA764901A800F0C4
:1012700083FA1BA901A800F07FFA1AA901A800F0BF
:101280007BFA714901A800F077FA1BA901A800F0C8
:1012900073FA1AA901A800F06FFA6C4901A800F0CE
:1012A0006BFA1BA901A800F067FA1AA901A800F0BF
:1012B00063FA674901A800F05FFA1BA901A800F0D2
:1012C0005BFA1AA901A800F057FA624901A800F0D8
:1012D00053FA1BA901A800F04FFA1AA901A800F0BF
:1012E0004BFA5D4901A800F047FA1BA901A800F0DC
:1012F00043FA1AA901A800F03FFA584901A800F0E2
:101300003BFA1BA901A800F037FA1AA901A800F0BE
:1013100033FA534901A800F02FFA1BA901A800F0E5
:101320002BFA1AA901A800F027FA4E4901A800F0EB
:1013300023FA1BA901A800F01FFA1AA901A800F0BE
:101340001BFA494901A800F017FA1BA901A800F0EF
:1013500013FA1AA901A800F00FFA1CA901A800F0BD
:101360000BFA01A9274800F06EF91DB000BD1FB5AA
:101370003EA00068039025A0006802904FF496609C
:1013800000F0F2F9C0B201904FF4966000F0DAF983
:10139000C0B2009003A91B4800F055F901A91948F3
:1013A00000F051F96946174800F04DF902A91548B7
:1013B00000F049F91FBD1FB52CA00068039013A0D1
:1013C000006802904FF4E16000F0CEF9C0B20190E5
:1013D0004FF4E16000F0B6F9C0B2009003A90948EB
:1013E00000F031F901A9074800F02DF969460548D8
:1013F00000F029F902A9034800F025F91FBD0000FB
:10140000530100000044004053020000540100005A
:1014100024000020260000202800002030000020AA
:101420003200002034000020360000203800002068
:101430003A0000202A0000202C0000202E0000206E
:101440003C0000203E000020400000204200002020
:101450004400002046000020480000204A000020F0
:10146000500000204E0000204C0000202308000007
:1014700010B588B0044601214804FFF708FC01219B
:101480000846FFF7D1FB0420069002208DF81C00CF
:101490008DF81D0000208DF81E0001208DF81F0022
:1014A00006A94448FEF76CFF072202214148FEF7D7
:1014B000F2FF072203213F48FEF7EDFF072202213A
:1014C0003C48FEF7E8FF4FF4165002900020ADF8BC
:1014D0000C00ADF80E00ADF81000ADF814000820B7
:1014E000ADF8120002A93448FFF758F8012132483C
:1014F000FFF7DCF84FF4A060FEF762FE26208DF8BF
:10150000040000208DF805008DF8060001208DF8FC
:10151000070001A8FEF759FE01212748FFF7C6F88A
:1015200008B010BD70B505460E4600240BE0295DDD
:101530002148FFF7E6F800BF40211F48FFF791F967
:101540000028F9D0641CB442F1DB70BD10B504462C
:101550000BE021781848FFF7D4F8641C00BF402145
:101560001548FFF77EF90028F9D020780028F0D13F
:1015700010BD10B504460CE021460F48FFF7C1F836
:10158000601CC4B200BF40210B48FFF76AF9002875
:10159000F9D0002CF0D110BD10B540F2255106480D
:1015A000FFF775F928B10448FFF7AFF8C4B2034854
:1015B000047010BD000002400044004052000020B2
:1015C00010B5C0B05A48008810F0200F39D05848E4
:1015D000FFF79BF8574908804FF48071684600F088
:1015E000DEF85448028854A1684600F0FDF85148DE
:1015F00004880088312806D032280CD0332810D037
:1016000034281CD114E0FFF76DFDFFF77DFD0120AC
:101610004A49087014E0FFF76EFD00204749087042
:101620000EE046480078012801D1FFF7A0FE07E050
:1016300042480078012801D1FFF7BDFE00E000BF5D
:1016400000BF40B010BD70B505460C460AE000BFB3
:10165000288810F0400FFBD021782846FFF751F87A
:1016600014F8010B20780028F1D170BD10B586B0B8
:10167000044601211020FFF71BFB01210220FFF788
:10168000D3FAC020049002208DF814008DF81500C4
:1016900000208DF816008DF8170004A92848FEF7E1
:1016A0006FFE072206212648FEF7F5FE07221146A7
:1016B0002348FEF7F0FE00940020ADF80400ADF8DA
:1016C0000600ADF80800ADF80C000C20ADF80A00DB
:1016D00069461748FEF762FF012240F2255114487F
:1016E000FFF79AF801211248FEF7E0FF06B010BD9F
:1016F00008B54FF4A060FEF763FD25208DF80000CB
:1017000000208DF801008DF8020001208DF8030003
:101710006846FEF75AFD08BD10B5FFF7E9FF4FF424
:101720001650FFF7A3FF4FF41650FFF7A1FE10BDB0
:1017300000100140560000202563000054000020E6
:101740000004024030B50146002200230846CD17B0
:1017500001EB1565C5F30F224FF6FF7000EA022377
:10176000C81A84B2204630BD01460A46C81701EBAC
:101770001060C0F30F20704770B504460D46204638
:1017800000F018F8064614B1A0192988018070BD30
:10179000D2B201E000F8012B491EFBD270470022B3
:1017A000F6E710B513460A4604461946FFF7F0FF60
:1017B000204610BD421C10F8011B0029FBD1801AE5
:1017C00070470000064C074D06E0E06840F001035A
:1017D00094E8070098471034AC42F6D3FEF7D8FCE3
:1017E00008190008281900080FB4084B10B504A9FF
:1017F00002AA039800F01BF8044602A9002000F09A
:101800007EF8204610BC5DF814FB0000FF180008AD
:1018100002E008C8121F08C1002AFAD170477047B9
:10182000002001E001C1121F002AFBD170472DE901
:10183000F84F9946924688460546002759E02528E4
:1018400001D0514623E0002315F8011F18462E2928
:1018500015D115F8011F04232A290DD06FF02F028E
:101860002978A1F13004092C09D800EB800002EBA3
:10187000400008446D1CF3E758F8040B6D1C2A78EF
:1018800072B3632A08D0732A10D0514610464A46D4
:10189000904707F101072BE018F8042B8DF8002082
:1018A00000218DF801106E46012103E058F8046B09
:1018B0004FF0FF315A074FF0000401D409E0641CD7
:1018C00084420BDA8C42FADB325D002AF7D105E064
:1018D000641C8C42FCDB305D0028F9D1274405E014
:1018E0000AE016F8010B51464A469047641EF8D2AA
:1018F0006D1C28780028A2D13846BDE8F88F0A6808
:10190000531C0B601070704728190008000000205D
:101910005800000010180008801900085800002026
:101920000004000020180008000000000102030469
:101930000102030406070809007A030A00000000F8
:101940000000000001020304060708092310231801
:10195000230423032308231423112319230523120B
:10196000231A23062303230923152302230A2316FC
:10197000231C230C231D230D230E00000000000058
:040000050800018965
:00000001FF
