:020000040800F2
:10000000900600209D010008A5010008A701000836
:10001000A9010008AB010008AD01000800000000C4
:10002000000000000000000000000000AF01000818
:10003000B101000800000000B3010008B50100088C
:10004000B7010008B7010008B7010008B7010008B0
:10005000B7010008B7010008B7010008B7010008A0
:10006000B7010008B7010008B7010008B701000890
:10007000B7010008B7010008B7010008B701000880
:10008000B7010008B7010008B7010008B701000870
:10009000B7010008B7010008B7010008B701000860
:1000A000B7010008B7010008B7010008B701000850
:1000B000B7010008B7010008B7010008B701000840
:1000C000B7010008B7010008B7010008B701000830
:1000D000B701000849170008EB160008B70100082F
:1000E000B7010008B7010008B7010008B701000810
:1000F000B7010008B7010008B7010008B701000800
:10010000B7010008B7010008B7010008B7010008EF
:10011000B7010008B7010008B7010008B7010008DF
:10012000B7010008B7010008B7010008B7010008CF
:10013000B7010008B7010008B7010008B7010008BF
:10014000B7010008B7010008B7010008B7010008AF
:10015000B7010008B7010008B7010008B70100089F
:10016000B7010008B7010008B7010008B70100088F
:10017000B7010008B7010008B7010008B70100087F
:10018000B7010008B7010008DFF80CD003F0F8F859
:1001900000480047A50E000890060020064880474A
:1001A00006480047FEE7FEE7FEE7FEE7FEE7FEE75C
:1001B000FEE7FEE7FEE7FEE70715000889010008F5
:1001C00033490143334A1160704770B50021002361
:1001D0000F22C47824B32F4C246804F4E064C4F5DF
:1001E000E064C4F30721C1F10404E3B20A41447896
:1001F0009C40E1B28478144021430C07210E264C28
:1002000005786155047804F01F050124AC40057899
:100210006D114FF0E02606EB8505C5F8004109E0B9
:10022000047804F01F040125A5401C4C06787611C3
:1002300044F8265070BD1A4A0A400243154B1B1F52
:100240001A60704739B1134A121D12680243114BEC
:100250001B1D1A6006E00F4A121D126882430D4BE7
:100260001B1D1A607047042808D14FF0E02109696E
:1002700041F004014FF0E022116107E04FF0E0216E
:10028000096921F004014FF0E0221161704700007C
:100290000000FA050CED00E000E400E080E100E081
:1002A00080FFFF1F10B504468C48844208D101210D
:1002B000084600F00EFD0021012000F00AFD5EE07E
:1002C0008748844208D10121022000F002FD00216C
:1002D000022000F0FEFC52E08248844208D1012155
:1002E000042000F0F6FC0021042000F0F2FC46E0BF
:1002F0007D48844208D10121082000F0EAFC002159
:10030000082000F0E6FC3AE07848844208D1012158
:10031000102000F0DEFC0021102000F0DAFC2EE0BE
:100320007348844208D10121202000F0D2FC002132
:10033000202000F0CEFC22E06E48844208D101214A
:10034000402000F0C6FC0021402000F0C2FC16E076
:100350006948844208D10121802000F0BAFC0021C4
:10036000802000F0B6FC0AE06448844207D10121F5
:10037000801500F0AEFC0021A01500F0AAFC10BD15
:10038000F0B50A4600210023002400BF3DE001250E
:1003900005FA01F3156805EA03049C4234D10568A7
:1003A0004F000326BE40B543056015794E00B540A9
:1003B0000668354305601579012D02D01579022DA7
:1003C00016D185684F000326BE40B5438560557938
:1003D0004E00B540866835438560456801268E40ED
:1003E000B5434560456896798E40B6B23543456061
:1003F000C5684F000326BE40B543C560D5794E00A1
:10040000B540C6683543C560491C1029BFD3F0BD4F
:100410004FF6FF7101600021017141718171C1715D
:10042000704708B54FF480320092009A0A43009258
:10043000009AC261C161009AC261C2690092C26938
:10044000009208BD0246002013690B4201D0012032
:1004500000E0002070470146086980B270470246FC
:10046000002053690B4201D0012000E000207047BA
:100470000146486980B270470183704741837047E5
:100480000AB1018300E041837047416170474269CE
:100490004A4042617047F0B5002300244D07ED0E3D
:1004A00002FA05F3CE1000F1200555F826504E074C
:1004B000F70E0F26BE40B543CF1000F1200646F8D8
:1004C0002750CE1000F1200555F8265045EA0304C8
:1004D000CE1000F1200545F82640F0BD0000024096
:1004E0000004024000080240000C024000100240DC
:1004F0000014024000180240001C0240002002408C
:1005000010B50446F748844208D10121102000F0BC
:1005100037FC0021102000F033FC3EE0F24884421A
:1005200009D10121480400F01AFC00214FF40030E9
:1005300000F015FC31E0ED48844209D10121880426
:1005400000F00DFC00214FF4802000F008FC24E0B6
:10055000E748844209D10121C80400F000FC0021D1
:100560004FF4002000F0FBFB17E0E248844209D181
:100570000121080500F0F3FB00214FF4801000F08A
:10058000EEFB0AE0DC48844207D10121202000F084
:10059000F7FB0021202000F0F3FB10BD2DE9FF4701
:1005A00005460E460024A14600BFA046B08900B112
:1005B00000BF2C8A24F44054F08804432C82AC8978
:1005C00041F20C608443B088318908437189084343
:1005D0000443AC81AC8A24F44074B0890443AC82F7
:1005E000684600F08CFABF48854202D0C248854276
:1005F00002D1DDF80C9001E0DDF80890A88910F434
:10060000004F08D009EBC90000EB09103168490020
:10061000B0FBF1F707E009EBC90000EB0910316806
:100620008900B0FBF1F76420B7FBF0F0040120096A
:10063000642101FB1078A88910F4004F08D0322003
:1006400000EBC800B0FBF1F000F00700044308E045
:10065000322000EB08106421B0FBF1F000F00F0035
:1006600004432C81BDE8FF874FF41651016000213F
:100670008180C18001810C214181002181817047ED
:1006800010B502460020108A20F470600B884C8858
:1006900023438C882343CC8823431843108210BD06
:1006A0000021018041808180C180704721B1828911
:1006B00042F40052828104E082894DF6FF731A40B1
:1006C00082817047028B02F47F420283028B0A43CD
:1006D0000283704721B1828942F40042828103E0A3
:1006E0008289C2F30E028281704721B1828A42F46C
:1006F0000062828204E0828A4FF2FF731A40828293
:100700007047C1F308028280704701468888C0F3B1
:1007100008007047028A4FF6F0731A400282028A7C
:100720000A430282704721B1828942F0020282812B
:1007300004E082894FF6FD731A40828170478289F6
:100740004FF2FF731A40828182890A438281704787
:10075000028A4FF6DF731A400282028A0A4302823B
:10076000704721B1028A42F48042028204E0028A88
:100770004BF6FF731A4002827047818941F00101F4
:100780008181704721B1828A42F00802828204E0AE
:10079000828A4FF6F7731A4082827047028BD2B278
:1007A0000283028B42EA01220283704721B1828ACE
:1007B00042F02002828204E0828A4FF6DF731A4000
:1007C0008282704721B1828A42F01002828204E064
:1007D000828A4FF6EF731A4082827047828A4FF600
:1007E000FB731A408282828A0A438282704721B157
:1007F000828A42F00202828204E0828A4FF6FD730E
:100800001A40828270471AB1838A0B43838202E0C6
:10081000838A8B4383827047F0B503460024002609
:1008200000250020A1F510676A3F00D100BF1846DF
:10083000C1F3421401F01F06012707FA06F5012C47
:1008400001D10C3004E0022C01D1103000E0143052
:100850001AB107682F43076002E00768AF430760DB
:10086000F0BD02460020B1F5007F00D100BF138823
:100870000B4201D0012000E00020704701F400721B
:10088000B2F5007F00D100BFCA430280704770B547
:1008900002460024002300250020A1F510666A3ED0
:1008A00000D100BFC1F3421501F01F03012606FA73
:1008B00003F3012D02D19689334006E0022D02D1C7
:1008C000168A334001E0968A33400C12012606FA5C
:1008D00004F41688344013B10CB1012000E000206C
:1008E00070BD00000010014000440040004800407E
:1008F000004C0040005000400014014010B50022A0
:100900000023A1F510646A3C00D100BF0A12012443
:100910009440A3B2DC43048010BD0000FA48006894
:1009200040F00100F84908600020F74908310860EC
:10093000F5480068F5490840F3490860F448091D86
:100940000860081F006820F48020091F086000204C
:10095000ED490C31086070470021EB4A921C117080
:1009600011460870704710B5014600220023002090
:100970004A11012A02D1E44C236808E0022A03D17B
:10098000E14C7034236802E0DF4C7434236801F0DA
:100990001F02012494401C4201D0012000E00020ED
:1009A00010BD38B5002000900024002500BF312084
:1009B000FFF7D9FF05460098401C00900098B0F55D
:1009C000A06F01D0002DF2D03120FFF7CCFF08B18D
:1009D000012400E00024204638BD01460020CA4A18
:1009E000106820F0F80040EAC10010607047C94963
:1009F000086070470021C44A7032117011700128DC
:100A000002D004280AD104E00121BF4A70321170DB
:100A100005E00521BC4A7032117000E000BF00BF44
:100A20007047BD490860704770B5049C41EA821563
:100A30000126C6EB530645EA0645054345EA04652B
:100A4000B14E361D356070BDB249086670478201EF
:100A500042EA0172AC4B84331A607047AD49886634
:100A60007047AC49C864704702460020A64B083363
:100A7000186820F0EC6042EA01031843A24B0833E7
:100A800018607047024600209F4B0833186820F01A
:100A9000784042EA010318439B4B083318607047C3
:100AA00001460020984A0832106820F003000843ED
:100AB0001060704794480830006800F00C007047E0
:100AC00001460020904A0832106820F0F0000843E8
:100AD00010607047014600208B4A0832106820F4ED
:100AE000E05008431060704701460020864A0832F3
:100AF000106820F4604040EAC10010607047F0B513
:100B00000021002200240225002602237E4F083700
:100B10003F6807F00C0121B1042905D0082937D11D
:100B200005E07E4F076036E07D4F076033E0764F8B
:100B30003F1D3F68C7F38056734F3F1D3F6807F066
:100B40003F036EB1764FB7FBF3F7DFF8BCC10CF192
:100B5000040CDCF800C0CCF3881C07FB0CF40CE0A0
:100B60006E4FB7FBF3F7DFF8A0C10CF1040CDCF813
:100B700000C0CCF3881C07FB0CF4634F3F1D3F689B
:100B8000C7F301477F1C7D00B4FBF5F7076002E067
:100B9000624F076000BF00BF5B4F08373F6807F038
:100BA000F00109095F4F7A5C0768D7404760564FEC
:100BB00008373F6807F4E051890A5A4F7A5C476862
:100BC000D7408760504F08373F6807F46041490BB2
:100BD000544F7A5C4768D740C760F0BD002100F4ED
:100BE0004072B2F5407F0AD1474A0832116821F4B9
:100BF000F8114D4A02401143434A08321160424AFB
:100C000070321268C0F30B031A433F4B70331A6003
:100C1000704741494439086070473F49403908608E
:100C2000704742490860704739B1374A303212681C
:100C30000243354B30331A6006E0334A30321268D3
:100C40008243314B30331A60704739B12E4A343207
:100C5000126802432C4B34331A6006E02A4A3432BD
:100C600012688243284B34331A60704739B1264AE0
:100C7000383212680243244B38331A6006E0224AA5
:100C8000383212688243204B38331A60704739B1CA
:100C90001D4A4032126802431B4B40331A6006E083
:100CA000194A403212688243174B40331A6070472A
:100CB00039B1154A443212680243134B44331A6067
:100CC00006E0114A4432126882430F4B44331A60E3
:100CD000704739B10C4A1032126802430A4B103384
:100CE0001A6006E0084A103212688243064B10333D
:100CF0001A607047E1B1044A143212680243024B91
:100D000014331A6019E0000000380240FFFFF6FEBD
:100D10001030002400004742800E47420024F400B7
:100D200000127A0000000020FFFCFF0F5C01474228
:100D30005B4A126882435A4B1A60704739B1584A6D
:100D4000121D12680243564B1B1D1A6006E0544ADE
:100D5000121D12688243524B1B1D1A60704739B135
:100D60004F4A0C32126802434D4B0C331A6006E0B6
:100D70004B4A0C3212688243494B0C331A6070475D
:100D800039B1474A103212680243454B10331A609A
:100D900006E0434A103212688243414B10331A6016
:100DA000704739B13E4A3C32126802433C4B3C33F7
:100DB0001A6006E03A4A3C3212688243384B3C33B0
:100DC0001A60704739B1364A403212680243344BD8
:100DD00040331A6006E0324A403212688243304B98
:100DE00040331A60704739B12D4A443212680243C9
:100DF0002B4B44331A6006E0294A4432126882437E
:100E0000274B44331A60704739B1254A4C32126877
:100E10000243234B4C331A6006E0214A4C321268DD
:100E200082431F4B4C331A60704739B11C4A503211
:100E3000126802431A4B50331A6006E0184A5032C7
:100E400012688243164B50331A60704739B1144A06
:100E5000D21F12780243124BDB1F1A7006E0104AB1
:100E6000D21F127882430E4BDB1F1A7070470C485A
:100E70006030006840F08070094960310860704758
:100E800001460020064A083A12680A4201D00120B1
:100E900000E0002070470249891F08707047000079
:100EA0001438024000F0EFFC0020FE490880FE49A3
:100EB0000870FE490870FE490870FE490870FE4936
:100EC0000870FE490870FE490870FE490870FE4926
:100ED0000870FE490870FE490870FE490870FE4916
:100EE0000870FE490870FE490870FE490870FE4906
:100EF0000870FE490870FE490870FE490870FE49F6
:100F00000870FE490870FE490870FE490870FE49E5
:100F10000870FE490870FE490870FE490870FE49D5
:100F20000870FE49087053E2DF480078002871D04D
:100F3000DC480088402873D01CDC36284ED010DCFA
:100F400032283BD006DC112830D0132870D031284D
:100F50002FD12FE0332835D0342837D03528F7D19A
:100F600038E03738072824D2DFE800F03C40444816
:100F70004C505600482875D009DCA0F141000728E4
:100F8000F1D2DFE800F051565A5E62666B005228DB
:100F90007BD006DC492869D050286ED05128D7D1A3
:100FA0006FE0532875D0A128D2D17EE00120C2493C
:100FB00008707DE00120BE49087079E00120BD493C
:100FC000087075E00120BD49087071E00120BC493E
:100FD00008706DE00120BB49087069E00120BA4942
:100FE000087065E00120BD49087061E00120BC493E
:100FF00008705DE00120BB49087059E00120B34949
:10100000087055E00120B249087051E00120B14953
:1010100008704DE050E003E00120AF49087047E060
:101020000120B149087043E00120B24908703FE057
:1010300033E00120AE4908703AE00120AB49087066
:1010400036E00120AC49087032E00120AB4908705D
:101050002EE00120AA4908702AE003E00120A949F6
:10106000087025E00120A849087021E00120A74967
:1010700008701DE009E000E00BE00120A4490870C1
:1010800016E00120A349087012E00120A24908706F
:101090000EE00120A14908700AE001F0BFFF0446FC
:1010A00021469F48FFF72DFB02E002F028F900BF20
:1010B00000BF00207C4908708448007870B100208F
:1010C0007A490870974A3C21782001F0E6FA2E21EF
:1010D0009348FFF716FB00207C4908707C48007895
:1010E00070B10020714908708E4A3C21782001F0CF
:1010F0008BFB2E218A48FFF704FB002074490870FF
:101100007448007870B1002068490870854A3C2115
:10111000782001F035FC2E218148FFF7F2FA0020FB
:101120006C4908706C48007870B100205F49087005
:101130007C4A3C21782001F0DAFC2E217848FFF728
:10114000E0FA0020644908705B48007880B100F044
:10115000F0FB00F01EFC00F0A2FD734801F077FFE9
:101160005E227149714800F015FB00205249087059
:101170004F48007838B100F098FE01206C490870A3
:1011800000204B4908704B48007820B100F09BFECE
:101190000020484908704948007860B1654B3C22FE
:1011A0007821022000F065FF2E215D48FFF7A9FAA3
:1011B0000020424908704248007860B15D4B3C22F3
:1011C0007821022001F02AF82E215548FFF799FADC
:1011D00000203B4908703B48007860B1554B3C22E9
:1011E0007821012001F0D9F82E214D48FFF789FA26
:1011F0000020344908703448007860B14D4B3C22DF
:101200007821012001F08AF92E214548FFF779FA6B
:1012100000202D4908703148007828B1282001F0BD
:10122000A7FD00202D4908702D48007828B12820FE
:1012300001F0CCFD00202A4908702A48007828B126
:10124000282001F00BFD0020264908702648007870
:1012500028B1282001F039FD0020234908702548D5
:10126000007828B1282001F04FFD002021490870A6
:101270001F48007828B1282001F02DFD00201C49CE
:1012800008701A48007820B101F05CFD0020174971
:1012900008701948007810B10020174908701748E5
:1012A000007849E012000020150000201600002000
:1012B0001700002018000020190000201A0000204C
:1012C0001B0000201C0000201D0000201E0000202C
:1012D0001F0000202000002021000020220000200C
:1012E00023000020240000202500002028000020EA
:1012F0002700002026000020290000202A000020CE
:101300002B0000202C0000202D0000202E000020AB
:101310002F0000203000002031000020320000208B
:1013200000100140C0C62D003001002000440040E4
:101330001000002000093D0028B1642001F0C9FD23
:101340000020304908703048007828B1642001F04E
:10135000D0FD00202C4908702C48007828B164206A
:1013600001F0F7FD0020294908702948007828B1CC
:10137000642001F0FEFD0020254908702548007812
:1013800028B1642001F0D5FD0020224908702248D0
:10139000007828B1642001F0BCFD00201E490870CF
:1013A0001E48007828B1142001F01FFE00201B49C0
:1013B00008701B48007828B1142001F029FE002095
:1013C000174908701748007810B1002015490870B7
:1013D000AAE51CB501210846FFF726FC4FF40040A2
:1013E000009001208DF8040000208DF806000120F7
:1013F0008DF8070002208DF8050069460A48FEF7BF
:10140000BFFF1CBD2A0000202B0000202C00002064
:101410002D0000202E0000202F0000203000002092
:101420003100002032000020000002400CB50020F6
:10143000019000907248006840F480307049086064
:1014400000BF6F48006800F4003000900198401C15
:101450000190009818B90198B0F5A06FF1D16848D3
:10146000006810F4003F02D00120009001E000204D
:1014700000900098012845D161484030006840F054
:1014800080505F49403108605E48006840F4804009
:101490005C4908605A4808300068594908310860BA
:1014A0000846006840F4004008600846006840F4C0
:1014B000A05008605448091F0860081F006840F0E9
:1014C0008070091F086000BF4D48006810F0007F61
:1014D000FAD040F205604D4908604948083000687C
:1014E00020F003004649083108600846006840F0D3
:1014F0000200086000BF42480830006800F00C009D
:101500000828F8D10CBD10B53D48006840F0010036
:101510003B49086000203A490831086038480068B3
:101520003B490840364908603A48091D0860081FD1
:10153000006820F48020091F0860002030490C3129
:101540000860FFF773FF4FF000603349086010BD7B
:1015500070B500200022022300240221284D083506
:101560002D6805F00C0020B1042806D0082834D1DD
:1015700007E02A4D2A4E356033E02A4D284E35606B
:101580002FE01F4D2D1D2D68C5F380541C4D2D1DC2
:101590002D6805F03F0154B1224DB5FBF1F5184E11
:1015A000361D3668C6F3881605FB06F209E01B4DAA
:1015B000B5FBF1F5124E361D3668C6F3881605FBED
:1015C00006F20F4D2D1D2D68C5F301456D1C6B00F6
:1015D000B2FBF3F5124E356003E0104D104E35604E
:1015E00000BF00BF064D08352D68C5F303150E4E2C
:1015F000705D0B4D2D68C540094E356070BD000013
:10160000003802400070004008544007003C02408F
:10161000FFFFF6FE1030002408ED00E00024F40087
:101620003400002000127A003800002010B588B085
:10163000044601214804FFF72AFB01210846FFF771
:10164000F3FA0C20069002208DF81C008DF81D0086
:1016500000208DF81E008DF81F0006A93648FEF701
:101660008FFE072202213448FEF715FF07220321CF
:101670003148FEF710FF072202212F48FEF70BFF2B
:101680004FF4165002900020ADF80C00ADF80E009B
:10169000ADF81000ADF814000C20ADF8120002A94E
:1016A0002648FEF77BFF01212448FEF7FFFF4FF499
:1016B000A060FEF785FD26208DF8040000208DF83F
:1016C00005008DF8060001208DF8070001A8FEF73F
:1016D0007CFD012240F225511848FFF79DF80121B9
:1016E0001648FEF7E3FF08B010BD10B540F22551D3
:1016F0001248FFF7CCF860B11048FFF706F8C4B203
:101700000F481049097844540E480078401C0D4990
:10171000087010BD0B48007808B9002070470948D0
:101720000078401E0749087005480978405CF5E7D5
:101730000020044908707047000002400044004047
:101740008E0100204800002010B5C0B05848008825
:1017500010F0200F1CD05648FEF7D7FF04464FF478
:101760008071684601F0F9FD5248028852A168462E
:1017700001F046FEAA2C03D101205049087005E073
:101780004F48048001204F49087000BF00BF00BFD0
:1017900040B010BD2DE9F04107460D461646002425
:1017A00000BF0EE000BF80213846FFF75AF800283E
:1017B000F9D0295D3846FEF7A4FF822C00DD02E057
:1017C000641CB442EEDB00BF00BF40213846FFF787
:1017D00048F80028F9D0BDE8F08110B586B004467D
:1017E00001211020FFF764FA01210220FFF71CFA03
:1017F000C020049002208DF814008DF81500002000
:101800008DF816008DF8170004A92F48FEF7B8FDD3
:10181000072206212C48FEF73EFE072211462A48E1
:10182000FEF739FE00940020ADF80400ADF8060084
:10183000ADF80800ADF80C000C20ADF80A006946C0
:101840001B48FEF7ABFE012240F225511848FEF777
:10185000E3FF01211648FEF729FF06B010BD08B5C9
:101860004FF4A060FEF7ACFC25208DF800000020AE
:101870008DF801008DF8020001208DF80300684604
:10188000FEF7A3FC08BD10B5FFF7E9FF4FF41650B3
:10189000FFF7A3FF4FF41650FFF7C8FE10BD01B5C8
:1018A00002E00098401E009000980028F9D108BD81
:1018B00000100140500000202563000016000020A9
:1018C00012000020150000200004024010B510B1E5
:1018D000012818D10BE0FE4A1268FE4B53F8222073
:1018E000521AFB4B1B68FB4C44F823200BE0F84AD0
:1018F0005268F84B53F822200A44F54B5B68F54CCC
:1019000044F8232000BF00BF10BDF1494968F14AE7
:1019100052F82110C1F5FA604FF47A71EC4A12685E
:10192000EC4B43F822104900E94A526843F8221070
:10193000704740F2DC50E6490968E64A42F8210067
:10194000E349496842F821007047E3490968E14AE0
:1019500052F821100144E04A1268DE4B43F822108D
:101960007047DD494968DB4A52F821100144DA4AE0
:101970005268D84B43F822107047D7498968D54A36
:1019800052F821100144D44A9268D24B43F82210F5
:10199000704740F2A460D0490968CE4A42F821005D
:1019A00040F2DC50CC49496842F82100CA498968B4
:1019B00042F82100704710B506284CD2DFE800F04D
:1019C000030F1B27333FC54A5268C24B53F82220EE
:1019D0000A44C24B5B68BF4C44F823203BE0C04A3A
:1019E0005268BC4B53F822200A44BD4B5B68B94C8B
:1019F00044F823202FE0BB4A5268B64B53F822200C
:101A00000A44B84B5B68B34C44F8232023E0B64A41
:101A10005268B04B53F82220521AB34B5B68AD4C5E
:101A200044F8232017E0B14A5268AA4B53F8222009
:101A3000521AAE4B5B68A74C44F823200BE0AC4A2B
:101A40005268A44B53F82220521AA94B5B68A14C50
:101A500044F8232000BF00BF10BD30B505460C463A
:101A600061422846FFF7A7FF30BD062846D2DFE8CF
:101A700000F0030E19242F3A98494968954A52F804
:101A80002110964A9268934B43F8221036E094490D
:101A90004968904A52F82110914A92688D4B43F858
:101AA00022102BE08F4949688A4A52F821108D4A4A
:101AB0009268884B43F8221020E08B494968854A98
:101AC00052F82110884A9268824B43F8221015E0A0
:101AD000864949687F4A52F82110844A92687D4BB2
:101AE00043F822100AE0824949687A4A52F82110E4
:101AF0007F4A9268774B43F8221000BF00BF7047BF
:101B000010B506284CD2DFE800F0030F1B27333F47
:101B1000724A12686F4B53F822200A446F4B1B68BD
:101B20006C4C44F823203BE06D4A1268694B53F833
:101B300022200A446A4B1B68664C44F823202FE09D
:101B4000684A1268634B53F822200A44654B1B68AD
:101B5000604C44F8232023E0634A12685D4B53F83D
:101B60002220521A604B1B685A4C44F8232017E07D
:101B70005E4A1268574B53F82220521A5B4B1B687F
:101B8000544C44F823200BE0594A1268514B53F847
:101B90002220521A564B1B684E4C44F8232000BF9B
:101BA00000BF10BD30B505460C4661422846FFF720
:101BB000A7FF30BD062870D2DFE800F003152739F3
:101BC0004B5D40F2DC51454A1268424B43F822100B
:101BD0004FF4E161414A526843F822103F4A92684B
:101BE00043F8221059E040F2DC513D4A1268394B6B
:101BF00043F822104FF4E161394A526843F8221049
:101C0000374A926843F8221047E040F2DC51354AE7
:101C10001268304B43F822104FF4E161314A5268A8
:101C200043F822102F4A926843F8221035E040F220
:101C3000DC512D4A1268274B43F822104FF496616D
:101C4000294A526843F82210274A926843F8221022
:101C500023E040F2DC51254A12681E4B43F8221063
:101C60004FF49661214A526843F822101F4A926845
:101C700043F8221011E040F2DC511D4A1268154B66
:101C800043F822104FF49661194A526843F8221023
:101C9000174A926843F8221000BF00BF704740F215
:101CA000DC500E4909680B4A42F821004FF4E1600C
:101CB0000A49496842F821000849896842F8210028
:101CC00040F2DC500649096842F8210012E00000A9
:101CD00028010020540000201C010020D400002016
:101CE000E0000020EC000020F800002004010020AB
:101CF000100100204FF4E160FE49496842F82100DC
:101D0000FC49896842F8210040F2DC50FA49096830
:101D100042F821004FF4E160F749496842F8210098
:101D2000F549896842F8210040F2DC50F34909681E
:101D300042F821004FF49660F049496842F82100CA
:101D4000EE49896842F8210040F2DC50EC4909680C
:101D500042F821004FF49660E949496842F82100B1
:101D6000E749896842F8210040F2DC50E5490968FA
:101D700042F821004FF49660E249496842F8210098
:101D8000E049896842F82100704710B504462146B1
:101D90000320FFF710FE21460120FFF70CFE21462D
:101DA0000520FFF708FE0320FFF75FFE0120FFF785
:101DB0005CFE0520FFF759FE10BD10B504466042D9
:101DC000FFF7E3FF10BD10B5044621460320FFF7DF
:101DD00097FE21460120FFF793FE21460520FFF7DD
:101DE0008FFE10BD10B504466042FFF7ECFF10BD3A
:101DF00010B5044621460320FFF7D4FE21460120FA
:101E0000FFF77EFE21460520FFF7CCFE10BD10B582
:101E100004466042FFF7ECFF10BD10B504462146B2
:101E20000020FFF7C8FD21460420FFF7C4FD21462E
:101E30000220FFF7C0FD0020FFF717FE0420FFF788
:101E400014FE0220FFF711FE10BD10B504466042DB
:101E5000FFF7E3FF10BD10B5044621460020FFF751
:101E60004FFE21460420FFF74BFE21460220FFF7DC
:101E700047FE10BD10B504466042FFF7ECFF10BDF1
:101E800010B5044621460020FFF73AFE2146042003
:101E9000FFF788FE21460220FFF732FE10BD10B585
:101EA00004466042FFF7ECFF10BD38B596A000680D
:101EB0000090684601F05CFA044622466946934861
:101EC000FFF768FC38BD08B591A0006800900222B9
:101ED00069468E48FFF75EFC08BD10B5014600203C
:101EE00018E08C4B53F82020232301F82030830086
:101EF0005B1CCA54884B33F82230C3F30724830099
:101F00009B1CCC54844B13F822408300DB1CCC5424
:101F1000431CD8B20328E4DB1DE0032390FBF3F459
:101F200003FB1403734C54F82320232301F82030BF
:101F300083005B1CCA54784B33F82230C3F3072468
:101F400083009B1CCC54744B13F822408300DB1C91
:101F5000CC54431CD8B20628DFDB1DE0032390FBE2
:101F6000F3F403FB1403644C54F82320232301F8F7
:101F7000203083005B1CCA54674B33F82230C3F314
:101F8000072483009B1CCC54634B13F8224083002E
:101F9000DB1CCC54431CD8B20928DFDB1DE0032333
:101FA00090FBF3F403FB1403544C54F82320232335
:101FB00001F8203083005B1CCA54574B33F82230A1
:101FC000C3F3072483009B1CCC54534B13F82240CB
:101FD0008300DB1CCC54431CD8B20C28DFDB1DE093
:101FE000032390FBF3F403FB1403454C54F8232024
:101FF000232301F8203083005B1CCA54464B33F87E
:102000002230C3F3072483009B1CCC54424B13F8AB
:1020100022408300DB1CCC54431CD8B20F28DFDBEA
:102020001DE0032390FBF3F403FB1403354C54F839
:102030002320232301F8203083005B1CCA54364B35
:1020400033F82230C3F3072483009B1CCC54324B5B
:1020500013F822408300DB1CCC54431CD8B2122856
:10206000DFDB542301F82030012483005B1CCC54B7
:1020700010BD2DE9F04194B004460D4616461F46AA
:102080004FF000083846FFF70AFC2846FFF795FE98
:102090002846FFF7C2FE01A8FFF71FFF4A2201A949
:1020A0001A48FFF777FB00BFA1E03846FFF7F7FBC0
:1020B0003046FFF797FE3046FFF7CDFE2846FFF784
:1020C000C4FE01A8FFF709FF4A2201A90F48FFF744
:1020D00061FB3846FFF7E3FB2846FFF7B6FE01A891
:1020E000FFF7FBFE4A2201A90848FFF753FB3846D9
:1020F00014E00000E0000020EC000020F8000020C8
:1021000004010020100100205301000000440040A1
:1021100053020000D400002054000020FFF7BFFB52
:102120002846FFF732FE01A8FFF7D7FE4A2201A991
:10213000F948FFF72FFB3846FFF7B1FB2846FFF7BA
:1021400024FE3046FFF73FFE3046FFF793FE01A81E
:10215000FFF7C3FE4A2201A9EF48FFF71BFB3846F1
:10216000FFF79DFB2846FFF728FE3046FFF72BFEC2
:102170003046FFF77FFE01A8FFF7AFFE4A2201A914
:10218000E548FFF707FB3846FFF789FB2846FFF7CE
:1021900014FE01A8FFF7A1FE4A2201A9DE48FFF7BD
:1021A000F9FA3846FFF77BFB2846FFF736FE01A811
:1021B000FFF793FE4A2201A9D748FFF7EBFA38460A
:1021C000FFF76DFB3046FFF70DFE3046FFF743FE8D
:1021D0002846FFF722FE01A8FFF77FFE4A2201A949
:1021E000CD48FFF7D7FA08F1010000F0FF08A0453D
:1021F000FFF65BAF3846FFF752FB2846FFF7C5FDF9
:102200002846FFF722FE01A8FFF767FE4A2201A930
:10221000C148FFF7BFFA14B0BDE8F0812DE9F041E5
:1022200094B004460D4616461F464FF00008384647
:10223000FFF735FB2846FFF7C0FD2846FFF7EDFD09
:1022400001A8FFF74AFE4A2201A9B348FFF7A2FA04
:1022500000BF8BE03846FFF722FB3046FFF7B3FDA7
:102260003046FFF707FE2846FFF7EFFD01A8FFF70E
:1022700034FE4A2201A9A848FFF78CFA3846FFF736
:102280000EFB2846FFF7E1FD01A8FFF726FE4A22D4
:1022900001A9A148FFF77EFA3846FFF700FB284660
:1022A000FFF773FD01A8FFF718FE4A2201A99A481B
:1022B000FFF770FA3846FFF7F2FA2846FFF765FD98
:1022C0003046FFF78FFD3046FFF7C5FD01A8FFF749
:1022D00004FE4A2201A99048FFF75CFA3846FFF74E
:1022E000DEFA2846FFF769FD3046FFF77BFD3046F2
:1022F000FFF7B1FD01A8FFF7F0FD4A2201A98648CA
:10230000FFF748FA3846FFF7CAFA2846FFF755FDA7
:1023100001A8FFF7E2FD4A2201A97F48FFF73AFA38
:102320003846FFF7BCFA2846FFF777FD01A8FFF70C
:10233000D4FD4A2201A97848FFF72CFA3846FFF766
:10234000AEFA3046FFF73FFD3046FFF793FD2846D3
:10235000FFF763FD01A8FFF7C0FD4A2201A96E48FF
:10236000FFF718FA08F1010000F0FF08A045FFF69A
:1023700071AF3846FFF793FA2846FFF706FD284667
:10238000FFF763FD01A8FFF7A8FD4A2201A96248F3
:10239000FFF700FA14B0BDE8F0812DE9F04194B0E8
:1023A00004460D4616461F464FF000083846FFF714
:1023B00076FA2846FFF701FD2846FFF72EFD01A813
:1023C000FFF78BFD4A2201A95348FFF7E3F900BF4D
:1023D0008BE03846FFF763FA3046FFF718FD3046CA
:1023E000FFF74EFD2846FFF730FD01A8FFF775FD0A
:1023F0004A2201A94848FFF7CDF93846FFF74FFABE
:102400002846FFF722FD01A8FFF767FD4A2201A930
:102410004148FFF7BFF93846FFF741FA2846FFF772
:10242000B4FC01A8FFF759FD4A2201A93A48FFF779
:10243000B1F93846FFF733FA2846FFF7A6FC3046D5
:10244000FFF7D6FC3046FFF72AFD01A8FFF745FD50
:102450004A2201A93048FFF79DF93846FFF71FFAD5
:102460002846FFF7AAFC3046FFF7C2FC3046FFF7CC
:1024700016FD01A8FFF731FD4A2201A92648FFF702
:1024800089F93846FFF70BFA2846FFF796FC01A8B2
:10249000FFF723FD4A2201A91F48FFF77BF93846C1
:1024A000FFF7FDF92846FFF7B8FC01A8FFF715FD77
:1024B0004A2201A91848FFF76DF93846FFF7EFF9EE
:1024C0003046FFF7A4FC3046FFF7DAFC2846FFF75A
:1024D000A4FC01A8FFF701FD4A2201A90E48FFF75D
:1024E00059F908F1010000F0FF08A045FFF671AFAF
:1024F0003846FFF7D4F92846FFF747FC2846FFF790
:10250000A4FC01A8FFF7E9FC4A2201A90248FFF751
:1025100041F914B0BDE8F081004400402DE9F041DC
:1025200094B004460D4616461F464FF00008384644
:10253000FFF7B5F92846FFF740FC2846FFF76DFC8A
:1025400001A8FFF7CAFC4A2201A9FE48FFF722F9B9
:1025500000BF8BE03846FFF7A2F93046FFF748FC92
:102560003046FFF79CFC2846FFF76FFC01A8FFF7F9
:10257000B4FC4A2201A9F348FFF70CF93846FFF7EB
:102580008EF92846FFF761FC01A8FFF7A6FC4A2256
:1025900001A9EC48FFF7FEF83846FFF780F9284616
:1025A000FFF7F3FB01A8FFF798FC4A2201A9E548D1
:1025B000FFF7F0F83846FFF772F92846FFF7E5FB1A
:1025C0003046FFF724FC3046FFF75AFC01A8FFF71E
:1025D00084FC4A2201A9DB48FFF7DCF83846FFF704
:1025E0005EF92846FFF7E9FB3046FFF710FC30465E
:1025F000FFF746FC01A8FFF770FC4A2201A9D14869
:10260000FFF7C8F83846FFF74AF92846FFF7D5FB29
:1026100001A8FFF762FC4A2201A9CA48FFF7BAF8ED
:102620003846FFF73CF92846FFF7F7FB01A8FFF70C
:1026300054FC4A2201A9C348FFF7ACF83846FFF71B
:102640002EF93046FFF7D4FB3046FFF728FC28462A
:10265000FFF7E3FB01A8FFF740FC4A2201A9B948B4
:10266000FFF798F808F1010000F0FF08A045FFF619
:1026700071AF3846FFF713F92846FFF786FB284667
:10268000FFF7E3FB01A8FFF728FC4A2201A9AD48A8
:10269000FFF780F814B0BDE8F08170B594B006463D
:1026A0000C4615462846FFF7FAF83046FFF785FB3B
:1026B0003046FFF7B2FB01A8FFF70FFC4A2201A941
:1026C000A048FFF767F887E02846FFF7E8F82046BC
:1026D000FFF788FB2046FFF7BEFB3046FFF7B5FB50
:1026E00001A8FFF7FAFB4A2201A99648FFF752F822
:1026F0002846FFF7D4F83046FFF7A7FB01A8FFF7FD
:10270000ECFB4A2201A98F48FFF744F82846FFF75F
:10271000C6F83046FFF739FB01A8FFF7DEFB4A2277
:1027200001A98848FFF736F82846FFF7B8F8304681
:10273000FFF72BFB2046FFF746FB2046FFF79AFBEF
:1027400001A8FFF7CAFB4A2201A97E48FFF722F839
:102750002846FFF7A4F83046FFF72FFB2046FFF787
:1027600032FB2046FFF786FB01A8FFF7B6FB4A22A3
:1027700001A97448FFF70EF82846FFF790F8304695
:10278000FFF71BFB01A8FFF7A8FB4A2201A96D4830
:10279000FFF700F82846FFF782F83046FFF73DFBC9
:1027A00001A8FFF79AFB4A2201A96648FEF7F2FF4B
:1027B0002846FFF774F82046FFF714FB2046FFF782
:1027C0004AFB3046FFF729FB01A8FFF786FB4A22A8
:1027D00001A95C48FEF7DEFF5B48007800283FF463
:1027E00073AF2846FFF75BF83046FFF7CEFA304666
:1027F000FFF72BFB01A8FFF770FB4A2201A9514804
:10280000FEF7C8FF14B070BD70B594B006460C4614
:1028100015462846FFF743F83046FFF7CEFA304614
:10282000FFF7FBFA01A8FFF758FB4A2201A9454828
:10283000FEF7B0FF8CE02846FFF731F82046FFF79F
:10284000C2FA2046FFF716FB3046FFF7FEFA01A852
:10285000FFF743FB4A2201A93A48FEF79BFF2846AF
:10286000FFF71DF83046FFF7F0FA01A8FFF735FB38
:102870004A2201A93348FEF78DFF2846FFF70FF8DB
:102880003046FFF782FA01A8FFF727FB4A2201A989
:102890002C48FEF77FFF2846FFF701F83046FFF788
:1028A00074FA2046FFF79EFA2046FFF7D4FA01A8F3
:1028B000FFF713FB4A2201A92248FEF76BFF2846C7
:1028C000FEF7EDFF3046FFF778FA2046FFF78AFA69
:1028D0002046FFF7C0FA01A8FFF7FFFA4A2201A934
:1028E0001848FEF757FF2846FEF7D9FF3046FFF796
:1028F00064FA01A8FFF7F1FA4A2201A91148FEF78C
:1029000049FF2846FEF7CBFF3046FFF786FA01A8BD
:10291000FFF7E3FA4A2201A90A48FEF73BFF2846DF
:10292000FEF7BDFF2046FFF74EFA2046FFF7A2FA5A
:102930003046FFF772FA01A8FFF7CFFA4A2201A941
:10294000004803E00044004016000020FEF722FF8C
:10295000F948007800283FF46EAF2846FEF79FFF45
:102960003046FFF712FA3046FFF76FFA01A8FFF77B
:10297000B4FA4A2201A9F148FEF70CFF14B070BD69
:1029800070B594B006460C4615462846FEF787FFFC
:102990003046FFF712FA3046FFF73FFA01A8FFF77B
:1029A0009CFA4A2201A9E548FEF7F4FE87E0284692
:1029B000FEF775FF2046FFF72AFA2046FFF760FA78
:1029C0003046FFF742FA01A8FFF787FA4A2201A929
:1029D000DA48FEF7DFFE2846FEF761FF3046FFF7D4
:1029E00034FA01A8FFF779FA4A2201A9D348FEF781
:1029F000D1FE2846FEF753FF3046FFF7C6F901A87F
:102A0000FFF76BFA4A2201A9CC48FEF7C3FE28461D
:102A1000FEF745FF3046FFF7B8F92046FFF7E8F923
:102A20002046FFF73CFA01A8FFF757FA4A2201A90E
:102A3000C248FEF7AFFE2846FEF731FF3046FFF7EB
:102A4000BCF92046FFF7D4F92046FFF728FA01A881
:102A5000FFF743FA4A2201A9B848FEF79BFE284631
:102A6000FEF71DFF3046FFF7A8F901A8FFF735FA7A
:102A70004A2201A9B148FEF78DFE2846FEF70FFF56
:102A80003046FFF7CAF901A8FFF727FA4A2201A941
:102A9000AA48FEF77FFE2846FEF701FF2046FFF713
:102AA000B6F92046FFF7ECF93046FFF7B6F901A872
:102AB000FFF713FA4A2201A9A048FEF76BFE9E48D1
:102AC000007800283FF473AF2846FEF7E8FE304652
:102AD000FFF75BF93046FFF7B8F901A8FFF7FDF9FA
:102AE0004A2201A99548FEF755FE14B070BD70B595
:102AF00094B006460C4615462846FEF7D0FE3046F2
:102B0000FFF75BF93046FFF788F901A8FFF7E5F911
:102B10004A2201A98948FEF73DFE87E02846FEF7D4
:102B2000BEFE2046FFF764F92046FFF7B8F93046AD
:102B3000FFF78BF901A8FFF7D0F94A2201A97F48D6
:102B4000FEF728FE2846FEF7AAFE3046FFF77DF97D
:102B500001A8FFF7C2F94A2201A97848FEF71AFE38
:102B60002846FEF79CFE3046FFF70FF901A8FFF755
:102B7000B4F94A2201A97148FEF70CFE2846FEF777
:102B80008EFE3046FFF701F92046FFF740F9204658
:102B9000FFF776F901A8FFF7A0F94A2201A96748D3
:102BA000FEF7F8FD2846FEF77AFE3046FFF705F9F6
:102BB0002046FFF72CF92046FFF762F901A8FFF73E
:102BC0008CF94A2201A95D48FEF7E4FD2846FEF78C
:102BD00066FE3046FFF7F1F801A8FFF77EF94A22BA
:102BE00001A95648FEF7D6FD2846FEF758FE3046A6
:102BF000FFF713F901A8FFF770F94A2201A94F481E
:102C0000FEF7C8FD2846FEF74AFE2046FFF7F0F81B
:102C10002046FFF744F93046FFF7FFF801A8FFF719
:102C20005CF94A2201A94548FEF7B4FD4248007804
:102C300000283FF473AF2846FEF731FE3046FFF719
:102C4000A4F83046FFF701F901A8FFF746F94A2238
:102C500001A93A48FEF79EFD14B070BD10B594B0BE
:102C6000044621460320FEF7F8FE21460420FEF725
:102C7000F4FE21460520FEF7F0FE21460020FEF777
:102C80009AFE21460120FEF796FE21460220FEF71D
:102C900092FE0320FEF7E9FE0420FEF7E6FE052083
:102CA000FEF7E3FE0020FEF7E0FE0120FEF7DDFE6A
:102CB0000220FEF7DAFE01A8FFF70FF94A2201A968
:102CC0001E48FEF767FD14B010BD10B50446604203
:102CD000FFF7C4FF10BD10B594B004461848406912
:102CE00040F6340188420DD22046FFF74EF82046C8
:102CF000FFF793F801A8FFF7F0F84A2201A90F485F
:102D0000FEF748FD14B010BD10B594B004460C4851
:102D10004069B0F57A7F0DD92046FFF74EF820467E
:102D2000FFF793F801A8FFF7D8F84A2201A9034852
:102D3000FEF730FD14B010BD160000200044004026
:102D40005400002010B594B0002405E040F2DC509F
:102D5000FE4941F82400641C202CF7DB01A8FFF792
:102D6000BCF84A2201A9FA48FEF714FD14B010BDC0
:102D700010B594B00446F5484068B0F5617F23D99A
:102D800021460220FEF717FE21460520FEF713FE1E
:102D900061420020FEF70FFE61420320FEF70BFEAA
:102DA0000220FEF762FE0520FEF75FFE0020FEF720
:102DB0005CFE0320FEF759FE01A8FFF78EF84A22B9
:102DC00001A9E348FEF7E6FC14B010BD10B594B0BD
:102DD0000446DE484068B0F5FA6F23D26142022013
:102DE000FEF7E9FD61420520FEF7E5FD21460020E2
:102DF000FEF7E1FD21460320FEF7DDFD0220FEF790
:102E000034FE0520FEF731FE0020FEF72EFE0320E3
:102E1000FEF72BFE01A8FFF760F84A2201A9CC4873
:102E2000FEF7B8FC14B010BD23220270C94A127814
:102E30004270C84A1168C54A32F82120120A8270CD
:102E4000C24A12F82120C27023220271C14A1279AB
:102E50004271C04A5168BD4A32F82120120A82717B
:102E6000BA4A12F82120C27123220272BA4A127899
:102E70004272B94A1168B54A32F82120120A8272A8
:102E8000B24A12F82120C27223220273B24A127986
:102E90004273B14A5168AD4A32F82120120A827356
:102EA000AA4A12F82120C27323220274AA4A127A73
:102EB0004274A94A9168A54A32F82120120A827404
:102EC000A24A12F82120C2745422027501224275CE
:102ED000704710B586B004462046FEF736FD6846BA
:102EE000FFF7A2FF162269469948FEF753FC06B089
:102EF00010BD10B586B004466042FEF726FD684658
:102F0000FFF792FF162269469148FEF743FC06B090
:102F100010BD10B586B004462046FEF72EFD68466B
:102F2000FFF782FF162269468948FEF733FC06B098
:102F300010BD10B586B004466042FEF71EFD68461F
:102F4000FFF772FF162269468148FEF723FC06B0A0
:102F500010BD10B586B004462046FEF702FD684657
:102F6000FFF762FF162269467948FEF713FC06B0A8
:102F700010BD10B586B004466042FEF7F2FC68460C
:102F8000FFF752FF162269467148FEF703FC06B0B0
:102F900010BD232202706F4A127842706D4A126887
:102FA0006A4B53F822100A0A8270C1702322027100
:102FB000684A12794271674A526853F822100A0A25
:102FC0008271C171542202720122427270473EB571
:102FD000FEF79BFC04466846FFF7DBFF0A226946C2
:102FE0005B48FEF7D7FB20463EBD3EB50446214672
:102FF0000020FEF76BFC21460120FEF767FC6846C7
:10300000FFF7C7FF0A2269465148FEF7C3FB3EBDE2
:1030100010B504466042FFF7E8FF10BD70B500250B
:103020000024FEF785FB00BF0CE044214848FDF773
:1030300068FB00BF494800780028FBD0FEF76AFB18
:1030400004446D1C102DF0DB2409E0B270BD30B5D6
:103050000146002018E0424B53F82020232301F8BA
:10306000203083005B1CCA54384B33F82230C3F342
:10307000072483009B1CCC54344B13F8224083005C
:10308000DB1CCC54431CD8B20328E4DB1DE0032333
:1030900090FBF3F403FB1403324C54F82320232356
:1030A00001F8203083005B1CCA54284B33F82230CF
:1030B000C3F3072483009B1CCC54244B13F82240F9
:1030C0008300DB1CCC54431CD8B20628DFDB1DE098
:1030D000032390FBF3F403FB1403234C54F8232045
:1030E000232301F8203083005B1CCA54174B33F8AC
:1030F0002230C3F3072483009B1CCC54134B13F8DA
:1031000022408300DB1CCC54431CD8B20928DFDBEF
:1031100030E0032390FBF3F403FB1403134C54F847
:103120002320232301F8203083005B1CCA54074B63
:1031300033F82230C3F3072483009B1CCC54034B89
:1031400013F822408300DB1CCC5411E05400002013
:1031500000440040280100201C01002048000020FD
:10316000D4000020E0000020EC000020F800002047
:10317000431CD8B20C28CCDB1DE0032390FBF3F4F6
:1031800003FB14036B4C54F82320232301F8203055
:1031900083005B1CCA54684B33F82230C3F3072406
:1031A00083009B1CCC54644B13F822408300DB1C2F
:1031B000CC54431CD8B20F28DFDB1DE0032390FB67
:1031C000F3F403FB14035D4C54F82320232301F88C
:1031D000203083005B1CCA54574B33F82230C3F3B2
:1031E000072483009B1CCC54534B13F822408300CC
:1031F000DB1CCC54431CD8B21228DFDB1DE00323B8
:1032000090FBF3F403FB14034D4C54F823202323C9
:1032100001F8203083005B1CCA54474B33F822303E
:10322000C3F3072483009B1CCC54434B13F8224068
:103230008300DB1CCC54431CD8B21428DFDB1FE016
:103240000346C41700EB9474A410A0EB84043D4D16
:1032500055F82420232301F8203083005B1CCA5436
:10326000354B33F82230C3F3072483009B1CCC5426
:10327000314B13F822408300DB1CCC54431CD8B2E2
:103280001728DDDB542301F82030012483005B1C68
:10329000CC5430BD232202702A4A12784270294A47
:1032A0001168254A32F82120120A8270224A12F847
:1032B0002120C27023220271224A12794271214ACE
:1032C00051681D4A32F82120120A82711A4A12F8F6
:1032D0002120C271232202721A4A127A4272194ABA
:1032E0009168154A32F82120120A8272124A12F8A5
:1032F0002120C2725422027301224273704770B5BA
:103300000024FFF78BFE0546FFF761FE064609E045
:103310000D4B3C2278210120FEF7ABFEFFF77EFE2D
:103320000546641C042D01DD0F2CF1DB3046FFF750
:103330005CFE70BD0401002054000020100100203C
:10334000280100201C010020C0C62D00D2B201E0DF
:1033500000F8012B491EFBD270470022F6E710B59A
:1033600013460A4604461946FFF7F0FF204610BDF3
:10337000421C10F8011B0029FBD1801A7047000085
:10338000064C074D06E0E06840F0010394E80700B2
:1033900098471034AC42F6D3FCF7FAFE203500080B
:1033A0004035000870B501EB020410F8015B15F020
:1033B000070301D110F8013B2A1106D110F8012BA7
:1033C00003E010F8016B01F8016B5B1EF9D12B07CC
:1033D00005D40023521E0FD401F8013BFAE710F880
:1033E000013B02F10202A1EB030303E013F8015BCE
:1033F00001F8015B521EF9D5A142D6D3002070BD61
:103400000FB4084B10B504A902AA039800F01BF8EA
:10341000044602A9002000F07EF8204610BC5DF8AA
:1034200014FB00001735000802E008C8121F08C18D
:10343000002AFAD170477047002001E001C1121F35
:10344000002AFBD170472DE9F84F994692468846ED
:103450000546002759E0252801D0514623E00023E6
:1034600015F8011F18462E2915D115F8011F042340
:103470002A290DD06FF02F022978A1F13004092CF0
:1034800009D800EB800002EB400008446D1CF3E714
:1034900058F8040B6D1C2A7872B3632A08D0732A7B
:1034A00010D0514610464A46904707F101072BE0DD
:1034B00018F8042B8DF8002000218DF801106E46BD
:1034C000012103E058F8046B4FF0FF315A074FF029
:1034D000000401D409E0641C84420BDA8C42FADB5C
:1034E000325D002AF7D105E0641C8C42FCDB305DC4
:1034F0000028F9D1274405E00AE016F8010B5146EF
:103500004A469047641EF8D26D1C28780028A2D144
:103510003846BDE8F88F0A68531C0B60107070477E
:10352000403500080000002030010000A4330008EE
:10353000883500083001002060050000383400089C
:10354000412D0102030404052506070809847A03B6
:103550000A0912380B7CDC05043998313202320436
:1035600029133206320829A929BD3210321132122C
:1035700032143215321632183219321A320D320E16
:08358000320F32033213000088
:040000050800018965
:00000001FF
