:020000040800F2
:10000000300600209D010008A5010008A701000896
:10001000A9010008AB010008AD01000800000000C4
:10002000000000000000000000000000AF01000818
:10003000B101000800000000B3010008B50100088C
:10004000B7010008B7010008B7010008B7010008B0
:10005000B7010008B7010008B7010008B7010008A0
:10006000B7010008B7010008B7010008B701000890
:10007000B7010008B7010008B7010008B701000880
:10008000B7010008B7010008B7010008B701000870
:10009000B7010008B7010008B7010008B701000860
:1000A000B7010008B7010008B7010008B701000850
:1000B000B7010008B7010008B7010008B701000840
:1000C000B7010008B7010008B7010008B701000830
:1000D000B7010008D9150008B1150008B7010008DC
:1000E000B7010008B7010008B7010008B701000810
:1000F000B7010008B7010008B7010008B701000800
:10010000B7010008B7010008B7010008B7010008EF
:10011000B7010008B7010008B7010008B7010008DF
:10012000B7010008B7010008B7010008B7010008CF
:10013000B7010008B7010008B7010008B7010008BF
:10014000B7010008B7010008B7010008B7010008AF
:10015000B7010008B7010008B7010008B70100089F
:10016000B7010008B7010008B7010008B70100088F
:10017000B7010008B7010008B7010008B70100087F
:10018000B7010008B7010008DFF80CD002F0BEFB91
:1001900000480047A50E00083006002006488047AA
:1001A00006480047FEE7FEE7FEE7FEE7FEE7FEE75C
:1001B000FEE7FEE7FEE7FEE763130008890100089B
:1001C00033490143334A1160704770B50021002361
:1001D0000F22C47824B32F4C246804F4E064C4F5DF
:1001E000E064C4F30721C1F10404E3B20A41447896
:1001F0009C40E1B28478144021430C07210E264C28
:1002000005786155047804F01F050124AC40057899
:100210006D114FF0E02606EB8505C5F8004109E0B9
:10022000047804F01F040125A5401C4C06787611C3
:1002300044F8265070BD1A4A0A400243154B1B1F52
:100240001A60704739B1134A121D12680243114BEC
:100250001B1D1A6006E00F4A121D126882430D4BE7
:100260001B1D1A607047042808D14FF0E02109696E
:1002700041F004014FF0E022116107E04FF0E0216E
:10028000096921F004014FF0E0221161704700007C
:100290000000FA050CED00E000E400E080E100E081
:1002A00080FFFF1F10B504468C48844208D101210D
:1002B000084600F00EFD0021012000F00AFD5EE07E
:1002C0008748844208D10121022000F002FD00216C
:1002D000022000F0FEFC52E08248844208D1012155
:1002E000042000F0F6FC0021042000F0F2FC46E0BF
:1002F0007D48844208D10121082000F0EAFC002159
:10030000082000F0E6FC3AE07848844208D1012158
:10031000102000F0DEFC0021102000F0DAFC2EE0BE
:100320007348844208D10121202000F0D2FC002132
:10033000202000F0CEFC22E06E48844208D101214A
:10034000402000F0C6FC0021402000F0C2FC16E076
:100350006948844208D10121802000F0BAFC0021C4
:10036000802000F0B6FC0AE06448844207D10121F5
:10037000801500F0AEFC0021A01500F0AAFC10BD15
:10038000F0B50A4600210023002400BF3DE001250E
:1003900005FA01F3156805EA03049C4234D10568A7
:1003A0004F000326BE40B543056015794E00B540A9
:1003B0000668354305601579012D02D01579022DA7
:1003C00016D185684F000326BE40B5438560557938
:1003D0004E00B540866835438560456801268E40ED
:1003E000B5434560456896798E40B6B23543456061
:1003F000C5684F000326BE40B543C560D5794E00A1
:10040000B540C6683543C560491C1029BFD3F0BD4F
:100410004FF6FF7101600021017141718171C1715D
:10042000704708B54FF480320092009A0A43009258
:10043000009AC261C161009AC261C2690092C26938
:10044000009208BD0246002013690B4201D0012032
:1004500000E0002070470146086980B270470246FC
:10046000002053690B4201D0012000E000207047BA
:100470000146486980B270470183704741837047E5
:100480000AB1018300E041837047416170474269CE
:100490004A4042617047F0B5002300244D07ED0E3D
:1004A00002FA05F3CE1000F1200555F826504E074C
:1004B000F70E0F26BE40B543CF1000F1200646F8D8
:1004C0002750CE1000F1200555F8265045EA0304C8
:1004D000CE1000F1200545F82640F0BD0000024096
:1004E0000004024000080240000C024000100240DC
:1004F0000014024000180240001C0240002002408C
:1005000010B50446F748844208D10121102000F0BC
:1005100037FC0021102000F033FC3EE0F24884421A
:1005200009D10121480400F01AFC00214FF40030E9
:1005300000F015FC31E0ED48844209D10121880426
:1005400000F00DFC00214FF4802000F008FC24E0B6
:10055000E748844209D10121C80400F000FC0021D1
:100560004FF4002000F0FBFB17E0E248844209D181
:100570000121080500F0F3FB00214FF4801000F08A
:10058000EEFB0AE0DC48844207D10121202000F084
:10059000F7FB0021202000F0F3FB10BD2DE9FF4701
:1005A00005460E460024A14600BFA046B08900B112
:1005B00000BF2C8A24F44054F08804432C82AC8978
:1005C00041F20C608443B088318908437189084343
:1005D0000443AC81AC8A24F44074B0890443AC82F7
:1005E000684600F08CFABF48854202D0C248854276
:1005F00002D1DDF80C9001E0DDF80890A88910F434
:10060000004F08D009EBC90000EB09103168490020
:10061000B0FBF1F707E009EBC90000EB0910316806
:100620008900B0FBF1F76420B7FBF0F0040120096A
:10063000642101FB1078A88910F4004F08D0322003
:1006400000EBC800B0FBF1F000F00700044308E045
:10065000322000EB08106421B0FBF1F000F00F0035
:1006600004432C81BDE8FF874FF41651016000213F
:100670008180C18001810C214181002181817047ED
:1006800010B502460020108A20F470600B884C8858
:1006900023438C882343CC8823431843108210BD06
:1006A0000021018041808180C180704721B1828911
:1006B00042F40052828104E082894DF6FF731A40B1
:1006C00082817047028B02F47F420283028B0A43CD
:1006D0000283704721B1828942F40042828103E0A3
:1006E0008289C2F30E028281704721B1828A42F46C
:1006F0000062828204E0828A4FF2FF731A40828293
:100700007047C1F308028280704701468888C0F3B1
:1007100008007047028A4FF6F0731A400282028A7C
:100720000A430282704721B1828942F0020282812B
:1007300004E082894FF6FD731A40828170478289F6
:100740004FF2FF731A40828182890A438281704787
:10075000028A4FF6DF731A400282028A0A4302823B
:10076000704721B1028A42F48042028204E0028A88
:100770004BF6FF731A4002827047818941F00101F4
:100780008181704721B1828A42F00802828204E0AE
:10079000828A4FF6F7731A4082827047028BD2B278
:1007A0000283028B42EA01220283704721B1828ACE
:1007B00042F02002828204E0828A4FF6DF731A4000
:1007C0008282704721B1828A42F01002828204E064
:1007D000828A4FF6EF731A4082827047828A4FF600
:1007E000FB731A408282828A0A438282704721B157
:1007F000828A42F00202828204E0828A4FF6FD730E
:100800001A40828270471AB1838A0B43838202E0C6
:10081000838A8B4383827047F0B503460024002609
:1008200000250020A1F510676A3F00D100BF1846DF
:10083000C1F3421401F01F06012707FA06F5012C47
:1008400001D10C3004E0022C01D1103000E0143052
:100850001AB107682F43076002E00768AF430760DB
:10086000F0BD02460020B1F5007F00D100BF138823
:100870000B4201D0012000E00020704701F400721B
:10088000B2F5007F00D100BFCA430280704770B547
:1008900002460024002300250020A1F510666A3ED0
:1008A00000D100BFC1F3421501F01F03012606FA73
:1008B00003F3012D02D19689334006E0022D02D1C7
:1008C000168A334001E0968A33400C12012606FA5C
:1008D00004F41688344013B10CB1012000E000206C
:1008E00070BD00000010014000440040004800407E
:1008F000004C0040005000400014014010B50022A0
:100900000023A1F510646A3C00D100BF0A12012443
:100910009440A3B2DC43048010BD0000FA48006894
:1009200040F00100F84908600020F74908310860EC
:10093000F5480068F5490840F3490860F448091D86
:100940000860081F006820F48020091F086000204C
:10095000ED490C31086070470021EB4A921C117080
:1009600011460870704710B5014600220023002090
:100970004A11012A02D1E44C236808E0022A03D17B
:10098000E14C7034236802E0DF4C7434236801F0DA
:100990001F02012494401C4201D0012000E00020ED
:1009A00010BD38B5002000900024002500BF312084
:1009B000FFF7D9FF05460098401C00900098B0F55D
:1009C000A06F01D0002DF2D03120FFF7CCFF08B18D
:1009D000012400E00024204638BD01460020CA4A18
:1009E000106820F0F80040EAC10010607047C94963
:1009F000086070470021C44A7032117011700128DC
:100A000002D004280AD104E00121BF4A70321170DB
:100A100005E00521BC4A7032117000E000BF00BF44
:100A20007047BD490860704770B5049C41EA821563
:100A30000126C6EB530645EA0645054345EA04652B
:100A4000B14E361D356070BDB249086670478201EF
:100A500042EA0172AC4B84331A607047AD49886634
:100A60007047AC49C864704702460020A64B083363
:100A7000186820F0EC6042EA01031843A24B0833E7
:100A800018607047024600209F4B0833186820F01A
:100A9000784042EA010318439B4B083318607047C3
:100AA00001460020984A0832106820F003000843ED
:100AB0001060704794480830006800F00C007047E0
:100AC00001460020904A0832106820F0F0000843E8
:100AD00010607047014600208B4A0832106820F4ED
:100AE000E05008431060704701460020864A0832F3
:100AF000106820F4604040EAC10010607047F0B513
:100B00000021002200240225002602237E4F083700
:100B10003F6807F00C0121B1042905D0082937D11D
:100B200005E07E4F076036E07D4F076033E0764F8B
:100B30003F1D3F68C7F38056734F3F1D3F6807F066
:100B40003F036EB1764FB7FBF3F7DFF8BCC10CF192
:100B5000040CDCF800C0CCF3881C07FB0CF40CE0A0
:100B60006E4FB7FBF3F7DFF8A0C10CF1040CDCF813
:100B700000C0CCF3881C07FB0CF4634F3F1D3F689B
:100B8000C7F301477F1C7D00B4FBF5F7076002E067
:100B9000624F076000BF00BF5B4F08373F6807F038
:100BA000F00109095F4F7A5C0768D7404760564FEC
:100BB00008373F6807F4E051890A5A4F7A5C476862
:100BC000D7408760504F08373F6807F46041490BB2
:100BD000544F7A5C4768D740C760F0BD002100F4ED
:100BE0004072B2F5407F0AD1474A0832116821F4B9
:100BF000F8114D4A02401143434A08321160424AFB
:100C000070321268C0F30B031A433F4B70331A6003
:100C1000704741494439086070473F49403908608E
:100C2000704742490860704739B1374A303212681C
:100C30000243354B30331A6006E0334A30321268D3
:100C40008243314B30331A60704739B12E4A343207
:100C5000126802432C4B34331A6006E02A4A3432BD
:100C600012688243284B34331A60704739B1264AE0
:100C7000383212680243244B38331A6006E0224AA5
:100C8000383212688243204B38331A60704739B1CA
:100C90001D4A4032126802431B4B40331A6006E083
:100CA000194A403212688243174B40331A6070472A
:100CB00039B1154A443212680243134B44331A6067
:100CC00006E0114A4432126882430F4B44331A60E3
:100CD000704739B10C4A1032126802430A4B103384
:100CE0001A6006E0084A103212688243064B10333D
:100CF0001A607047E1B1044A143212680243024B91
:100D000014331A6019E0000000380240FFFFF6FEBD
:100D10001030002400004742800E47420024F400B7
:100D200000127A0000000020FFFCFF0F5C01474228
:100D30005B4A126882435A4B1A60704739B1584A6D
:100D4000121D12680243564B1B1D1A6006E0544ADE
:100D5000121D12688243524B1B1D1A60704739B135
:100D60004F4A0C32126802434D4B0C331A6006E0B6
:100D70004B4A0C3212688243494B0C331A6070475D
:100D800039B1474A103212680243454B10331A609A
:100D900006E0434A103212688243414B10331A6016
:100DA000704739B13E4A3C32126802433C4B3C33F7
:100DB0001A6006E03A4A3C3212688243384B3C33B0
:100DC0001A60704739B1364A403212680243344BD8
:100DD00040331A6006E0324A403212688243304B98
:100DE00040331A60704739B12D4A443212680243C9
:100DF0002B4B44331A6006E0294A4432126882437E
:100E0000274B44331A60704739B1254A4C32126877
:100E10000243234B4C331A6006E0214A4C321268DD
:100E200082431F4B4C331A60704739B11C4A503211
:100E3000126802431A4B50331A6006E0184A5032C7
:100E400012688243164B50331A60704739B1144A06
:100E5000D21F12780243124BDB1F1A7006E0104AB1
:100E6000D21F127882430E4BDB1F1A7070470C485A
:100E70006030006840F08070094960310860704758
:100E800001460020064A083A12680A4201D00120B1
:100E900000E0002070470249891F08707047000079
:100EA0001438024000F035FC0020DA490870DA49B5
:100EB0000870DA490870DA490870DA490870DA49C6
:100EC0000870DA490870DA490870DA490870DA49B6
:100ED0000870DA490870DA490870DA490870DA49A6
:100EE0000870DA490870DA490870DA490870DA4996
:100EF0000870DA490870DA490870DA490870DA4986
:100F00000870DA490870DA490870DA49087066E151
:100F1000C1480078002879D0BE48007831382328AD
:100F200070D2DFE800F012161A1E22262A2E326F27
:100F30006F6F6F6F6F363A3E42464A4E52565A6F47
:100F40006F6F6F6F6F5E62666B000120B349087050
:100F500058E00120B249087054E00120B1490870FE
:100F600050E00120B04908704CE00120AF49087002
:100F700048E00120AE49087044E00120AD49087006
:100F800040E00120AC4908703CE00120AB4908700A
:100F900038E00120AA49087034E00120AB4908700C
:100FA00030E00120A84908702CE00120A549087014
:100FB00028E00120A649087024E00120A549087016
:100FC00020E00120A44908701CE00120A34908701A
:100FD00018E00120A249087014E00120A14908701E
:100FE00010E00120A04908700CE001209F49087022
:100FF00008E001209E49087004E007E001209D49B7
:10100000087000BF00BF0020834908708348007843
:1010100080B100F05BFE984801F03EFB4FF4807217
:101020009549964800F0F9FA01209549087000208A
:101030007A4908707A48007850B101F0B3FA00F0AC
:1010400040FD00F051FE00208D4908707449087081
:101050007448007848B14FF4C81364221146022046
:1010600000F01CFF00206F4908706F48007848B1FD
:101070004FF4C81364221146022000F0E3FF002061
:10108000694908706948007848B14FF4C813642270
:101090001146012001F095F8002064490870644869
:1010A000007848B14FF4C81364221146012001F0C2
:1010B00047F900205E4908705E48007828B1322068
:1010C00001F086FA00205B4908705A48007828B180
:1010D000322001F0AFFA00205749087057480078D5
:1010E00028B1322001F0F0F900205449087054482A
:1010F000007828B1322001F01EFA00205049087013
:101100005248007828B1322001F01BFA00204F49E4
:1011100008704D48007828B1322001F02BFA0020E9
:10112000494908704748007828B1322001F03AFA5E
:101130000020444908704648007810B10020444916
:1011400008704448007828B1642001F0C7FA0020F4
:10115000404908704048007828B1642001F0D3FA73
:1011600000203D4908703D48007828B1642001F016
:1011700009FB0020394908703948007828B16420FB
:1011800001F01AFB0020364908703648007828B173
:10119000642001F0E2FA00203249087032480078F9
:1011A00028B1642001F0C4FA00202F4908702F48AC
:1011B000007828B1642001F022FB00202B49087040
:1011C0002B48007828B1642001F04AFB0020284910
:1011D00008702848007810B100202649087097E66A
:1011E0001CB501210846FFF71FFD4FF40040009099
:1011F00001208DF8040000208DF8060001208DF8F4
:10120000070002208DF8050069461E48FFF7B8F870
:101210001CBD00001100002012000020130000205F
:1012200014000020150000201600002017000020E8
:1012300018000020190000201A0000201B000020C8
:101240001C0000201F0000201E0000201D000020A8
:101250002000002021000020220000202300002088
:101260002400002025000020260000202700002068
:1012700028000020290000202C010020004400400C
:1012800010000020000002400CB5002001900090EA
:101290007248006840F480307049086000BF6F48B1
:1012A000006800F4003000900198401C0190009804
:1012B00018B90198B0F5A06FF1D16848006810F432
:1012C000003F02D00120009001E000200090009833
:1012D000012845D161484030006840F080505F49A6
:1012E000403108605E48006840F480405C49086016
:1012F0005A480830006859490831086008460068B3
:1013000040F4004008600846006840F4A0500860BF
:101310005448091F0860081F006840F08070091FCA
:10132000086000BF4D48006810F0007FFAD040F21E
:1013300005604D49086049480830006820F0030006
:101340004649083108600846006840F0020008601D
:1013500000BF42480830006800F00C000828F8D1AF
:101360000CBD10B53D48006840F001003B490860E5
:1013700000203A4908310860384800683B49084075
:10138000364908603A48091D0860081F006820F4C3
:101390008020091F0860002030490C310860FFF7E9
:1013A00073FF4FF000603349086010BD70B5002036
:1013B0000022022300240221284D08352D6805F063
:1013C0000C0020B1042806D0082834D107E02A4DAB
:1013D0002A4E356033E02A4D284E35602FE01F4DF0
:1013E0002D1D2D68C5F380541C4D2D1D2D6805F055
:1013F0003F0154B1224DB5FBF1F5184E361D36684C
:10140000C6F3881605FB06F209E01B4DB5FBF1F5A6
:10141000124E361D3668C6F3881605FB06F20F4DD0
:101420002D1D2D68C5F301456D1C6B00B2FBF3F556
:10143000124E356003E0104D104E356000BF00BF06
:10144000064D08352D68C5F303150E4E705D0B4D26
:101450002D68C540094E356070BD0000003802405F
:101460000070004008544007003C0240FFFFF6FEB9
:101470001030002408ED00E00024F4002C000020CF
:1014800000127A003000002010B588B00446012117
:101490004804FFF7FCFB01210846FFF7C5FB0420C9
:1014A000069002208DF81C008DF81D0000208DF89C
:1014B0001E0001208DF81F0006A94448FEF760FFBA
:1014C000072202214148FEF7E6FF072203213F4899
:1014D000FEF7E1FF072202213C48FEF7DCFF4FF454
:1014E000165002900020ADF80C00ADF80E00ADF8DB
:1014F0001000ADF814000820ADF8120002A934481D
:10150000FFF74CF801213248FFF7D0F84FF4A06004
:10151000FEF756FE26208DF8040000208DF8050009
:101520008DF8060001208DF8070001A8FEF74DFE9A
:1015300001212748FFF7BAF808B010BD70B505467D
:101540000E4600240BE0295D2148FFF7DAF800BFC2
:1015500040211F48FFF785F90028F9D0641CB442E8
:10156000F1DB70BD10B504460BE021781848FFF799
:10157000C8F8641C00BF40211548FFF772F9002825
:10158000F9D020780028F0D110BD10B504460CE049
:1015900021460F48FFF7B5F8601CC4B200BF4021D8
:1015A0000B48FFF75EF90028F9D0002CF0D110BDF0
:1015B00010B540F225510648FFF769F928B10448F3
:1015C000FFF7A3F8C4B20348047010BD0000024046
:1015D000004400404000002010B5C0B064245748CB
:1015E000008810F0200F16D05448FFF78EF85449A9
:1015F00008804FF48071684601F075F95048028800
:1016000050A1684601F0C2F94D4800784E49087073
:1016100001204E49087040B010BD2DE9F041074649
:101620000D46164600240DB9BDE8F08100240EE0F9
:1016300000BF80213846FFF714F90028F9D0295D52
:101640003846FFF75EF8822C00DD02E0641CB442ED
:10165000EEDB00BF00BF40213846FFF702F900284B
:10166000F9D000BFE0E710B586B004460121102094
:10167000FFF71EFB01210220FFF7D6FAC0200490DD
:1016800002208DF814008DF8150000208DF816004A
:101690008DF8170004A92E48FEF772FE07220621D6
:1016A0002B48FEF7F8FE072211462948FEF7F3FE05
:1016B00000940020ADF80400ADF80600ADF8080075
:1016C000ADF80C000C20ADF80A0069461B48FEF787
:1016D00065FF012240F225511848FFF79DF80121CE
:1016E0001648FEF7E3FF06B010BD08B54FF4A06042
:1016F000FEF766FD25208DF8000000208DF8010022
:101700008DF8020001208DF803006846FEF75DFDAC
:1017100008BD10B5FFF7E9FF4FF41650FFF7A3FF20
:101720004FF41650FFF7B0FE10BD01B502E000986F
:10173000401E009000980028F9D108BD001001401B
:101740004800002025630000110000201200002046
:101750000004024010B510B1012818D10BE0FE4A78
:101760001268FE4B53F822200A44FB4B1B68FB4CCB
:1017700044F823200BE0F84A5268F84B53F8222033
:10178000521AF54B5B68F54C44F8232000BF00BFAC
:1017900010BDF3490968F14A52F821100144F04A9A
:1017A0001268EE4B43F822107047ED494968EB4A46
:1017B00052F821100144EA4A5268E84B43F82210DB
:1017C0007047E7498968E54A52F821100144E44A24
:1017D0009268E24B43F82210704710B506284CD2AD
:1017E000DFE800F0030F1B27333FDE4A5268DB4B74
:1017F00053F822200A44DB4B5B68D84C44F8232082
:101800003BE0D94A5268D54B53F822200A44D64BC4
:101810005B68D24C44F823202FE0D44A5268CF4B67
:1018200053F822200A44D14B5B68CC4C44F8232067
:1018300023E0CF4A5268C94B53F82220521ACC4BAE
:101840005B68C64C44F8232017E0CA4A5268C34B71
:1018500053F82220521AC74B5B68C04C44F823202F
:101860000BE0C54A5268BD4B53F82220521AC24BB6
:101870005B68BA4C44F8232000BF00BF10BD30B5F0
:1018800005460C4661422846FFF7A7FF30BD0628F3
:1018900046D2DFE800F0030E19242F3AB149496817
:1018A000AE4A52F82110AF4A9268AC4B43F822106E
:1018B00036E0AD494968A94A52F82110AA4A92680F
:1018C000A64B43F822102BE0A8494968A34A52F8D6
:1018D0002110A64A9268A14B43F8221020E0A449A7
:1018E00049689E4A52F82110A14A92689B4B43F8DE
:1018F000221015E09F494968984A52F821109D4AE4
:101900009268964B43F822100AE09B494968934A33
:1019100052F82110984A9268904B43F8221000BF69
:1019200000BF704710B506284CD2DFE800F0030F67
:101930001B27333F8B4A1268884B53F822200A44F6
:10194000884B1B68854C44F823203BE0864A12688C
:10195000824B53F822200A44834B1B687F4C44F887
:1019600023202FE0814A12687C4B53F822200A443E
:101970007E4B1B68794C44F8232023E07C4A126894
:10198000764B53F82220521A794B1B68734C44F85B
:10199000232017E0774A1268704B53F82220521A1E
:1019A000744B1B686D4C44F823200BE0724A12689C
:1019B0006A4B53F82220521A6F4B1B68674C44F84D
:1019C000232000BF00BF10BD30B505460C46614264
:1019D0002846FFF7A7FF30BD062870D2DFE800F0E9
:1019E000031527394B5D40F2DC515E4A12685B4BB0
:1019F00043F822104FF4E1615A4A526843F822102A
:101A0000584A926843F8221059E040F2DC51564A95
:101A10001268524B43F822104FF4E161524A526867
:101A200043F82210504A926843F8221047E040F2EF
:101A3000DC514E4A1268494B43F822104FF4E161E1
:101A40004A4A526843F82210484A926843F82210E2
:101A500035E040F2DC51464A1268404B43F8221010
:101A60004FF49661424A526843F82210404A926805
:101A700043F8221023E040F2DC513E4A1268374B13
:101A800043F822104FF496613A4A526843F8221004
:101A9000384A926843F8221011E040F2DC51364A8D
:101AA00012682E4B43F822104FF49661324A526866
:101AB00043F82210304A926843F8221000BF00BF5A
:101AC000704740F2DC5027490968244A42F8210057
:101AD0004FF4E1602349496842F8210021498968AF
:101AE00042F8210040F2DC501F49096842F8210009
:101AF0004FF4E1601C49496842F821001A4989689D
:101B000042F8210040F2DC501849096842F82100EF
:101B10004FF4E1601549496842F82100134989688A
:101B200042F8210040F2DC501149096842F82100D6
:101B30004FF496600E49496842F821000C498968C3
:101B400042F8210040F2DC500A49096842F82100BD
:101B50004FF49660074911E0200100204C0000205E
:101B600014010020CC000020D8000020E400002058
:101B7000F0000020FC00002008010020496842F825
:101B80002100FE49896842F8210040F2DC50FC49FE
:101B9000096842F821004FF49660F949496842F813
:101BA0002100F749896842F82100704710B50446C2
:101BB00021460320FFF711FE21460120FFF70DFE0D
:101BC00021460520FFF709FE0320FFF760FE0120F4
:101BD000FFF75DFE0520FFF75AFE10BD10B5044665
:101BE0006042FFF7E3FF10BD10B504462146032015
:101BF000FFF798FE21460120FFF794FE21460520BD
:101C0000FFF790FE10BD10B504466042FFF7ECFFF1
:101C100010BD10B5044621460320FFF7D5FE21462E
:101C20000120FFF77FFE21460520FFF7CDFE10BD06
:101C300010B504466042FFF7ECFF10BD10B5044636
:101C400021460020FFF7C9FD21460420FFF7C5FD0E
:101C500021460220FFF7C1FD0020FFF718FE0420F7
:101C6000FFF715FE0220FFF712FE10BD10B5044667
:101C70006042FFF7E3FF10BD10B504462146002087
:101C8000FFF750FE21460420FFF74CFE21460220BC
:101C9000FFF748FE10BD10B504466042FFF7ECFFA9
:101CA00010BD10B5044621460020FFF73BFE21463B
:101CB0000420FFF789FE21460220FFF733FE10BD06
:101CC00010B504466042FFF7ECFF10BD38B5ADA07B
:101CD00000680090684600F011FE044622466946FE
:101CE000A948FFF79AFC38BD38B5A8A00068009055
:101CF000684600F003FE044622466946A248FFF704
:101D00008CFC38BD10B50146002018E0A04B53F8FC
:101D10002020232301F8203083005B1CCA549D4BF4
:101D200033F82230C3F3072483009B1CCC54994B17
:101D300013F822408300DB1CCC54431CD8B2032888
:101D4000E4DB1DE0032390FBF3F403FB1403924C4C
:101D500054F82320232301F8203083005B1CCA544D
:101D60008C4B33F82230C3F3072483009B1CCC54E4
:101D7000884B13F822408300DB1CCC54431CD8B2A0
:101D80000628DFDB1DE0032390FBF3F403FB1403C1
:101D9000824C54F82320232301F8203083005B1C5D
:101DA000CA547C4B33F82230C3F3072483009B1CB6
:101DB000CC54784B13F822408300DB1CCC54431CDA
:101DC000D8B20928DFDB1DE0032390FBF3F403FB0B
:101DD0001403734C54F82320232301F8203083008C
:101DE0005B1CCA546B4B33F82230C3F307248300C7
:101DF0009B1CCC54674B13F822408300DB1CCC5453
:101E0000431CD8B20C28DFDB1DE0032390FBF3F466
:101E100003FB1403594C54F82320232301F82030EA
:101E200083005B1CCA545B4B33F82230C3F3072496
:101E300083009B1CCC54574B13F822408300DB1CBF
:101E4000CC54431CD8B20F28DFDB1DE0032390FBEA
:101E5000F3F403FB14034A4C54F82320232301F822
:101E6000203083005B1CCA544A4B33F82230C3F342
:101E7000072483009B1CCC54464B13F8224083005C
:101E8000DB1CCC54431CD8B21228DFDB542301F8EE
:101E90002030022483005B1CCC5410BD2DE9F0419E
:101EA00094B004460D4616461F464FF000083846CB
:101EB000FFF73BFC2846FFF791FE2846FFF7BEFEE2
:101EC00001A8FFF71FFF4A2201A92F48FFF7A5FB32
:101ED00000BFA0E03846FFF728FC3046FFF793FE2E
:101EE0003046FFF7C9FE2846FFF7C0FE01A8FFF7FE
:101EF00009FF4A2201A92448FFF78FFB3846FFF764
:101F000014FC2846FFF7B2FE01A8FFF7FBFE4A22A9
:101F100001A91D48FFF781FB3846FFF706FC28465C
:101F2000FFF744FE01A8FFF7EDFE4A2201A916487B
:101F3000FFF773FB3846FFF7F8FB2846FFF736FE3E
:101F40003046FFF751FE3046FFF7A5FE01A8FFF728
:101F5000D9FE4A2201A90C48FFF75FFB3846FFF77C
:101F6000E4FB2846FFF73AFE3046FFF73DFE3046D9
:101F7000FFF791FE01A8FFF7C5FE13E0FC0000206B
:101F800008010020530100000044004053020000FB
:101F9000CC0000204C000020D8000020E4000020ED
:101FA000F00000204A2201A9FE48FFF736FB384620
:101FB000FFF7BBFB2846FFF711FE01A8FFF7A2FEC3
:101FC0004A2201A9F748FFF728FB3846FFF7ADFB87
:101FD0002846FFF733FE01A8FFF794FE4A2201A925
:101FE000F048FFF71AFB3846FFF79FFB3046FFF734
:101FF0000AFE3046FFF740FE2846FFF71FFE01A805
:10200000FFF780FE4A2201A9E648FFF706FB08F128
:10201000010000F0FF08A045FFF65CAF3846FFF76F
:1020200084FB2846FFF7C2FD2846FFF71FFE01A8E4
:10203000FFF768FE4A2201A9DA48FFF7EEFA14B06A
:10204000BDE8F0812DE9F04194B004460D461646F6
:102050001F464FF000083846FFF767FB2846FFF79A
:10206000BDFD2846FFF7EAFD01A8FFF74BFE4A2217
:1020700001A9CC48FFF7D1FA00BF8BE03846FFF743
:1020800054FB3046FFF7B0FD3046FFF704FE28460C
:10209000FFF7ECFD01A8FFF735FE4A2201A9C14870
:1020A000FFF7BBFA3846FFF740FB2846FFF7DEFD97
:1020B00001A8FFF727FE4A2201A9BA48FFF7ADFAA7
:1020C0003846FFF732FB2846FFF770FD01A8FFF7FF
:1020D00019FE4A2201A9B348FFF79FFA3846FFF7D5
:1020E00024FB2846FFF762FD3046FFF78CFD3046A3
:1020F000FFF7C2FD01A8FFF705FE4A2201A9A94882
:10210000FFF78BFA3846FFF710FB2846FFF766FD0E
:102110003046FFF778FD3046FFF7AEFD01A8FFF728
:10212000F1FD4A2201A99F48FFF777FA3846FFF7E9
:10213000FCFA2846FFF752FD01A8FFF7E3FD4A220B
:1021400001A99848FFF769FA3846FFF7EEFA2846E2
:10215000FFF774FD01A8FFF7D5FD4A2201A99148B8
:10216000FFF75BFA3846FFF7E0FA3046FFF73CFD31
:102170003046FFF790FD2846FFF760FD01A8FFF706
:10218000C1FD4A2201A98748FFF747FA08F101007B
:1021900000F0FF08A045FFF671AF3846FFF7C5FA1B
:1021A0002846FFF703FD2846FFF760FD01A8FFF76B
:1021B000A9FD4A2201A97B48FFF72FFA14B0BDE818
:1021C000F0812DE9F04194B004460D4616461F46B5
:1021D0004FF000083846FFF7A8FA2846FFF7FEFC44
:1021E0002846FFF72BFD01A8FFF78CFD4A2201A925
:1021F0006C48FFF712FA00BF8BE03846FFF795FAFC
:102200003046FFF715FD3046FFF74BFD2846FFF738
:102210002DFD01A8FFF776FD4A2201A96148FFF7CD
:10222000FCF93846FFF781FA2846FFF71FFD01A8A1
:10223000FFF768FD4A2201A95A48FFF7EEF9384630
:10224000FFF773FA2846FFF7B1FC01A8FFF75AFD24
:102250004A2201A95348FFF7E0F93846FFF765FA2B
:102260002846FFF7A3FC3046FFF7D3FC3046FFF7C4
:1022700027FD01A8FFF746FD4A2201A94948FFF7BB
:10228000CCF93846FFF751FA2846FFF7A7FC30464D
:10229000FFF7BFFC3046FFF713FD01A8FFF732FD43
:1022A0004A2201A93F48FFF7B8F93846FFF73DFA3F
:1022B0002846FFF793FC01A8FFF724FD4A2201A955
:1022C0003848FFF7AAF93846FFF72FFA2846FFF7F4
:1022D000B5FC01A8FFF716FD4A2201A93148FFF716
:1022E0009CF93846FFF721FA3046FFF7A1FC30464B
:1022F000FFF7D7FC2846FFF7A1FC01A8FFF702FD76
:102300004A2201A92748FFF788F908F1010000F0E7
:10231000FF08A045FFF671AF3846FFF706FA2846DA
:10232000FFF744FC2846FFF7A1FC01A8FFF7EAFCF1
:102330004A2201A91B48FFF770F914B0BDE8F081EB
:102340002DE9F04194B004460D4616461F464FF065
:1023500000083846FFF7E9F92846FFF73FFC284612
:10236000FFF76CFC01A8FFF7CDFC4A2201A90D483C
:10237000FFF753F900BF8EE03846FFF7D6F9304635
:10238000FFF747FC3046FFF79BFC2846FFF76EFC43
:1023900001A8FFF7B7FC4A2201A90248FFF73DF95F
:1023A000384601E000440040FFF7BFF92846FFF738
:1023B0005DFC01A8FFF7A6FC4A2201A9FC48FFF733
:1023C0002CF93846FFF7B1F92846FFF7EFFB01A8D3
:1023D000FFF798FC4A2201A9F548FFF71EF9384695
:1023E000FFF7A3F92846FFF7E1FB3046FFF720FC93
:1023F0003046FFF756FC01A8FFF784FC4A2201A9EA
:10240000EB48FFF70AF93846FFF78FF92846FFF740
:10241000E5FB3046FFF70CFC3046FFF742FC01A815
:10242000FFF770FC4A2201A9E148FFF7F6F83846A9
:10243000FFF77BF92846FFF7D1FB01A8FFF762FC05
:102440004A2201A9DA48FFF7E8F83846FFF76DF9A4
:102450002846FFF7F3FB01A8FFF754FC4A2201A925
:10246000D348FFF7DAF83846FFF75FF93046FFF751
:10247000D0FB3046FFF724FC2846FFF7DFFB01A81E
:10248000FFF740FC4A2201A9C948FFF7C6F808F146
:10249000010000F0FF08A045FFF66EAF3846FFF7D9
:1024A00044F92846FFF782FB2846FFF7DFFB01A827
:1024B000FFF728FC4A2201A9BD48FFF7AEF814B087
:1024C000BDE8F0817047704710B594B004462146CE
:1024D0000320FFF7D4F921460420FFF7D0F9214665
:1024E0000520FFF7CCF921460020FFF776F92146B9
:1024F0000120FFF772F921460220FFF76EF9032051
:10250000FFF7C5F90420FFF7C2F90520FFF7BFF96F
:102510000020FFF7BCF90120FFF7B9F90220FFF70F
:10252000B6F901A8FFF7EEFB4A2201A9A048FFF780
:1025300074F814B010BD10B504466042FFF7C4FF34
:1025400010BD10B594B004469A48406940F6340175
:1025500088420DD22046FFF729FB2046FFF76EFB8D
:1025600001A8FFF7CFFB4A2201A99148FFF755F8D0
:1025700014B010BD10B594B004468E484069B0F553
:102580007A7F0DD92046FFF729FB2046FFF76EFB27
:1025900001A8FFF7B7FB4A2201A98548FFF73DF8DC
:1025A00014B010BD10B594B0002405E040F2DC502A
:1025B000804941F82400641C202CF7DB01A8FFF7B8
:1025C000A1FB4A2201A97A48FFF727F814B010BDF1
:1025D00030B593B00446204604EBD0714D107548D9
:1025E0004068B0F5617F23D921460220FFF7F5F856
:1025F00021460520FFF7F1F861420020FFF7EDF8D2
:1026000061420320FFF7E9F80220FFF740F90520B7
:10261000FFF73DF90020FFF73AF90320FFF737F9FC
:102620006846FFF76FFB4A2269466148FEF7F5FFEF
:1026300013B030BD30B593B00446204604EBD071E2
:102640004D105C484068B0F5FA6F23D26142022019
:10265000FFF7C3F861420520FFF7BFF821460020CD
:10266000FFF7BBF821460320FFF7B7F80220FFF77A
:102670000EF90520FFF70BF90020FFF708F90320FA
:10268000FFF705F96846FFF73DFB4A2269464848CF
:10269000FEF7C3FF13B030BD0146002000BF14E0B9
:1026A000232201F820208200521C8854414A32F82B
:1026B0002020C2F307238200921C8B543D4A12F85B
:1026C00020308200D21C8B54401C2028E8DB54228E
:1026D00081F88020022281F88120704710B5A2B0D5
:1026E00004463448406BB0F5FA6F0AD22046FFF733
:1026F00050F801A8FFF7D0FF822201A92C48FEF76D
:102700008CFF22B010BD10B5A2B004462948406B22
:10271000B0F57A7F0AD96042FFF73BF801A8FFF7CE
:10272000BBFF822201A92248FEF777FF22B010BD2D
:1027300010B5A2B004461F48406FB0F5FA6F0AD238
:102740002046FFF73EF801A8FFF7A6FF822201A965
:102750001748FEF762FF22B010BD10B5A2B00446C4
:102760001448406FB0F57A7F0AD96042FFF729F824
:1027700001A8FFF791FF822201A90D48FEF74DFF46
:1027800022B010BD10B5A2B004460A48406B40F616
:10279000340188420AD22046FFF707F801A8FFF764
:1027A0007BFF822201A90248FEF737FF22B010BD4D
:1027B000004400404C00002010B5A2B0044642483E
:1027C000406B40F24C4188420AD96042FEF7EDFF6F
:1027D00001A8FFF761FF822201A93C48FEF71DFF17
:1027E00022B010BD08B556208DF8000041208DF8AC
:1027F0000100022269463548FEF70FFF08BD70B59B
:10280000A2B00446FFF7EEFF4FF40050FEF78DFF35
:102810002E48FDF77AFF06462C48FDF776FF054661
:102820002948C06C40F2145188420FD9214600203B
:10283000FEF790FF21460120FEF78CFF01A8FFF76D
:102840002BFF822201A92148FEF7E7FE31462048EE
:10285000FDF757FF29461E48FDF753FF22B070BD14
:1028600030B5A1B00446FFF7BDFF4FF40050FEF7AE
:102870005CFF1648FDF749FF05461348C06CB0F5EC
:10288000E16F0FD261420020FEF764FF6142012038
:10289000FEF760FF6846FFF7FFFE822269460B489D
:1028A000FEF7BBFE29460A48FDF72BFF21B030BDDD
:1028B00010B503E04FF4FA70FEF737FF05480078D3
:1028C0000028F7D110BD00004C000020004400405B
:1028D0000010014028010020D2B201E000F8012BD5
:1028E000491EFBD270470022F6E710B513460A4690
:1028F00004461946FFF7F0FF204610BD421C10F8B1
:10290000011B0029FBD1801A70470000064C074DBF
:1029100006E0E06840F0010394E8070098471034AF
:10292000AC42F6D3FDF734FCAC2A0008CC2A0008F0
:1029300070B501EB020410F8015B15F0070301D13B
:1029400010F8013B2A1106D110F8012B03E010F812
:10295000016B01F8016B5B1EF9D12B0705D4002335
:10296000521E0FD401F8013BFAE710F8013B02F1C7
:102970000202A1EB030303E013F8015B01F8015B22
:10298000521EF9D5A142D6D3002070BD0FB4084B1A
:1029900010B504A902AA039800F01BF8044602A986
:1029A000002000F07EF8204610BC5DF814FB00000B
:1029B000A32A000802E008C8121F08C1002AFAD1A1
:1029C00070477047002001E001C1121F002AFBD1AF
:1029D00070472DE9F84F99469246884605460027EC
:1029E00059E0252801D0514623E0002315F8011FA6
:1029F00018462E2915D115F8011F04232A290DD0B8
:102A00006FF02F022978A1F13004092C09D800EBCE
:102A1000800002EB400008446D1CF3E758F8040BFB
:102A20006D1C2A7872B3632A08D0732A10D05146DD
:102A300010464A46904707F101072BE018F8042B8F
:102A40008DF8002000218DF801106E46012103E071
:102A500058F8046B4FF0FF315A074FF0000401D4CF
:102A600009E0641C84420BDA8C42FADB325D002AF6
:102A7000F7D105E0641C8C42FCDB305D0028F9D105
:102A8000274405E00AE016F8010B51464A469047F4
:102A9000641EF8D26D1C28780028A2D13846BDE803
:102AA000F88F0A68531C0B6010707047CC2A00081E
:102AB000000000202C010000302900081C2B000819
:102AC0002C01002004050000C4290008412D01024A
:102AD000030404051D06070809847A030A09123055
:102AE0000B30DC05040B34A4063809120439983184
:102AF000320232042913195F11320829A929BD3283
:102B00001032113212321432153216321832193292
:0C2B10001A320D320E320F32035A1358E5
:040000050800018965
:00000001FF
