:0C0000000C9455000C9400000C940000BF
:10000C000C9400000C9400000C9400000C94000064
:10001C000C9400000C9400000C9400000C94000054
:10002C000C9445010C94B8010C9400000C9437010D
:10003C000C9400000C9400000C9456020C948D004F
:10004C000C9400000C94E4000C9400000C94000040
:10005C000C9400000C9400000C9400001027E80392
:10006C0064000A00010000100001100001000102F0
:10007C0003040507060008090A0B0C0D0E0F1716D2
:10008C00151413121110181F1E1D1C1B1A19110008
:10009C00200000037A000100B2079A000000F894D7
:1000AC00EE27EFBBF1E0F5BFE5BFF8E1A895A4B7EB
:1000BC00A77FA4BFF0936000E09360008DE0A2E006
:1000CC00BB27ED938A95E9F780E098E0A0E0B1E0DA
:1000DC00ED930197E9F7ECE9F0E0859195910097A4
:1000EC0061F0A591B59105901590BF01F0010590B7
:1000FC000D920197E1F7FB01F0CFE0E0EEBBEFEFE3
:10010C00EDBFE8E0EEBFC0E0D3E00C945A02AA9336
:10011C00BA93EA93FA93EFB7EA931A930A9310916E
:10012C00C0000091C6000E942707ECE1F0E0EA2332
:10013C00FB233097E1F4E32DF42DE951FB4F0083C1
:10014C00E32DF42D31963E2E4F2EE030A1E0FA0730
:10015C0011F433244424E72DF82D31967E2E8F2E66
:10016C00E030A1E0FA0719F477248824F09A099179
:10017C001991E991EFBFF991E991B991A99118956C
:10018C001A93072C0828E9F3A7EEB4E0A50DB61DC9
:10019C001C91E52DF62D31965E2E6F2EE030A1E0F0
:1001AC00FA0711F455246624F894E72DF82D3197AD
:1001BC007E2E8F2E7894E12F0C94FE050A92AA9332
:1001CC00BA93EA93FA93EFB7EA930D2C0E28B9F091
:1001DC00ED2DFE2D3197DE2EEF2EA7EEB5E0AB0DFB
:1001EC00BC1DEC91E093C600EB2DFC2D3196BE2E80
:1001FC00CF2EE030A1E0FA0711F4BB24CC24E99116
:10020C00EFBFF991E991B991A99109901895E0E0A6
:10021C00F1E0ED15FE05D9F3F8940D2C0E2829F418
:10022C00E091C000F0E0E072B1F4E92DFA2DE95153
:10023C00FA4FA881A083E92DFA2D31969E2EAF2E70
:10024C00E030A1E0FA0711F49924AA24E1E0F0E0EF
:10025C00DE0EEF1E03C0E881E093C60078940C9488
:10026C002507EA93EFB7EA93E091E604EF5FE0939A
:10027C00E604E0E0E6BDE991EFBFE9911895EA9359
:10028C00FA93EFB7EA93E091A403F0E0E05EFC4F41
:10029C00E081EEBD00000000000000000000000046
:1002AC000000000000000000000000000000000042
:1002BC0000000000299A2998E091A403F0E0EF5B7C
:1002CC00FC4FE081EEBD00000000000000000000CB
:1002DC000000000000000000000000000000000012
:1002EC000000000000002A9A2A98E091A403F0E094
:1002FC00EE59FC4FE081EEBD000000000000000054
:10030C0000000000000000000000000000000000E1
:10031C0000000000000000005E9A5E98E091A403CB
:10032C00F0E0ED57FC4FE081EEBD00000000000056
:10033C0000000000000000000000000000000000B1
:10034C00000000000000000000005F9A5F98F19828
:10035C00E0E0E0938500E0938400E991EFBFF99130
:10036C00E9911895AA93BA93EA93FA93EFB7EA93A3
:10037C00E091A503F0E0E05EFC4FE081EEBD0000F3
:10038C000000000000000000000000000000000061
:10039C000000000000000000000000000000299A8E
:1003AC002998E091A503F0E0EF5BFC4FE081EEBDF6
:1003BC000000000000000000000000000000000031
:1003CC000000000000000000000000000000000021
:1003DC002A9A2A98E091A503F0E0EE59FC4FE081AF
:1003EC00EEBD000000000000000000000000000056
:1003FC0000000000000000000000000000000000F1
:10040C0000005E9A5E98E091A503F0E0ED57FC4F7A
:10041C00E081EEBD000000000000000000000000C4
:10042C0000000000000000000000000000000000C0
:10043C00000000005F9A5F98E091A503EF5FE093E6
:10044C00A503E091A403A091A503EA1721F4F19A66
:10045C00E0E0E093A503E091A503A6E2B4E0F0E0B0
:10046C00EE0FFF1FAE0FBF1FED91FC911197EF2FF9
:10047C00F0E0E0938B00E091A503A6E2B4E0F0E09D
:10048C00EE0FFF1FAE0FBF1FED91FC911197E09384
:10049C008A00E991EFBFF991E991B991A991189569
:1004AC001A931EB519911895E0E0E093EB06F298BB
:1004BC00F398F198F49A97D10E94A804E9B1F0E06E
:1004CC00E871F0700E945608EA930E946704F49B4E
:1004DC008BC00E942A07E434A0E0FA0729F40E949A
:1004EC002A070E94300780C0E635A0E0FA0719F50C
:1004FC000E942A07E134A0E0FA0711F4E0E011C0F1
:10050C00E234A0E0FA0711F4E1E00BC0E334A0E020
:10051C00FA0711F4E2E005C0E434A0E0FA0741F474
:10052C00E3E0EA930E948E04E093B007F093B107E6
:10053C000E94300759C0E335A0E0FA0761F40E942D
:10054C00C600E093E706E03019F00E94F50402C003
:10055C000E94F80449C0E332A0E0FA07B9F5EBB108
:10056C00F0E0A4E0B0E0EA27FB27EBB90E94C6005C
:10057C00E093E8060E94C600E093E9060E94C600DC
:10058C00E093EA06A091EB06B0E0A451B94FE091DC
:10059C00E806F0E0E050FD4FE081EC93E091EB06D3
:1005AC000E943C07EA0FFB1F0F01A091EA06BB2734
:1005BC00F091E906E0E0EA0FFB1FD001ED93FC930C
:1005CC00E091EB06EF5FE093EB060EC0E435A0E0A4
:1005DC00FA0751F40E94C600E093E706F498E03065
:1005EC0011F4F29A01C0F39AF29B21C0E0E0E0937F
:1005FC00AC070E94420788F40E944807EA930E94C5
:10060C004F070E945207FA93EA93E091AC07EA93E2
:10061C000E9400060E945707ECCFF19BFECF0E9470
:10062C000D05E0E0E093EB06F49AF298F198F39B59
:10063C00D8C0E0E0E093AC070E944207A0F50E940E
:10064C0048070E945D070E9465070E945207E0154B
:10065C00F10588F40E946A07E45BF84FBF010E9421
:10066C006E070E9465070E9452070E947607E459A4
:10067C00F84FA0E014C00E946A07E45BF84FBF017A
:10068C000E944F07AE0FBF1F0D901C900E946E076B
:10069C000E9452070E947607E459F84FA1E0A0830C
:1006AC000E945707C9CFECE4F7E0FA93EA93E09184
:1006BC00EB06EA930E94F906E093AF07E0E0E093C3
:1006CC00AC070E944207A8F40E946A070F01E45786
:1006DC00F84FBF01A091AF07BB27F001E45BF84FC7
:1006EC000E9480070E948408DB01EC930E9457074C
:1006FC00E8CFE0E0E093AC07E091AF07A091AC0746
:10070C00AE1710F00C94F203E0E0E093AD07E0912B
:10071C00EB06A091AD07AE1710F00C94E603A09178
:10072C00AC07BB270E948307E457F84F0E94800751
:10073C000E948908309739F40E948307E45BF84FD4
:10074C00E081E13008F436C0A091AD07B0E0A45BC5
:10075C00B84FEC91E150EC930E948307E451F94FB0
:10076C00E0810E945D07EA0FFB1F0F01DF010E9471
:10077C00A508DF010E948307E459F84F0E94800707
:10078C00309719F0E4E1F0E002C0ECEEFFEFEA0F75
:10079C00FB1FD001ED93FC93E091AE07EA930E940E
:1007AC006E070E945207FA93EA93E091AD07EA9321
:1007BC000E940006E091AD07EF5FE093AD07A7CF75
:1007CC00F19BFECF0E940D05F198E2E0EA930E94A6
:1007DC0018070E94570790CFE0E0E093EB06F49ADD
:1007EC00F39875CEFFCFE0E8E0936100E0E0E09392
:1007FC006100E5B9EEE3E4B9E0E0E8B9EFEFE7B9A1
:10080C00E8E1EBB9E4ECEAB9E0E0E4BDE5BDE6BD56
:10081C00E0E9E7BDE0E0E8BDE0938000E093810013
:10082C00E0938200E0938700E0938600E0E9E09398
:10083C008900E0E0E0938800EAE0E0938B00EDECC7
:10084C00E0938A00E0E0E093B600E093B000E09320
:10085C00B100E093B200E093B300E093B400E093F6
:10086C006900EDBBE0936800E2E0E0936E00E6E027
:10087C00E0936F00E0E0E0937000E093C000E8EDDF
:10088C00E093C100E6E0E093C200E0E0E093C50035
:10089C00EFE5E093C400E0E8E0BFE0E0E0937B002C
:1008AC00EFE0E0937E00E0E0E0937C00E7E8E0938B
:1008BC007A00E0E5ECBDE1E0EDBDEDB5EEB5789488
:1008CC000895E881F0E0309729F4E0E0E093C5006A
:1008DC00E7E01AC0E130A0E0FA0729F4E0E0E09389
:1008EC00C500E7E111C0E230A0E0FA0729F4E0E02E
:1008FC00E093C500EFE508C0E330A0E0FA0731F45F
:10090C00E1E0E093C500EFE7E093C4000C94250709
:10091C00E881F0E0E0937C0081E38A95F1F70E9496
:10092C008707E064EC93E0917A00F0E0E071D9F392
:10093C000E948707E061EC93E0917800F0917900D8
:10094C000C9425071A930A930E948C07ACECBAE01E
:10095C00AE1BBF0BA0932604B0932704EFEFFFEF61
:10096C006FEF7FEFE093A603F093A7036093A803C8
:10097C007093A903ECEDF5E0E0936604F093670443
:10098C0000E010E00032E0E01E0774F4F801A6EA83
:10099C00B4E0EE0FFF1FAE0FBF1FECEDF5E0ED93D3
:1009AC00FC930F5F1F4FEECFE0E0E093A503E1E077
:1009BC00E093A403E0E0E0932003E0936203E09370
:1009CC004103E0938303EFEFE0932103E093630390
:1009DC00E0934203E09384030991199108950E94D6
:1009EC0090070895E0E0E0938100EEBDEDB5F0E0F6
:1009FC000E9456080E9454083097C1F3299A2998EE
:100A0C002A9A2A985E9A5E985F9A5F9808951A932C
:100A1C00E0E0E0938100E091B307E093A4030E942F
:100A2C009E07E05EFC4F0E94A207EE59FC4F0E940D
:100A3C00A207EF5BFC4F0E94A207ED57FC4F0E94F0
:100A4C00A207E05EFC4F0E948007DF010E94A50711
:100A5C000E94AE07E09320030E949E07EF5BFC4FC1
:100A6C000E948007FF93EF930E94B307E8E00E9477
:100A7C004308AF91BF910E94AE07E09341030E94DF
:100A8C009E07EE59FC4F0E948007DF010E94A507CC
:100A9C000E945D080E94AE07E09362030E949E07CD
:100AAC00ED57FC4F0E948007FF93EF930E94B30712
:100ABC00E8E10E944308AF91BF910E94AE07E0931A
:100ACC008303E0916604F09167040E94BC070E94C6
:100ADC00C1070E94CA07A6E2B4E00E94EE08ED939B
:100AEC00FC9311E0E091A4031E1710F00C94FC058C
:100AFC000E94D007E05EFC4FFF93EF930E94270704
:100B0C000E94D307E05EFC4F0E94DA07D0010E94DE
:100B1C00AE07AF91BF91EC930E94D007EF5BFC4FF7
:100B2C00FF93EF930E9427070E94D307EF5BFC4FC4
:100B3C000E948007FF93EF930E94E707E8E00E9472
:100B4C004308AF91BF910E94AE07AF91BF91EC9358
:100B5C000E94D007EE59FC4FFF93EF930E9427079A
:100B6C000E94D307EE59FC4F0E94DA070E945D08E1
:100B7C00D0010E94AE07AF91BF91EC930E94D007B9
:100B8C00ED57FC4FFF93EF930E9427070E94D3076A
:100B9C00ED57FC4F0E948007FF93EF930E94E707ED
:100BAC00E8E10E944308AF91BF910E94AE07AF915C
:100BBC00BF91EC93E12FA6E2B4E00E94F407EA0F98
:100BCC00FB1FFF93EF93E12F0E94F8070E9452073F
:100BDC000E94BC070E94C1070E94CA07AF91BF9137
:100BEC000E94EE08ED93FC931F5F7CCF0E94900750
:100BFC00199108950E94FC09A091A403BB27EC81D4
:100C0C00F0E0EA0FE093B307EF81A6EAB4E00E94AC
:100C1C00F4070E94FB0710E0E091B3071E1710F0D9
:100C2C000C946F060E940208EA0FFB1FFF93EF93D0
:100C3C00DF010E94A9087F936F93FF93EF930E94AB
:100C4C000908AFEFBFEF8FEF9FEF0E942608AF911F
:100C5C00BF918F919F910E941C08AF91BF910E94F0
:100C6C00AF080E940208AE0FBF1F0E94A9080E9485
:100C7C00F80969F5012FE091B3070E1710F5E02F75
:100C8C000E9414080F01A02FBB270E946208A655D2
:100C9C00BC4F0E94A908D0010E94AF08E02F0E940F
:100CAC00F807EA0FFB1F0F01A02FBB27AA0FBB1FD2
:100CBC00A859BB4F0E94A508D001ED93FC930F5F80
:100CCC00DACFE091B307E150E093B30701C01F5FA7
:100CDC00A3CF30E0E091B3073E1710F00C94D90687
:100CEC00E32F0E94F8070E945207AD81BE81EA17DC
:100CFC00FB07C9F4E32F0E941408FF93EF93DF0165
:100D0C000E94A9087F936F93FF93EF930E940908A9
:100D1C00AF91BF918F919F910E942108AF91BF918C
:100D2C000E94AF085CC0E32F0E94F8070E94520794
:100D3C00AD81BE81AE17BF07A0F51091B307311777
:100D4C0048F5E12F0E94F807EA0FFB1FBF010E9434
:100D5C0027070E94D307A6E6B4E0EE0FFF1F0E9400
:100D6C005207DB01ED93FC930E940208EA0FFB1F74
:100D7C00CF010E9427070E94D307A6EAB3E00E9486
:100D8C004F08AE0FBF1F0E94A908DC010E94AF08DC
:100D9C001150D5CFE32F0E94F8070E94FB07E32FD9
:100DAC000AC03F5F97CFE091B3070E94F8070E94FB
:100DBC00FB07E091B307A6EAB3E0F0E00E944F080E
:100DCC00EA0FFB1FFF93EF930E940908AF91BF91AD
:100DDC000E94AF08E091B307EF5FE093B3070E9466
:100DEC00010A289608951A930A93AB81BC81EC9161
:100DFC000E2F10E0EA811E1780F4AB81BC81EE2728
:100E0C00A10FBE1FEC910E1730F4AB81BC81EE2705
:100E1C00A10FBE1F0C911F5FEDCFE02F1981088130
:100E2C0025960895E0E0E093E604E5E0E5BDE88171
:100E3C00A091E604AE17D8F3E0E0E5BDE6BD21963F
:100E4C000895A12FB0E008950E94C600E093E70634
:100E5C00F0E00895E091B107EA930E940D01E09152
:100E6C00B007F091B107EA930C940D01ACE0B7E038
:100E7C00F0E0EE0FFF1F0895E091EB06A091AC0798
:100E8C00AE170895E091AC07F0E0E451F94FE08122
:100E9C000895E091AC07EACFAE0FBF1F0E94A508E2
:100EAC000895E091AC07EF5FE093AC070895E093F1
:100EBC00AE07A6EAB4E0F0E0EE0FFF1F0895AE0F08
:100ECC00BF1F0D901C90E5CFE091AC07F0E00895AA
:100EDC00E091AE07A6EAB4E0F0E0EE0FFF1F089534
:100EEC00D001AE1BBF0BE4E1F0E00E947108DB0106
:100EFC00EC93EACFE081F0E00895E091AD07F0E0EB
:100F0C000895AAE7B0E0EC91F0E00895E091B20703
:100F1C00F0E00895E0912704E0938B00E091260423
:100F2C00F0912704E0938A00E2E0E09381000895B9
:100F3C00E091A403F0E00895AFEFA083F9CFE09126
:100F4C00A603F091A7036091A8037091A9030895DB
:100F5C000E946C080E9426080895A091A603B091E7
:100F6C00A7038091A8039091A90308950E94670894
:100F7C000E9427090895AAEFBDEE8BEE9FE30E9415
:100F8C00AA09DF01CB01C2CFF1DF0E94B4080E9495
:100F9C005A090895E12FF0E00895E1E0F0E00E9495
:100FAC00BA08EA1BFB0B089500801124E12FA6EA76
:100FBC00B3E0F0E00E944F08AE0FBF1F0E94A908DB
:100FCC000895E12FA6EAB3E0F0E00E944F08AE0FBF
:100FDC00BF1F0E94A908DF01CB010895F0E0EE0FBE
:100FEC00FF1F0895A6E6B4E0F9CFEA0FFB1FAD8111
:100FFC00BE81A083B1830895E12FA6EAB3E0F0E0AF
:10100C000E944F080895EF81F0E00E946708A1E06C
:10101C00B0E080E090E00E9437080895A6EAB3E0C3
:10102C00F0E00E944F08EA0FFB1F0895EA23FB2310
:10103C00682379230895EA2BFB2B682B792B0895D1
:10104C00EA27FB27682779270895F195E195F04069
:10105C000895F09560957095E195FF4F6F4F7F4F18
:10106C000895EE230E2EFD01BC0131F0EE0FFF1F93
:10107C00661F771F0A94D1F70895EE230E2EFD01FB
:10108C00BC0131F076956795F795E7950A94D1F701
:10109C000895EE0FFF1FEE0FFF1F0895F595E795CE
:1010AC00F595E795F595E795F595E7950895E62F70
:1010BC00F72F60E070E00895AA0FBB1FAA0FBB1FAB
:1010CC0008956F2F660F660B762F08958B2F880F60
:1010DC00880B982F08950024112490E1AA0FBB1FB0
:1010EC00001C111C0E1A1F0A18F40E0E1F1E01C034
:1010FC00A1609A9599F7FD01D001089512D0EBDF0C
:10110C000EF4A3DF0895E894B7FF04C0A095B09542
:10111C0011966894F7FD99DFDEDFFD010EF495DF83
:10112C000895E894F7FF02C090DF6894B7FF06C0FB
:10113C00A095B095119600F8039400FA0895ED91DE
:10114C00FC9111970895ED91FD916D917C91139700
:10115C000895ED93FD936D937C930895182E862F2F
:10116C00612D192E972F712D1B2EBF2FF12D1A2E9D
:10117C00AE2FE12D0895552342F4503811F4E0FFC1
:10118C0004C03196691F791F6BF050E8572711F492
:10119C005F93C8C05F3F31F0660F000C57956795A1
:1011AC00752F08955F9300200AF0C8C0C1C050E8A5
:1011BC00192E1522880F991F9527550F879550E8E2
:1011CC00072E0522660F771F7527550F6795089513
:1011DC00689401C0E8945F93F2DF703818F07F3F99
:1011EC0008F4A0C056E1571BAAF4519558300EF4E0
:1011FC00593030F0EFEFFFEF6FEF7FE777F91AC060
:10120C0077275523B9F0EE0FFF1F661F771F5A95EE
:10121C00D1F710C07727583028F0EF2FF62F672F13
:10122C005850F9CF552331F076956795F795E7959A
:10123C005A95D1F700200AF40CDF5F910895689459
:10124C0001C0E894309760407040B1F0002426F063
:10125C00772312F40094FDDE172E7EE1112032F07C
:10126C007A95EE0FFF1F661F111CF9CFEF2FF62F8B
:10127C00612D5F938ADF5F9108954F93AF01FD015C
:10128C00DA01AB01BC01CA01402D012C142E4F9187
:10129C000895EA0FFB1F681F0895E095F09560957F
:1012AC00EF5FFF4F6F4F08955F9381DF903849F1E7
:1012BC0050E81526703821F1572F591B13F112F4F1
:1012CC00DCDFFACF583118F0AA27BB278827583013
:1012DC0028F0AB2FB82F88275850F9CF552329F079
:1012EC008695B795A7955A95D9F7502D512562F04B
:1012FC00D0DF38F46795F795E795739513F41EC016
:10130C00BCDF43DF5F910895EA1BFB0B680B51F0C8
:10131C0010F40094C2DF6623A2F3EE0FFF1F661FCA
:10132C007A95CBF7EE27FF27662777275F910895ED
:10133C00EFEFFFEF6FE77FEF5F910895EFEFFFEFB8
:10134C006FE77FE75F9108955F9331DF703851F35A
:10135C00903841F301240894791F23F41CF30020E6
:10136C003AF3ECCF0F921F932F933F934F93112788
:10137C0022279927689FA0018F9F302D410D591F5F
:10138C006B9F300D411D591F8E9F27D0BF9F25D0BD
:10139C006A9F23D0BE9F1DD0AF9F1BD0AE9F110D57
:1013AC00291F391F491F591FE32FF42F652F522F67
:1013BC004F913F912F911F910F9066232AF0550F5B
:1013CC00EE1FFF1F661F02C073954BF2D4DE5F91B8
:1013DC000895100D211D391F02C0200D311D491F0C
:1013EC00591F089530976040704008953A932A939E
:1013FC001A930A9308953B812A81198108810895D3
:00000001FF
