:0E0000000C9455000C9400000C9400000C941D
:10000E0000000C9400000C9400000C9400000C9462
:10001E0000000C9400000C9400000C9400000C9452
:10002E000D010C9432010C9400000C94FF000C9402
:10003E0000000C9400000C9468010C948D000C943C
:10004E0000000C94D6000C9400000C9400000C944C
:10005E0000000C9400000C9400001027E8036400CC
:10006E000A0001000010000110000100010203044B
:10007E000507060008090A0B0C0D0E0F17161514AE
:10008E0013121110181F1E1D1C1B1A191D00200003
:10009E0000037A00010090079A000000F894EE2702
:1000AE00EFBBF1E0F5BFE5BFF8E1A895A4B7A77FD8
:1000BE00A4BFF0936000E09360008DE0A2E0BB2748
:1000CE00ED938A95E9F780E098E0A0E0B1E0ED933A
:1000DE000197E9F7ECE9F0E085919591009761F0D1
:1000EE00A591B59105901590BF01F00105900D9267
:1000FE000197E1F7FB01F0CFE0E0EEBBEFEFEDBFD4
:10010E00E8E0EEBFC0E0D3E00C946C010E94B905AC
:10011E001091C0000091C6000E94C205ECE1F0E013
:10012E00EA23FB233097E1F4E32DF42DE951FB4F45
:10013E000083E32DF42D31963E2E4F2EE030A1E0BC
:10014E00FA0711F433244424E72DF82D31967E2E30
:10015E008F2EE030A1E0FA0719F477248824F09A64
:10016E00A7C01A93072C0828E9F3A7EEB4E0A50D53
:10017E00B61D1C91E52DF62D31965E2E6F2EE030BC
:10018E00A1E0FA0711F455246624F894E72DF82D12
:10019E0031977E2E8F2E7894E12F0C9490040A9234
:1001AE00AA93BA93EA93FA93EFB7EA930D2C0E281B
:1001BE00B9F0ED2DFE2D3197DE2EEF2EA7EEB5E028
:1001CE00AB0DBC1DEC91E093C600EB2DFC2D3196D2
:1001DE00BE2ECF2EE030A1E0FA0711F4BB24CC24C2
:1001EE00E991EFBFF991E991B991A991099018950B
:1001FE00EA93EFB7EA93E091E604EF5FE093E6044B
:10020E00E0E0E6BDE991EFBFE9911895EA93FA9324
:10021E00EFB7EA931A930A9300E010E00E94C50527
:10022E000E94C9050E94C5050E94E4050E94C505ED
:10023E000E94FF050E94C5050E941A06F198E0E093
:10024E00E0938500E093840009911991E991EFBF45
:10025E00F991E99118950E94B90500E010E00E940D
:10026E0035060E94C9050E9435060E94E4050E94CB
:10027E0035060E94FF050E9435060E941A06E0917F
:10028E00A503EF5FE093A503E091A403A091A5035E
:10029E00EA1721F4F19AE0E0E093A5030E943906F3
:1002AE00EF2FF0E0E0938B000E943906E0938A0076
:1002BE0009911991E991EFBFF991E991B991A9913C
:1002CE0018951A931EB519911895E0E0E093EB0678
:1002DE00F298F398F198F49A3AD10E943A03E9B160
:1002EE00F0E0E871F0700E945507EA9395D1F49B07
:1002FE0056C00E944506F0E0E335A0E0FA0751F43F
:10030E000E944506E03019F00E94870302C00E9449
:10031E008A0345C0E332A0E0FA07A1F5EBB1F0E0A5
:10032E00A4E0B0E0EA27FB27EBB91BDFE093E80679
:10033E0018DFE093E90615DFE093EA06A091EB06DD
:10034E00B0E0A451B94FE091E806F0E0E050FD4F67
:10035E00E081EC93E091EB060E944A06EA0FFB1F48
:10036E000F01A091EA06BB27F091E906E0E0EA0F43
:10037E00FB1FD001ED93FC93E091EB06EF5FE09352
:10038E00EB060DC0E435A0E0FA0749F4EADEE0938F
:10039E00E706F498E03011F4F29A01C0F39AF29B5A
:1003AE0024C0E0E0E0938C07E091EB06A0918C076F
:1003BE00AE1788F40E945006EA930E9457060E94D8
:1003CE005A06FA93EA93E0918C07EA930E949204FC
:1003DE000E945F06E9CFF19BFECF0E949F03E0E0F3
:1003EE00E093EB06F49AF298F198F39BAEC0E0E03E
:1003FE00E0938C07E091EB06A0918C07AE17A0F569
:10040E000E9450060E9465060E946D060E945A06C2
:10041E00E015F10588F40E947206E45BF84FBF0107
:10042E000E9476060E946D060E945A060E947E0663
:10043E00E459F84FA0E014C00E947206E45BF84F36
:10044E00BF010E945706AE0FBF1F0D901C900E9459
:10045E0076060E945A060E947E06E459F84FA1E0E5
:10046E00A0830E945F06C6CFECE4F7E0FA93EA930E
:10047E00E091EB06EA930E948B05E0938F07E0E094
:10048E00E0938C07E0918F07A0918C07AE1710F0C8
:10049E000C94A702E0E0E0938D07E091EB06A091AB
:1004AE008D07AE1710F00C949B020E948806E45B39
:1004BE00F84FE081E13090F1A0918D07B0E0A45BA0
:1004CE00B84FEC91E150EC930E948806E451F94F3D
:1004DE00E0810E946506EA0FFB1FCF0160817181EA
:1004EE000E948806E459F84F0E948C06A4E6B0E0FC
:1004FE000E947807F297E60FF71FDC01ED93FC934D
:10050E00E0918E07EA930E9476060E945A06FA93AD
:10051E00EA93E0918D07EA930E949204E0918D0791
:10052E00EF5FE0938D07B9CFF19BFECF0E949F0343
:10053E00F198E5E0EA930E94AA050E945F06A2CF19
:10054E00E0E0E093EB06F49AF398D1CEFFCFE0E82B
:10055E00E0936100E0E0E0936100E5B9EEE3E4B919
:10056E00E0E0E8B9EFEFE7B9E8E1EBB9E4ECEAB9BE
:10057E00E0E0E4BDE5BDE6BDE0E9E7BDE0E0E8BDF5
:10058E00E0938000E0938100E0938200E093870087
:10059E00E0938600E0E9E0938900E0E0E0938800D4
:1005AE00EAE0E0938B00EDECE0938A00E0E0E0936C
:1005BE00B600E093B000E093B100E093B200E09398
:1005CE00B300E093B400E0936900EDBBE0936800E4
:1005DE00E2E0E0936E00E6E0E0936F00E0E0E0938F
:1005EE007000E093C000E8EDE093C100E6E0E09318
:1005FE00C200E0E0E093C500EFE5E093C400E0E860
:10060E00E0BFE0E0E0937B00E0E5ECBDE1E0EDBDB6
:10061E00EDB5EEB578940895E881F0E0309729F4C1
:10062E00E0E0E093C500E7E01AC0E130A0E0FA0791
:10063E0029F4E0E0E093C500E7E111C0E230A0E06C
:10064E00FA0729F4E0E0E093C500EFE508C0E330D7
:10065E00A0E0FA0731F4E1E0E093C500EFE7E093A4
:10066E00C4000C94B7051A930A930E948F06ACEC43
:10067E00BAE0AE1BBF0BA0932604B0932704EFEF96
:10068E00FFEF6FEF7FEFE093A603F093A703609366
:10069E00A8037093A903ECEDF5E0E0936604F093E4
:1006AE00670400E010E00032E0E01E0774F4F80189
:1006BE00A6EAB4E0EE0FFF1FAE0FBF1FECEDF5E0A4
:1006CE00ED93FC930F5F1F4FEECFE0E0E093A50399
:1006DE00E1E0E093A403E0E0E0932003E093620303
:1006EE00E0934103E0938303EFEFE0932103E09364
:1006FE006303E0934203E0938403099119910895F3
:10070E000E9493060895E0E0E0938100EEBDEDB502
:10071E00F0E00E9455070E9453073097C1F3299AC3
:10072E0029982A9A2A985E9A5E985F9A5F980895F9
:10073E001A93E0E0E0938100E0919107E093A40327
:10074E000E94C505E05EFC4F0E94A106EE59FC4FCB
:10075E000E94A106EF5BFC4F0E94A106ED57FC4FD5
:10076E000E94A106E05EFC4F0E948C06DF010E94F3
:10077E00A4060E94AD06E09320030E94C505EF5B20
:10078E00FC4F0E948C06FF93EF930E94B206E8E0A6
:10079E000E944207AF91BF910E94AD06E0934103C4
:1007AE000E94C505EE59FC4F0E948C06DF010E9487
:1007BE00A4060E945C070E94AD06E09362030E94AD
:1007CE00C505ED57FC4F0E948C06FF93EF930E94D8
:1007DE00B206E8E10E944207AF91BF910E94AD06BA
:1007EE00E0938303E0916604F09167040E94BB06D8
:1007FE000E94C0060E94C906A6E2B4E00E94E70766
:10080E00ED93FC9311E0E091A4031E1710F00C94ED
:10081E008E040E94CF06E05EFC4FFF93EF930E9482
:10082E00C2050E94D206E05EFC4F0E94D906D0019E
:10083E000E94AD06AF91BF91EC930E94CF06EF5B85
:10084E00FC4FFF93EF930E94C2050E94D206EF5B0E
:10085E00FC4F0E948C06FF93EF930E94E606E8E0A1
:10086E000E944207AF91BF910E94AD06AF91BF911A
:10087E00EC930E94CF06EE59FC4FFF93EF930E942C
:10088E00C2050E94D206EE59FC4F0E94D9060E9464
:10089E005C07D0010E94AD06AF91BF91EC930E9410
:1008AE00CF06ED57FC4FFF93EF930E94C2050E94B7
:1008BE00D206ED57FC4F0E948C06FF93EF930E94D9
:1008CE00E606E8E10E944207AF91BF910E94AD0695
:1008DE00AF91BF91EC93E12FA6E2B4E00E94F30634
:1008EE00EA0FFB1FFF93EF93E12F0E94F7060E9482
:1008FE005A060E94BB060E94C0060E94C906AF910E
:10090E00BF910E94E707ED93FC931F5F7CCF0E947F
:10091E009306199108950E94F508A091A403BB2790
:10092E00EC81F0E0EA0FE0939107EF81A6EAB4E0E4
:10093E000E94F3060E94FA0610E0E09191071E173E
:10094E0010F00C9401050E940107EA0FFB1FFF93A4
:10095E00EF93DF010E94A2077F936F93FF93EF93B4
:10096E000E940807AFEFBFEF8FEF9FEF0E942507A2
:10097E00AF91BF918F919F910E941B07AF91BF9135
:10098E000E94A8070E940107AE0FBF1F0E94A20778
:10099E000E94F10869F5012FE09191070E1710F5ED
:1009AE00E02F0E9413070F01A02FBB270E946107A3
:1009BE00A655BC4F0E94A207D0010E94A807E02FA7
:1009CE000E94F706EA0FFB1F0F01A02FBB27AA0FED
:1009DE00BB1FA859BB4F0E949E07D001ED93FC93FD
:1009EE000F5FDACFE0919107E150E093910701C0DC
:1009FE001F5FA3CF30E0E09191073E1710F00C94EB
:100A0E006B05E32F0E94F7060E945A06AD81BE8148
:100A1E00EA17FB07C9F4E32F0E941307FF93EF9326
:100A2E00DF010E94A2077F936F93FF93EF930E94C3
:100A3E000807AF91BF918F919F910E942007AF91B0
:100A4E00BF910E94A8075CC0E32F0E94F7060E9488
:100A5E005A06AD81BE81AE17BF07A0F51091910762
:100A6E00311748F5E12F0E94F706EA0FFB1FBF0171
:100A7E000E94C2050E94D206A6E6B4E0EE0FFF1F4A
:100A8E000E945A06DB01ED93FC930E940107EA0FC8
:100A9E00FB1FCF010E94C2050E94D206A6EAB3E058
:100AAE000E944E07AE0FBF1F0E94A207DC010E94DC
:100ABE00A8071150D5CFE32F0E94F7060E94FA0621
:100ACE00E32F0AC03F5F97CFE09191070E94F70690
:100ADE000E94FA06E0919107A6EAB3E0F0E00E94C8
:100AEE004E07EA0FFB1FFF93EF930E940807AF918B
:100AFE00BF910E94A807E0919107EF5FE0939107E5
:100B0E000E94FA08289608951A930A93AB81BC8125
:100B1E00EC910E2F10E0EA811E1780F4AB81BC81A0
:100B2E00EE27A10FBE1FEC910E1730F4AB81BC81E6
:100B3E00EE27A10FBE1F0C911F5FEDCFE02F198185
:100B4E00088125960895E0E0E093E604E5E0E5BD32
:100B5E00E881A091E604AE17D8F3E0E0E5BDE6BD6E
:100B6E0021960895AA93BA93EA93FA93EFB7EA936C
:100B7E001A930A930895A12FB0E00895E091A4036B
:100B8E00F0E00895E05EFC4FE081EEBD0F5F1F4F79
:100B9E000F5F1F4F0F5F1F4F0F5F1F4F0F5F1F4FD7
:100BAE000F5F1F4F0F5F1F4F0F5F1F4F0F5F1F4FC7
:100BBE000F5F1F4F299A29980895EF5BFC4FE08134
:100BCE00EEBD0F5F1F4F0F5F1F4F0F5F1F4F0F5F6A
:100BDE001F4F0F5F1F4F0F5F1F4F0F5F1F4F0F5F97
:100BEE001F4F0F5F1F4F0F5F1F4F2A9A2A980895AE
:100BFE00EE59FC4FE081EEBD0F5F1F4F0F5F1F4F91
:100C0E000F5F1F4F0F5F1F4F0F5F1F4F0F5F1F4F66
:100C1E000F5F1F4F0F5F1F4F0F5F1F4F0F5F1F4F56
:100C2E005E9A5E980895ED57FC4FE081EEBD0F5F22
:100C3E001F4F0F5F1F4F0F5F1F4F0F5F1F4F0F5F36
:100C4E001F4F0F5F1F4F0F5F1F4F0F5F1F4F0F5F26
:100C5E001F4F0F5F1F4F5F9A5F980895E091A50396
:100C6E00F0E00895E091A503A6E2B4E0F0E0EE0F07
:100C7E00FF1FAE0FBF1F0E949E0708950E94B8006F
:100C8E00E093E7060895ACE0B7E0F0E0EE0FFF1F4B
:100C9E000895E0918C07F0E0E451F94FE08108955A
:100CAE00E0918C07F0CFAE0FBF1F0E949E070895F4
:100CBE00E0918C07EF5FE0938C070895E0938E0729
:100CCE00A6EAB4E0F0E0EE0FFF1F0895AE0FBF1FCF
:100CDE000D901C90E5CFE0918C07F0E00895E09127
:100CEE008E07A6EAB4E0F0E0EE0FFF1F0895D001E4
:100CFE00AE1BBF0BE2E3F0E00E947D07DB01EC933D
:100D0E00EACFE0918D07F0E00895E081F0E00895DC
:100D1E00E0919007F0E00895E0912704E0938B00B6
:100D2E00E0912604F0912704E0938A00E2E0E0933C
:100D3E0081000895AFEFA08321CFE091A603F0913B
:100D4E00A7036091A8037091A90308950E946B07F1
:100D5E000E9425070895A091A603B091A703809144
:100D6E00A8039091A90308950E9466070E94200887
:100D7E000895AAEFBDEE8BEE9FE30E94A308DF015C
:100D8E00CB01C6CFF1DF0E94AD070E945308089534
:100D9E00E12FF0E00895E1E0F0E00E94B307EA1BD6
:100DAE00FB0B089500801124E12FA6EAB3E0F0E0DA
:100DBE000E944E07AE0FBF1F0E94A2070895E12F9B
:100DCE00A6EAB3E0F0E00E944E07AE0FBF1F0E94EE
:100DDE00A207DF01CB010895F0E0EE0FFF1F08958B
:100DEE00A6E6B4E0F9CFEA0FFB1FAD81BE81A0836A
:100DFE00B1830895E12FA6EAB3E0F0E00E944E071A
:100E0E000895EF81F0E00E946607A1E0B0E080E077
:100E1E0090E00E9436070895A6EAB3E0F0E00E9443
:100E2E004E07EA0FFB1F0895EA23FB23682379235D
:100E3E000895EA2BFB2B682B792B0895EA27FB27C5
:100E4E00682779270895F195E195F0400895F0957A
:100E5E0060957095E195FF4F6F4F7F4F0895EE238C
:100E6E000E2EFD01BC0131F0EE0FFF1F661F771F26
:100E7E000A94D1F70895EE230E2EFD01BC0131F038
:100E8E0076956795F795E7950A94D1F70895EE0F45
:100E9E00FF1FEE0FFF1F0895F595E795F595E79562
:100EAE00F595E795F595E7950895E62FF72F60E010
:100EBE0070E00895AA0FBB1FAA0FBB1F08956F2FD6
:100ECE00660F660B762F08958B2F880F880B982F41
:100EDE000895FA9FF02DEB9FF00DEA9FE02DF10D96
:100EEE00089517D0F6DF0EF4AEDF08950024112416
:100EFE0090E1AA0FBB1F001C111C0E1A1F0A18F43A
:100F0E000E0E1F1E01C0A1609A9599F7FD01D0012A
:100F1E000895E894F7FF02C096DF6894B7FF06C005
:100F2E00A095B095119600F8039400FA0895ED91EE
:100F3E00FC9111970895ED91FD916D917C91139710
:100F4E000895ED93FD936D937C930895182E862F3F
:100F5E00612D192E972F712D1B2EBF2FF12D1A2EAD
:100F6E00AE2FE12D0895552342F4503811F4E0FFD1
:100F7E0004C03196691F791F6BF050E8572711F4A2
:100F8E005F93C8C05F3F31F0660F000C57956795B1
:100F9E00752F08955F9300200AF0C8C0C1C050E8B5
:100FAE00192E1522880F991F9527550F879550E8F2
:100FBE00072E0522660F771F7527550F6795089523
:100FCE00689401C0E8945F93F2DF703818F07F3FA9
:100FDE0008F4A0C056E1571BAAF4519558300EF4F0
:100FEE00593030F0EFEFFFEF6FEF7FE777F91AC070
:100FFE0077275523B9F0EE0FFF1F661F771F5A95FF
:10100E00D1F710C07727583028F0EF2FF62F672F23
:10101E005850F9CF552331F076956795F795E795AA
:10102E005A95D1F700200AF412DF5F910895689463
:10103E0001C0E894309760407040B1F0002426F073
:10104E00772312F4009403DF172E7EE1112032F085
:10105E007A95EE0FFF1F661F111CF9CFEF2FF62F9B
:10106E00612D5F938ADF5F9108954F93AF01FD016C
:10107E00DA01AB01BC01CA01402D012C142E4F9197
:10108E000895EA0FFB1F681F0895E095F09560958F
:10109E00EF5FFF4F6F4F08955F9381DF903849F1F7
:1010AE0050E81526703821F1572F591B13F112F401
:1010BE00DCDFFACF583118F0AA27BB278827583023
:1010CE0028F0AB2FB82F88275850F9CF552329F089
:1010DE008695B795A7955A95D9F7502D512562F05B
:1010EE00D0DF38F46795F795E795739513F41EC026
:1010FE00BCDF43DF5F910895EA1BFB0B680B51F0D9
:10110E0010F40094C2DF6623A2F3EE0FFF1F661FDA
:10111E007A95CBF7EE27FF27662777275F910895FD
:10112E00EFEFFFEF6FE77FEF5F910895EFEFFFEFC8
:10113E006FE77FE75F9108955F9331DF703851F36A
:10114E00903841F301240894791F23F41CF30020F6
:10115E003AF3ECCF0F921F932F933F934F93112798
:10116E0022279927689FA0018F9F302D410D591F6F
:10117E006B9F300D411D591F8E9F27D0BF9F25D0CD
:10118E006A9F23D0BE9F1DD0AF9F1BD0AE9F110D67
:10119E00291F391F491F591FE32FF42F652F522F77
:1011AE004F913F912F911F910F9066232AF0550F6B
:1011BE00EE1FFF1F661F02C073954BF2D4DE5F91C8
:1011CE000895100D211D391F02C0200D311D491F1C
:1011DE00591F089530976040704008953A932A93AE
:1011EE001A930A9308953B812A81198108810895E3
:00000001FF
