:020000040800F2
:10000000A00600209D010008A5010008A701000826
:10001000A9010008AB010008AD01000800000000C4
:10002000000000000000000000000000AF01000818
:10003000B101000800000000B3010008B50100088C
:10004000B7010008B7010008B7010008B7010008B0
:10005000B7010008B7010008B7010008B7010008A0
:10006000B7010008B7010008B7010008B701000890
:10007000B7010008B7010008B7010008B701000880
:10008000B7010008B7010008B7010008B701000870
:10009000B7010008B7010008B7010008B701000860
:1000A000B7010008B7010008B7010008B701000850
:1000B000B7010008B7010008B7010008B701000840
:1000C000B7010008B7010008B7010008B701000830
:1000D000B70100081918000893170008B7010008B5
:1000E000B7010008B7010008B7010008B701000810
:1000F000B7010008B7010008B7010008B701000800
:10010000B7010008B7010008B7010008B7010008EF
:10011000B7010008B7010008B7010008B7010008DF
:10012000B7010008B7010008B7010008B7010008CF
:10013000B7010008B7010008B7010008B7010008BF
:10014000B7010008B7010008B7010008B7010008AF
:10015000B7010008B7010008B7010008B70100089F
:10016000B7010008B7010008B7010008B70100088F
:10017000B7010008B7010008B7010008B70100087F
:10018000B7010008B7010008DFF80CD003F0ACF9A4
:1001900000480047A50E0008A0060020064880473A
:1001A00006480047FEE7FEE7FEE7FEE7FEE7FEE75C
:1001B000FEE7FEE7FEE7FEE7AF150008890100084D
:1001C00033490143334A1160704770B50021002361
:1001D0000F22C47824B32F4C246804F4E064C4F5DF
:1001E000E064C4F30721C1F10404E3B20A41447896
:1001F0009C40E1B28478144021430C07210E264C28
:1002000005786155047804F01F050124AC40057899
:100210006D114FF0E02606EB8505C5F8004109E0B9
:10022000047804F01F040125A5401C4C06787611C3
:1002300044F8265070BD1A4A0A400243154B1B1F52
:100240001A60704739B1134A121D12680243114BEC
:100250001B1D1A6006E00F4A121D126882430D4BE7
:100260001B1D1A607047042808D14FF0E02109696E
:1002700041F004014FF0E022116107E04FF0E0216E
:10028000096921F004014FF0E0221161704700007C
:100290000000FA050CED00E000E400E080E100E081
:1002A00080FFFF1F10B504468C48844208D101210D
:1002B000084600F00EFD0021012000F00AFD5EE07E
:1002C0008748844208D10121022000F002FD00216C
:1002D000022000F0FEFC52E08248844208D1012155
:1002E000042000F0F6FC0021042000F0F2FC46E0BF
:1002F0007D48844208D10121082000F0EAFC002159
:10030000082000F0E6FC3AE07848844208D1012158
:10031000102000F0DEFC0021102000F0DAFC2EE0BE
:100320007348844208D10121202000F0D2FC002132
:10033000202000F0CEFC22E06E48844208D101214A
:10034000402000F0C6FC0021402000F0C2FC16E076
:100350006948844208D10121802000F0BAFC0021C4
:10036000802000F0B6FC0AE06448844207D10121F5
:10037000801500F0AEFC0021A01500F0AAFC10BD15
:10038000F0B50A4600210023002400BF3DE001250E
:1003900005FA01F3156805EA03049C4234D10568A7
:1003A0004F000326BE40B543056015794E00B540A9
:1003B0000668354305601579012D02D01579022DA7
:1003C00016D185684F000326BE40B5438560557938
:1003D0004E00B540866835438560456801268E40ED
:1003E000B5434560456896798E40B6B23543456061
:1003F000C5684F000326BE40B543C560D5794E00A1
:10040000B540C6683543C560491C1029BFD3F0BD4F
:100410004FF6FF7101600021017141718171C1715D
:10042000704708B54FF480320092009A0A43009258
:10043000009AC261C161009AC261C2690092C26938
:10044000009208BD0246002013690B4201D0012032
:1004500000E0002070470146086980B270470246FC
:10046000002053690B4201D0012000E000207047BA
:100470000146486980B270470183704741837047E5
:100480000AB1018300E041837047416170474269CE
:100490004A4042617047F0B5002300244D07ED0E3D
:1004A00002FA05F3CE1000F1200555F826504E074C
:1004B000F70E0F26BE40B543CF1000F1200646F8D8
:1004C0002750CE1000F1200555F8265045EA0304C8
:1004D000CE1000F1200545F82640F0BD0000024096
:1004E0000004024000080240000C024000100240DC
:1004F0000014024000180240001C0240002002408C
:1005000010B50446F748844208D10121102000F0BC
:1005100037FC0021102000F033FC3EE0F24884421A
:1005200009D10121480400F01AFC00214FF40030E9
:1005300000F015FC31E0ED48844209D10121880426
:1005400000F00DFC00214FF4802000F008FC24E0B6
:10055000E748844209D10121C80400F000FC0021D1
:100560004FF4002000F0FBFB17E0E248844209D181
:100570000121080500F0F3FB00214FF4801000F08A
:10058000EEFB0AE0DC48844207D10121202000F084
:10059000F7FB0021202000F0F3FB10BD2DE9FF4701
:1005A00005460E460024A14600BFA046B08900B112
:1005B00000BF2C8A24F44054F08804432C82AC8978
:1005C00041F20C608443B088318908437189084343
:1005D0000443AC81AC8A24F44074B0890443AC82F7
:1005E000684600F08CFABF48854202D0C248854276
:1005F00002D1DDF80C9001E0DDF80890A88910F434
:10060000004F08D009EBC90000EB09103168490020
:10061000B0FBF1F707E009EBC90000EB0910316806
:100620008900B0FBF1F76420B7FBF0F0040120096A
:10063000642101FB1078A88910F4004F08D0322003
:1006400000EBC800B0FBF1F000F00700044308E045
:10065000322000EB08106421B0FBF1F000F00F0035
:1006600004432C81BDE8FF874FF41651016000213F
:100670008180C18001810C214181002181817047ED
:1006800010B502460020108A20F470600B884C8858
:1006900023438C882343CC8823431843108210BD06
:1006A0000021018041808180C180704721B1828911
:1006B00042F40052828104E082894DF6FF731A40B1
:1006C00082817047028B02F47F420283028B0A43CD
:1006D0000283704721B1828942F40042828103E0A3
:1006E0008289C2F30E028281704721B1828A42F46C
:1006F0000062828204E0828A4FF2FF731A40828293
:100700007047C1F308028280704701468888C0F3B1
:1007100008007047028A4FF6F0731A400282028A7C
:100720000A430282704721B1828942F0020282812B
:1007300004E082894FF6FD731A40828170478289F6
:100740004FF2FF731A40828182890A438281704787
:10075000028A4FF6DF731A400282028A0A4302823B
:10076000704721B1028A42F48042028204E0028A88
:100770004BF6FF731A4002827047818941F00101F4
:100780008181704721B1828A42F00802828204E0AE
:10079000828A4FF6F7731A4082827047028BD2B278
:1007A0000283028B42EA01220283704721B1828ACE
:1007B00042F02002828204E0828A4FF6DF731A4000
:1007C0008282704721B1828A42F01002828204E064
:1007D000828A4FF6EF731A4082827047828A4FF600
:1007E000FB731A408282828A0A438282704721B157
:1007F000828A42F00202828204E0828A4FF6FD730E
:100800001A40828270471AB1838A0B43838202E0C6
:10081000838A8B4383827047F0B503460024002609
:1008200000250020A1F510676A3F00D100BF1846DF
:10083000C1F3421401F01F06012707FA06F5012C47
:1008400001D10C3004E0022C01D1103000E0143052
:100850001AB107682F43076002E00768AF430760DB
:10086000F0BD02460020B1F5007F00D100BF138823
:100870000B4201D0012000E00020704701F400721B
:10088000B2F5007F00D100BFCA430280704770B547
:1008900002460024002300250020A1F510666A3ED0
:1008A00000D100BFC1F3421501F01F03012606FA73
:1008B00003F3012D02D19689334006E0022D02D1C7
:1008C000168A334001E0968A33400C12012606FA5C
:1008D00004F41688344013B10CB1012000E000206C
:1008E00070BD00000010014000440040004800407E
:1008F000004C0040005000400014014010B50022A0
:100900000023A1F510646A3C00D100BF0A12012443
:100910009440A3B2DC43048010BD0000FA48006894
:1009200040F00100F84908600020F74908310860EC
:10093000F5480068F5490840F3490860F448091D86
:100940000860081F006820F48020091F086000204C
:10095000ED490C31086070470021EB4A921C117080
:1009600011460870704710B5014600220023002090
:100970004A11012A02D1E44C236808E0022A03D17B
:10098000E14C7034236802E0DF4C7434236801F0DA
:100990001F02012494401C4201D0012000E00020ED
:1009A00010BD38B5002000900024002500BF312084
:1009B000FFF7D9FF05460098401C00900098B0F55D
:1009C000A06F01D0002DF2D03120FFF7CCFF08B18D
:1009D000012400E00024204638BD01460020CA4A18
:1009E000106820F0F80040EAC10010607047C94963
:1009F000086070470021C44A7032117011700128DC
:100A000002D004280AD104E00121BF4A70321170DB
:100A100005E00521BC4A7032117000E000BF00BF44
:100A20007047BD490860704770B5049C41EA821563
:100A30000126C6EB530645EA0645054345EA04652B
:100A4000B14E361D356070BDB249086670478201EF
:100A500042EA0172AC4B84331A607047AD49886634
:100A60007047AC49C864704702460020A64B083363
:100A7000186820F0EC6042EA01031843A24B0833E7
:100A800018607047024600209F4B0833186820F01A
:100A9000784042EA010318439B4B083318607047C3
:100AA00001460020984A0832106820F003000843ED
:100AB0001060704794480830006800F00C007047E0
:100AC00001460020904A0832106820F0F0000843E8
:100AD00010607047014600208B4A0832106820F4ED
:100AE000E05008431060704701460020864A0832F3
:100AF000106820F4604040EAC10010607047F0B513
:100B00000021002200240225002602237E4F083700
:100B10003F6807F00C0121B1042905D0082937D11D
:100B200005E07E4F076036E07D4F076033E0764F8B
:100B30003F1D3F68C7F38056734F3F1D3F6807F066
:100B40003F036EB1764FB7FBF3F7DFF8BCC10CF192
:100B5000040CDCF800C0CCF3881C07FB0CF40CE0A0
:100B60006E4FB7FBF3F7DFF8A0C10CF1040CDCF813
:100B700000C0CCF3881C07FB0CF4634F3F1D3F689B
:100B8000C7F301477F1C7D00B4FBF5F7076002E067
:100B9000624F076000BF00BF5B4F08373F6807F038
:100BA000F00109095F4F7A5C0768D7404760564FEC
:100BB00008373F6807F4E051890A5A4F7A5C476862
:100BC000D7408760504F08373F6807F46041490BB2
:100BD000544F7A5C4768D740C760F0BD002100F4ED
:100BE0004072B2F5407F0AD1474A0832116821F4B9
:100BF000F8114D4A02401143434A08321160424AFB
:100C000070321268C0F30B031A433F4B70331A6003
:100C1000704741494439086070473F49403908608E
:100C2000704742490860704739B1374A303212681C
:100C30000243354B30331A6006E0334A30321268D3
:100C40008243314B30331A60704739B12E4A343207
:100C5000126802432C4B34331A6006E02A4A3432BD
:100C600012688243284B34331A60704739B1264AE0
:100C7000383212680243244B38331A6006E0224AA5
:100C8000383212688243204B38331A60704739B1CA
:100C90001D4A4032126802431B4B40331A6006E083
:100CA000194A403212688243174B40331A6070472A
:100CB00039B1154A443212680243134B44331A6067
:100CC00006E0114A4432126882430F4B44331A60E3
:100CD000704739B10C4A1032126802430A4B103384
:100CE0001A6006E0084A103212688243064B10333D
:100CF0001A607047E1B1044A143212680243024B91
:100D000014331A6019E0000000380240FFFFF6FEBD
:100D10001030002400004742800E47420024F400B7
:100D200000127A0000000020FFFCFF0F5C01474228
:100D30005B4A126882435A4B1A60704739B1584A6D
:100D4000121D12680243564B1B1D1A6006E0544ADE
:100D5000121D12688243524B1B1D1A60704739B135
:100D60004F4A0C32126802434D4B0C331A6006E0B6
:100D70004B4A0C3212688243494B0C331A6070475D
:100D800039B1474A103212680243454B10331A609A
:100D900006E0434A103212688243414B10331A6016
:100DA000704739B13E4A3C32126802433C4B3C33F7
:100DB0001A6006E03A4A3C3212688243384B3C33B0
:100DC0001A60704739B1364A403212680243344BD8
:100DD00040331A6006E0324A403212688243304B98
:100DE00040331A60704739B12D4A443212680243C9
:100DF0002B4B44331A6006E0294A4432126882437E
:100E0000274B44331A60704739B1254A4C32126877
:100E10000243234B4C331A6006E0214A4C321268DD
:100E200082431F4B4C331A60704739B11C4A503211
:100E3000126802431A4B50331A6006E0184A5032C7
:100E400012688243164B50331A60704739B1144A06
:100E5000D21F12780243124BDB1F1A7006E0104AB1
:100E6000D21F127882430E4BDB1F1A7070470C485A
:100E70006030006840F08070094960310860704758
:100E800001460020064A083A12680A4201D00120B1
:100E900000E0002070470249891F08707047000079
:100EA0001438024008B500F056FD0020FE490880C5
:100EB000FE490870FE4908700120FE4908700020B4
:100EC000FD490870FD490870FD490870FD4908702A
:100ED000FD490870FD490870FD490870FD4908701A
:100EE000FD490870FD490870FD490870FD4908700A
:100EF000FD490870FD490870FD490870FD490870FA
:100F0000FD490870FD490870FD490870FD490870E9
:100F1000FD490870FD490870FD490870FD490870D9
:100F2000FD490870FD490870FD490870FD490870C9
:100F300092E2DE480078002871D0DB480088402823
:100F40007FD01EDC36285AD012DC322847D008DC8D
:100F5000012834D0022836D0032838D0312831D1A6
:100F600039E033283FD0342841D03528F7D142E04A
:100F70003738072826D2DFE800F0464A4E54585C3E
:100F80006000482871D009DCA0F141000728F1D2A7
:100F9000DFE800F05B5F63676C707400522871D00B
:100FA00006DC492877D0502879D05128D7D17AE06B
:100FB00053286AD0A12869D0DD28D0D17FE0012054
:100FC000BF49087086E00120D749087082E00120FF
:100FD000D64908707EE00120B74908707AE0012008
:100FE000B649087076E00120B649087072E0012029
:100FF000B54908706EE00120B44908706AE001202C
:10100000B349087066E00120B649087062E001202B
:10101000B54908705EE00120B44908705AE05DE00F
:101020000FE00120AB49087054E00120AA49087084
:1010300050E00120A94908704CE00120A84908703F
:1010400048E00120AA49087044E00120AB4908703B
:1010500040E00120A84908703CE00120A549087043
:1010600038E00120A649087034E010E00120A549CD
:1010700008702FE00120A44908702BE00120A3494B
:10108000087027E013E006E009E014E01FE001200B
:101090009F4908701EE001209E4908701AE0012057
:1010A0009D49087016E001209C49087012E001205B
:1010B0009B4908700EE001209A4908700AE002F08E
:1010C0005DF80446A1B29A48FFF71BFB02E002F06C
:1010D000C8F900BF00BF0020744908707848007844
:1010E00080B100F090FC00F0BEFC00F042FE9148A0
:1010F00002F065F85E228F498F4800F0B3FB0020B4
:101100006F4908708848007880B1012069490870EB
:1011100049208DF8000001208DF801000222694667
:10112000854800F09FFB00207F4908707F480078C9
:1011300080B102205F49087049208DF8000002202C
:101140008DF80100022269467B4800F08BFB0020ED
:10115000764908705F48007868B1002054490870EB
:101160003C21782001F021FB2E217148FFF7C9FABC
:101170000020584908705848007868B100204C4950
:1011800008703C21782001F0D0FB2E216848FFF741
:10119000B8FA0020504908705048007868B1002023
:1011A000434908703C21782001F087FC2E216048DB
:1011B000FFF7A7FA0020494908704948007868B14C
:1011C00000203B4908703C21782001F036FD2E219B
:1011D0005748FFF796FA00204149087036480078D2
:1011E00038B100F0CCFE012054490870002032498B
:1011F00008703248007890B100F0CFFE00F003FC98
:1012000000F031FC00F0B5FD4A4801F0D8FF5E2245
:101210004849494800F026FB002028490870294821
:10122000007858B13C227821022000F08CFF2E215A
:101230003F48FFF766FA00202249087022480078EC
:1012400058B13C227821022001F05AF82E2138486A
:10125000FFF757FA00201C4908701C48007858B165
:1012600028227821012001F010F92E213048FFF7C3
:1012700048FA0020154908701548007858B128220E
:101280007821012001F0CCF92E212948FFF739FA05
:1012900000200F4908701348007818B1282001F089
:1012A00017FE4DE04FE00000120000201800002063
:1012B00019000020380100201D0000201E00002021
:1012C0001A0000201F000020200000202100002024
:1012D0002200002023000020240000202500002000
:1012E00026000020270000202800002029000020E0
:1012F0002A0000202D0000202C0000202B000020C0
:101300002E0000202F00002030000020310000209F
:10131000320000203300002034000020350000207F
:1013200036000020370000201B0000201C00002099
:10133000001001403C01002000440040100000204B
:101340000020524908705248007828B1282001F046
:10135000EDFD00204E4908704E48007828B1282045
:1013600001F02BFD00204B4908704B48007828B154
:10137000282001F060FD00204749087047480078A8
:1013800028B1282001F076FD002044490870444827
:10139000007828B1282001F054FD00204049087051
:1013A0004048007820B101F07DFD00203D490870E3
:1013B0003D48007810B100203B4908703B48007858
:1013C00028B1642001F035FE002038490870384803
:1013D000007828B1642001F03CFE002034490870F8
:1013E0003448007828B1642001F063FE00203149C0
:1013F00008703148007828B1642001F06AFE0020AE
:101400002D4908702D48007828B1642001F041FE74
:1014100000202A4908702A48007828B1642001F089
:1014200028FE0020264908702648007828B114209C
:1014300001F08BFE0020234908702348007828B172
:10144000142001F095FE00201F4908701F48007805
:1014500010B100201D4908706BE51CB5012108463C
:10146000FFF7E2FB4FF40040009001208DF80400EC
:1014700000208DF8060001208DF8070002208DF86D
:10148000050069461248FEF77BFF1CBD27000020BF
:1014900028000020290000202A0000202B00002026
:1014A0002C0000202D0000202E0000202F00002006
:1014B00030000020310000203200002033000020E6
:1014C00034000020350000203600002037000020C6
:1014D000000002400CB500200190009072480068A6
:1014E00040F480307049086000BF6F48006800F425
:1014F000003000900198401C0190009818B90198A4
:10150000B0F5A06FF1D16848006810F4003F02D038
:101510000120009001E0002000900098012845D1B2
:1015200061484030006840F080505F4940310860B9
:101530005E48006840F480405C4908605A480830C2
:1015400000685949083108600846006840F40040C6
:1015500008600846006840F4A05008605448091F1D
:101560000860081F006840F08070091F086000BF15
:101570004D48006810F0007FFAD040F205604D49F8
:10158000086049480830006820F0030046490831E7
:1015900008600846006840F00200086000BF42484A
:1015A0000830006800F00C000828F8D10CBD10B518
:1015B0003D48006840F001003B49086000203A497E
:1015C00008310860384800683B49084036490860DF
:1015D0003A48091D0860081F006820F48020091F90
:1015E0000860002030490C310860FFF773FF4FF0AE
:1015F00000603349086010BD70B50020002202234E
:1016000000240221284D08352D6805F00C0020B17A
:10161000042806D0082834D107E02A4D2A4E356028
:1016200033E02A4D284E35602FE01F4D2D1D2D68CB
:10163000C5F380541C4D2D1D2D6805F03F0154B19C
:10164000224DB5FBF1F5184E361D3668C6F38816E7
:1016500005FB06F209E01B4DB5FBF1F5124E361DF8
:101660003668C6F3881605FB06F20F4D2D1D2D6852
:10167000C5F301456D1C6B00B2FBF3F5124E3560EE
:1016800003E0104D104E356000BF00BF064D083519
:101690002D68C5F303150E4E705D0B4D2D68C540CA
:1016A000094E356070BD00000038024000700040F7
:1016B00008544007003C0240FFFFF6FE10300024B3
:1016C00008ED00E00024F4003800002000127A0049
:1016D0003C00002010B588B0044601214804FFF703
:1016E000D6FA01210846FFF79FFA0C200690022047
:1016F0008DF81C008DF81D0000208DF81E008DF85F
:101700001F0006A93E48FEF73BFE072202213C4887
:10171000FEF7C1FE072203213948FEF7BCFE07226F
:1017200002213748FEF7B7FE4FF416500290002012
:10173000ADF80C00ADF80E00ADF81000ADF81400D7
:101740000C20ADF8120002A92E48FEF727FF012158
:101750002C48FEF7ABFF4FF4A060FEF731FD2620CA
:101760008DF8040000208DF805008DF8060001209A
:101770008DF8070001A8FEF728FD012240F225514F
:101780002048FFF749F801211E48FEF78FFF08B0F7
:1017900010BD10B540F225511A48FFF778F888B10E
:1017A0001848FEF7B2FFC4B21748184909784454E4
:1017B00016480078401C1549087015480068401C00
:1017C0001349086010BD00BF114909680029FBD00A
:1017D0000D49104A1278885C0E490978491C0D4A57
:1017E00011700B490968491E094A116070470020B1
:1017F00007490860074908700449087070470000ED
:1018000000000240004400409A01002051000020E6
:101810004C0000205000002010B5C0B0594800888E
:1018200010F0200F1CD05748FEF76FFF04464FF40E
:101830008071684601F045FE5348028853A168460E
:1018400001F092FEAA2C03D101205149087005E055
:101850005048048001205049087000BF00BF00BFFD
:1018600040B010BD2DE9F04107460D461646002454
:1018700000BF0EE000BF80213846FEF7F2FF0028CF
:10188000F9D0295D3846FEF73CFF822C00DD02E0EE
:10189000641CB442EEDB00BF00BF40213846FEF7B7
:1018A000E0FF0028F9D0BDE8F08110B586B004460D
:1018B00001211020FFF7FCF901210220FFF7B4F904
:1018C000C020049002208DF814008DF8150000202F
:1018D0008DF816008DF8170004A93048FEF750FD6A
:1018E000072206212D48FEF7D6FD072211462B4878
:1018F000FEF7D1FD00940020ADF80400ADF806001D
:10190000ADF80800ADF80C000C20ADF80A006946EF
:101910001C48FEF743FE012240F225511948FEF70C
:101920007BFF01211748FEF7C1FE06B010BD08B5C8
:101930004FF4A060FEF744FC25208DF80000002045
:101940008DF801008DF8020001208DF80300684633
:10195000FEF73BFC08BD10B5FFF7E9FF4FF416504A
:10196000FFF7A3FF4FF41650FFF7B4FE10BD01B50B
:1019700049F64042009901FB02F000E0401E0028B9
:10198000FCD108BD00100140580000202563000074
:10199000190000201200002018000020000402405E
:1019A00010B510B1012818D10BE0FE4A1268FE4BA9
:1019B00053F82220521AFB4B1B68FB4C44F823209F
:1019C0000BE0F84A5268F84B53F822200A44F54BD2
:1019D0005B68F54C44F8232000BF00BF10BDF149FF
:1019E0000968F14A52F82110C1F5FA604FF4FA6122
:1019F000EC4A1268EC4B43F822104910E94A52684D
:101A000043F82210704740F2DC50E6490968E64A84
:101A100042F82100E349496842F821007047E34950
:101A20000968E14A52F821100144E04A1268DE4B8D
:101A300043F822107047DD494968DB4A52F821100B
:101A40000144DA4A5268D84B43F822107047D7490C
:101A50008968D54A52F821100144D44A9268D24B81
:101A600043F82210704740F2A460D0490968CE4A7A
:101A700042F8210040F2DC50CC49496842F821008C
:101A8000CA49896842F82100704710B506284CD22F
:101A9000DFE800F0030F1B27333FC54A5268C24BF3
:101AA00053F822200A44C24B5B68BF4C44F8232001
:101AB0003BE0C04A5268BC4B53F822200A44BD4B5D
:101AC0005B68B94C44F823202FE0BB4A5268B64B00
:101AD00053F822200A44B84B5B68B34C44F82320E7
:101AE00023E0B64A5268B04B53F82220521AB34B47
:101AF0005B68AD4C44F8232017E0B14A5268AA4B0A
:101B000053F82220521AAE4B5B68A74C44F82320AE
:101B10000BE0AC4A5268A44B53F82220521AA94B4E
:101B20005B68A14C44F8232000BF00BF10BD30B556
:101B300005460C4661422846FFF7A7FF30BD062840
:101B400046D2DFE800F0030E19242F3A984949687D
:101B5000954A52F82110964A9268934B43F8221006
:101B600036E094494968904A52F82110914A9268A7
:101B70008D4B43F822102BE08F4949688A4A52F86E
:101B800021108D4A9268884B43F8221020E08B493F
:101B90004968854A52F82110884A9268824B43F876
:101BA000221015E0864949687F4A52F82110844A7C
:101BB00092687D4B43F822100AE0824949687A4ACC
:101BC00052F821107F4A9268774B43F8221000BFE9
:101BD00000BF704710B506284CD2DFE800F0030FB5
:101BE0001B27333F724A12686F4B53F822200A4476
:101BF0006F4B1B686C4C44F823203BE06D4A126825
:101C0000694B53F822200A446A4B1B68664C44F81F
:101C100023202FE0684A1268634B53F822200A44BD
:101C2000654B1B68604C44F8232023E0634A12682C
:101C30005D4B53F82220521A604B1B685A4C44F8F3
:101C4000232017E05E4A1268574B53F82220521A9D
:101C50005B4B1B68544C44F823200BE0594A126834
:101C6000514B53F82220521A564B1B684E4C44F8E5
:101C7000232000BF00BF10BD30B505460C466142B1
:101C80002846FFF7A7FF30BD062870D2DFE800F036
:101C9000031527394B5D40F2DC51454A1268424B2F
:101CA00043F822104FF4E161414A526843F8221090
:101CB0003F4A926843F8221059E040F2DC513D4A15
:101CC0001268394B43F822104FF4E161394A5268E7
:101CD00043F82210374A926843F8221047E040F256
:101CE000DC51354A1268304B43F822104FF4E16161
:101CF000314A526843F822102F4A926843F8221062
:101D000035E040F2DC512D4A1268274B43F822108F
:101D10004FF49661294A526843F82210274A926884
:101D200043F8221023E040F2DC51254A12681E4B92
:101D300043F822104FF49661214A526843F822106A
:101D40001F4A926843F8221011E040F2DC511D4A0C
:101D50001268154B43F822104FF49661194A5268E5
:101D600043F82210174A926843F8221000BF00BFC0
:101D7000704740F2DC500E4909680B4A42F82100D6
:101D80004FF4E1600A49496842F82100084989682E
:101D900042F8210040F2DC500649096842F821006F
:101DA00012E00000300100205C000020240100202F
:101DB000DC000020E8000020F400002000010020EA
:101DC0000C010020180100204FF4E160FE49496831
:101DD00042F82100FC49896842F8210040F2DC50B9
:101DE000FA49096842F821004FF4E160F74949686F
:101DF00042F82100F549896842F8210040F2DC50A0
:101E0000F349096842F821004FF49660F0494968A7
:101E100042F82100EE49896842F8210040F2DC5086
:101E2000EC49096842F821004FF49660E949496895
:101E300042F82100E749896842F8210040F2DC506D
:101E4000E549096842F821004FF49660E249496883
:101E500042F82100E049896842F82100704710B536
:101E6000044621460320FFF710FE21460120FFF71C
:101E70000CFE21460520FFF708FE0320FFF75FFE5A
:101E80000120FFF75CFE0520FFF759FE10BD10B5DD
:101E900004466042FFF7E3FF10BD10B5044621463B
:101EA0000320FFF797FE21460120FFF793FE21460E
:101EB0000520FFF78FFE10BD10B504466042FFF706
:101EC000ECFF10BD10B5044621460320FFF7D4FEF9
:101ED00021460120FFF77EFE21460520FFF7CCFEBC
:101EE00010BD10B504466042FFF7ECFF10BD10B501
:101EF000044621460020FFF7C8FD21460420FFF7D5
:101F0000C4FD21460220FFF7C0FD0020FFF717FEA9
:101F10000420FFF714FE0220FFF711FE10BD10B5DC
:101F200004466042FFF7E3FF10BD10B504462146AA
:101F30000020FFF74FFE21460420FFF74BFE21460D
:101F40000220FFF747FE10BD10B504466042FFF7C0
:101F5000ECFF10BD10B5044621460020FFF73AFE05
:101F600021460420FFF788FE21460220FFF732FEBB
:101F700010BD10B504466042FFF7ECFF10BD38B548
:101F800096A000680090684601F0A6FA0446224632
:101F900069469348FFF766FC38BD08B591A0006814
:101FA0000090022269468E48FFF75CFC08BD10B520
:101FB0000146002018E08C4B53F82020232301F821
:101FC000203083005B1CCA54884B33F82230C3F3A3
:101FD000072483009B1CCC54844B13F822408300BD
:101FE000DB1CCC54431CD8B20328E4DB1DE00323E4
:101FF00090FBF3F403FB1403734C54F823202323C6
:1020000001F8203083005B1CCA54784B33F822302F
:10201000C3F3072483009B1CCC54744B13F8224059
:102020008300DB1CCC54431CD8B20628DFDB1DE048
:10203000032390FBF3F403FB1403644C54F82320B4
:10204000232301F8203083005B1CCA54674B33F80C
:102050002230C3F3072483009B1CCC54634B13F83A
:1020600022408300DB1CCC54431CD8B20928DFDBA0
:102070001DE0032390FBF3F403FB1403544C54F8CA
:102080002320232301F8203083005B1CCA54574BC4
:1020900033F82230C3F3072483009B1CCC54534BEA
:1020A00013F822408300DB1CCC54431CD8B20C280C
:1020B000DFDB1DE0032390FBF3F403FB1403454C2B
:1020C00054F82320232301F8203083005B1CCA54DA
:1020D000464B33F82230C3F3072483009B1CCC54B7
:1020E000424B13F822408300DB1CCC54431CD8B273
:1020F0000F28DFDB1DE0032390FBF3F403FB140345
:10210000354C54F82320232301F8203083005B1C36
:10211000CA54364B33F82230C3F3072483009B1C88
:10212000CC54324B13F822408300DB1CCC54431CAC
:10213000D8B21228DFDB542301F8203001248300B9
:102140005B1CCC5410BD2DE9F04393B005460C4602
:10215000164600BF142094FBF0F808EB88004000FE
:102160002349097800FB01F94846FFF700FC2046A7
:10217000FFF78DFE2046FFF7BAFE6846FFF717FF10
:102180004A2269461648FFF76DFB0027A1E0484642
:10219000FFF7EDFB3046FFF78FFE3046FFF7C5FE39
:1021A0002046FFF7BCFE6846FFF701FF4A2269465A
:1021B0000B48FFF757FB4846FFF7D9FB2046FFF7D0
:1021C000AEFE684616E00000E8000020F4000020A3
:1021D000000100200C010020180100205301000024
:1021E0000044004053020000DC0000205C0000209E
:1021F00038010020FFF7DBFE4A226946FE48FFF760
:1022000031FB4846FFF7B3FB2046FFF728FE684640
:10221000FFF7CDFE4A226946F748FFF723FB484601
:10222000FFF7A5FB2046FFF71AFE3046FFF735FE05
:102230003046FFF789FE6846FFF7B9FE4A22694635
:10224000ED48FFF70FFB4846FFF791FB2046FFF7ED
:102250001EFE3046FFF721FE3046FFF775FE68464A
:10226000FFF7A5FE4A226946E348FFF7FBFA484616
:10227000FFF77DFB2046FFF70AFE6846FFF797FE53
:102280004A226946DC48FFF7EDFA4846FFF76FFB44
:102290002046FFF72CFE6846FFF789FE4A22694672
:1022A000D548FFF7DFFA4846FFF761FB3046FFF7F6
:1022B00003FE3046FFF739FE2046FFF718FE68465A
:1022C000FFF775FE4A226946CB48FFF7CBFA781C28
:1022D000C7B2AF42FFF65BAF4846FFF748FB204668
:1022E000FFF7BDFD2046FFF71AFE6846FFF75FFEC9
:1022F0004A226946C048FFF7B5FA13B0BDE8F0833B
:102300002DE9F04393B005460C46164600BF142055
:1023100094FBF0F808EB88004000B849097800FB0E
:1023200001F94846FFF723FB2046FFF7B0FD2046A2
:10233000FFF7DDFD6846FFF73AFE4A226946AE48E0
:10234000FFF790FA002789E04846FFF710FB304678
:10235000FFF7A3FD3046FFF7F7FD2046FFF7DFFD4F
:102360006846FFF724FE4A226946A348FFF77AFA37
:102370004846FFF7FCFA2046FFF7D1FD6846FFF715
:1023800016FE4A2269469C48FFF76CFA4846FFF75A
:10239000EEFA2046FFF763FD6846FFF708FE4A2283
:1023A00069469548FFF75EFA4846FFF7E0FA20468F
:1023B000FFF755FD3046FFF77FFD3046FFF7B5FDCF
:1023C0006846FFF7F4FD4A2269468B48FFF74AFA50
:1023D0004846FFF7CCFA2046FFF759FD3046FFF795
:1023E0006BFD3046FFF7A1FD6846FFF7E0FD4A228E
:1023F00069468148FFF736FA4846FFF7B8FA2046A3
:10240000FFF745FD6846FFF7D2FD4A2269467A4844
:10241000FFF728FA4846FFF7AAFA2046FFF767FDBC
:102420006846FFF7C4FD4A2269467348FFF71AFA67
:102430004846FFF79CFA3046FFF72FFD3046FFF77E
:1024400083FD2046FFF753FD6846FFF7B0FD4A22A3
:1024500069466948FFF706FA781CC7B2AF42FFF633
:1024600073AF4846FFF783FA2046FFF7F8FC204693
:10247000FFF755FD6846FFF79AFD4A2269465E4818
:10248000FFF7F0F913B0BDE8F0832DE9F04393B006
:1024900005460C46164600BF142094FBF0F808EBE6
:1024A000880040005549097800FB01F94846FFF7CC
:1024B0005EFA2046FFF7EBFC2046FFF718FD684662
:1024C000FFF775FD4A2269464B48FFF7CBF9002715
:1024D00089E04846FFF74BFA3046FFF702FD3046E9
:1024E000FFF738FD2046FFF71AFD6846FFF75FFD4E
:1024F0004A2269464048FFF7B5F94846FFF737FAE0
:102500002046FFF70CFD6846FFF751FD4A22694659
:102510003948FFF7A7F94846FFF729FA2046FFF7A1
:102520009EFC6846FFF743FD4A2269463248FFF7A2
:1025300099F94846FFF71BFA2046FFF790FC304612
:10254000FFF7C0FC3046FFF714FD6846FFF72FFD8C
:102550004A2269462848FFF785F94846FFF707FAF7
:102560002046FFF794FC3046FFF7ACFC3046FFF7FF
:1025700000FD6846FFF71BFD4A2269461E48FFF72B
:1025800071F94846FFF7F3F92046FFF780FC6846EB
:10259000FFF70DFD4A2269461748FFF763F94846E1
:1025A000FFF7E5F92046FFF7A2FC6846FFF7FFFCBE
:1025B0004A2269461048FFF755F94846FFF7D7F910
:1025C0003046FFF78EFC3046FFF7C4FC2046FFF78D
:1025D0008EFC6846FFF7EBFC4A2269460648FFF787
:1025E00041F9781CC7B2AF42FFF673AF4846FFF718
:1025F000BEF9204604E000000044004038010020FD
:10260000FFF72DFC2046FFF78AFC6846FFF7CFFC5A
:102610004A226946FE48FFF725F913B0BDE8F0836A
:102620002DE9F04393B005460C46164600BF142032
:1026300094FBF0F808EB88004000F649097800FBAD
:1026400001F94846FFF793F92046FFF720FC2046A2
:10265000FFF74DFC6846FFF7AAFC4A226946EC48A2
:10266000FFF700F9002789E04846FFF780F9304678
:10267000FFF728FC3046FFF77CFC2046FFF74FFCB5
:102680006846FFF794FC4A226946E148FFF7EAF8FA
:102690004846FFF76CF92046FFF741FC6846FFF714
:1026A00086FC4A226946DA48FFF7DCF84846FFF71D
:1026B0005EF92046FFF7D3FB6846FFF778FC4A2215
:1026C0006946D348FFF7CEF84846FFF750F9204651
:1026D000FFF7C5FB3046FFF704FC3046FFF73AFC36
:1026E0006846FFF764FC4A226946C948FFF7BAF812
:1026F0004846FFF73CF92046FFF7C9FB3046FFF795
:10270000F0FB3046FFF726FC6846FFF750FC4A22F4
:102710006946BF48FFF7A6F84846FFF728F9204664
:10272000FFF7B5FB6846FFF742FC4A226946B84806
:10273000FFF798F84846FFF71AF92046FFF7D7FB4E
:102740006846FFF734FC4A226946B148FFF78AF829
:102750004846FFF70CF93046FFF7B4FB3046FFF769
:1027600008FC2046FFF7C3FB6846FFF720FC4A221F
:102770006946A748FFF776F8781CC7B2AF42FFF664
:1027800073AF4846FFF7F3F82046FFF768FB204693
:10279000FFF7C5FB6846FFF70AFC4A2269469C48DA
:1027A000FFF760F813B0BDE8F083F0B593B00446CE
:1027B0000D46142094FBF0F606EB86004000954988
:1027C000097800FB01F73846FFF7D1F82046FFF7FC
:1027D0005EFB2046FFF78BFB6846FFF7E8FB4A22CB
:1027E00069468B48FFF73EF887E03846FFF7BFF8A9
:1027F0002846FFF761FB2846FFF797FB2046FFF7C7
:102800008EFB6846FFF7D3FB4A2269468048FFF7F4
:1028100029F83846FFF7ABF82046FFF780FB6846FB
:10282000FFF7C5FB4A2269467948FFF71BF838468F
:10283000FFF79DF82046FFF712FB6846FFF7B7FB4E
:102840004A2269467248FFF70DF83846FFF78FF8BD
:102850002046FFF704FB2846FFF71FFB2846FFF73B
:1028600073FB6846FFF7A3FB4A2269466848FEF7F8
:10287000F9FF3846FFF77BF82046FFF708FB2846AC
:10288000FFF70BFB2846FFF75FFB6846FFF78FFB60
:102890004A2269465E48FEF7E5FF3846FFF767F8CB
:1028A0002046FFF7F4FA6846FFF781FB4A226946A3
:1028B0005748FEF7D7FF3846FFF759F82046FFF78D
:1028C00016FB6846FFF773FB4A2269465048FEF73D
:1028D000C9FF3846FFF74BF82846FFF7EDFA2846C0
:1028E000FFF723FB2046FFF702FB6846FFF75FFB7D
:1028F0004A2269464648FEF7B5FF47480078002857
:102900003FF473AF3846FFF732F82046FFF7A7FAD7
:102910002046FFF704FB6846FFF749FB4A22694659
:102920003B48FEF79FFF13B0F0BDF0B593B00446EF
:102930000D46142094FBF0F606EB86004000354966
:10294000097800FB01F73846FFF711F82046FFF73A
:102950009EFA2046FFF7CBFA6846FFF728FB4A228B
:1029600069462B48FEF77EFF8FE03846FEF7FFFFF3
:102970002846FFF792FA2846FFF7E6FA2046FFF7C7
:10298000CEFA6846FFF713FB4A2269462048FEF755
:1029900069FF3846FEF7EBFF2046FFF7C0FA6846AE
:1029A000FFF705FB4A2269461948FEF75BFF3846E8
:1029B000FEF7DDFF2046FFF752FA6846FFF7F7FA09
:1029C0004A2269461248FEF74DFF3846FEF7CFFF10
:1029D0002046FFF744FA2846FFF76EFA2846FFF72D
:1029E000A4FA6846FFF7E3FA4A2269460848FEF768
:1029F00039FF3846FEF7BBFF2046FFF748FA284666
:102A0000FFF75AFA2846FFF790FA684606E00000FA
:102A1000004400403801002019000020FFF7C7FAE9
:102A20004A226946FE48FEF71DFF3846FEF79FFF23
:102A30002046FFF72CFA6846FFF7B9FA4A226946A2
:102A4000F748FEF70FFF3846FEF791FF2046FFF7E5
:102A50004EFA6846FFF7ABFA4A226946F048FEF79D
:102A600001FF3846FEF783FF2846FFF716FA28468F
:102A7000FFF76AFA2046FFF73AFA6846FFF797FA37
:102A80004A226946E648FEF7EDFEE648007800284F
:102A90003FF46BAF3846FEF76AFF2046FFF7DFF9D9
:102AA0002046FFF73CFA6846FFF781FA4A2269465A
:102AB000DB48FEF7D7FE13B0F0BDF0B593B0044687
:102AC0000D46142094FBF0F606EB86004000D64934
:102AD000097800FB01F73846FEF749FF2046FFF76B
:102AE000D6F92046FFF703FA6846FFF760FA4A2254
:102AF0006946CB48FEF7B6FE87E03846FEF737FF5B
:102B00002846FFF7EEF92846FFF724FA2046FFF79C
:102B100006FA6846FFF74BFA4A226946C048FEF7B4
:102B2000A1FE3846FEF723FF2046FFF7F8F9684676
:102B3000FFF73DFA4A226946B948FEF793FE384648
:102B4000FEF715FF2046FFF78AF96846FFF72FFAD0
:102B50004A226946B248FEF785FE3846FEF707FF6F
:102B60002046FFF77CF92846FFF7ACF92846FFF727
:102B700000FA6846FFF71BFA4A226946A848FEF7A2
:102B800071FE3846FEF7F3FE2046FFF780F928462F
:102B9000FFF798F92846FFF7ECF96846FFF707FAC0
:102BA0004A2269469E48FEF75DFE3846FEF7DFFE84
:102BB0002046FFF76CF96846FFF7F9F94A226946A3
:102BC0009748FEF74FFE3846FEF7D1FE2046FFF746
:102BD0008EF96846FFF7EBF94A2269469048FEF7FE
:102BE00041FE3846FEF7C3FE2846FFF77AF928462D
:102BF000FFF7B0F92046FFF77AF96846FFF7D7F9F3
:102C00004A2269468648FEF72DFE8648007800284D
:102C10003FF473AF3846FEF7AAFE2046FFF71FF9D0
:102C20002046FFF77CF96846FFF7C1F94A2269465A
:102C30007B48FEF717FE13B0F0BDF0B593B0044625
:102C40000D46142094FBF0F606EB86004000764912
:102C5000097800FB01F73846FEF789FE2046FFF7AA
:102C600016F92046FFF743F96846FFF7A0F94A2214
:102C700069466B48FEF7F6FD87E03846FEF777FEBB
:102C80002846FFF71FF92846FFF773F92046FFF79C
:102C900046F96846FFF78BF94A2269466048FEF715
:102CA000E1FD3846FEF763FE2046FFF738F9684637
:102CB000FFF77DF94A2269465948FEF7D3FD3846A9
:102CC000FEF755FE2046FFF7CAF86846FFF76FF992
:102CD0004A2269465248FEF7C5FD3846FEF747FED0
:102CE0002046FFF7BCF82846FFF7FBF82846FFF719
:102CF00031F96846FFF75BF94A2269464848FEF712
:102D0000B1FD3846FEF733FE2046FFF7C0F82846EF
:102D1000FFF7E7F82846FFF71DF96846FFF747F980
:102D20004A2269463E48FEF79DFD3846FEF71FFEE3
:102D30002046FFF7ACF86846FFF739F94A226946A2
:102D40003748FEF78FFD3846FEF711FE2046FFF7A5
:102D5000CEF86846FFF72BF94A2269463048FEF75D
:102D600081FD3846FEF703FE2846FFF7ABF82846FC
:102D7000FFF7FFF82046FFF7BAF86846FFF717F9A4
:102D80004A2269462648FEF76DFD2648007800284D
:102D90003FF473AF3846FEF7EAFD2046FFF75FF8D1
:102DA0002046FFF7BCF86846FFF701F94A2269465A
:102DB0001B48FEF757FD13B0F0BD10B594B00446A4
:102DC00021460320FEF7B3FE21460420FEF7AFFEA6
:102DD00021460520FEF7ABFE21460020FEF755FEFA
:102DE00021460120FEF751FE21460220FEF74DFE4E
:102DF0000320FEF7A4FE0420FEF7A1FE0520FEF747
:102E00009EFE0020FEF79BFE0120FEF798FE0220AA
:102E1000FEF795FE01A8FFF7CAF84A2201A905E0CE
:102E2000004400401900002038010020FE48FEF751
:102E300019FD14B010BD10B504466042FFF7BDFF88
:102E400010BD10B594B00446F848406940F634010E
:102E500088420DD22046FFF702F82046FFF747F8D8
:102E600001A8FFF7A4F84A2201A9EF48FEF7FAFCEF
:102E700014B010BD10B594B00446EC484069B0F5EC
:102E80007A7F0DD92046FFF702F82046FFF747F872
:102E900001A8FFF78CF84A2201A9E348FEF7E2FCFB
:102EA00014B010BD10B594B0002405E040F2DC5021
:102EB000DE4941F82400641C202CF7DB01A8FFF751
:102EC00076F84A2201A9D848FEF7CCFC14B010BD10
:102ED00010B594B00446D5484068B0F5617F23D959
:102EE00021460220FEF7D1FD21460520FEF7CDFD4B
:102EF00061420020FEF7C9FD61420320FEF7C5FDD7
:102F00000220FEF71CFE0520FEF719FE0020FEF74A
:102F100016FE0320FEF713FE01A8FFF748F84A2229
:102F200001A9C148FEF79EFC14B010BD10B594B0C5
:102F30000446BE484068B0F5FA6F23D261420220D1
:102F4000FEF7A3FD61420520FEF79FFD214600200C
:102F5000FEF79BFD21460320FEF797FD0220FEF7BA
:102F6000EEFD0520FEF7EBFD0020FEF7E8FD032057
:102F7000FEF7E5FD01A8FFF71AF84A2201A9AA48C1
:102F8000FEF770FC14B010BD23220270A84A12781C
:102F90004270A74A1168A54A32F82120120A8270AD
:102FA000A24A12F82120C27023220271A04A12798B
:102FB00042719F4A51689D4A32F82120120A82715B
:102FC0009A4A12F82120C27123220272994A127879
:102FD0004272984A1168954A32F82120120A827288
:102FE000924A12F82120C27223220273914A127966
:102FF0004273904A51688D4A32F82120120A827336
:103000008A4A12F82120C27323220274894A127A52
:103010004274884A9168854A32F82120120A8274E3
:10302000824A12F82120C27454220275012242758C
:10303000704710B586B004462046FEF7F0FC68469F
:10304000FFF7A2FF162269467748FEF70BFC06B091
:1030500010BD10B586B004466042FEF7E0FC68463D
:10306000FFF792FF162269466F48FEF7FBFB06B09A
:1030700010BD10B586B004462046FEF7E8FC684651
:10308000FFF782FF162269466748FEF7EBFB06B0A2
:1030900010BD10B586B004466042FEF7D8FC684605
:1030A000FFF772FF162269465F48FEF7DBFB06B0AA
:1030B00010BD10B586B004462046FEF7BCFC68463D
:1030C000FFF762FF162269465748FEF7CBFB06B0B2
:1030D00010BD10B586B004466042FEF7ACFC6846F1
:1030E000FFF752FF162269464F48FEF7BBFB06B0BA
:1030F00010BD232202704E4A127842704C4A126868
:103100004A4B53F822100A0A8270C17023220271BE
:10311000474A12794271464A526853F822100A0A05
:103120008271C171542202720122427270473EB50F
:10313000FEF755FC04466846FFF7DBFF0A226946A6
:103140003948FEF78FFB20463EBD3EB5044621467A
:103150000020FEF725FC21460120FEF721FC6846F1
:10316000FFF7C7FF0A2269462F48FEF77BFB3EBDEB
:1031700010B504466042FFF7E8FF10BD2DE9F041AD
:10318000002500240026002700BF12E0FEF72FFBD9
:1031900044212548FDF7B5FAFEF715FB0646FEF774
:1031A00012FB074607EB06203A21B0FBF1F004447E
:1031B0006D1C082DEADBE4082046BDE8F08130B53F
:1031C0000146002018E01C4B53F82020232301F86F
:1031D000203083005B1CCA54144B33F82230C3F3F5
:1031E000072483009B1CCC54104B13F8224083000F
:1031F000DB1CCC54431CD8B20328E4DB2AE00323B5
:1032000090FBF3F403FB14030C4C54F8232023230A
:1032100001F8203083005B1CCA54044B33F8223081
:10322000C3F3072483000BE0004400405C0000204F
:103230003001002024010020DC000020E8000020F4
:103240009B1CCC54944B13F822408300DB1CCC54C1
:10325000431CD8B20628D2DB1DE0032390FBF3F415
:1032600003FB14038D4C54F82320232301F8203052
:1032700083005B1CCA54884B33F82230C3F3072405
:1032800083009B1CCC54844B13F822408300DB1C2E
:10329000CC54431CD8B20928DFDB1DE0032390FB8C
:1032A000F3F403FB14037E4C54F82320232301F88A
:1032B000203083005B1CCA54774B33F82230C3F3B1
:1032C000072483009B1CCC54734B13F822408300CB
:1032D000DB1CCC54431CD8B20C28DFDB1DE00323DD
:1032E00090FBF3F403FB14036E4C54F823202323C8
:1032F00001F8203083005B1CCA54674B33F822303E
:10330000C3F3072483009B1CCC54634B13F8224067
:103310008300DB1CCC54431CD8B20F28DFDB1DE03C
:10332000032390FBF3F403FB14035F4C54F82320B6
:10333000232301F8203083005B1CCA54564B33F81A
:103340002230C3F3072483009B1CCC54524B13F848
:1033500022408300DB1CCC54431CD8B21228DFDB94
:103360001DE0032390FBF3F403FB14034F4C54F8CC
:103370002320232301F8203083005B1CCA54464BD2
:1033800033F82230C3F3072483009B1CCC54424BF8
:1033900013F822408300DB1CCC54431CD8B2142801
:1033A000DFDB1FE00346C41700EB9474A410A0EB0E
:1033B00084043F4D55F82420232301F82030830056
:1033C0005B1CCA54344B33F82230C3F30724830008
:1033D0009B1CCC54304B13F822408300DB1CCC5494
:1033E000431CD8B21728DDDB542301F82030012418
:1033F00083005B1CCC5430BD232202702C4A12780F
:1034000042702B4A1168244A32F82120120A827035
:10341000214A12F82120C27023220271244A127913
:103420004271234A51681C4A32F82120120A8271E3
:10343000194A12F82120C271232202721C4A127A00
:1034400042721B4A9168144A32F82120120A827291
:10345000114A12F82120C2725422027301224273CF
:10346000704770B50024FFF789FE86B2FFF75FFE54
:10347000054608E03C2278210120FEF764FEFFF7B4
:103480007DFE86B2641C042E01DD0F2CF2DB284683
:10349000FFF75BFE70BD00005C000020F400002020
:1034A000000100200C010020180100203001002044
:1034B00024010020D2B201E000F8012B491EFBD20A
:1034C00070470022F6E710B513460A46044619462F
:1034D000FFF7F0FF204610BD421C10F8011B002929
:1034E000FBD1801A70470000064C074D06E0E068EB
:1034F00040F0010394E8070098471034AC42F6D33B
:10350000FCF746FE88360008A836000870B501EBC7
:10351000020410F8015B15F0070301D110F8013B1C
:103520002A1106D110F8012B03E010F8016B01F805
:10353000016B5B1EF9D12B0705D40023521E0FD45B
:1035400001F8013BFAE710F8013B02F10202A1EB9E
:10355000030303E013F8015B01F8015B521EF9D588
:10356000A142D6D3002070BD0FB4084B10B504A9FA
:1035700002AA039800F01BF8044602A9002000F0FC
:103580007EF8204610BC5DF814FB00007F36000872
:1035900002E008C8121F08C1002AFAD1704770471C
:1035A000002001E001C1121F002AFBD170472DE964
:1035B000F84F9946924688460546002759E0252847
:1035C00001D0514623E0002315F8011F18462E298B
:1035D00015D115F8011F04232A290DD06FF02F02F1
:1035E0002978A1F13004092C09D800EB800002EB06
:1035F000400008446D1CF3E758F8040B6D1C2A7852
:1036000072B3632A08D0732A10D0514610464A4636
:10361000904707F101072BE018F8042B8DF80020E4
:1036200000218DF801106E46012103E058F8046B6B
:103630004FF0FF315A074FF0000401D409E0641C39
:1036400084420BDA8C42FADB325D002AF7D105E0C6
:10365000641C8C42FCDB305D0028F9D1274405E076
:103660000AE016F8010B51464A469047641EF8D20C
:103670006D1C28780028A2D13846BDE8F88F0A686A
:10368000531C0B6010707047A83600080000002023
:103690003C0100000C350008F03600083C01002019
:1036A00064050000A0350008412D01020304040553
:1036B0002906070809847A030A09163C0B7CDC05F5
:1036C00004399C313202320429133206320829AD02
:1036D00029C1321032113212321432153216321818
:1036E0003219321A320D320E320F320372130000C9
:040000050800018965
:00000001FF
